{
  "_format": "hh-sol-artifact-1",
  "contractName": "AlienListrack",
  "sourceName": "contracts/AlienListrack.sol",
  "abi": [
    {
      "inputs": [
        {
          "internalType": "uint256",
          "name": "_alienLegConfirmation",
          "type": "uint256"
        },
        {
          "internalType": "uint256",
          "name": "_alienLegRefund",
          "type": "uint256"
        }
      ],
      "stateMutability": "payable",
      "type": "constructor"
    },
    {
      "inputs": [],
      "name": "ReentrancyGuardReentrantCall",
      "type": "error"
    },
    {
      "anonymous": false,
      "inputs": [
        {
          "indexed": true,
          "internalType": "bytes32",
          "name": "_drexTxId",
          "type": "bytes32"
        },
        {
          "indexed": false,
          "internalType": "uint256",
          "name": "_alienBlock",
          "type": "uint256"
        },
        {
          "indexed": false,
          "internalType": "uint256",
          "name": "_alienMerkleTxIndex",
          "type": "uint256"
        }
      ],
      "name": "AlienLocked",
      "type": "event"
    },
    {
      "anonymous": false,
      "inputs": [
        {
          "indexed": true,
          "internalType": "bytes32",
          "name": "_drexTxId",
          "type": "bytes32"
        },
        {
          "indexed": true,
          "internalType": "address",
          "name": "_aliceAddress",
          "type": "address"
        }
      ],
      "name": "AlienRefunded",
      "type": "event"
    },
    {
      "anonymous": false,
      "inputs": [
        {
          "indexed": true,
          "internalType": "bytes32",
          "name": "_drexTxId",
          "type": "bytes32"
        },
        {
          "indexed": false,
          "internalType": "uint256",
          "name": "_alienBlock",
          "type": "uint256"
        },
        {
          "indexed": false,
          "internalType": "uint256",
          "name": "_alienMerkleTxIndex",
          "type": "uint256"
        }
      ],
      "name": "AlienSettled",
      "type": "event"
    },
    {
      "inputs": [
        {
          "internalType": "bytes32",
          "name": "_txId",
          "type": "bytes32"
        }
      ],
      "name": "aliceGetRefund",
      "outputs": [],
      "stateMutability": "payable",
      "type": "function"
    },
    {
      "inputs": [],
      "name": "alienLegRefund",
      "outputs": [
        {
          "internalType": "uint256",
          "name": "",
          "type": "uint256"
        }
      ],
      "stateMutability": "view",
      "type": "function"
    },
    {
      "inputs": [
        {
          "internalType": "uint256",
          "name": "",
          "type": "uint256"
        },
        {
          "internalType": "uint256",
          "name": "",
          "type": "uint256"
        }
      ],
      "name": "chainConfirmedTx",
      "outputs": [
        {
          "internalType": "bytes32",
          "name": "",
          "type": "bytes32"
        }
      ],
      "stateMutability": "view",
      "type": "function"
    },
    {
      "inputs": [
        {
          "internalType": "uint256",
          "name": "_slotNumber",
          "type": "uint256"
        },
        {
          "internalType": "bool",
          "name": "isProof",
          "type": "bool"
        },
        {
          "internalType": "uint256",
          "name": "_proofIndex",
          "type": "uint256"
        }
      ],
      "name": "createMerkleTree",
      "outputs": [
        {
          "internalType": "bytes32[]",
          "name": "",
          "type": "bytes32[]"
        }
      ],
      "stateMutability": "view",
      "type": "function"
    },
    {
      "inputs": [],
      "name": "drexConfirmationIndex",
      "outputs": [
        {
          "internalType": "uint256",
          "name": "",
          "type": "uint256"
        }
      ],
      "stateMutability": "view",
      "type": "function"
    },
    {
      "inputs": [],
      "name": "getLatestSlot",
      "outputs": [
        {
          "internalType": "uint256",
          "name": "",
          "type": "uint256"
        }
      ],
      "stateMutability": "view",
      "type": "function"
    },
    {
      "inputs": [
        {
          "internalType": "bytes32",
          "name": "_txId",
          "type": "bytes32"
        }
      ],
      "name": "getTradeFeatures",
      "outputs": [
        {
          "components": [
            {
              "internalType": "uint256",
              "name": "slotNumber",
              "type": "uint256"
            },
            {
              "internalType": "uint256",
              "name": "txIndex",
              "type": "uint256"
            },
            {
              "internalType": "bool",
              "name": "isSettled",
              "type": "bool"
            },
            {
              "internalType": "address",
              "name": "aliceAddress",
              "type": "address"
            },
            {
              "internalType": "address",
              "name": "mikeAddress",
              "type": "address"
            },
            {
              "internalType": "uint256",
              "name": "alienAmount",
              "type": "uint256"
            },
            {
              "internalType": "bytes32",
              "name": "hashedSecret",
              "type": "bytes32"
            },
            {
              "internalType": "uint256",
              "name": "timeStampInserted",
              "type": "uint256"
            },
            {
              "internalType": "bool",
              "name": "isRefunded",
              "type": "bool"
            }
          ],
          "internalType": "struct AlienListrack.TxStatus",
          "name": "",
          "type": "tuple"
        }
      ],
      "stateMutability": "view",
      "type": "function"
    },
    {
      "inputs": [
        {
          "internalType": "bytes32",
          "name": "_txId",
          "type": "bytes32"
        },
        {
          "internalType": "bytes32",
          "name": "_secretRevealed",
          "type": "bytes32"
        }
      ],
      "name": "mikeSettleTrade",
      "outputs": [],
      "stateMutability": "payable",
      "type": "function"
    },
    {
      "inputs": [],
      "name": "slotProduction",
      "outputs": [
        {
          "internalType": "uint256",
          "name": "currentSlot",
          "type": "uint256"
        },
        {
          "internalType": "uint256",
          "name": "lastTimeStamp",
          "type": "uint256"
        }
      ],
      "stateMutability": "view",
      "type": "function"
    },
    {
      "inputs": [],
      "name": "timeSlotConfirmation",
      "outputs": [
        {
          "internalType": "uint256",
          "name": "",
          "type": "uint256"
        }
      ],
      "stateMutability": "view",
      "type": "function"
    },
    {
      "inputs": [
        {
          "internalType": "bytes32",
          "name": "",
          "type": "bytes32"
        }
      ],
      "name": "transactions",
      "outputs": [
        {
          "internalType": "uint256",
          "name": "slotNumber",
          "type": "uint256"
        },
        {
          "internalType": "uint256",
          "name": "txIndex",
          "type": "uint256"
        },
        {
          "internalType": "bool",
          "name": "isSettled",
          "type": "bool"
        },
        {
          "internalType": "address",
          "name": "aliceAddress",
          "type": "address"
        },
        {
          "internalType": "address",
          "name": "mikeAddress",
          "type": "address"
        },
        {
          "internalType": "uint256",
          "name": "alienAmount",
          "type": "uint256"
        },
        {
          "internalType": "bytes32",
          "name": "hashedSecret",
          "type": "bytes32"
        },
        {
          "internalType": "uint256",
          "name": "timeStampInserted",
          "type": "uint256"
        },
        {
          "internalType": "bool",
          "name": "isRefunded",
          "type": "bool"
        }
      ],
      "stateMutability": "view",
      "type": "function"
    },
    {
      "inputs": [
        {
          "internalType": "bytes32",
          "name": "_drexHashFields",
          "type": "bytes32"
        },
        {
          "internalType": "address",
          "name": "_aliceAlienAddress",
          "type": "address"
        },
        {
          "internalType": "address",
          "name": "_mikeAlienAddress",
          "type": "address"
        },
        {
          "internalType": "address",
          "name": "_alientokencontract",
          "type": "address"
        },
        {
          "internalType": "uint256",
          "name": "_alienAmount",
          "type": "uint256"
        },
        {
          "internalType": "bytes32",
          "name": "_hashedSecret",
          "type": "bytes32"
        },
        {
          "internalType": "bytes32",
          "name": "_drexPreviousId",
          "type": "bytes32"
        },
        {
          "internalType": "uint256",
          "name": "_drexTxIndex",
          "type": "uint256"
        },
        {
          "internalType": "bytes32",
          "name": "_drexTxId",
          "type": "bytes32"
        }
      ],
      "name": "writeAlienLeg",
      "outputs": [],
      "stateMutability": "payable",
      "type": "function"
    }
  ],
  "bytecode": "0x60806040526040516200387e3803806200387e8339818101604052810190620000299190620001dc565b600160008190555081600481905550806005819055506000600760000181905550426007600101819055506200008460405180606001604052806026815260200162003858602691396007600001546200008c60201b60201c565b505062000331565b6200012e8282604051602401620000a5929190620002ce565b6040516020818303038152906040527fb60e72cc000000000000000000000000000000000000000000000000000000007bffffffffffffffffffffffffffffffffffffffffffffffffffffffff19166020820180517bffffffffffffffffffffffffffffffffffffffffffffffffffffffff83818316178352505050506200013260201b60201c565b5050565b6200015881620001536200015b60201b62001dfb176200017c60201b60201c565b60201c565b50565b60006a636f6e736f6c652e6c6f679050600080835160208501845afa505050565b6200019060201b6200211f17819050919050565b6200019a62000302565b565b600080fd5b6000819050919050565b620001b681620001a1565b8114620001c257600080fd5b50565b600081519050620001d681620001ab565b92915050565b60008060408385031215620001f657620001f56200019c565b5b60006200020685828601620001c5565b92505060206200021985828601620001c5565b9150509250929050565b600081519050919050565b600082825260208201905092915050565b60005b838110156200025f57808201518184015260208101905062000242565b60008484015250505050565b6000601f19601f8301169050919050565b6000620002898262000223565b6200029581856200022e565b9350620002a78185602086016200023f565b620002b2816200026b565b840191505092915050565b620002c881620001a1565b82525050565b60006040820190508181036000830152620002ea81856200027c565b9050620002fb6020830184620002bd565b9392505050565b7f4e487b7100000000000000000000000000000000000000000000000000000000600052605160045260246000fd5b61351780620003416000396000f3fe6080604052600436106100a75760003560e01c8063a0ccddf911610064578063a0ccddf9146101bf578063af00e20e146101ea578063dc97b8df14610227578063f41adab114610252578063fb8db4b41461027d578063ff202270146102a9576100a7565b806307583998146100ac57806307bada68146100e957806315b8fd3014610105578063642f2eaf146101425780636e6c783214610187578063757cd229146101a3575b600080fd5b3480156100b857600080fd5b506100d360048036038101906100ce91906121e3565b6102d4565b6040516100e0919061234b565b60405180910390f35b61010360048036038101906100fe9190612367565b610416565b005b34801561011157600080fd5b5061012c600480360381019061012791906123d3565b610836565b6040516101399190612422565b60405180910390f35b34801561014e57600080fd5b50610169600480360381019061016491906121e3565b610867565b60405161017e9998979695949392919061246a565b60405180910390f35b6101a1600480360381019061019c91906121e3565b61090f565b005b6101bd60048036038101906101b89190612523565b610d5e565b005b3480156101cb57600080fd5b506101d46118c9565b6040516101e191906125ed565b60405180910390f35b3480156101f657600080fd5b50610211600480360381019061020c9190612634565b6118cf565b60405161021e9190612736565b60405180910390f35b34801561023357600080fd5b5061023c611dd0565b60405161024991906125ed565b60405180910390f35b34801561025e57600080fd5b50610267611dd6565b60405161027491906125ed565b60405180910390f35b34801561028957600080fd5b50610292611de3565b6040516102a0929190612758565b60405180910390f35b3480156102b557600080fd5b506102be611df5565b6040516102cb91906125ed565b60405180910390f35b6102dc612129565b600360008381526020019081526020016000206040518061012001604052908160008201548152602001600182015481526020016002820160009054906101000a900460ff161515151581526020016002820160019054906101000a900473ffffffffffffffffffffffffffffffffffffffff1673ffffffffffffffffffffffffffffffffffffffff1673ffffffffffffffffffffffffffffffffffffffff1681526020016003820160009054906101000a900473ffffffffffffffffffffffffffffffffffffffff1673ffffffffffffffffffffffffffffffffffffffff1673ffffffffffffffffffffffffffffffffffffffff1681526020016004820154815260200160058201548152602001600682015481526020016007820160009054906101000a900460ff1615151515815250509050919050565b61041e611e1c565b600080801b60036000858152602001908152602001600020600501540361047a576040517f08c379a0000000000000000000000000000000000000000000000000000000008152600401610471906127de565b60405180910390fd5b6003600084815260200190815260200160002060020160009054906101000a900460ff16156104de576040517f08c379a00000000000000000000000000000000000000000000000000000000081526004016104d59061284a565b60405180910390fd5b600360008481526020019081526020016000206005015482604051602001610506919061288b565b604051602081830303815290604052805190602001201461055c576040517f08c379a000000000000000000000000000000000000000000000000000000000815260040161055390612918565b60405180910390fd5b600073ffffffffffffffffffffffffffffffffffffffff16600160009054906101000a900473ffffffffffffffffffffffffffffffffffffffff1673ffffffffffffffffffffffffffffffffffffffff160361066f576003600084815260200190815260200160002060030160009054906101000a900473ffffffffffffffffffffffffffffffffffffffff1673ffffffffffffffffffffffffffffffffffffffff16600360008581526020019081526020016000206004015460405161062290612969565b60006040518083038185875af1925050503d806000811461065f576040519150601f19603f3d011682016040523d82523d6000602084013e610664565b606091505b50508091505061075e565b600160009054906101000a900473ffffffffffffffffffffffffffffffffffffffff1673ffffffffffffffffffffffffffffffffffffffff1663a9059cbb6003600086815260200190815260200160002060030160009054906101000a900473ffffffffffffffffffffffffffffffffffffffff1660036000878152602001908152602001600020600401546040518363ffffffff1660e01b81526004016107189291906129dd565b6020604051808303816000875af1158015610737573d6000803e3d6000fd5b505050506040513d601f19601f8201168201806040525081019061075b9190612a1b565b90505b80156108295760016003600085815260200190815260200160002060020160006101000a81548160ff02191690831515021790555060016003600085815260200190815260200160002060070160006101000a81548160ff021916908315150217905550827ff047f0b3a5bfd853a7da93daff5dfdd8e51d40151a725899863560a292e4ffb160036000868152602001908152602001600020600001546003600087815260200190815260200160002060010154604051610820929190612758565b60405180910390a25b50610832611e62565b5050565b6002602052816000526040600020818154811061085257600080fd5b90600052602060002001600091509150505481565b60036020528060005260406000206000915090508060000154908060010154908060020160009054906101000a900460ff16908060020160019054906101000a900473ffffffffffffffffffffffffffffffffffffffff16908060030160009054906101000a900473ffffffffffffffffffffffffffffffffffffffff16908060040154908060050154908060060154908060070160009054906101000a900460ff16905089565b610917611e1c565b600080801b600360008481526020019081526020016000206005015403610973576040517f08c379a000000000000000000000000000000000000000000000000000000000815260040161096a90612aba565b60405180910390fd5b6003600083815260200190815260200160002060070160009054906101000a900460ff16156109d7576040517f08c379a00000000000000000000000000000000000000000000000000000000081526004016109ce90612b26565b60405180910390fd5b6003600083815260200190815260200160002060020160009054906101000a900460ff1615610a3b576040517f08c379a0000000000000000000000000000000000000000000000000000000008152600401610a329061284a565b60405180910390fd5b6005546003600084815260200190815260200160002060060154610a5f9190612b75565b4211610aa0576040517f08c379a0000000000000000000000000000000000000000000000000000000008152600401610a9790612c41565b60405180910390fd5b600073ffffffffffffffffffffffffffffffffffffffff16600160009054906101000a900473ffffffffffffffffffffffffffffffffffffffff1673ffffffffffffffffffffffffffffffffffffffff1603610bb3576003600083815260200190815260200160002060020160019054906101000a900473ffffffffffffffffffffffffffffffffffffffff1673ffffffffffffffffffffffffffffffffffffffff166003600084815260200190815260200160002060040154604051610b6690612969565b60006040518083038185875af1925050503d8060008114610ba3576040519150601f19603f3d011682016040523d82523d6000602084013e610ba8565b606091505b505080915050610ca2565b600160009054906101000a900473ffffffffffffffffffffffffffffffffffffffff1673ffffffffffffffffffffffffffffffffffffffff1663a9059cbb6003600085815260200190815260200160002060020160019054906101000a900473ffffffffffffffffffffffffffffffffffffffff1660036000868152602001908152602001600020600401546040518363ffffffff1660e01b8152600401610c5c9291906129dd565b6020604051808303816000875af1158015610c7b573d6000803e3d6000fd5b505050506040513d601f19601f82011682018060405250810190610c9f9190612a1b565b90505b8015610d525760016003600084815260200190815260200160002060070160006101000a81548160ff0219169083151502179055506003600083815260200190815260200160002060020160019054906101000a900473ffffffffffffffffffffffffffffffffffffffff1673ffffffffffffffffffffffffffffffffffffffff16827f71180e6b6f96cff692061f8afdd0fdfa0244ea4455c35876b25cbed647b0937760405160405180910390a35b50610d5b611e62565b50565b610d66611e1c565b6000808611610daa576040517f08c379a0000000000000000000000000000000000000000000000000000000008152600401610da190612cad565b60405180910390fd5b600073ffffffffffffffffffffffffffffffffffffffff168873ffffffffffffffffffffffffffffffffffffffff1603610e19576040517f08c379a0000000000000000000000000000000000000000000000000000000008152600401610e1090612d19565b60405180910390fd5b60008a8a8a8a8a604051602001610e34959493929190612da2565b604051602081830303815290604052805190602001209050808685604051602001610e6193929190612e01565b6040516020818303038152906040528051906020012090508481604051602001610e8c929190612e3e565b6040516020818303038152906040528051906020012090508973ffffffffffffffffffffffffffffffffffffffff163373ffffffffffffffffffffffffffffffffffffffff1614610f12576040517f08c379a0000000000000000000000000000000000000000000000000000000008152600401610f0990612edc565b60405180910390fd5b828114610f54576040517f08c379a0000000000000000000000000000000000000000000000000000000008152600401610f4b90612f6e565b60405180910390fd5b6003600084815260200190815260200160002060020160009054906101000a900460ff1615610fb8576040517f08c379a0000000000000000000000000000000000000000000000000000000008152600401610faf90612fda565b60405180910390fd5b610fc0611e6c565b6000801b86036113de57600073ffffffffffffffffffffffffffffffffffffffff168873ffffffffffffffffffffffffffffffffffffffff16036110b157863414611040576040517f08c379a000000000000000000000000000000000000000000000000000000000815260040161103790613046565b60405180910390fd5b8873ffffffffffffffffffffffffffffffffffffffff168760405161106490612969565b60006040518083038185875af1925050503d80600081146110a1576040519150601f19603f3d011682016040523d82523d6000602084013e6110a6565b606091505b505080925050611134565b8773ffffffffffffffffffffffffffffffffffffffff166323b872dd338b8a6040518463ffffffff1660e01b81526004016110ee93929190613066565b6020604051808303816000875af115801561110d573d6000803e3d6000fd5b505050506040513d601f19601f820116820180604052508101906111319190612a1b565b91505b81156113d95760026000600760000154815260200190815260200160002083908060018154018082558091505060019003906000526020600020016000909190919091505560076000015460036000858152602001908152602001600020600001819055506001600260006007600001548152602001908152602001600020805490506111c1919061309d565b600360008581526020019081526020016000206001018190555060016003600085815260200190815260200160002060020160006101000a81548160ff021916908315150217905550886003600085815260200190815260200160002060030160006101000a81548173ffffffffffffffffffffffffffffffffffffffff021916908373ffffffffffffffffffffffffffffffffffffffff160217905550896003600085815260200190815260200160002060020160016101000a81548173ffffffffffffffffffffffffffffffffffffffff021916908373ffffffffffffffffffffffffffffffffffffffff16021790555086600360008581526020019081526020016000206004018190555085600360008581526020019081526020016000206005018190555060016003600085815260200190815260200160002060070160006101000a81548160ff021916908315150217905550426003600085815260200190815260200160002060060181905550827ff047f0b3a5bfd853a7da93daff5dfdd8e51d40151a725899863560a292e4ffb1600760000154600160026000600760000154815260200190815260200160002080549050611384919061309d565b604051611392929190612758565b60405180910390a26113d86040518060400160405280601781526020017f2a2a20416c69656e204c656720536574746c6564202a2a000000000000000000815250611fc5565b5b6118b4565b600073ffffffffffffffffffffffffffffffffffffffff168873ffffffffffffffffffffffffffffffffffffffff16036114c557863414611454576040517f08c379a000000000000000000000000000000000000000000000000000000000815260040161144b90613046565b60405180910390fd5b3073ffffffffffffffffffffffffffffffffffffffff168760405161147890612969565b60006040518083038185875af1925050503d80600081146114b5576040519150601f19603f3d011682016040523d82523d6000602084013e6114ba565b606091505b50508092505061160e565b60008873ffffffffffffffffffffffffffffffffffffffff1663dd62ed3e33306040518363ffffffff1660e01b81526004016115029291906130d1565b6020604051808303816000875af1158015611521573d6000803e3d6000fd5b505050506040513d601f19601f82011682018060405250810190611545919061310f565b90508781101561158a576040517f08c379a0000000000000000000000000000000000000000000000000000000008152600401611581906131ae565b60405180910390fd5b8873ffffffffffffffffffffffffffffffffffffffff166323b872dd33308b6040518463ffffffff1660e01b81526004016115c793929190613066565b6020604051808303816000875af11580156115e6573d6000803e3d6000fd5b505050506040513d601f19601f8201168201806040525081019061160a9190612a1b565b9250505b81156118b357600260006007600001548152602001908152602001600020839080600181540180825580915050600190039060005260206000200160009091909190915055600760000154600360008581526020019081526020016000206000018190555060016002600060076000015481526020019081526020016000208054905061169b919061309d565b600360008581526020019081526020016000206001018190555060006003600085815260200190815260200160002060020160006101000a81548160ff021916908315150217905550886003600085815260200190815260200160002060030160006101000a81548173ffffffffffffffffffffffffffffffffffffffff021916908373ffffffffffffffffffffffffffffffffffffffff160217905550896003600085815260200190815260200160002060020160016101000a81548173ffffffffffffffffffffffffffffffffffffffff021916908373ffffffffffffffffffffffffffffffffffffffff16021790555086600360008581526020019081526020016000206004018190555085600360008581526020019081526020016000206005018190555060006003600085815260200190815260200160002060070160006101000a81548160ff021916908315150217905550426003600085815260200190815260200160002060060181905550827fc1a07a602e297ee840ab2f857a6a6d6d729fe49fef22cb6aebb284a1eee2d9f860076000015460016002600060076000015481526020019081526020016000208054905061185e919061309d565b60405161186c929190612758565b60405180910390a26118b26040518060400160405280601681526020017f2a2a20416c69656e204c6567204c6f636b6564202a2a00000000000000000000815250611fc5565b5b5b50506118be611e62565b505050505050505050565b60055481565b606060006002600086815260200190815260200160002080549050905060008167ffffffffffffffff811115611908576119076131ce565b5b6040519080825280602002602001820160405280156119365781602001602082028036833780820191505090505b5090506002600087815260200190815260200160002080548060200260200160405190810160405280929190818152602001828054801561199657602002820191906000526020600020905b815481526020019060010190808311611982575b5050505050905060008151116119e1576040517f08c379a00000000000000000000000000000000000000000000000000000000081526004016119d890613249565b60405180910390fd5b600082905060005b6001821115611a2b576002826119ff9190613298565b600283611a0c91906132c9565b611a169190612b75565b91508080611a23906132fa565b9150506119e9565b60008167ffffffffffffffff811115611a4757611a466131ce565b5b604051908082528060200260200182016040528015611a755781602001602082028036833780820191505090505b509050600091505b600184511115611dad57600060028551611a979190613298565b60028651611aa591906132c9565b611aaf9190612b75565b67ffffffffffffffff811115611ac857611ac76131ce565b5b604051908082528060200260200182016040528015611af65781602001602082028036833780820191505090505b50905060005b8551811015611d94578915611c495760008190505b600182611b1e9190612b75565b8111611c4757808a03611c3457600060028b611b3a9190613298565b03611bde578651600182611b4e9190612b75565b03611b9257868181518110611b6657611b65613342565b5b6020026020010151848681518110611b8157611b80613342565b5b602002602001018181525050611bd9565b86600182611ba09190612b75565b81518110611bb157611bb0613342565b5b6020026020010151848681518110611bcc57611bcb613342565b5b6020026020010181815250505b611c25565b86600182611bec919061309d565b81518110611bfd57611bfc613342565b5b6020026020010151848681518110611c1857611c17613342565b5b6020026020010181815250505b8480611c30906132fa565b9550505b8080611c3f906132fa565b915050611b11565b505b8551600182611c589190612b75565b1015611cf757858181518110611c7157611c70613342565b5b602002602001015186600183611c879190612b75565b81518110611c9857611c97613342565b5b6020026020010151604051602001611cb1929190612e3e565b6040516020818303038152906040528051906020012082600283611cd591906132c9565b81518110611ce657611ce5613342565b5b602002602001018181525050611d80565b858181518110611d0a57611d09613342565b5b6020026020010151868281518110611d2557611d24613342565b5b6020026020010151604051602001611d3e929190612e3e565b6040516020818303038152906040528051906020012082600283611d6291906132c9565b81518110611d7357611d72613342565b5b6020026020010181815250505b600281611d8d9190612b75565b9050611afc565b50809450600288611da591906132c9565b975050611a7d565b8715611dc0578095505050505050611dc9565b83955050505050505b9392505050565b60065481565b6000600760000154905090565b60078060000154908060010154905082565b60045481565b60006a636f6e736f6c652e6c6f679050600080835160208501845afa505050565b600260005403611e58576040517f3ee5aeb500000000000000000000000000000000000000000000000000000000815260040160405180910390fd5b6002600081905550565b6001600081905550565b600060076001015442611e7f919061309d565b9050611ec06040518060400160405280601881526020017f3e3e20414c49454e20456c6c61707365642054696d653a2000000000000000008152508261205e565b611f046040518060400160405280601781526020017f3e3e20414c49454e2043757272656e7420536c6f743a2000000000000000000081525060076000015461205e565b6004548110611fc257611f4b6040518060400160405280601f81526020017f3e3e20414c49454e204372656174696e67206e65772074696d6520736c6f7400815250611fc5565b620f4240600454620f424083611f619190613371565b611f6b91906132c9565b611f7591906132c9565b60076000016000828254611f899190612b75565b92505081905550611fb76040518060600160405280602e81526020016134b4602e913960076000015461205e565b426007600101819055505b50565b61205b81604051602401611fd99190613432565b6040516020818303038152906040527f41304fac000000000000000000000000000000000000000000000000000000007bffffffffffffffffffffffffffffffffffffffffffffffffffffffff19166020820180517bffffffffffffffffffffffffffffffffffffffffffffffffffffffff83818316178352505050506120fa565b50565b6120f68282604051602401612074929190613454565b6040516020818303038152906040527fb60e72cc000000000000000000000000000000000000000000000000000000007bffffffffffffffffffffffffffffffffffffffffffffffffffffffff19166020820180517bffffffffffffffffffffffffffffffffffffffffffffffffffffffff83818316178352505050506120fa565b5050565b61211181612109611dfb612114565b63ffffffff16565b50565b61211f819050919050565b612127613484565b565b6040518061012001604052806000815260200160008152602001600015158152602001600073ffffffffffffffffffffffffffffffffffffffff168152602001600073ffffffffffffffffffffffffffffffffffffffff1681526020016000815260200160008019168152602001600081526020016000151581525090565b600080fd5b6000819050919050565b6121c0816121ad565b81146121cb57600080fd5b50565b6000813590506121dd816121b7565b92915050565b6000602082840312156121f9576121f86121a8565b5b6000612207848285016121ce565b91505092915050565b6000819050919050565b61222381612210565b82525050565b60008115159050919050565b61223e81612229565b82525050565b600073ffffffffffffffffffffffffffffffffffffffff82169050919050565b600061226f82612244565b9050919050565b61227f81612264565b82525050565b61228e816121ad565b82525050565b610120820160008201516122ab600085018261221a565b5060208201516122be602085018261221a565b5060408201516122d16040850182612235565b5060608201516122e46060850182612276565b5060808201516122f76080850182612276565b5060a082015161230a60a085018261221a565b5060c082015161231d60c0850182612285565b5060e082015161233060e085018261221a565b50610100820151612345610100850182612235565b50505050565b6000610120820190506123616000830184612294565b92915050565b6000806040838503121561237e5761237d6121a8565b5b600061238c858286016121ce565b925050602061239d858286016121ce565b9150509250929050565b6123b081612210565b81146123bb57600080fd5b50565b6000813590506123cd816123a7565b92915050565b600080604083850312156123ea576123e96121a8565b5b60006123f8858286016123be565b9250506020612409858286016123be565b9150509250929050565b61241c816121ad565b82525050565b60006020820190506124376000830184612413565b92915050565b61244681612210565b82525050565b61245581612229565b82525050565b61246481612264565b82525050565b600061012082019050612480600083018c61243d565b61248d602083018b61243d565b61249a604083018a61244c565b6124a7606083018961245b565b6124b4608083018861245b565b6124c160a083018761243d565b6124ce60c0830186612413565b6124db60e083018561243d565b6124e961010083018461244c565b9a9950505050505050505050565b61250081612264565b811461250b57600080fd5b50565b60008135905061251d816124f7565b92915050565b60008060008060008060008060006101208a8c031215612546576125456121a8565b5b60006125548c828d016121ce565b99505060206125658c828d0161250e565b98505060406125768c828d0161250e565b97505060606125878c828d0161250e565b96505060806125988c828d016123be565b95505060a06125a98c828d016121ce565b94505060c06125ba8c828d016121ce565b93505060e06125cb8c828d016123be565b9250506101006125dd8c828d016121ce565b9150509295985092959850929598565b6000602082019050612602600083018461243d565b92915050565b61261181612229565b811461261c57600080fd5b50565b60008135905061262e81612608565b92915050565b60008060006060848603121561264d5761264c6121a8565b5b600061265b868287016123be565b935050602061266c8682870161261f565b925050604061267d868287016123be565b9150509250925092565b600081519050919050565b600082825260208201905092915050565b6000819050602082019050919050565b60006126bf8383612285565b60208301905092915050565b6000602082019050919050565b60006126e382612687565b6126ed8185612692565b93506126f8836126a3565b8060005b8381101561272957815161271088826126b3565b975061271b836126cb565b9250506001810190506126fc565b5085935050505092915050565b6000602082019050818103600083015261275081846126d8565b905092915050565b600060408201905061276d600083018561243d565b61277a602083018461243d565b9392505050565b600082825260208201905092915050565b7f54686973206973206e6f7420612048544c43207472616e73616374696f6e0000600082015250565b60006127c8601e83612781565b91506127d382612792565b602082019050919050565b600060208201905081810360008301526127f7816127bb565b9050919050565b7f547261646520616c726561647920736574746c65640000000000000000000000600082015250565b6000612834601583612781565b915061283f826127fe565b602082019050919050565b6000602082019050818103600083015261286381612827565b9050919050565b6000819050919050565b612885612880826121ad565b61286a565b82525050565b60006128978284612874565b60208201915081905092915050565b7f536563726574206973206e6f7420657175616c20746f2048617368656420536560008201527f6372657400000000000000000000000000000000000000000000000000000000602082015250565b6000612902602483612781565b915061290d826128a6565b604082019050919050565b60006020820190508181036000830152612931816128f5565b9050919050565b600081905092915050565b50565b6000612953600083612938565b915061295e82612943565b600082019050919050565b600061297482612946565b9150819050919050565b6000819050919050565b60006129a361299e61299984612244565b61297e565b612244565b9050919050565b60006129b582612988565b9050919050565b60006129c7826129aa565b9050919050565b6129d7816129bc565b82525050565b60006040820190506129f260008301856129ce565b6129ff602083018461243d565b9392505050565b600081519050612a1581612608565b92915050565b600060208284031215612a3157612a306121a8565b5b6000612a3f84828501612a06565b91505092915050565b7f54686973206973206e6f7420612048544c43207472616e73616374696f6e206560008201527f6c696769626c6520666f7220726566756e640000000000000000000000000000602082015250565b6000612aa4603283612781565b9150612aaf82612a48565b604082019050919050565b60006020820190508181036000830152612ad381612a97565b9050919050565b7f46756e647320616c72656164792068617665206265656e20726566756e646564600082015250565b6000612b10602083612781565b9150612b1b82612ada565b602082019050919050565b60006020820190508181036000830152612b3f81612b03565b9050919050565b7f4e487b7100000000000000000000000000000000000000000000000000000000600052601160045260246000fd5b6000612b8082612210565b9150612b8b83612210565b9250828201905080821115612ba357612ba2612b46565b5b92915050565b7f526566756e64206973206e6f742079657420617661696c61626c6520746f204160008201527f6c69636520626563617573652065787069726174696f6e20686173206e6f742060208201527f6265656e20616368696576656400000000000000000000000000000000000000604082015250565b6000612c2b604d83612781565b9150612c3682612ba9565b606082019050919050565b60006020820190508181036000830152612c5a81612c1e565b9050919050565b7f496e76616c69642045544820616d6f756e740000000000000000000000000000600082015250565b6000612c97601283612781565b9150612ca282612c61565b602082019050919050565b60006020820190508181036000830152612cc681612c8a565b9050919050565b7f4e6f204d696b6520416464726573730000000000000000000000000000000000600082015250565b6000612d03600f83612781565b9150612d0e82612ccd565b602082019050919050565b60006020820190508181036000830152612d3281612cf6565b9050919050565b60008160601b9050919050565b6000612d5182612d39565b9050919050565b6000612d6382612d46565b9050919050565b612d7b612d7682612264565b612d58565b82525050565b6000819050919050565b612d9c612d9782612210565b612d81565b82525050565b6000612dae8288612874565b602082019150612dbe8287612d6a565b601482019150612dce8286612d6a565b601482019150612dde8285612d6a565b601482019150612dee8284612d8b565b6020820191508190509695505050505050565b6000612e0d8286612874565b602082019150612e1d8285612874565b602082019150612e2d8284612d8b565b602082019150819050949350505050565b6000612e4a8285612874565b602082019150612e5a8284612874565b6020820191508190509392505050565b7f4f6e6c7920416c6963652063616e2073656e642074686973205472616e73616360008201527f74696f6e00000000000000000000000000000000000000000000000000000000602082015250565b6000612ec6602483612781565b9150612ed182612e6a565b604082019050919050565b60006020820190508181036000830152612ef581612eb9565b9050919050565b7f447265782049642048617368206973206e6f7420657175616c20746f2074686560008201527f20696e707574656420706172616d657465727300000000000000000000000000602082015250565b6000612f58603383612781565b9150612f6382612efc565b604082019050919050565b60006020820190508181036000830152612f8781612f4b565b9050919050565b7f7472616e73616374696f6e20616c726561647920736574746c65640000000000600082015250565b6000612fc4601b83612781565b9150612fcf82612f8e565b602082019050919050565b60006020820190508181036000830152612ff381612fb7565b9050919050565b7f496e636f727265637420416c69656e20616d6f756e742073656e740000000000600082015250565b6000613030601b83612781565b915061303b82612ffa565b602082019050919050565b6000602082019050818103600083015261305f81613023565b9050919050565b600060608201905061307b600083018661245b565b61308860208301856129ce565b613095604083018461243d565b949350505050565b60006130a882612210565b91506130b383612210565b92508282039050818111156130cb576130ca612b46565b5b92915050565b60006040820190506130e6600083018561245b565b6130f3602083018461245b565b9392505050565b600081519050613109816123a7565b92915050565b600060208284031215613125576131246121a8565b5b6000613133848285016130fa565b91505092915050565b7f416c69656e204c6973747261636b20776173206e6f742070726576696f75736c60008201527f7920616c6c6f77656420746f207472616e7366657220746f6b656e7300000000602082015250565b6000613198603c83612781565b91506131a38261313c565b604082019050919050565b600060208201905081810360008301526131c78161318b565b9050919050565b7f4e487b7100000000000000000000000000000000000000000000000000000000600052604160045260246000fd5b7f4e6f206461746120746f20637265617465204d65726b6c652074726565000000600082015250565b6000613233601d83612781565b915061323e826131fd565b602082019050919050565b6000602082019050818103600083015261326281613226565b9050919050565b7f4e487b7100000000000000000000000000000000000000000000000000000000600052601260045260246000fd5b60006132a382612210565b91506132ae83612210565b9250826132be576132bd613269565b5b828206905092915050565b60006132d482612210565b91506132df83612210565b9250826132ef576132ee613269565b5b828204905092915050565b600061330582612210565b91507fffffffffffffffffffffffffffffffffffffffffffffffffffffffffffffffff820361333757613336612b46565b5b600182019050919050565b7f4e487b7100000000000000000000000000000000000000000000000000000000600052603260045260246000fd5b600061337c82612210565b915061338783612210565b925082820261339581612210565b915082820484148315176133ac576133ab612b46565b5b5092915050565b600081519050919050565b60005b838110156133dc5780820151818401526020810190506133c1565b60008484015250505050565b6000601f19601f8301169050919050565b6000613404826133b3565b61340e8185612781565b935061341e8185602086016133be565b613427816133e8565b840191505092915050565b6000602082019050818103600083015261344c81846133f9565b905092915050565b6000604082019050818103600083015261346e81856133f9565b905061347d602083018461243d565b9392505050565b7f4e487b7100000000000000000000000000000000000000000000000000000000600052605160045260246000fdfe3e3e20414c49454e204e657720536c6f7420616674657220456c6c61707365642054696d65205570646174653a20a26469706673582212209807e32d351133b8a691945967bba11dbfa05ca3aaa9708c5ed0feaa4f0bfae164736f6c6343000818003340404020416c69656e204c6973747261636b204465706c6f79656420617420536c6f74203a20",
  "linkReferences": {},
  "deployedLinkReferences": {}
}