{
  "_format": "hh-sol-artifact-1",
  "contractName": "AlienListrack",
  "sourceName": "contracts/AlienListrack.sol",
  "abi": [
    {
      "inputs": [
        {
          "internalType": "address",
          "name": "_tokenAddress",
          "type": "address"
        },
        {
          "internalType": "uint256",
          "name": "_alienLegConfirmation",
          "type": "uint256"
        },
        {
          "internalType": "uint256",
          "name": "_alienLegRefund",
          "type": "uint256"
        }
      ],
      "stateMutability": "payable",
      "type": "constructor"
    },
    {
      "inputs": [],
      "name": "ReentrancyGuardReentrantCall",
      "type": "error"
    },
    {
      "anonymous": false,
      "inputs": [
        {
          "indexed": true,
          "internalType": "bytes32",
          "name": "_drexTxId",
          "type": "bytes32"
        },
        {
          "indexed": false,
          "internalType": "uint256",
          "name": "_alienBlock",
          "type": "uint256"
        },
        {
          "indexed": false,
          "internalType": "uint256",
          "name": "_alienMerkleTxIndex",
          "type": "uint256"
        }
      ],
      "name": "AlienLocked",
      "type": "event"
    },
    {
      "anonymous": false,
      "inputs": [
        {
          "indexed": true,
          "internalType": "bytes32",
          "name": "_drexTxId",
          "type": "bytes32"
        },
        {
          "indexed": true,
          "internalType": "address",
          "name": "_aliceAddress",
          "type": "address"
        }
      ],
      "name": "AlienRefunded",
      "type": "event"
    },
    {
      "anonymous": false,
      "inputs": [
        {
          "indexed": true,
          "internalType": "bytes32",
          "name": "_drexTxId",
          "type": "bytes32"
        },
        {
          "indexed": false,
          "internalType": "uint256",
          "name": "_alienBlock",
          "type": "uint256"
        },
        {
          "indexed": false,
          "internalType": "uint256",
          "name": "_alienMerkleTxIndex",
          "type": "uint256"
        }
      ],
      "name": "AlienSettled",
      "type": "event"
    },
    {
      "inputs": [
        {
          "internalType": "bytes32",
          "name": "_txId",
          "type": "bytes32"
        }
      ],
      "name": "aliceGetRefund",
      "outputs": [],
      "stateMutability": "payable",
      "type": "function"
    },
    {
      "inputs": [],
      "name": "alienLegRefund",
      "outputs": [
        {
          "internalType": "uint256",
          "name": "",
          "type": "uint256"
        }
      ],
      "stateMutability": "view",
      "type": "function"
    },
    {
      "inputs": [
        {
          "internalType": "uint256",
          "name": "",
          "type": "uint256"
        },
        {
          "internalType": "uint256",
          "name": "",
          "type": "uint256"
        }
      ],
      "name": "chainConfirmedTx",
      "outputs": [
        {
          "internalType": "bytes32",
          "name": "",
          "type": "bytes32"
        }
      ],
      "stateMutability": "view",
      "type": "function"
    },
    {
      "inputs": [
        {
          "internalType": "uint256",
          "name": "_slotNumber",
          "type": "uint256"
        },
        {
          "internalType": "bool",
          "name": "isProof",
          "type": "bool"
        },
        {
          "internalType": "uint256",
          "name": "_proofIndex",
          "type": "uint256"
        }
      ],
      "name": "createMerkleTree",
      "outputs": [
        {
          "internalType": "bytes32[]",
          "name": "",
          "type": "bytes32[]"
        }
      ],
      "stateMutability": "view",
      "type": "function"
    },
    {
      "inputs": [],
      "name": "drexConfirmationIndex",
      "outputs": [
        {
          "internalType": "uint256",
          "name": "",
          "type": "uint256"
        }
      ],
      "stateMutability": "view",
      "type": "function"
    },
    {
      "inputs": [],
      "name": "getLatestSlot",
      "outputs": [
        {
          "internalType": "uint256",
          "name": "",
          "type": "uint256"
        }
      ],
      "stateMutability": "view",
      "type": "function"
    },
    {
      "inputs": [
        {
          "internalType": "bytes32",
          "name": "_txId",
          "type": "bytes32"
        }
      ],
      "name": "getTradeFeatures",
      "outputs": [
        {
          "components": [
            {
              "internalType": "uint256",
              "name": "slotNumber",
              "type": "uint256"
            },
            {
              "internalType": "uint256",
              "name": "txIndex",
              "type": "uint256"
            },
            {
              "internalType": "bool",
              "name": "isSettled",
              "type": "bool"
            },
            {
              "internalType": "address",
              "name": "aliceAddress",
              "type": "address"
            },
            {
              "internalType": "address",
              "name": "mikeAddress",
              "type": "address"
            },
            {
              "internalType": "uint256",
              "name": "alienAmount",
              "type": "uint256"
            },
            {
              "internalType": "bytes32",
              "name": "hashedSecret",
              "type": "bytes32"
            },
            {
              "internalType": "uint256",
              "name": "timeStampInserted",
              "type": "uint256"
            },
            {
              "internalType": "bool",
              "name": "isRefunded",
              "type": "bool"
            }
          ],
          "internalType": "struct AlienListrack.TxStatus",
          "name": "",
          "type": "tuple"
        }
      ],
      "stateMutability": "view",
      "type": "function"
    },
    {
      "inputs": [
        {
          "internalType": "bytes32",
          "name": "_txId",
          "type": "bytes32"
        },
        {
          "internalType": "bytes32",
          "name": "_secretRevealed",
          "type": "bytes32"
        }
      ],
      "name": "mikeSettleTrade",
      "outputs": [],
      "stateMutability": "payable",
      "type": "function"
    },
    {
      "inputs": [],
      "name": "slotProduction",
      "outputs": [
        {
          "internalType": "uint256",
          "name": "currentSlot",
          "type": "uint256"
        },
        {
          "internalType": "uint256",
          "name": "lastTimeStamp",
          "type": "uint256"
        }
      ],
      "stateMutability": "view",
      "type": "function"
    },
    {
      "inputs": [],
      "name": "timeSlotConfirmation",
      "outputs": [
        {
          "internalType": "uint256",
          "name": "",
          "type": "uint256"
        }
      ],
      "stateMutability": "view",
      "type": "function"
    },
    {
      "inputs": [
        {
          "internalType": "bytes32",
          "name": "",
          "type": "bytes32"
        }
      ],
      "name": "transactions",
      "outputs": [
        {
          "internalType": "uint256",
          "name": "slotNumber",
          "type": "uint256"
        },
        {
          "internalType": "uint256",
          "name": "txIndex",
          "type": "uint256"
        },
        {
          "internalType": "bool",
          "name": "isSettled",
          "type": "bool"
        },
        {
          "internalType": "address",
          "name": "aliceAddress",
          "type": "address"
        },
        {
          "internalType": "address",
          "name": "mikeAddress",
          "type": "address"
        },
        {
          "internalType": "uint256",
          "name": "alienAmount",
          "type": "uint256"
        },
        {
          "internalType": "bytes32",
          "name": "hashedSecret",
          "type": "bytes32"
        },
        {
          "internalType": "uint256",
          "name": "timeStampInserted",
          "type": "uint256"
        },
        {
          "internalType": "bool",
          "name": "isRefunded",
          "type": "bool"
        }
      ],
      "stateMutability": "view",
      "type": "function"
    },
    {
      "inputs": [
        {
          "internalType": "bytes32",
          "name": "_drexHashFields",
          "type": "bytes32"
        },
        {
          "internalType": "address",
          "name": "_aliceAlienAddress",
          "type": "address"
        },
        {
          "internalType": "address",
          "name": "_mikeAlienAddress",
          "type": "address"
        },
        {
          "internalType": "address",
          "name": "_alientokencontract",
          "type": "address"
        },
        {
          "internalType": "uint256",
          "name": "_alienAmount",
          "type": "uint256"
        },
        {
          "internalType": "bytes32",
          "name": "_hashedSecret",
          "type": "bytes32"
        },
        {
          "internalType": "bytes32",
          "name": "_drexPreviousId",
          "type": "bytes32"
        },
        {
          "internalType": "uint256",
          "name": "_drexTxIndex",
          "type": "uint256"
        },
        {
          "internalType": "bytes32",
          "name": "_drexTxId",
          "type": "bytes32"
        }
      ],
      "name": "writeAlienLeg",
      "outputs": [],
      "stateMutability": "payable",
      "type": "function"
    }
  ],
  "bytecode": "0x608060405260405162003a5c38038062003a5c833981810160405281019062000029919062000283565b600160008190555082600160006101000a81548173ffffffffffffffffffffffffffffffffffffffff021916908373ffffffffffffffffffffffffffffffffffffffff1602179055508160048190555080600581905550600060076000018190555042600760010181905550620000c560405180606001604052806026815260200162003a3660269139600760000154620000ce60201b60201c565b505050620003ed565b620001708282604051602401620000e79291906200038a565b6040516020818303038152906040527fb60e72cc000000000000000000000000000000000000000000000000000000007bffffffffffffffffffffffffffffffffffffffffffffffffffffffff19166020820180517bffffffffffffffffffffffffffffffffffffffffffffffffffffffff83818316178352505050506200017460201b60201c565b5050565b6200019a81620001956200019d60201b62001e8b17620001be60201b60201c565b60201c565b50565b60006a636f6e736f6c652e6c6f679050600080835160208501845afa505050565b620001d260201b620021af17819050919050565b620001dc620003be565b565b600080fd5b600073ffffffffffffffffffffffffffffffffffffffff82169050919050565b60006200021082620001e3565b9050919050565b620002228162000203565b81146200022e57600080fd5b50565b600081519050620002428162000217565b92915050565b6000819050919050565b6200025d8162000248565b81146200026957600080fd5b50565b6000815190506200027d8162000252565b92915050565b6000806000606084860312156200029f576200029e620001de565b5b6000620002af8682870162000231565b9350506020620002c2868287016200026c565b9250506040620002d5868287016200026c565b9150509250925092565b600081519050919050565b600082825260208201905092915050565b60005b838110156200031b578082015181840152602081019050620002fe565b60008484015250505050565b6000601f19601f8301169050919050565b60006200034582620002df565b620003518185620002ea565b935062000363818560208601620002fb565b6200036e8162000327565b840191505092915050565b620003848162000248565b82525050565b60006040820190508181036000830152620003a6818562000338565b9050620003b7602083018462000379565b9392505050565b7f4e487b7100000000000000000000000000000000000000000000000000000000600052605160045260246000fd5b61363980620003fd6000396000f3fe6080604052600436106100a75760003560e01c8063a0ccddf911610064578063a0ccddf9146101bf578063af00e20e146101ea578063dc97b8df14610227578063f41adab114610252578063fb8db4b41461027d578063ff202270146102a9576100a7565b806307583998146100ac57806307bada68146100e957806315b8fd3014610105578063642f2eaf146101425780636e6c783214610187578063757cd229146101a3575b600080fd5b3480156100b857600080fd5b506100d360048036038101906100ce9190612273565b6102d4565b6040516100e091906123db565b60405180910390f35b61010360048036038101906100fe91906123f7565b610416565b005b34801561011157600080fd5b5061012c60048036038101906101279190612463565b610836565b60405161013991906124b2565b60405180910390f35b34801561014e57600080fd5b5061016960048036038101906101649190612273565b610867565b60405161017e999897969594939291906124fa565b60405180910390f35b6101a1600480360381019061019c9190612273565b61090f565b005b6101bd60048036038101906101b891906125b3565b610d5e565b005b3480156101cb57600080fd5b506101d4611959565b6040516101e1919061267d565b60405180910390f35b3480156101f657600080fd5b50610211600480360381019061020c91906126c4565b61195f565b60405161021e91906127c6565b60405180910390f35b34801561023357600080fd5b5061023c611e60565b604051610249919061267d565b60405180910390f35b34801561025e57600080fd5b50610267611e66565b604051610274919061267d565b60405180910390f35b34801561028957600080fd5b50610292611e73565b6040516102a09291906127e8565b60405180910390f35b3480156102b557600080fd5b506102be611e85565b6040516102cb919061267d565b60405180910390f35b6102dc6121b9565b600360008381526020019081526020016000206040518061012001604052908160008201548152602001600182015481526020016002820160009054906101000a900460ff161515151581526020016002820160019054906101000a900473ffffffffffffffffffffffffffffffffffffffff1673ffffffffffffffffffffffffffffffffffffffff1673ffffffffffffffffffffffffffffffffffffffff1681526020016003820160009054906101000a900473ffffffffffffffffffffffffffffffffffffffff1673ffffffffffffffffffffffffffffffffffffffff1673ffffffffffffffffffffffffffffffffffffffff1681526020016004820154815260200160058201548152602001600682015481526020016007820160009054906101000a900460ff1615151515815250509050919050565b61041e611eac565b600080801b60036000858152602001908152602001600020600501540361047a576040517f08c379a00000000000000000000000000000000000000000000000000000000081526004016104719061286e565b60405180910390fd5b6003600084815260200190815260200160002060020160009054906101000a900460ff16156104de576040517f08c379a00000000000000000000000000000000000000000000000000000000081526004016104d5906128da565b60405180910390fd5b600360008481526020019081526020016000206005015482604051602001610506919061291b565b604051602081830303815290604052805190602001201461055c576040517f08c379a0000000000000000000000000000000000000000000000000000000008152600401610553906129a8565b60405180910390fd5b600073ffffffffffffffffffffffffffffffffffffffff16600160009054906101000a900473ffffffffffffffffffffffffffffffffffffffff1673ffffffffffffffffffffffffffffffffffffffff160361066f576003600084815260200190815260200160002060030160009054906101000a900473ffffffffffffffffffffffffffffffffffffffff1673ffffffffffffffffffffffffffffffffffffffff166003600085815260200190815260200160002060040154604051610622906129f9565b60006040518083038185875af1925050503d806000811461065f576040519150601f19603f3d011682016040523d82523d6000602084013e610664565b606091505b50508091505061075e565b600160009054906101000a900473ffffffffffffffffffffffffffffffffffffffff1673ffffffffffffffffffffffffffffffffffffffff1663a9059cbb6003600086815260200190815260200160002060030160009054906101000a900473ffffffffffffffffffffffffffffffffffffffff1660036000878152602001908152602001600020600401546040518363ffffffff1660e01b8152600401610718929190612a6d565b6020604051808303816000875af1158015610737573d6000803e3d6000fd5b505050506040513d601f19601f8201168201806040525081019061075b9190612aab565b90505b80156108295760016003600085815260200190815260200160002060020160006101000a81548160ff02191690831515021790555060016003600085815260200190815260200160002060070160006101000a81548160ff021916908315150217905550827ff047f0b3a5bfd853a7da93daff5dfdd8e51d40151a725899863560a292e4ffb1600360008681526020019081526020016000206000015460036000878152602001908152602001600020600101546040516108209291906127e8565b60405180910390a25b50610832611ef2565b5050565b6002602052816000526040600020818154811061085257600080fd5b90600052602060002001600091509150505481565b60036020528060005260406000206000915090508060000154908060010154908060020160009054906101000a900460ff16908060020160019054906101000a900473ffffffffffffffffffffffffffffffffffffffff16908060030160009054906101000a900473ffffffffffffffffffffffffffffffffffffffff16908060040154908060050154908060060154908060070160009054906101000a900460ff16905089565b610917611eac565b600080801b600360008481526020019081526020016000206005015403610973576040517f08c379a000000000000000000000000000000000000000000000000000000000815260040161096a90612b4a565b60405180910390fd5b6003600083815260200190815260200160002060070160009054906101000a900460ff16156109d7576040517f08c379a00000000000000000000000000000000000000000000000000000000081526004016109ce90612bb6565b60405180910390fd5b6003600083815260200190815260200160002060020160009054906101000a900460ff1615610a3b576040517f08c379a0000000000000000000000000000000000000000000000000000000008152600401610a32906128da565b60405180910390fd5b6005546003600084815260200190815260200160002060060154610a5f9190612c05565b4211610aa0576040517f08c379a0000000000000000000000000000000000000000000000000000000008152600401610a9790612cd1565b60405180910390fd5b600073ffffffffffffffffffffffffffffffffffffffff16600160009054906101000a900473ffffffffffffffffffffffffffffffffffffffff1673ffffffffffffffffffffffffffffffffffffffff1603610bb3576003600083815260200190815260200160002060020160019054906101000a900473ffffffffffffffffffffffffffffffffffffffff1673ffffffffffffffffffffffffffffffffffffffff166003600084815260200190815260200160002060040154604051610b66906129f9565b60006040518083038185875af1925050503d8060008114610ba3576040519150601f19603f3d011682016040523d82523d6000602084013e610ba8565b606091505b505080915050610ca2565b600160009054906101000a900473ffffffffffffffffffffffffffffffffffffffff1673ffffffffffffffffffffffffffffffffffffffff1663a9059cbb6003600085815260200190815260200160002060020160019054906101000a900473ffffffffffffffffffffffffffffffffffffffff1660036000868152602001908152602001600020600401546040518363ffffffff1660e01b8152600401610c5c929190612a6d565b6020604051808303816000875af1158015610c7b573d6000803e3d6000fd5b505050506040513d601f19601f82011682018060405250810190610c9f9190612aab565b90505b8015610d525760016003600084815260200190815260200160002060070160006101000a81548160ff0219169083151502179055506003600083815260200190815260200160002060020160019054906101000a900473ffffffffffffffffffffffffffffffffffffffff1673ffffffffffffffffffffffffffffffffffffffff16827f71180e6b6f96cff692061f8afdd0fdfa0244ea4455c35876b25cbed647b0937760405160405180910390a35b50610d5b611ef2565b50565b610d66611eac565b6000808611610daa576040517f08c379a0000000000000000000000000000000000000000000000000000000008152600401610da190612d3d565b60405180910390fd5b600073ffffffffffffffffffffffffffffffffffffffff168873ffffffffffffffffffffffffffffffffffffffff1603610e19576040517f08c379a0000000000000000000000000000000000000000000000000000000008152600401610e1090612da9565b60405180910390fd5b60008a8a8a8a8a604051602001610e34959493929190612e32565b604051602081830303815290604052805190602001209050808685604051602001610e6193929190612e91565b6040516020818303038152906040528051906020012090508481604051602001610e8c929190612ece565b6040516020818303038152906040528051906020012090508973ffffffffffffffffffffffffffffffffffffffff163373ffffffffffffffffffffffffffffffffffffffff1614610f12576040517f08c379a0000000000000000000000000000000000000000000000000000000008152600401610f0990612f6c565b60405180910390fd5b828114610f54576040517f08c379a0000000000000000000000000000000000000000000000000000000008152600401610f4b90612ffe565b60405180910390fd5b600160009054906101000a900473ffffffffffffffffffffffffffffffffffffffff1673ffffffffffffffffffffffffffffffffffffffff168873ffffffffffffffffffffffffffffffffffffffff1614610fe4576040517f08c379a0000000000000000000000000000000000000000000000000000000008152600401610fdb90613090565b60405180910390fd5b6003600084815260200190815260200160002060020160009054906101000a900460ff1615611048576040517f08c379a000000000000000000000000000000000000000000000000000000000815260040161103f906130fc565b60405180910390fd5b611050611efc565b6000801b860361146e57600073ffffffffffffffffffffffffffffffffffffffff168873ffffffffffffffffffffffffffffffffffffffff1603611141578634146110d0576040517f08c379a00000000000000000000000000000000000000000000000000000000081526004016110c790613168565b60405180910390fd5b8873ffffffffffffffffffffffffffffffffffffffff16876040516110f4906129f9565b60006040518083038185875af1925050503d8060008114611131576040519150601f19603f3d011682016040523d82523d6000602084013e611136565b606091505b5050809250506111c4565b8773ffffffffffffffffffffffffffffffffffffffff166323b872dd338b8a6040518463ffffffff1660e01b815260040161117e93929190613188565b6020604051808303816000875af115801561119d573d6000803e3d6000fd5b505050506040513d601f19601f820116820180604052508101906111c19190612aab565b91505b811561146957600260006007600001548152602001908152602001600020839080600181540180825580915050600190039060005260206000200160009091909190915055600760000154600360008581526020019081526020016000206000018190555060016002600060076000015481526020019081526020016000208054905061125191906131bf565b600360008581526020019081526020016000206001018190555060016003600085815260200190815260200160002060020160006101000a81548160ff021916908315150217905550886003600085815260200190815260200160002060030160006101000a81548173ffffffffffffffffffffffffffffffffffffffff021916908373ffffffffffffffffffffffffffffffffffffffff160217905550896003600085815260200190815260200160002060020160016101000a81548173ffffffffffffffffffffffffffffffffffffffff021916908373ffffffffffffffffffffffffffffffffffffffff16021790555086600360008581526020019081526020016000206004018190555085600360008581526020019081526020016000206005018190555060016003600085815260200190815260200160002060070160006101000a81548160ff021916908315150217905550426003600085815260200190815260200160002060060181905550827ff047f0b3a5bfd853a7da93daff5dfdd8e51d40151a725899863560a292e4ffb160076000015460016002600060076000015481526020019081526020016000208054905061141491906131bf565b6040516114229291906127e8565b60405180910390a26114686040518060400160405280601781526020017f2a2a20416c69656e204c656720536574746c6564202a2a000000000000000000815250612055565b5b611944565b600073ffffffffffffffffffffffffffffffffffffffff168873ffffffffffffffffffffffffffffffffffffffff1603611555578634146114e4576040517f08c379a00000000000000000000000000000000000000000000000000000000081526004016114db90613168565b60405180910390fd5b3073ffffffffffffffffffffffffffffffffffffffff1687604051611508906129f9565b60006040518083038185875af1925050503d8060008114611545576040519150601f19603f3d011682016040523d82523d6000602084013e61154a565b606091505b50508092505061169e565b60008873ffffffffffffffffffffffffffffffffffffffff1663dd62ed3e33306040518363ffffffff1660e01b81526004016115929291906131f3565b6020604051808303816000875af11580156115b1573d6000803e3d6000fd5b505050506040513d601f19601f820116820180604052508101906115d59190613231565b90508781101561161a576040517f08c379a0000000000000000000000000000000000000000000000000000000008152600401611611906132d0565b60405180910390fd5b8873ffffffffffffffffffffffffffffffffffffffff166323b872dd33308b6040518463ffffffff1660e01b815260040161165793929190613188565b6020604051808303816000875af1158015611676573d6000803e3d6000fd5b505050506040513d601f19601f8201168201806040525081019061169a9190612aab565b9250505b811561194357600260006007600001548152602001908152602001600020839080600181540180825580915050600190039060005260206000200160009091909190915055600760000154600360008581526020019081526020016000206000018190555060016002600060076000015481526020019081526020016000208054905061172b91906131bf565b600360008581526020019081526020016000206001018190555060006003600085815260200190815260200160002060020160006101000a81548160ff021916908315150217905550886003600085815260200190815260200160002060030160006101000a81548173ffffffffffffffffffffffffffffffffffffffff021916908373ffffffffffffffffffffffffffffffffffffffff160217905550896003600085815260200190815260200160002060020160016101000a81548173ffffffffffffffffffffffffffffffffffffffff021916908373ffffffffffffffffffffffffffffffffffffffff16021790555086600360008581526020019081526020016000206004018190555085600360008581526020019081526020016000206005018190555060006003600085815260200190815260200160002060070160006101000a81548160ff021916908315150217905550426003600085815260200190815260200160002060060181905550827fc1a07a602e297ee840ab2f857a6a6d6d729fe49fef22cb6aebb284a1eee2d9f86007600001546001600260006007600001548152602001908152602001600020805490506118ee91906131bf565b6040516118fc9291906127e8565b60405180910390a26119426040518060400160405280601681526020017f2a2a20416c69656e204c6567204c6f636b6564202a2a00000000000000000000815250612055565b5b5b505061194e611ef2565b505050505050505050565b60055481565b606060006002600086815260200190815260200160002080549050905060008167ffffffffffffffff811115611998576119976132f0565b5b6040519080825280602002602001820160405280156119c65781602001602082028036833780820191505090505b50905060026000878152602001908152602001600020805480602002602001604051908101604052809291908181526020018280548015611a2657602002820191906000526020600020905b815481526020019060010190808311611a12575b505050505090506000815111611a71576040517f08c379a0000000000000000000000000000000000000000000000000000000008152600401611a689061336b565b60405180910390fd5b600082905060005b6001821115611abb57600282611a8f91906133ba565b600283611a9c91906133eb565b611aa69190612c05565b91508080611ab39061341c565b915050611a79565b60008167ffffffffffffffff811115611ad757611ad66132f0565b5b604051908082528060200260200182016040528015611b055781602001602082028036833780820191505090505b509050600091505b600184511115611e3d57600060028551611b2791906133ba565b60028651611b3591906133eb565b611b3f9190612c05565b67ffffffffffffffff811115611b5857611b576132f0565b5b604051908082528060200260200182016040528015611b865781602001602082028036833780820191505090505b50905060005b8551811015611e24578915611cd95760008190505b600182611bae9190612c05565b8111611cd757808a03611cc457600060028b611bca91906133ba565b03611c6e578651600182611bde9190612c05565b03611c2257868181518110611bf657611bf5613464565b5b6020026020010151848681518110611c1157611c10613464565b5b602002602001018181525050611c69565b86600182611c309190612c05565b81518110611c4157611c40613464565b5b6020026020010151848681518110611c5c57611c5b613464565b5b6020026020010181815250505b611cb5565b86600182611c7c91906131bf565b81518110611c8d57611c8c613464565b5b6020026020010151848681518110611ca857611ca7613464565b5b6020026020010181815250505b8480611cc09061341c565b9550505b8080611ccf9061341c565b915050611ba1565b505b8551600182611ce89190612c05565b1015611d8757858181518110611d0157611d00613464565b5b602002602001015186600183611d179190612c05565b81518110611d2857611d27613464565b5b6020026020010151604051602001611d41929190612ece565b6040516020818303038152906040528051906020012082600283611d6591906133eb565b81518110611d7657611d75613464565b5b602002602001018181525050611e10565b858181518110611d9a57611d99613464565b5b6020026020010151868281518110611db557611db4613464565b5b6020026020010151604051602001611dce929190612ece565b6040516020818303038152906040528051906020012082600283611df291906133eb565b81518110611e0357611e02613464565b5b6020026020010181815250505b600281611e1d9190612c05565b9050611b8c565b50809450600288611e3591906133eb565b975050611b0d565b8715611e50578095505050505050611e59565b83955050505050505b9392505050565b60065481565b6000600760000154905090565b60078060000154908060010154905082565b60045481565b60006a636f6e736f6c652e6c6f679050600080835160208501845afa505050565b600260005403611ee8576040517f3ee5aeb500000000000000000000000000000000000000000000000000000000815260040160405180910390fd5b6002600081905550565b6001600081905550565b600060076001015442611f0f91906131bf565b9050611f506040518060400160405280601881526020017f3e3e20414c49454e20456c6c61707365642054696d653a200000000000000000815250826120ee565b611f946040518060400160405280601781526020017f3e3e20414c49454e2043757272656e7420536c6f743a200000000000000000008152506007600001546120ee565b600454811061205257611fdb6040518060400160405280601f81526020017f3e3e20414c49454e204372656174696e67206e65772074696d6520736c6f7400815250612055565b620f4240600454620f424083611ff19190613493565b611ffb91906133eb565b61200591906133eb565b600760000160008282546120199190612c05565b925050819055506120476040518060600160405280602e81526020016135d6602e91396007600001546120ee565b426007600101819055505b50565b6120eb816040516024016120699190613554565b6040516020818303038152906040527f41304fac000000000000000000000000000000000000000000000000000000007bffffffffffffffffffffffffffffffffffffffffffffffffffffffff19166020820180517bffffffffffffffffffffffffffffffffffffffffffffffffffffffff838183161783525050505061218a565b50565b6121868282604051602401612104929190613576565b6040516020818303038152906040527fb60e72cc000000000000000000000000000000000000000000000000000000007bffffffffffffffffffffffffffffffffffffffffffffffffffffffff19166020820180517bffffffffffffffffffffffffffffffffffffffffffffffffffffffff838183161783525050505061218a565b5050565b6121a181612199611e8b6121a4565b63ffffffff16565b50565b6121af819050919050565b6121b76135a6565b565b6040518061012001604052806000815260200160008152602001600015158152602001600073ffffffffffffffffffffffffffffffffffffffff168152602001600073ffffffffffffffffffffffffffffffffffffffff1681526020016000815260200160008019168152602001600081526020016000151581525090565b600080fd5b6000819050919050565b6122508161223d565b811461225b57600080fd5b50565b60008135905061226d81612247565b92915050565b60006020828403121561228957612288612238565b5b60006122978482850161225e565b91505092915050565b6000819050919050565b6122b3816122a0565b82525050565b60008115159050919050565b6122ce816122b9565b82525050565b600073ffffffffffffffffffffffffffffffffffffffff82169050919050565b60006122ff826122d4565b9050919050565b61230f816122f4565b82525050565b61231e8161223d565b82525050565b6101208201600082015161233b60008501826122aa565b50602082015161234e60208501826122aa565b50604082015161236160408501826122c5565b5060608201516123746060850182612306565b5060808201516123876080850182612306565b5060a082015161239a60a08501826122aa565b5060c08201516123ad60c0850182612315565b5060e08201516123c060e08501826122aa565b506101008201516123d56101008501826122c5565b50505050565b6000610120820190506123f16000830184612324565b92915050565b6000806040838503121561240e5761240d612238565b5b600061241c8582860161225e565b925050602061242d8582860161225e565b9150509250929050565b612440816122a0565b811461244b57600080fd5b50565b60008135905061245d81612437565b92915050565b6000806040838503121561247a57612479612238565b5b60006124888582860161244e565b92505060206124998582860161244e565b9150509250929050565b6124ac8161223d565b82525050565b60006020820190506124c760008301846124a3565b92915050565b6124d6816122a0565b82525050565b6124e5816122b9565b82525050565b6124f4816122f4565b82525050565b600061012082019050612510600083018c6124cd565b61251d602083018b6124cd565b61252a604083018a6124dc565b61253760608301896124eb565b61254460808301886124eb565b61255160a08301876124cd565b61255e60c08301866124a3565b61256b60e08301856124cd565b6125796101008301846124dc565b9a9950505050505050505050565b612590816122f4565b811461259b57600080fd5b50565b6000813590506125ad81612587565b92915050565b60008060008060008060008060006101208a8c0312156125d6576125d5612238565b5b60006125e48c828d0161225e565b99505060206125f58c828d0161259e565b98505060406126068c828d0161259e565b97505060606126178c828d0161259e565b96505060806126288c828d0161244e565b95505060a06126398c828d0161225e565b94505060c061264a8c828d0161225e565b93505060e061265b8c828d0161244e565b92505061010061266d8c828d0161225e565b9150509295985092959850929598565b600060208201905061269260008301846124cd565b92915050565b6126a1816122b9565b81146126ac57600080fd5b50565b6000813590506126be81612698565b92915050565b6000806000606084860312156126dd576126dc612238565b5b60006126eb8682870161244e565b93505060206126fc868287016126af565b925050604061270d8682870161244e565b9150509250925092565b600081519050919050565b600082825260208201905092915050565b6000819050602082019050919050565b600061274f8383612315565b60208301905092915050565b6000602082019050919050565b600061277382612717565b61277d8185612722565b935061278883612733565b8060005b838110156127b95781516127a08882612743565b97506127ab8361275b565b92505060018101905061278c565b5085935050505092915050565b600060208201905081810360008301526127e08184612768565b905092915050565b60006040820190506127fd60008301856124cd565b61280a60208301846124cd565b9392505050565b600082825260208201905092915050565b7f54686973206973206e6f7420612048544c43207472616e73616374696f6e0000600082015250565b6000612858601e83612811565b915061286382612822565b602082019050919050565b600060208201905081810360008301526128878161284b565b9050919050565b7f547261646520616c726561647920736574746c65640000000000000000000000600082015250565b60006128c4601583612811565b91506128cf8261288e565b602082019050919050565b600060208201905081810360008301526128f3816128b7565b9050919050565b6000819050919050565b6129156129108261223d565b6128fa565b82525050565b60006129278284612904565b60208201915081905092915050565b7f536563726574206973206e6f7420657175616c20746f2048617368656420536560008201527f6372657400000000000000000000000000000000000000000000000000000000602082015250565b6000612992602483612811565b915061299d82612936565b604082019050919050565b600060208201905081810360008301526129c181612985565b9050919050565b600081905092915050565b50565b60006129e36000836129c8565b91506129ee826129d3565b600082019050919050565b6000612a04826129d6565b9150819050919050565b6000819050919050565b6000612a33612a2e612a29846122d4565b612a0e565b6122d4565b9050919050565b6000612a4582612a18565b9050919050565b6000612a5782612a3a565b9050919050565b612a6781612a4c565b82525050565b6000604082019050612a826000830185612a5e565b612a8f60208301846124cd565b9392505050565b600081519050612aa581612698565b92915050565b600060208284031215612ac157612ac0612238565b5b6000612acf84828501612a96565b91505092915050565b7f54686973206973206e6f7420612048544c43207472616e73616374696f6e206560008201527f6c696769626c6520666f7220726566756e640000000000000000000000000000602082015250565b6000612b34603283612811565b9150612b3f82612ad8565b604082019050919050565b60006020820190508181036000830152612b6381612b27565b9050919050565b7f46756e647320616c72656164792068617665206265656e20726566756e646564600082015250565b6000612ba0602083612811565b9150612bab82612b6a565b602082019050919050565b60006020820190508181036000830152612bcf81612b93565b9050919050565b7f4e487b7100000000000000000000000000000000000000000000000000000000600052601160045260246000fd5b6000612c10826122a0565b9150612c1b836122a0565b9250828201905080821115612c3357612c32612bd6565b5b92915050565b7f526566756e64206973206e6f742079657420617661696c61626c6520746f204160008201527f6c69636520626563617573652065787069726174696f6e20686173206e6f742060208201527f6265656e20616368696576656400000000000000000000000000000000000000604082015250565b6000612cbb604d83612811565b9150612cc682612c39565b606082019050919050565b60006020820190508181036000830152612cea81612cae565b9050919050565b7f496e76616c69642045544820616d6f756e740000000000000000000000000000600082015250565b6000612d27601283612811565b9150612d3282612cf1565b602082019050919050565b60006020820190508181036000830152612d5681612d1a565b9050919050565b7f4e6f204d696b6520416464726573730000000000000000000000000000000000600082015250565b6000612d93600f83612811565b9150612d9e82612d5d565b602082019050919050565b60006020820190508181036000830152612dc281612d86565b9050919050565b60008160601b9050919050565b6000612de182612dc9565b9050919050565b6000612df382612dd6565b9050919050565b612e0b612e06826122f4565b612de8565b82525050565b6000819050919050565b612e2c612e27826122a0565b612e11565b82525050565b6000612e3e8288612904565b602082019150612e4e8287612dfa565b601482019150612e5e8286612dfa565b601482019150612e6e8285612dfa565b601482019150612e7e8284612e1b565b6020820191508190509695505050505050565b6000612e9d8286612904565b602082019150612ead8285612904565b602082019150612ebd8284612e1b565b602082019150819050949350505050565b6000612eda8285612904565b602082019150612eea8284612904565b6020820191508190509392505050565b7f4f6e6c7920416c6963652063616e2073656e642074686973205472616e73616360008201527f74696f6e00000000000000000000000000000000000000000000000000000000602082015250565b6000612f56602483612811565b9150612f6182612efa565b604082019050919050565b60006020820190508181036000830152612f8581612f49565b9050919050565b7f447265782049642048617368206973206e6f7420657175616c20746f2074686560008201527f20696e707574656420706172616d657465727300000000000000000000000000602082015250565b6000612fe8603383612811565b9150612ff382612f8c565b604082019050919050565b6000602082019050818103600083015261301781612fdb565b9050919050565b7f54686973206973206e6f742074686520616c69656e20636f6e7472616374206660008201527f6f72207468697320746f6b656e00000000000000000000000000000000000000602082015250565b600061307a602d83612811565b91506130858261301e565b604082019050919050565b600060208201905081810360008301526130a98161306d565b9050919050565b7f7472616e73616374696f6e20616c726561647920736574746c65640000000000600082015250565b60006130e6601b83612811565b91506130f1826130b0565b602082019050919050565b60006020820190508181036000830152613115816130d9565b9050919050565b7f496e636f727265637420416c69656e20616d6f756e742073656e740000000000600082015250565b6000613152601b83612811565b915061315d8261311c565b602082019050919050565b6000602082019050818103600083015261318181613145565b9050919050565b600060608201905061319d60008301866124eb565b6131aa6020830185612a5e565b6131b760408301846124cd565b949350505050565b60006131ca826122a0565b91506131d5836122a0565b92508282039050818111156131ed576131ec612bd6565b5b92915050565b600060408201905061320860008301856124eb565b61321560208301846124eb565b9392505050565b60008151905061322b81612437565b92915050565b60006020828403121561324757613246612238565b5b60006132558482850161321c565b91505092915050565b7f416c69656e204c6973747261636b20776173206e6f742070726576696f75736c60008201527f7920616c6c6f77656420746f207472616e7366657220746f6b656e7300000000602082015250565b60006132ba603c83612811565b91506132c58261325e565b604082019050919050565b600060208201905081810360008301526132e9816132ad565b9050919050565b7f4e487b7100000000000000000000000000000000000000000000000000000000600052604160045260246000fd5b7f4e6f206461746120746f20637265617465204d65726b6c652074726565000000600082015250565b6000613355601d83612811565b91506133608261331f565b602082019050919050565b6000602082019050818103600083015261338481613348565b9050919050565b7f4e487b7100000000000000000000000000000000000000000000000000000000600052601260045260246000fd5b60006133c5826122a0565b91506133d0836122a0565b9250826133e0576133df61338b565b5b828206905092915050565b60006133f6826122a0565b9150613401836122a0565b9250826134115761341061338b565b5b828204905092915050565b6000613427826122a0565b91507fffffffffffffffffffffffffffffffffffffffffffffffffffffffffffffffff820361345957613458612bd6565b5b600182019050919050565b7f4e487b7100000000000000000000000000000000000000000000000000000000600052603260045260246000fd5b600061349e826122a0565b91506134a9836122a0565b92508282026134b7816122a0565b915082820484148315176134ce576134cd612bd6565b5b5092915050565b600081519050919050565b60005b838110156134fe5780820151818401526020810190506134e3565b60008484015250505050565b6000601f19601f8301169050919050565b6000613526826134d5565b6135308185612811565b93506135408185602086016134e0565b6135498161350a565b840191505092915050565b6000602082019050818103600083015261356e818461351b565b905092915050565b60006040820190508181036000830152613590818561351b565b905061359f60208301846124cd565b9392505050565b7f4e487b7100000000000000000000000000000000000000000000000000000000600052605160045260246000fdfe3e3e20414c49454e204e657720536c6f7420616674657220456c6c61707365642054696d65205570646174653a20a2646970667358221220dac9434310efe81984aa89107d138172165024c33ceb843e81538fb464bb667e64736f6c6343000818003340404020416c69656e204c6973747261636b204465706c6f79656420617420536c6f74203a20",
  "linkReferences": {},
  "deployedLinkReferences": {}
}