{
  "_format": "hh-sol-artifact-1",
  "contractName": "AlienListrack",
  "sourceName": "contracts/AlienListrack.sol",
  "abi": [
    {
      "inputs": [
        {
          "internalType": "address",
          "name": "_tokenAddress",
          "type": "address"
        },
        {
          "internalType": "uint256",
          "name": "_alienLegConfirmation",
          "type": "uint256"
        },
        {
          "internalType": "uint256",
          "name": "_alienLegRefund",
          "type": "uint256"
        }
      ],
      "stateMutability": "payable",
      "type": "constructor"
    },
    {
      "inputs": [],
      "name": "ReentrancyGuardReentrantCall",
      "type": "error"
    },
    {
      "anonymous": false,
      "inputs": [
        {
          "indexed": true,
          "internalType": "bytes32",
          "name": "_drexTxId",
          "type": "bytes32"
        },
        {
          "indexed": false,
          "internalType": "uint256",
          "name": "_alienBlock",
          "type": "uint256"
        },
        {
          "indexed": false,
          "internalType": "uint256",
          "name": "_alienMerkleTxIndex",
          "type": "uint256"
        }
      ],
      "name": "AlienLocked",
      "type": "event"
    },
    {
      "anonymous": false,
      "inputs": [
        {
          "indexed": true,
          "internalType": "bytes32",
          "name": "_drexTxId",
          "type": "bytes32"
        },
        {
          "indexed": true,
          "internalType": "address",
          "name": "_aliceAddress",
          "type": "address"
        }
      ],
      "name": "AlienRefunded",
      "type": "event"
    },
    {
      "anonymous": false,
      "inputs": [
        {
          "indexed": true,
          "internalType": "bytes32",
          "name": "_drexTxId",
          "type": "bytes32"
        },
        {
          "indexed": false,
          "internalType": "uint256",
          "name": "_alienBlock",
          "type": "uint256"
        },
        {
          "indexed": false,
          "internalType": "uint256",
          "name": "_alienMerkleTxIndex",
          "type": "uint256"
        }
      ],
      "name": "AlienSettled",
      "type": "event"
    },
    {
      "inputs": [
        {
          "internalType": "bytes32",
          "name": "_txId",
          "type": "bytes32"
        }
      ],
      "name": "aliceGetRefund",
      "outputs": [],
      "stateMutability": "payable",
      "type": "function"
    },
    {
      "inputs": [],
      "name": "alienLegRefund",
      "outputs": [
        {
          "internalType": "uint256",
          "name": "",
          "type": "uint256"
        }
      ],
      "stateMutability": "view",
      "type": "function"
    },
    {
      "inputs": [
        {
          "internalType": "uint256",
          "name": "",
          "type": "uint256"
        },
        {
          "internalType": "uint256",
          "name": "",
          "type": "uint256"
        }
      ],
      "name": "chainConfirmedTx",
      "outputs": [
        {
          "internalType": "bytes32",
          "name": "",
          "type": "bytes32"
        }
      ],
      "stateMutability": "view",
      "type": "function"
    },
    {
      "inputs": [
        {
          "internalType": "uint256",
          "name": "_slotNumber",
          "type": "uint256"
        },
        {
          "internalType": "bool",
          "name": "isProof",
          "type": "bool"
        },
        {
          "internalType": "uint256",
          "name": "_proofIndex",
          "type": "uint256"
        }
      ],
      "name": "createMerkleTree",
      "outputs": [
        {
          "internalType": "bytes32[]",
          "name": "",
          "type": "bytes32[]"
        }
      ],
      "stateMutability": "view",
      "type": "function"
    },
    {
      "inputs": [],
      "name": "drexConfirmationIndex",
      "outputs": [
        {
          "internalType": "uint256",
          "name": "",
          "type": "uint256"
        }
      ],
      "stateMutability": "view",
      "type": "function"
    },
    {
      "inputs": [],
      "name": "getLatestSlot",
      "outputs": [
        {
          "internalType": "uint256",
          "name": "",
          "type": "uint256"
        }
      ],
      "stateMutability": "view",
      "type": "function"
    },
    {
      "inputs": [
        {
          "internalType": "bytes32",
          "name": "_txId",
          "type": "bytes32"
        }
      ],
      "name": "getTradeFeatures",
      "outputs": [
        {
          "components": [
            {
              "internalType": "uint256",
              "name": "slotNumber",
              "type": "uint256"
            },
            {
              "internalType": "uint256",
              "name": "txIndex",
              "type": "uint256"
            },
            {
              "internalType": "bool",
              "name": "isSettled",
              "type": "bool"
            },
            {
              "internalType": "address",
              "name": "aliceAddress",
              "type": "address"
            },
            {
              "internalType": "address",
              "name": "mikeAddress",
              "type": "address"
            },
            {
              "internalType": "uint256",
              "name": "alienAmount",
              "type": "uint256"
            },
            {
              "internalType": "bytes32",
              "name": "hashedSecret",
              "type": "bytes32"
            },
            {
              "internalType": "uint256",
              "name": "timeStampInserted",
              "type": "uint256"
            },
            {
              "internalType": "bool",
              "name": "isRefunded",
              "type": "bool"
            }
          ],
          "internalType": "struct AlienListrack.TxStatus",
          "name": "",
          "type": "tuple"
        }
      ],
      "stateMutability": "view",
      "type": "function"
    },
    {
      "inputs": [
        {
          "internalType": "bytes32",
          "name": "_txId",
          "type": "bytes32"
        },
        {
          "internalType": "bytes32",
          "name": "_secretRevealed",
          "type": "bytes32"
        }
      ],
      "name": "mikeSettleTrade",
      "outputs": [],
      "stateMutability": "payable",
      "type": "function"
    },
    {
      "inputs": [],
      "name": "slotProduction",
      "outputs": [
        {
          "internalType": "uint256",
          "name": "currentSlot",
          "type": "uint256"
        },
        {
          "internalType": "uint256",
          "name": "lastTimeStamp",
          "type": "uint256"
        }
      ],
      "stateMutability": "view",
      "type": "function"
    },
    {
      "inputs": [],
      "name": "timeSlotConfirmation",
      "outputs": [
        {
          "internalType": "uint256",
          "name": "",
          "type": "uint256"
        }
      ],
      "stateMutability": "view",
      "type": "function"
    },
    {
      "inputs": [
        {
          "internalType": "bytes32",
          "name": "",
          "type": "bytes32"
        }
      ],
      "name": "transactions",
      "outputs": [
        {
          "internalType": "uint256",
          "name": "slotNumber",
          "type": "uint256"
        },
        {
          "internalType": "uint256",
          "name": "txIndex",
          "type": "uint256"
        },
        {
          "internalType": "bool",
          "name": "isSettled",
          "type": "bool"
        },
        {
          "internalType": "address",
          "name": "aliceAddress",
          "type": "address"
        },
        {
          "internalType": "address",
          "name": "mikeAddress",
          "type": "address"
        },
        {
          "internalType": "uint256",
          "name": "alienAmount",
          "type": "uint256"
        },
        {
          "internalType": "bytes32",
          "name": "hashedSecret",
          "type": "bytes32"
        },
        {
          "internalType": "uint256",
          "name": "timeStampInserted",
          "type": "uint256"
        },
        {
          "internalType": "bool",
          "name": "isRefunded",
          "type": "bool"
        }
      ],
      "stateMutability": "view",
      "type": "function"
    },
    {
      "inputs": [
        {
          "internalType": "bytes32",
          "name": "_drexHashFields",
          "type": "bytes32"
        },
        {
          "internalType": "address",
          "name": "_aliceAlienAddress",
          "type": "address"
        },
        {
          "internalType": "address",
          "name": "_mikeAlienAddress",
          "type": "address"
        },
        {
          "internalType": "address",
          "name": "_alientokencontract",
          "type": "address"
        },
        {
          "internalType": "uint256",
          "name": "_alienAmount",
          "type": "uint256"
        },
        {
          "internalType": "bytes32",
          "name": "_hashedSecret",
          "type": "bytes32"
        },
        {
          "internalType": "bytes32",
          "name": "_drexPreviousId",
          "type": "bytes32"
        },
        {
          "internalType": "uint256",
          "name": "_drexTxIndex",
          "type": "uint256"
        },
        {
          "internalType": "bytes32",
          "name": "_drexTxId",
          "type": "bytes32"
        },
        {
          "internalType": "uint256",
          "name": "_drexAlienConfirmationIndex",
          "type": "uint256"
        }
      ],
      "name": "writeAlienLeg",
      "outputs": [
        {
          "internalType": "bool",
          "name": "",
          "type": "bool"
        }
      ],
      "stateMutability": "payable",
      "type": "function"
    }
  ],
  "bytecode": "0x608060405260405162003fab38038062003fab833981810160405281019062000029919062000283565b600160008190555082600160006101000a81548173ffffffffffffffffffffffffffffffffffffffff021916908373ffffffffffffffffffffffffffffffffffffffff1602179055508160048190555080600581905550600060096000018190555042600960010181905550620000c560405180606001604052806026815260200162003f8560269139600960000154620000ce60201b60201c565b505050620003ed565b620001708282604051602401620000e79291906200038a565b6040516020818303038152906040527fb60e72cc000000000000000000000000000000000000000000000000000000007bffffffffffffffffffffffffffffffffffffffffffffffffffffffff19166020820180517bffffffffffffffffffffffffffffffffffffffffffffffffffffffff83818316178352505050506200017460201b60201c565b5050565b6200019a81620001956200019d60201b6200205217620001be60201b60201c565b60201c565b50565b60006a636f6e736f6c652e6c6f679050600080835160208501845afa505050565b620001d260201b6200253a17819050919050565b620001dc620003be565b565b600080fd5b600073ffffffffffffffffffffffffffffffffffffffff82169050919050565b60006200021082620001e3565b9050919050565b620002228162000203565b81146200022e57600080fd5b50565b600081519050620002428162000217565b92915050565b6000819050919050565b6200025d8162000248565b81146200026957600080fd5b50565b6000815190506200027d8162000252565b92915050565b6000806000606084860312156200029f576200029e620001de565b5b6000620002af8682870162000231565b9350506020620002c2868287016200026c565b9250506040620002d5868287016200026c565b9150509250925092565b600081519050919050565b600082825260208201905092915050565b60005b838110156200031b578082015181840152602081019050620002fe565b60008484015250505050565b6000601f19601f8301169050919050565b60006200034582620002df565b620003518185620002ea565b935062000363818560208601620002fb565b6200036e8162000327565b840191505092915050565b620003848162000248565b82525050565b60006040820190508181036000830152620003a6818562000338565b9050620003b7602083018462000379565b9392505050565b7f4e487b7100000000000000000000000000000000000000000000000000000000600052605160045260246000fd5b613b8880620003fd6000396000f3fe6080604052600436106100a75760003560e01c8063af00e20e11610064578063af00e20e146101ce578063d7ff8c1b1461020b578063dc97b8df1461023b578063f41adab114610266578063fb8db4b414610291578063ff202270146102bd576100a7565b806307583998146100ac57806307bada68146100e957806315b8fd3014610105578063642f2eaf146101425780636e6c783214610187578063a0ccddf9146101a3575b600080fd5b3480156100b857600080fd5b506100d360048036038101906100ce91906125fe565b6102e8565b6040516100e09190612766565b60405180910390f35b61010360048036038101906100fe9190612782565b61042a565b005b34801561011157600080fd5b5061012c600480360381019061012791906127ee565b6108c0565b604051610139919061283d565b60405180910390f35b34801561014e57600080fd5b50610169600480360381019061016491906125fe565b6108f1565b60405161017e99989796959493929190612885565b60405180910390f35b6101a1600480360381019061019c91906125fe565b610999565b005b3480156101af57600080fd5b506101b8610e8d565b6040516101c59190612912565b60405180910390f35b3480156101da57600080fd5b506101f560048036038101906101f09190612959565b610e93565b6040516102029190612a5b565b60405180910390f35b61022560048036038101906102209190612aa9565b611394565b6040516102329190612b88565b60405180910390f35b34801561024757600080fd5b50610250612027565b60405161025d9190612912565b60405180910390f35b34801561027257600080fd5b5061027b61202d565b6040516102889190612912565b60405180910390f35b34801561029d57600080fd5b506102a661203a565b6040516102b4929190612ba3565b60405180910390f35b3480156102c957600080fd5b506102d261204c565b6040516102df9190612912565b60405180910390f35b6102f0612544565b600360008381526020019081526020016000206040518061012001604052908160008201548152602001600182015481526020016002820160009054906101000a900460ff161515151581526020016002820160019054906101000a900473ffffffffffffffffffffffffffffffffffffffff1673ffffffffffffffffffffffffffffffffffffffff1673ffffffffffffffffffffffffffffffffffffffff1681526020016003820160009054906101000a900473ffffffffffffffffffffffffffffffffffffffff1673ffffffffffffffffffffffffffffffffffffffff1673ffffffffffffffffffffffffffffffffffffffff1681526020016004820154815260200160058201548152602001600682015481526020016007820160009054906101000a900460ff1615151515815250509050919050565b610432612073565b60006003600084815260200190815260200160002060030160009054906101000a900473ffffffffffffffffffffffffffffffffffffffff1673ffffffffffffffffffffffffffffffffffffffff163373ffffffffffffffffffffffffffffffffffffffff16146104d8576040517f08c379a00000000000000000000000000000000000000000000000000000000081526004016104cf90612c29565b60405180910390fd5b6000801b600360008581526020019081526020016000206005015403610533576040517f08c379a000000000000000000000000000000000000000000000000000000000815260040161052a90612c95565b60405180910390fd5b6003600084815260200190815260200160002060020160009054906101000a900460ff1615610597576040517f08c379a000000000000000000000000000000000000000000000000000000000815260040161058e90612d01565b60405180910390fd5b6003600084815260200190815260200160002060050154826040516020016105bf9190612d42565b6040516020818303038152906040528051906020012014610615576040517f08c379a000000000000000000000000000000000000000000000000000000000815260040161060c90612dcf565b60405180910390fd5b600073ffffffffffffffffffffffffffffffffffffffff16600160009054906101000a900473ffffffffffffffffffffffffffffffffffffffff1673ffffffffffffffffffffffffffffffffffffffff1603610728576003600084815260200190815260200160002060030160009054906101000a900473ffffffffffffffffffffffffffffffffffffffff1673ffffffffffffffffffffffffffffffffffffffff1660036000858152602001908152602001600020600401546040516106db90612e20565b60006040518083038185875af1925050503d8060008114610718576040519150601f19603f3d011682016040523d82523d6000602084013e61071d565b606091505b505080915050610817565b600160009054906101000a900473ffffffffffffffffffffffffffffffffffffffff1673ffffffffffffffffffffffffffffffffffffffff1663a9059cbb6003600086815260200190815260200160002060030160009054906101000a900473ffffffffffffffffffffffffffffffffffffffff1660036000878152602001908152602001600020600401546040518363ffffffff1660e01b81526004016107d1929190612e94565b6020604051808303816000875af11580156107f0573d6000803e3d6000fd5b505050506040513d601f19601f820116820180604052508101906108149190612ed2565b90505b80156108b35760016003600085815260200190815260200160002060020160006101000a81548160ff021916908315150217905550827ff047f0b3a5bfd853a7da93daff5dfdd8e51d40151a725899863560a292e4ffb1600360008681526020019081526020016000206000015460036000878152602001908152602001600020600101546040516108aa929190612ba3565b60405180910390a25b506108bc6120b9565b5050565b600260205281600052604060002081815481106108dc57600080fd5b90600052602060002001600091509150505481565b60036020528060005260406000206000915090508060000154908060010154908060020160009054906101000a900460ff16908060020160019054906101000a900473ffffffffffffffffffffffffffffffffffffffff16908060030160009054906101000a900473ffffffffffffffffffffffffffffffffffffffff16908060040154908060050154908060060154908060070160009054906101000a900460ff16905089565b6109a1612073565b60006003600083815260200190815260200160002060020160019054906101000a900473ffffffffffffffffffffffffffffffffffffffff1673ffffffffffffffffffffffffffffffffffffffff163373ffffffffffffffffffffffffffffffffffffffff1614610a47576040517f08c379a0000000000000000000000000000000000000000000000000000000008152600401610a3e90612f4b565b60405180910390fd5b6000801b600360008481526020019081526020016000206005015403610aa2576040517f08c379a0000000000000000000000000000000000000000000000000000000008152600401610a9990612fdd565b60405180910390fd5b6003600083815260200190815260200160002060070160009054906101000a900460ff1615610b06576040517f08c379a0000000000000000000000000000000000000000000000000000000008152600401610afd90613049565b60405180910390fd5b6003600083815260200190815260200160002060020160009054906101000a900460ff1615610b6a576040517f08c379a0000000000000000000000000000000000000000000000000000000008152600401610b6190612d01565b60405180910390fd5b6005546003600084815260200190815260200160002060060154610b8e9190613098565b4211610bcf576040517f08c379a0000000000000000000000000000000000000000000000000000000008152600401610bc690613164565b60405180910390fd5b600073ffffffffffffffffffffffffffffffffffffffff16600160009054906101000a900473ffffffffffffffffffffffffffffffffffffffff1673ffffffffffffffffffffffffffffffffffffffff1603610ce2576003600083815260200190815260200160002060020160019054906101000a900473ffffffffffffffffffffffffffffffffffffffff1673ffffffffffffffffffffffffffffffffffffffff166003600084815260200190815260200160002060040154604051610c9590612e20565b60006040518083038185875af1925050503d8060008114610cd2576040519150601f19603f3d011682016040523d82523d6000602084013e610cd7565b606091505b505080915050610dd1565b600160009054906101000a900473ffffffffffffffffffffffffffffffffffffffff1673ffffffffffffffffffffffffffffffffffffffff1663a9059cbb6003600085815260200190815260200160002060020160019054906101000a900473ffffffffffffffffffffffffffffffffffffffff1660036000868152602001908152602001600020600401546040518363ffffffff1660e01b8152600401610d8b929190612e94565b6020604051808303816000875af1158015610daa573d6000803e3d6000fd5b505050506040513d601f19601f82011682018060405250810190610dce9190612ed2565b90505b8015610e815760016003600084815260200190815260200160002060070160006101000a81548160ff0219169083151502179055506003600083815260200190815260200160002060020160019054906101000a900473ffffffffffffffffffffffffffffffffffffffff1673ffffffffffffffffffffffffffffffffffffffff16827f71180e6b6f96cff692061f8afdd0fdfa0244ea4455c35876b25cbed647b0937760405160405180910390a35b50610e8a6120b9565b50565b60055481565b606060006002600086815260200190815260200160002080549050905060008167ffffffffffffffff811115610ecc57610ecb613184565b5b604051908082528060200260200182016040528015610efa5781602001602082028036833780820191505090505b50905060026000878152602001908152602001600020805480602002602001604051908101604052809291908181526020018280548015610f5a57602002820191906000526020600020905b815481526020019060010190808311610f46575b505050505090506000815111610fa5576040517f08c379a0000000000000000000000000000000000000000000000000000000008152600401610f9c906131ff565b60405180910390fd5b600082905060005b6001821115610fef57600282610fc3919061324e565b600283610fd0919061327f565b610fda9190613098565b91508080610fe7906132b0565b915050610fad565b60008167ffffffffffffffff81111561100b5761100a613184565b5b6040519080825280602002602001820160405280156110395781602001602082028036833780820191505090505b509050600091505b6001845111156113715760006002855161105b919061324e565b60028651611069919061327f565b6110739190613098565b67ffffffffffffffff81111561108c5761108b613184565b5b6040519080825280602002602001820160405280156110ba5781602001602082028036833780820191505090505b50905060005b855181101561135857891561120d5760008190505b6001826110e29190613098565b811161120b57808a036111f857600060028b6110fe919061324e565b036111a25786516001826111129190613098565b036111565786818151811061112a576111296132f8565b5b6020026020010151848681518110611145576111446132f8565b5b60200260200101818152505061119d565b866001826111649190613098565b81518110611175576111746132f8565b5b60200260200101518486815181106111905761118f6132f8565b5b6020026020010181815250505b6111e9565b866001826111b09190613327565b815181106111c1576111c06132f8565b5b60200260200101518486815181106111dc576111db6132f8565b5b6020026020010181815250505b84806111f4906132b0565b9550505b8080611203906132b0565b9150506110d5565b505b855160018261121c9190613098565b10156112bb57858181518110611235576112346132f8565b5b60200260200101518660018361124b9190613098565b8151811061125c5761125b6132f8565b5b602002602001015160405160200161127592919061335b565b6040516020818303038152906040528051906020012082600283611299919061327f565b815181106112aa576112a96132f8565b5b602002602001018181525050611344565b8581815181106112ce576112cd6132f8565b5b60200260200101518682815181106112e9576112e86132f8565b5b602002602001015160405160200161130292919061335b565b6040516020818303038152906040528051906020012082600283611326919061327f565b81518110611337576113366132f8565b5b6020026020010181815250505b6002816113519190613098565b90506110c0565b50809450600288611369919061327f565b975050611041565b871561138457809550505050505061138d565b83955050505050505b9392505050565b600061139e612073565b60008088116113e2576040517f08c379a00000000000000000000000000000000000000000000000000000000081526004016113d9906133d3565b60405180910390fd5b600073ffffffffffffffffffffffffffffffffffffffff168a73ffffffffffffffffffffffffffffffffffffffff1603611451576040517f08c379a00000000000000000000000000000000000000000000000000000000081526004016114489061343f565b60405180910390fd5b60008c8c8c8c8c60405160200161146c9594939291906134c8565b60405160208183030381529060405280519060200120905080888760405160200161149993929190613527565b60405160208183030381529060405280519060200120905086816040516020016114c492919061335b565b6040516020818303038152906040528051906020012090508b73ffffffffffffffffffffffffffffffffffffffff163373ffffffffffffffffffffffffffffffffffffffff161461154a576040517f08c379a0000000000000000000000000000000000000000000000000000000008152600401611541906135d6565b60405180910390fd5b84811461158c576040517f08c379a000000000000000000000000000000000000000000000000000000000815260040161158390613668565b60405180910390fd5b600160009054906101000a900473ffffffffffffffffffffffffffffffffffffffff1673ffffffffffffffffffffffffffffffffffffffff168a73ffffffffffffffffffffffffffffffffffffffff161461161c576040517f08c379a0000000000000000000000000000000000000000000000000000000008152600401611613906136fa565b60405180910390fd5b6003600086815260200190815260200160002060020160009054906101000a900460ff1615611680576040517f08c379a000000000000000000000000000000000000000000000000000000000815260040161167790613766565b60405180910390fd5b6006548610156116c5576040517f08c379a00000000000000000000000000000000000000000000000000000000081526004016116bc906137f8565b60405180910390fd5b6000801b8803611aed57600073ffffffffffffffffffffffffffffffffffffffff168a73ffffffffffffffffffffffffffffffffffffffff16036117b657883414611745576040517f08c379a000000000000000000000000000000000000000000000000000000000815260040161173c90613864565b60405180910390fd5b8a73ffffffffffffffffffffffffffffffffffffffff168960405161176990612e20565b60006040518083038185875af1925050503d80600081146117a6576040519150601f19603f3d011682016040523d82523d6000602084013e6117ab565b606091505b505080925050611839565b8973ffffffffffffffffffffffffffffffffffffffff166323b872dd338d8c6040518463ffffffff1660e01b81526004016117f393929190613884565b6020604051808303816000875af1158015611812573d6000803e3d6000fd5b505050506040513d601f19601f820116820180604052508101906118369190612ed2565b91505b8115611ae857611849848a6120c3565b60026000600960000154815260200190815260200160002085908060018154018082558091505060019003906000526020600020016000909190919091505560096000015460036000878152602001908152602001600020600001819055506001600260006009600001548152602001908152602001600020805490506118d09190613327565b600360008781526020019081526020016000206001018190555060016003600087815260200190815260200160002060020160006101000a81548160ff0219169083151502179055508a6003600087815260200190815260200160002060030160006101000a81548173ffffffffffffffffffffffffffffffffffffffff021916908373ffffffffffffffffffffffffffffffffffffffff1602179055508b6003600087815260200190815260200160002060020160016101000a81548173ffffffffffffffffffffffffffffffffffffffff021916908373ffffffffffffffffffffffffffffffffffffffff16021790555088600360008781526020019081526020016000206004018190555087600360008781526020019081526020016000206005018190555060016003600087815260200190815260200160002060070160006101000a81548160ff021916908315150217905550426003600087815260200190815260200160002060060181905550847ff047f0b3a5bfd853a7da93daff5dfdd8e51d40151a725899863560a292e4ffb1600960000154600160026000600960000154815260200190815260200160002080549050611a939190613327565b604051611aa1929190612ba3565b60405180910390a2611ae76040518060400160405280601181526020017f416c69656e204c656720536574746c65640000000000000000000000000000008152506121bc565b5b611fcd565b600073ffffffffffffffffffffffffffffffffffffffff168a73ffffffffffffffffffffffffffffffffffffffff1603611bd457883414611b63576040517f08c379a0000000000000000000000000000000000000000000000000000000008152600401611b5a90613864565b60405180910390fd5b3073ffffffffffffffffffffffffffffffffffffffff1689604051611b8790612e20565b60006040518083038185875af1925050503d8060008114611bc4576040519150601f19603f3d011682016040523d82523d6000602084013e611bc9565b606091505b505080925050611d1d565b60008a73ffffffffffffffffffffffffffffffffffffffff1663dd62ed3e33306040518363ffffffff1660e01b8152600401611c119291906138bb565b6020604051808303816000875af1158015611c30573d6000803e3d6000fd5b505050506040513d601f19601f82011682018060405250810190611c5491906138f9565b905089811015611c99576040517f08c379a0000000000000000000000000000000000000000000000000000000008152600401611c9090613998565b60405180910390fd5b8a73ffffffffffffffffffffffffffffffffffffffff166323b872dd33308d6040518463ffffffff1660e01b8152600401611cd693929190613884565b6020604051808303816000875af1158015611cf5573d6000803e3d6000fd5b505050506040513d601f19601f82011682018060405250810190611d199190612ed2565b9250505b8115611fcc57611d2d848a6120c3565b6002600060096000015481526020019081526020016000208590806001815401808255809150506001900390600052602060002001600090919091909150556009600001546003600087815260200190815260200160002060000181905550600160026000600960000154815260200190815260200160002080549050611db49190613327565b600360008781526020019081526020016000206001018190555060006003600087815260200190815260200160002060020160006101000a81548160ff0219169083151502179055508a6003600087815260200190815260200160002060030160006101000a81548173ffffffffffffffffffffffffffffffffffffffff021916908373ffffffffffffffffffffffffffffffffffffffff1602179055508b6003600087815260200190815260200160002060020160016101000a81548173ffffffffffffffffffffffffffffffffffffffff021916908373ffffffffffffffffffffffffffffffffffffffff16021790555088600360008781526020019081526020016000206004018190555087600360008781526020019081526020016000206005018190555060006003600087815260200190815260200160002060070160006101000a81548160ff021916908315150217905550426003600087815260200190815260200160002060060181905550847fc1a07a602e297ee840ab2f857a6a6d6d729fe49fef22cb6aebb284a1eee2d9f8600960000154600160026000600960000154815260200190815260200160002080549050611f779190613327565b604051611f85929190612ba3565b60405180910390a2611fcb6040518060400160405280601081526020017f416c69656e204c6567204c6f636b6564000000000000000000000000000000008152506121bc565b5b5b61200c6040518060400160405280601381526020017f416c69656e204c6567205772697474656e203f0000000000000000000000000081525083612255565b81925050506120196120b9565b9a9950505050505050505050565b60065481565b6000600960000154905090565b60098060000154908060010154905082565b60045481565b60006a636f6e736f6c652e6c6f679050600080835160208501845afa505050565b6002600054036120af576040517f3ee5aeb500000000000000000000000000000000000000000000000000000000815260040160405180910390fd5b6002600081905550565b6001600081905550565b60006120cd6122f1565b6121006008600060096000015481526020019081526020016000206000858152602001908152602001600020548361244a565b5080915050801561214c5781600860006009600001548152602001908152602001600020600085815260200190815260200160002060008282546121449190613098565b925050819055505b60075460086000600960000154815260200190815260200160002060008581526020019081526020016000205411156121b757600860006009600001548152602001908152602001600020600084815260200190815260200160002054600781905550826006819055505b505050565b612252816040516024016121d09190613a37565b6040516020818303038152906040527f41304fac000000000000000000000000000000000000000000000000000000007bffffffffffffffffffffffffffffffffffffffffffffffffffffffff19166020820180517bffffffffffffffffffffffffffffffffffffffffffffffffffffffff8381831617835250505050612479565b50565b6122ed828260405160240161226b929190613a59565b6040516020818303038152906040527fc3b55635000000000000000000000000000000000000000000000000000000007bffffffffffffffffffffffffffffffffffffffffffffffffffffffff19166020820180517bffffffffffffffffffffffffffffffffffffffffffffffffffffffff8381831617835250505050612479565b5050565b6000600960010154426123049190613327565b90506123456040518060400160405280601281526020017f3e3e20456c6c61707365642054696d653a20000000000000000000000000000081525082612493565b6123896040518060400160405280601181526020017f3e3e2043757272656e7420536c6f743a20000000000000000000000000000000815250600960000154612493565b6004548110612447576123d06040518060400160405280601981526020017f3e3e204372656174696e67206e65772074696d6520736c6f74000000000000008152506121bc565b620f4240600454620f4240836123e69190613a89565b6123f0919061327f565b6123fa919061327f565b6009600001600082825461240e9190613098565b9250508190555061243c604051806060016040528060288152602001613b2b60289139600960000154612493565b426009600101819055505b50565b6000806000838501905084811015612469576000809250925050612472565b60018192509250505b9250929050565b6124908161248861205261252f565b63ffffffff16565b50565b61252b82826040516024016124a9929190613acb565b6040516020818303038152906040527fb60e72cc000000000000000000000000000000000000000000000000000000007bffffffffffffffffffffffffffffffffffffffffffffffffffffffff19166020820180517bffffffffffffffffffffffffffffffffffffffffffffffffffffffff8381831617835250505050612479565b5050565b61253a819050919050565b612542613afb565b565b6040518061012001604052806000815260200160008152602001600015158152602001600073ffffffffffffffffffffffffffffffffffffffff168152602001600073ffffffffffffffffffffffffffffffffffffffff1681526020016000815260200160008019168152602001600081526020016000151581525090565b600080fd5b6000819050919050565b6125db816125c8565b81146125e657600080fd5b50565b6000813590506125f8816125d2565b92915050565b600060208284031215612614576126136125c3565b5b6000612622848285016125e9565b91505092915050565b6000819050919050565b61263e8161262b565b82525050565b60008115159050919050565b61265981612644565b82525050565b600073ffffffffffffffffffffffffffffffffffffffff82169050919050565b600061268a8261265f565b9050919050565b61269a8161267f565b82525050565b6126a9816125c8565b82525050565b610120820160008201516126c66000850182612635565b5060208201516126d96020850182612635565b5060408201516126ec6040850182612650565b5060608201516126ff6060850182612691565b5060808201516127126080850182612691565b5060a082015161272560a0850182612635565b5060c082015161273860c08501826126a0565b5060e082015161274b60e0850182612635565b50610100820151612760610100850182612650565b50505050565b60006101208201905061277c60008301846126af565b92915050565b60008060408385031215612799576127986125c3565b5b60006127a7858286016125e9565b92505060206127b8858286016125e9565b9150509250929050565b6127cb8161262b565b81146127d657600080fd5b50565b6000813590506127e8816127c2565b92915050565b60008060408385031215612805576128046125c3565b5b6000612813858286016127d9565b9250506020612824858286016127d9565b9150509250929050565b612837816125c8565b82525050565b6000602082019050612852600083018461282e565b92915050565b6128618161262b565b82525050565b61287081612644565b82525050565b61287f8161267f565b82525050565b60006101208201905061289b600083018c612858565b6128a8602083018b612858565b6128b5604083018a612867565b6128c26060830189612876565b6128cf6080830188612876565b6128dc60a0830187612858565b6128e960c083018661282e565b6128f660e0830185612858565b612904610100830184612867565b9a9950505050505050505050565b60006020820190506129276000830184612858565b92915050565b61293681612644565b811461294157600080fd5b50565b6000813590506129538161292d565b92915050565b600080600060608486031215612972576129716125c3565b5b6000612980868287016127d9565b935050602061299186828701612944565b92505060406129a2868287016127d9565b9150509250925092565b600081519050919050565b600082825260208201905092915050565b6000819050602082019050919050565b60006129e483836126a0565b60208301905092915050565b6000602082019050919050565b6000612a08826129ac565b612a1281856129b7565b9350612a1d836129c8565b8060005b83811015612a4e578151612a3588826129d8565b9750612a40836129f0565b925050600181019050612a21565b5085935050505092915050565b60006020820190508181036000830152612a7581846129fd565b905092915050565b612a868161267f565b8114612a9157600080fd5b50565b600081359050612aa381612a7d565b92915050565b6000806000806000806000806000806101408b8d031215612acd57612acc6125c3565b5b6000612adb8d828e016125e9565b9a50506020612aec8d828e01612a94565b9950506040612afd8d828e01612a94565b9850506060612b0e8d828e01612a94565b9750506080612b1f8d828e016127d9565b96505060a0612b308d828e016125e9565b95505060c0612b418d828e016125e9565b94505060e0612b528d828e016127d9565b935050610100612b648d828e016125e9565b925050610120612b768d828e016127d9565b9150509295989b9194979a5092959850565b6000602082019050612b9d6000830184612867565b92915050565b6000604082019050612bb86000830185612858565b612bc56020830184612858565b9392505050565b600082825260208201905092915050565b7f4f6e6c79204d696b652063616e20736574746c65207468652074726164650000600082015250565b6000612c13601e83612bcc565b9150612c1e82612bdd565b602082019050919050565b60006020820190508181036000830152612c4281612c06565b9050919050565b7f54686973206973206e6f7420612048544c43207472616e73616374696f6e0000600082015250565b6000612c7f601e83612bcc565b9150612c8a82612c49565b602082019050919050565b60006020820190508181036000830152612cae81612c72565b9050919050565b7f547261646520616c726561647920736574746c65640000000000000000000000600082015250565b6000612ceb601583612bcc565b9150612cf682612cb5565b602082019050919050565b60006020820190508181036000830152612d1a81612cde565b9050919050565b6000819050919050565b612d3c612d37826125c8565b612d21565b82525050565b6000612d4e8284612d2b565b60208201915081905092915050565b7f536563726574206973206e6f7420657175616c20746f2048617368656420536560008201527f6372657400000000000000000000000000000000000000000000000000000000602082015250565b6000612db9602483612bcc565b9150612dc482612d5d565b604082019050919050565b60006020820190508181036000830152612de881612dac565b9050919050565b600081905092915050565b50565b6000612e0a600083612def565b9150612e1582612dfa565b600082019050919050565b6000612e2b82612dfd565b9150819050919050565b6000819050919050565b6000612e5a612e55612e508461265f565b612e35565b61265f565b9050919050565b6000612e6c82612e3f565b9050919050565b6000612e7e82612e61565b9050919050565b612e8e81612e73565b82525050565b6000604082019050612ea96000830185612e85565b612eb66020830184612858565b9392505050565b600081519050612ecc8161292d565b92915050565b600060208284031215612ee857612ee76125c3565b5b6000612ef684828501612ebd565b91505092915050565b7f4f6e6c7920416c6963652063616e206765742074686520726566756e64000000600082015250565b6000612f35601d83612bcc565b9150612f4082612eff565b602082019050919050565b60006020820190508181036000830152612f6481612f28565b9050919050565b7f54686973206973206e6f7420612048544c43207472616e73616374696f6e206560008201527f6c696769626c6520666f7220726566756e640000000000000000000000000000602082015250565b6000612fc7603283612bcc565b9150612fd282612f6b565b604082019050919050565b60006020820190508181036000830152612ff681612fba565b9050919050565b7f46756e647320616c726561647920726566756e64656400000000000000000000600082015250565b6000613033601683612bcc565b915061303e82612ffd565b602082019050919050565b6000602082019050818103600083015261306281613026565b9050919050565b7f4e487b7100000000000000000000000000000000000000000000000000000000600052601160045260246000fd5b60006130a38261262b565b91506130ae8361262b565b92508282019050808211156130c6576130c5613069565b5b92915050565b7f526566756e64206973206e6f742079657420617661696c61626c6520746f204160008201527f6c69636520626563617573652065787069726174696f6e20686173206e6f742060208201527f6265656e20616368696576656400000000000000000000000000000000000000604082015250565b600061314e604d83612bcc565b9150613159826130cc565b606082019050919050565b6000602082019050818103600083015261317d81613141565b9050919050565b7f4e487b7100000000000000000000000000000000000000000000000000000000600052604160045260246000fd5b7f4e6f206461746120746f20637265617465204d65726b6c652074726565000000600082015250565b60006131e9601d83612bcc565b91506131f4826131b3565b602082019050919050565b60006020820190508181036000830152613218816131dc565b9050919050565b7f4e487b7100000000000000000000000000000000000000000000000000000000600052601260045260246000fd5b60006132598261262b565b91506132648361262b565b9250826132745761327361321f565b5b828206905092915050565b600061328a8261262b565b91506132958361262b565b9250826132a5576132a461321f565b5b828204905092915050565b60006132bb8261262b565b91507fffffffffffffffffffffffffffffffffffffffffffffffffffffffffffffffff82036132ed576132ec613069565b5b600182019050919050565b7f4e487b7100000000000000000000000000000000000000000000000000000000600052603260045260246000fd5b60006133328261262b565b915061333d8361262b565b925082820390508181111561335557613354613069565b5b92915050565b60006133678285612d2b565b6020820191506133778284612d2b565b6020820191508190509392505050565b7f496e76616c69642045544820616d6f756e740000000000000000000000000000600082015250565b60006133bd601283612bcc565b91506133c882613387565b602082019050919050565b600060208201905081810360008301526133ec816133b0565b9050919050565b7f4e6f204d696b6520416464726573730000000000000000000000000000000000600082015250565b6000613429600f83612bcc565b9150613434826133f3565b602082019050919050565b600060208201905081810360008301526134588161341c565b9050919050565b60008160601b9050919050565b60006134778261345f565b9050919050565b60006134898261346c565b9050919050565b6134a161349c8261267f565b61347e565b82525050565b6000819050919050565b6134c26134bd8261262b565b6134a7565b82525050565b60006134d48288612d2b565b6020820191506134e48287613490565b6014820191506134f48286613490565b6014820191506135048285613490565b60148201915061351482846134b1565b6020820191508190509695505050505050565b60006135338286612d2b565b6020820191506135438285612d2b565b60208201915061355382846134b1565b602082019150819050949350505050565b7f4f6e6c7920416c6963652063616e2073656e642074686973205472616e73616360008201527f74696f6e00000000000000000000000000000000000000000000000000000000602082015250565b60006135c0602483612bcc565b91506135cb82613564565b604082019050919050565b600060208201905081810360008301526135ef816135b3565b9050919050565b7f447265782049642048617368206973206e6f7420657175616c20746f2074686560008201527f20696e707574656420706172616d657465727300000000000000000000000000602082015250565b6000613652603383612bcc565b915061365d826135f6565b604082019050919050565b6000602082019050818103600083015261368181613645565b9050919050565b7f54686973206973206e6f742074686520616c69656e20636f6e7472616374206660008201527f6f72207468697320746f6b656e00000000000000000000000000000000000000602082015250565b60006136e4602d83612bcc565b91506136ef82613688565b604082019050919050565b60006020820190508181036000830152613713816136d7565b9050919050565b7f7472616e73616374696f6e20616c726561647920736574746c65640000000000600082015250565b6000613750601b83612bcc565b915061375b8261371a565b602082019050919050565b6000602082019050818103600083015261377f81613743565b9050919050565b7f416c69656e205472616e73616374696f6e206973206e6f206d6f72652076616c60008201527f696420746f20436f6e6669726d00000000000000000000000000000000000000602082015250565b60006137e2602d83612bcc565b91506137ed82613786565b604082019050919050565b60006020820190508181036000830152613811816137d5565b9050919050565b7f496e636f727265637420416c69656e20616d6f756e742073656e740000000000600082015250565b600061384e601b83612bcc565b915061385982613818565b602082019050919050565b6000602082019050818103600083015261387d81613841565b9050919050565b60006060820190506138996000830186612876565b6138a66020830185612e85565b6138b36040830184612858565b949350505050565b60006040820190506138d06000830185612876565b6138dd6020830184612876565b9392505050565b6000815190506138f3816127c2565b92915050565b60006020828403121561390f5761390e6125c3565b5b600061391d848285016138e4565b91505092915050565b7f416c69656e204c6973747261636b20776173206e6f742070726576696f75736c60008201527f7920616c6c6f77656420746f207472616e7366657220746f6b656e7300000000602082015250565b6000613982603c83612bcc565b915061398d82613926565b604082019050919050565b600060208201905081810360008301526139b181613975565b9050919050565b600081519050919050565b60005b838110156139e15780820151818401526020810190506139c6565b60008484015250505050565b6000601f19601f8301169050919050565b6000613a09826139b8565b613a138185612bcc565b9350613a238185602086016139c3565b613a2c816139ed565b840191505092915050565b60006020820190508181036000830152613a5181846139fe565b905092915050565b60006040820190508181036000830152613a7381856139fe565b9050613a826020830184612867565b9392505050565b6000613a948261262b565b9150613a9f8361262b565b9250828202613aad8161262b565b91508282048414831517613ac457613ac3613069565b5b5092915050565b60006040820190508181036000830152613ae581856139fe565b9050613af46020830184612858565b9392505050565b7f4e487b7100000000000000000000000000000000000000000000000000000000600052605160045260246000fdfe3e3e204e657720536c6f7420616674657220456c6c61707365642054696d65205570646174653a20a2646970667358221220ee62a8bce99f90c16e046ac1cb928f0017a6412ef43e33c2bbe8a3af8e7fb8fc64736f6c6343000818003340404020416c69656e204c6973747261636b204465706c6f79656420617420536c6f74203a20",
  "linkReferences": {},
  "deployedLinkReferences": {}
}