{
  "_format": "hh-sol-artifact-1",
  "contractName": "AlienListrack",
  "sourceName": "contracts/AlienListrack.sol",
  "abi": [
    {
      "inputs": [
        {
          "internalType": "address",
          "name": "_tokenAddress",
          "type": "address"
        },
        {
          "internalType": "uint256",
          "name": "_alienLegConfirmation",
          "type": "uint256"
        },
        {
          "internalType": "uint256",
          "name": "_alienLegRefund",
          "type": "uint256"
        }
      ],
      "stateMutability": "payable",
      "type": "constructor"
    },
    {
      "inputs": [],
      "name": "ReentrancyGuardReentrantCall",
      "type": "error"
    },
    {
      "anonymous": false,
      "inputs": [
        {
          "indexed": true,
          "internalType": "bytes32",
          "name": "_drexTxId",
          "type": "bytes32"
        },
        {
          "indexed": false,
          "internalType": "uint256",
          "name": "_alienBlock",
          "type": "uint256"
        },
        {
          "indexed": false,
          "internalType": "uint256",
          "name": "_alienMerkleTxIndex",
          "type": "uint256"
        }
      ],
      "name": "AlienLocked",
      "type": "event"
    },
    {
      "anonymous": false,
      "inputs": [
        {
          "indexed": true,
          "internalType": "bytes32",
          "name": "_drexTxId",
          "type": "bytes32"
        },
        {
          "indexed": true,
          "internalType": "address",
          "name": "_aliceAddress",
          "type": "address"
        }
      ],
      "name": "AlienRefunded",
      "type": "event"
    },
    {
      "anonymous": false,
      "inputs": [
        {
          "indexed": true,
          "internalType": "bytes32",
          "name": "_drexTxId",
          "type": "bytes32"
        },
        {
          "indexed": false,
          "internalType": "uint256",
          "name": "_alienBlock",
          "type": "uint256"
        },
        {
          "indexed": false,
          "internalType": "uint256",
          "name": "_alienMerkleTxIndex",
          "type": "uint256"
        }
      ],
      "name": "AlienSettled",
      "type": "event"
    },
    {
      "inputs": [
        {
          "internalType": "bytes32",
          "name": "_txId",
          "type": "bytes32"
        }
      ],
      "name": "aliceGetRefund",
      "outputs": [],
      "stateMutability": "payable",
      "type": "function"
    },
    {
      "inputs": [],
      "name": "alienLegRefund",
      "outputs": [
        {
          "internalType": "uint256",
          "name": "",
          "type": "uint256"
        }
      ],
      "stateMutability": "view",
      "type": "function"
    },
    {
      "inputs": [
        {
          "internalType": "uint256",
          "name": "",
          "type": "uint256"
        },
        {
          "internalType": "uint256",
          "name": "",
          "type": "uint256"
        }
      ],
      "name": "chainConfirmedTx",
      "outputs": [
        {
          "internalType": "bytes32",
          "name": "",
          "type": "bytes32"
        }
      ],
      "stateMutability": "view",
      "type": "function"
    },
    {
      "inputs": [
        {
          "internalType": "uint256",
          "name": "_slotNumber",
          "type": "uint256"
        },
        {
          "internalType": "bool",
          "name": "isProof",
          "type": "bool"
        },
        {
          "internalType": "uint256",
          "name": "_proofIndex",
          "type": "uint256"
        }
      ],
      "name": "createMerkleTree",
      "outputs": [
        {
          "internalType": "bytes32[]",
          "name": "",
          "type": "bytes32[]"
        }
      ],
      "stateMutability": "view",
      "type": "function"
    },
    {
      "inputs": [],
      "name": "drexConfirmationIndex",
      "outputs": [
        {
          "internalType": "uint256",
          "name": "",
          "type": "uint256"
        }
      ],
      "stateMutability": "view",
      "type": "function"
    },
    {
      "inputs": [],
      "name": "getLatestSlot",
      "outputs": [
        {
          "internalType": "uint256",
          "name": "",
          "type": "uint256"
        }
      ],
      "stateMutability": "view",
      "type": "function"
    },
    {
      "inputs": [
        {
          "internalType": "bytes32",
          "name": "_txId",
          "type": "bytes32"
        }
      ],
      "name": "getTradeFeatures",
      "outputs": [
        {
          "components": [
            {
              "internalType": "uint256",
              "name": "slotNumber",
              "type": "uint256"
            },
            {
              "internalType": "uint256",
              "name": "txIndex",
              "type": "uint256"
            },
            {
              "internalType": "bool",
              "name": "isSettled",
              "type": "bool"
            },
            {
              "internalType": "address",
              "name": "aliceAddress",
              "type": "address"
            },
            {
              "internalType": "address",
              "name": "mikeAddress",
              "type": "address"
            },
            {
              "internalType": "uint256",
              "name": "alienAmount",
              "type": "uint256"
            },
            {
              "internalType": "bytes32",
              "name": "hashedSecret",
              "type": "bytes32"
            },
            {
              "internalType": "uint256",
              "name": "timeStampInserted",
              "type": "uint256"
            },
            {
              "internalType": "bool",
              "name": "isRefunded",
              "type": "bool"
            }
          ],
          "internalType": "struct AlienListrack.TxStatus",
          "name": "",
          "type": "tuple"
        }
      ],
      "stateMutability": "view",
      "type": "function"
    },
    {
      "inputs": [
        {
          "internalType": "bytes32",
          "name": "_txId",
          "type": "bytes32"
        },
        {
          "internalType": "bytes32",
          "name": "_secretRevealed",
          "type": "bytes32"
        }
      ],
      "name": "mikeSettleTrade",
      "outputs": [],
      "stateMutability": "payable",
      "type": "function"
    },
    {
      "inputs": [],
      "name": "slotProduction",
      "outputs": [
        {
          "internalType": "uint256",
          "name": "currentSlot",
          "type": "uint256"
        },
        {
          "internalType": "uint256",
          "name": "lastTimeStamp",
          "type": "uint256"
        }
      ],
      "stateMutability": "view",
      "type": "function"
    },
    {
      "inputs": [],
      "name": "timeSlotConfirmation",
      "outputs": [
        {
          "internalType": "uint256",
          "name": "",
          "type": "uint256"
        }
      ],
      "stateMutability": "view",
      "type": "function"
    },
    {
      "inputs": [
        {
          "internalType": "bytes32",
          "name": "",
          "type": "bytes32"
        }
      ],
      "name": "transactions",
      "outputs": [
        {
          "internalType": "uint256",
          "name": "slotNumber",
          "type": "uint256"
        },
        {
          "internalType": "uint256",
          "name": "txIndex",
          "type": "uint256"
        },
        {
          "internalType": "bool",
          "name": "isSettled",
          "type": "bool"
        },
        {
          "internalType": "address",
          "name": "aliceAddress",
          "type": "address"
        },
        {
          "internalType": "address",
          "name": "mikeAddress",
          "type": "address"
        },
        {
          "internalType": "uint256",
          "name": "alienAmount",
          "type": "uint256"
        },
        {
          "internalType": "bytes32",
          "name": "hashedSecret",
          "type": "bytes32"
        },
        {
          "internalType": "uint256",
          "name": "timeStampInserted",
          "type": "uint256"
        },
        {
          "internalType": "bool",
          "name": "isRefunded",
          "type": "bool"
        }
      ],
      "stateMutability": "view",
      "type": "function"
    },
    {
      "inputs": [
        {
          "internalType": "bytes32",
          "name": "_drexHashFields",
          "type": "bytes32"
        },
        {
          "internalType": "address",
          "name": "_aliceAlienAddress",
          "type": "address"
        },
        {
          "internalType": "address",
          "name": "_mikeAlienAddress",
          "type": "address"
        },
        {
          "internalType": "address",
          "name": "_alientokencontract",
          "type": "address"
        },
        {
          "internalType": "uint256",
          "name": "_alienAmount",
          "type": "uint256"
        },
        {
          "internalType": "bytes32",
          "name": "_hashedSecret",
          "type": "bytes32"
        },
        {
          "internalType": "bytes32",
          "name": "_drexPreviousId",
          "type": "bytes32"
        },
        {
          "internalType": "uint256",
          "name": "_drexTxIndex",
          "type": "uint256"
        },
        {
          "internalType": "bytes32",
          "name": "_drexTxId",
          "type": "bytes32"
        },
        {
          "internalType": "uint256",
          "name": "_drexAlienConfirmationIndex",
          "type": "uint256"
        }
      ],
      "name": "writeAlienLeg",
      "outputs": [],
      "stateMutability": "payable",
      "type": "function"
    }
  ],
  "bytecode": "0x6080604052604051620040fb380380620040fb833981810160405281019062000029919062000283565b600160008190555082600160006101000a81548173ffffffffffffffffffffffffffffffffffffffff021916908373ffffffffffffffffffffffffffffffffffffffff1602179055508160048190555080600581905550600060096000018190555042600960010181905550620000c5604051806060016040528060268152602001620040d560269139600960000154620000ce60201b60201c565b505050620003ed565b620001708282604051602401620000e79291906200038a565b6040516020818303038152906040527fb60e72cc000000000000000000000000000000000000000000000000000000007bffffffffffffffffffffffffffffffffffffffffffffffffffffffff19166020820180517bffffffffffffffffffffffffffffffffffffffffffffffffffffffff83818316178352505050506200017460201b60201c565b5050565b6200019a81620001956200019d60201b6200212917620001be60201b60201c565b60201c565b50565b60006a636f6e736f6c652e6c6f679050600080835160208501845afa505050565b620001d260201b6200261117819050919050565b620001dc620003be565b565b600080fd5b600073ffffffffffffffffffffffffffffffffffffffff82169050919050565b60006200021082620001e3565b9050919050565b620002228162000203565b81146200022e57600080fd5b50565b600081519050620002428162000217565b92915050565b6000819050919050565b6200025d8162000248565b81146200026957600080fd5b50565b6000815190506200027d8162000252565b92915050565b6000806000606084860312156200029f576200029e620001de565b5b6000620002af8682870162000231565b9350506020620002c2868287016200026c565b9250506040620002d5868287016200026c565b9150509250925092565b600081519050919050565b600082825260208201905092915050565b60005b838110156200031b578082015181840152602081019050620002fe565b60008484015250505050565b6000601f19601f8301169050919050565b60006200034582620002df565b620003518185620002ea565b935062000363818560208601620002fb565b6200036e8162000327565b840191505092915050565b620003848162000248565b82525050565b60006040820190508181036000830152620003a6818562000338565b9050620003b7602083018462000379565b9392505050565b7f4e487b7100000000000000000000000000000000000000000000000000000000600052605160045260246000fd5b613cd880620003fd6000396000f3fe6080604052600436106100a75760003560e01c8063af00e20e11610064578063af00e20e146101ce578063d7ff8c1b1461020b578063dc97b8df14610227578063f41adab114610252578063fb8db4b41461027d578063ff202270146102a9576100a7565b806307583998146100ac57806307bada68146100e957806315b8fd3014610105578063642f2eaf146101425780636e6c783214610187578063a0ccddf9146101a3575b600080fd5b3480156100b857600080fd5b506100d360048036038101906100ce91906126d5565b6102d4565b6040516100e0919061283d565b60405180910390f35b61010360048036038101906100fe9190612859565b610416565b005b34801561011157600080fd5b5061012c600480360381019061012791906128c5565b6108db565b6040516101399190612914565b60405180910390f35b34801561014e57600080fd5b50610169600480360381019061016491906126d5565b61090c565b60405161017e9998979695949392919061295c565b60405180910390f35b6101a1600480360381019061019c91906126d5565b6109b4565b005b3480156101af57600080fd5b506101b8610ea8565b6040516101c591906129e9565b60405180910390f35b3480156101da57600080fd5b506101f560048036038101906101f09190612a30565b610eae565b6040516102029190612b32565b60405180910390f35b61022560048036038101906102209190612b80565b6113af565b005b34801561023357600080fd5b5061023c6120fe565b60405161024991906129e9565b60405180910390f35b34801561025e57600080fd5b50610267612104565b60405161027491906129e9565b60405180910390f35b34801561028957600080fd5b50610292612111565b6040516102a0929190612c5f565b60405180910390f35b3480156102b557600080fd5b506102be612123565b6040516102cb91906129e9565b60405180910390f35b6102dc61261b565b600360008381526020019081526020016000206040518061012001604052908160008201548152602001600182015481526020016002820160009054906101000a900460ff161515151581526020016002820160019054906101000a900473ffffffffffffffffffffffffffffffffffffffff1673ffffffffffffffffffffffffffffffffffffffff1673ffffffffffffffffffffffffffffffffffffffff1681526020016003820160009054906101000a900473ffffffffffffffffffffffffffffffffffffffff1673ffffffffffffffffffffffffffffffffffffffff1673ffffffffffffffffffffffffffffffffffffffff1681526020016004820154815260200160058201548152602001600682015481526020016007820160009054906101000a900460ff1615151515815250509050919050565b61041e61214a565b60006003600084815260200190815260200160002060030160009054906101000a900473ffffffffffffffffffffffffffffffffffffffff1673ffffffffffffffffffffffffffffffffffffffff163373ffffffffffffffffffffffffffffffffffffffff16146104c4576040517f08c379a00000000000000000000000000000000000000000000000000000000081526004016104bb90612ce5565b60405180910390fd5b6000801b60036000858152602001908152602001600020600501540361051f576040517f08c379a000000000000000000000000000000000000000000000000000000000815260040161051690612d51565b60405180910390fd5b6003600084815260200190815260200160002060020160009054906101000a900460ff1615610583576040517f08c379a000000000000000000000000000000000000000000000000000000000815260040161057a90612dbd565b60405180910390fd5b6003600084815260200190815260200160002060050154826040516020016105ab9190612dfe565b6040516020818303038152906040528051906020012014610601576040517f08c379a00000000000000000000000000000000000000000000000000000000081526004016105f890612e8b565b60405180910390fd5b600073ffffffffffffffffffffffffffffffffffffffff16600160009054906101000a900473ffffffffffffffffffffffffffffffffffffffff1673ffffffffffffffffffffffffffffffffffffffff1603610714576003600084815260200190815260200160002060030160009054906101000a900473ffffffffffffffffffffffffffffffffffffffff1673ffffffffffffffffffffffffffffffffffffffff1660036000858152602001908152602001600020600401546040516106c790612edc565b60006040518083038185875af1925050503d8060008114610704576040519150601f19603f3d011682016040523d82523d6000602084013e610709565b606091505b505080915050610803565b600160009054906101000a900473ffffffffffffffffffffffffffffffffffffffff1673ffffffffffffffffffffffffffffffffffffffff1663a9059cbb6003600086815260200190815260200160002060030160009054906101000a900473ffffffffffffffffffffffffffffffffffffffff1660036000878152602001908152602001600020600401546040518363ffffffff1660e01b81526004016107bd929190612f50565b6020604051808303816000875af11580156107dc573d6000803e3d6000fd5b505050506040513d601f19601f820116820180604052508101906108009190612f8e565b90505b80156108ce5760016003600085815260200190815260200160002060020160006101000a81548160ff02191690831515021790555060016003600085815260200190815260200160002060070160006101000a81548160ff021916908315150217905550827ff047f0b3a5bfd853a7da93daff5dfdd8e51d40151a725899863560a292e4ffb1600360008681526020019081526020016000206000015460036000878152602001908152602001600020600101546040516108c5929190612c5f565b60405180910390a25b506108d7612190565b5050565b600260205281600052604060002081815481106108f757600080fd5b90600052602060002001600091509150505481565b60036020528060005260406000206000915090508060000154908060010154908060020160009054906101000a900460ff16908060020160019054906101000a900473ffffffffffffffffffffffffffffffffffffffff16908060030160009054906101000a900473ffffffffffffffffffffffffffffffffffffffff16908060040154908060050154908060060154908060070160009054906101000a900460ff16905089565b6109bc61214a565b60006003600083815260200190815260200160002060020160019054906101000a900473ffffffffffffffffffffffffffffffffffffffff1673ffffffffffffffffffffffffffffffffffffffff163373ffffffffffffffffffffffffffffffffffffffff1614610a62576040517f08c379a0000000000000000000000000000000000000000000000000000000008152600401610a5990613007565b60405180910390fd5b6000801b600360008481526020019081526020016000206005015403610abd576040517f08c379a0000000000000000000000000000000000000000000000000000000008152600401610ab490613099565b60405180910390fd5b6003600083815260200190815260200160002060070160009054906101000a900460ff1615610b21576040517f08c379a0000000000000000000000000000000000000000000000000000000008152600401610b1890613105565b60405180910390fd5b6003600083815260200190815260200160002060020160009054906101000a900460ff1615610b85576040517f08c379a0000000000000000000000000000000000000000000000000000000008152600401610b7c90612dbd565b60405180910390fd5b6005546003600084815260200190815260200160002060060154610ba99190613154565b4211610bea576040517f08c379a0000000000000000000000000000000000000000000000000000000008152600401610be190613220565b60405180910390fd5b600073ffffffffffffffffffffffffffffffffffffffff16600160009054906101000a900473ffffffffffffffffffffffffffffffffffffffff1673ffffffffffffffffffffffffffffffffffffffff1603610cfd576003600083815260200190815260200160002060020160019054906101000a900473ffffffffffffffffffffffffffffffffffffffff1673ffffffffffffffffffffffffffffffffffffffff166003600084815260200190815260200160002060040154604051610cb090612edc565b60006040518083038185875af1925050503d8060008114610ced576040519150601f19603f3d011682016040523d82523d6000602084013e610cf2565b606091505b505080915050610dec565b600160009054906101000a900473ffffffffffffffffffffffffffffffffffffffff1673ffffffffffffffffffffffffffffffffffffffff1663a9059cbb6003600085815260200190815260200160002060020160019054906101000a900473ffffffffffffffffffffffffffffffffffffffff1660036000868152602001908152602001600020600401546040518363ffffffff1660e01b8152600401610da6929190612f50565b6020604051808303816000875af1158015610dc5573d6000803e3d6000fd5b505050506040513d601f19601f82011682018060405250810190610de99190612f8e565b90505b8015610e9c5760016003600084815260200190815260200160002060070160006101000a81548160ff0219169083151502179055506003600083815260200190815260200160002060020160019054906101000a900473ffffffffffffffffffffffffffffffffffffffff1673ffffffffffffffffffffffffffffffffffffffff16827f71180e6b6f96cff692061f8afdd0fdfa0244ea4455c35876b25cbed647b0937760405160405180910390a35b50610ea5612190565b50565b60055481565b606060006002600086815260200190815260200160002080549050905060008167ffffffffffffffff811115610ee757610ee6613240565b5b604051908082528060200260200182016040528015610f155781602001602082028036833780820191505090505b50905060026000878152602001908152602001600020805480602002602001604051908101604052809291908181526020018280548015610f7557602002820191906000526020600020905b815481526020019060010190808311610f61575b505050505090506000815111610fc0576040517f08c379a0000000000000000000000000000000000000000000000000000000008152600401610fb7906132bb565b60405180910390fd5b600082905060005b600182111561100a57600282610fde919061330a565b600283610feb919061333b565b610ff59190613154565b915080806110029061336c565b915050610fc8565b60008167ffffffffffffffff81111561102657611025613240565b5b6040519080825280602002602001820160405280156110545781602001602082028036833780820191505090505b509050600091505b60018451111561138c57600060028551611076919061330a565b60028651611084919061333b565b61108e9190613154565b67ffffffffffffffff8111156110a7576110a6613240565b5b6040519080825280602002602001820160405280156110d55781602001602082028036833780820191505090505b50905060005b85518110156113735789156112285760008190505b6001826110fd9190613154565b811161122657808a0361121357600060028b611119919061330a565b036111bd57865160018261112d9190613154565b0361117157868181518110611145576111446133b4565b5b60200260200101518486815181106111605761115f6133b4565b5b6020026020010181815250506111b8565b8660018261117f9190613154565b815181106111905761118f6133b4565b5b60200260200101518486815181106111ab576111aa6133b4565b5b6020026020010181815250505b611204565b866001826111cb91906133e3565b815181106111dc576111db6133b4565b5b60200260200101518486815181106111f7576111f66133b4565b5b6020026020010181815250505b848061120f9061336c565b9550505b808061121e9061336c565b9150506110f0565b505b85516001826112379190613154565b10156112d6578581815181106112505761124f6133b4565b5b6020026020010151866001836112669190613154565b81518110611277576112766133b4565b5b6020026020010151604051602001611290929190613417565b60405160208183030381529060405280519060200120826002836112b4919061333b565b815181106112c5576112c46133b4565b5b60200260200101818152505061135f565b8581815181106112e9576112e86133b4565b5b6020026020010151868281518110611304576113036133b4565b5b602002602001015160405160200161131d929190613417565b6040516020818303038152906040528051906020012082600283611341919061333b565b81518110611352576113516133b4565b5b6020026020010181815250505b60028161136c9190613154565b90506110db565b50809450600288611384919061333b565b97505061105c565b871561139f5780955050505050506113a8565b83955050505050505b9392505050565b6113b761214a565b60008087116113fb576040517f08c379a00000000000000000000000000000000000000000000000000000000081526004016113f29061348f565b60405180910390fd5b600073ffffffffffffffffffffffffffffffffffffffff168973ffffffffffffffffffffffffffffffffffffffff160361146a576040517f08c379a0000000000000000000000000000000000000000000000000000000008152600401611461906134fb565b60405180910390fd5b60008b8b8b8b8b604051602001611485959493929190613584565b6040516020818303038152906040528051906020012090508087866040516020016114b2939291906135e3565b60405160208183030381529060405280519060200120905085816040516020016114dd929190613417565b6040516020818303038152906040528051906020012090506115336040518060400160405280601781526020017f456e746572656420577269746520416c69656e204c656700000000000000000081525061219a565b6115726040518060400160405280600a81526020017f4472657820496e6465780000000000000000000000000000000000000000000081525086612233565b611596604051806080016040528060488152602001613c3360489139600654612233565b6115b86040518060800160405280604c8152602001613be7604c913984612233565b8a73ffffffffffffffffffffffffffffffffffffffff163373ffffffffffffffffffffffffffffffffffffffff1614611626576040517f08c379a000000000000000000000000000000000000000000000000000000000815260040161161d90613692565b60405180910390fd5b838114611668576040517f08c379a000000000000000000000000000000000000000000000000000000000815260040161165f90613724565b60405180910390fd5b600160009054906101000a900473ffffffffffffffffffffffffffffffffffffffff1673ffffffffffffffffffffffffffffffffffffffff168973ffffffffffffffffffffffffffffffffffffffff16146116f8576040517f08c379a00000000000000000000000000000000000000000000000000000000081526004016116ef906137b6565b60405180910390fd5b6003600085815260200190815260200160002060020160009054906101000a900460ff161561175c576040517f08c379a000000000000000000000000000000000000000000000000000000000815260040161175390613822565b60405180910390fd5b6006548510156117a1576040517f08c379a0000000000000000000000000000000000000000000000000000000008152600401611798906138b4565b60405180910390fd5b6000801b8703611bc957600073ffffffffffffffffffffffffffffffffffffffff168973ffffffffffffffffffffffffffffffffffffffff160361189257873414611821576040517f08c379a000000000000000000000000000000000000000000000000000000000815260040161181890613920565b60405180910390fd5b8973ffffffffffffffffffffffffffffffffffffffff168860405161184590612edc565b60006040518083038185875af1925050503d8060008114611882576040519150601f19603f3d011682016040523d82523d6000602084013e611887565b606091505b505080925050611915565b8873ffffffffffffffffffffffffffffffffffffffff166323b872dd338c8b6040518463ffffffff1660e01b81526004016118cf93929190613940565b6020604051808303816000875af11580156118ee573d6000803e3d6000fd5b505050506040513d601f19601f820116820180604052508101906119129190612f8e565b91505b8115611bc45761192583896122cf565b60026000600960000154815260200190815260200160002084908060018154018082558091505060019003906000526020600020016000909190919091505560096000015460036000868152602001908152602001600020600001819055506001600260006009600001548152602001908152602001600020805490506119ac91906133e3565b600360008681526020019081526020016000206001018190555060016003600086815260200190815260200160002060020160006101000a81548160ff021916908315150217905550896003600086815260200190815260200160002060030160006101000a81548173ffffffffffffffffffffffffffffffffffffffff021916908373ffffffffffffffffffffffffffffffffffffffff1602179055508a6003600086815260200190815260200160002060020160016101000a81548173ffffffffffffffffffffffffffffffffffffffff021916908373ffffffffffffffffffffffffffffffffffffffff16021790555087600360008681526020019081526020016000206004018190555086600360008681526020019081526020016000206005018190555060016003600086815260200190815260200160002060070160006101000a81548160ff021916908315150217905550426003600086815260200190815260200160002060060181905550837ff047f0b3a5bfd853a7da93daff5dfdd8e51d40151a725899863560a292e4ffb1600960000154600160026000600960000154815260200190815260200160002080549050611b6f91906133e3565b604051611b7d929190612c5f565b60405180910390a2611bc36040518060400160405280601181526020017f416c69656e204c656720536574746c656400000000000000000000000000000081525061219a565b5b6120a9565b600073ffffffffffffffffffffffffffffffffffffffff168973ffffffffffffffffffffffffffffffffffffffff1603611cb057873414611c3f576040517f08c379a0000000000000000000000000000000000000000000000000000000008152600401611c3690613920565b60405180910390fd5b3073ffffffffffffffffffffffffffffffffffffffff1688604051611c6390612edc565b60006040518083038185875af1925050503d8060008114611ca0576040519150601f19603f3d011682016040523d82523d6000602084013e611ca5565b606091505b505080925050611df9565b60008973ffffffffffffffffffffffffffffffffffffffff1663dd62ed3e33306040518363ffffffff1660e01b8152600401611ced929190613977565b6020604051808303816000875af1158015611d0c573d6000803e3d6000fd5b505050506040513d601f19601f82011682018060405250810190611d3091906139b5565b905088811015611d75576040517f08c379a0000000000000000000000000000000000000000000000000000000008152600401611d6c90613a54565b60405180910390fd5b8973ffffffffffffffffffffffffffffffffffffffff166323b872dd33308c6040518463ffffffff1660e01b8152600401611db293929190613940565b6020604051808303816000875af1158015611dd1573d6000803e3d6000fd5b505050506040513d601f19601f82011682018060405250810190611df59190612f8e565b9250505b81156120a857611e0983896122cf565b6002600060096000015481526020019081526020016000208490806001815401808255809150506001900390600052602060002001600090919091909150556009600001546003600086815260200190815260200160002060000181905550600160026000600960000154815260200190815260200160002080549050611e9091906133e3565b600360008681526020019081526020016000206001018190555060006003600086815260200190815260200160002060020160006101000a81548160ff021916908315150217905550896003600086815260200190815260200160002060030160006101000a81548173ffffffffffffffffffffffffffffffffffffffff021916908373ffffffffffffffffffffffffffffffffffffffff1602179055508a6003600086815260200190815260200160002060020160016101000a81548173ffffffffffffffffffffffffffffffffffffffff021916908373ffffffffffffffffffffffffffffffffffffffff16021790555087600360008681526020019081526020016000206004018190555086600360008681526020019081526020016000206005018190555060006003600086815260200190815260200160002060070160006101000a81548160ff021916908315150217905550426003600086815260200190815260200160002060060181905550837fc1a07a602e297ee840ab2f857a6a6d6d729fe49fef22cb6aebb284a1eee2d9f860096000015460016002600060096000015481526020019081526020016000208054905061205391906133e3565b604051612061929190612c5f565b60405180910390a26120a76040518060400160405280601081526020017f416c69656e204c6567204c6f636b65640000000000000000000000000000000081525061219a565b5b5b6120e86040518060400160405280601381526020017f416c69656e204c6567205772697474656e203f00000000000000000000000000815250836123c8565b50506120f2612190565b50505050505050505050565b60065481565b6000600960000154905090565b60098060000154908060010154905082565b60045481565b60006a636f6e736f6c652e6c6f679050600080835160208501845afa505050565b600260005403612186576040517f3ee5aeb500000000000000000000000000000000000000000000000000000000815260040160405180910390fd5b6002600081905550565b6001600081905550565b612230816040516024016121ae9190613af3565b6040516020818303038152906040527f41304fac000000000000000000000000000000000000000000000000000000007bffffffffffffffffffffffffffffffffffffffffffffffffffffffff19166020820180517bffffffffffffffffffffffffffffffffffffffffffffffffffffffff8381831617835250505050612464565b50565b6122cb8282604051602401612249929190613b15565b6040516020818303038152906040527fb60e72cc000000000000000000000000000000000000000000000000000000007bffffffffffffffffffffffffffffffffffffffffffffffffffffffff19166020820180517bffffffffffffffffffffffffffffffffffffffffffffffffffffffff8381831617835250505050612464565b5050565b60006122d961247e565b61230c600860006009600001548152602001908152602001600020600085815260200190815260200160002054836125d7565b508091505080156123585781600860006009600001548152602001908152602001600020600085815260200190815260200160002060008282546123509190613154565b925050819055505b60075460086000600960000154815260200190815260200160002060008581526020019081526020016000205411156123c357600860006009600001548152602001908152602001600020600084815260200190815260200160002054600781905550826006819055505b505050565b61246082826040516024016123de929190613b45565b6040516020818303038152906040527fc3b55635000000000000000000000000000000000000000000000000000000007bffffffffffffffffffffffffffffffffffffffffffffffffffffffff19166020820180517bffffffffffffffffffffffffffffffffffffffffffffffffffffffff8381831617835250505050612464565b5050565b61247b81612473612129612606565b63ffffffff16565b50565b60006009600101544261249191906133e3565b90506124d26040518060400160405280601281526020017f3e3e20456c6c61707365642054696d653a20000000000000000000000000000081525082612233565b6125166040518060400160405280601181526020017f3e3e2043757272656e7420536c6f743a20000000000000000000000000000000815250600960000154612233565b60045481106125d45761255d6040518060400160405280601981526020017f3e3e204372656174696e67206e65772074696d6520736c6f740000000000000081525061219a565b620f4240600454620f4240836125739190613b75565b61257d919061333b565b612587919061333b565b6009600001600082825461259b9190613154565b925050819055506125c9604051806060016040528060288152602001613c7b60289139600960000154612233565b426009600101819055505b50565b60008060008385019050848110156125f65760008092509250506125ff565b60018192509250505b9250929050565b612611819050919050565b612619613bb7565b565b6040518061012001604052806000815260200160008152602001600015158152602001600073ffffffffffffffffffffffffffffffffffffffff168152602001600073ffffffffffffffffffffffffffffffffffffffff1681526020016000815260200160008019168152602001600081526020016000151581525090565b600080fd5b6000819050919050565b6126b28161269f565b81146126bd57600080fd5b50565b6000813590506126cf816126a9565b92915050565b6000602082840312156126eb576126ea61269a565b5b60006126f9848285016126c0565b91505092915050565b6000819050919050565b61271581612702565b82525050565b60008115159050919050565b6127308161271b565b82525050565b600073ffffffffffffffffffffffffffffffffffffffff82169050919050565b600061276182612736565b9050919050565b61277181612756565b82525050565b6127808161269f565b82525050565b6101208201600082015161279d600085018261270c565b5060208201516127b0602085018261270c565b5060408201516127c36040850182612727565b5060608201516127d66060850182612768565b5060808201516127e96080850182612768565b5060a08201516127fc60a085018261270c565b5060c082015161280f60c0850182612777565b5060e082015161282260e085018261270c565b50610100820151612837610100850182612727565b50505050565b6000610120820190506128536000830184612786565b92915050565b600080604083850312156128705761286f61269a565b5b600061287e858286016126c0565b925050602061288f858286016126c0565b9150509250929050565b6128a281612702565b81146128ad57600080fd5b50565b6000813590506128bf81612899565b92915050565b600080604083850312156128dc576128db61269a565b5b60006128ea858286016128b0565b92505060206128fb858286016128b0565b9150509250929050565b61290e8161269f565b82525050565b60006020820190506129296000830184612905565b92915050565b61293881612702565b82525050565b6129478161271b565b82525050565b61295681612756565b82525050565b600061012082019050612972600083018c61292f565b61297f602083018b61292f565b61298c604083018a61293e565b612999606083018961294d565b6129a6608083018861294d565b6129b360a083018761292f565b6129c060c0830186612905565b6129cd60e083018561292f565b6129db61010083018461293e565b9a9950505050505050505050565b60006020820190506129fe600083018461292f565b92915050565b612a0d8161271b565b8114612a1857600080fd5b50565b600081359050612a2a81612a04565b92915050565b600080600060608486031215612a4957612a4861269a565b5b6000612a57868287016128b0565b9350506020612a6886828701612a1b565b9250506040612a79868287016128b0565b9150509250925092565b600081519050919050565b600082825260208201905092915050565b6000819050602082019050919050565b6000612abb8383612777565b60208301905092915050565b6000602082019050919050565b6000612adf82612a83565b612ae98185612a8e565b9350612af483612a9f565b8060005b83811015612b25578151612b0c8882612aaf565b9750612b1783612ac7565b925050600181019050612af8565b5085935050505092915050565b60006020820190508181036000830152612b4c8184612ad4565b905092915050565b612b5d81612756565b8114612b6857600080fd5b50565b600081359050612b7a81612b54565b92915050565b6000806000806000806000806000806101408b8d031215612ba457612ba361269a565b5b6000612bb28d828e016126c0565b9a50506020612bc38d828e01612b6b565b9950506040612bd48d828e01612b6b565b9850506060612be58d828e01612b6b565b9750506080612bf68d828e016128b0565b96505060a0612c078d828e016126c0565b95505060c0612c188d828e016126c0565b94505060e0612c298d828e016128b0565b935050610100612c3b8d828e016126c0565b925050610120612c4d8d828e016128b0565b9150509295989b9194979a5092959850565b6000604082019050612c74600083018561292f565b612c81602083018461292f565b9392505050565b600082825260208201905092915050565b7f4f6e6c79204d696b652063616e20736574746c65207468652074726164650000600082015250565b6000612ccf601e83612c88565b9150612cda82612c99565b602082019050919050565b60006020820190508181036000830152612cfe81612cc2565b9050919050565b7f54686973206973206e6f7420612048544c43207472616e73616374696f6e0000600082015250565b6000612d3b601e83612c88565b9150612d4682612d05565b602082019050919050565b60006020820190508181036000830152612d6a81612d2e565b9050919050565b7f547261646520616c726561647920736574746c65640000000000000000000000600082015250565b6000612da7601583612c88565b9150612db282612d71565b602082019050919050565b60006020820190508181036000830152612dd681612d9a565b9050919050565b6000819050919050565b612df8612df38261269f565b612ddd565b82525050565b6000612e0a8284612de7565b60208201915081905092915050565b7f536563726574206973206e6f7420657175616c20746f2048617368656420536560008201527f6372657400000000000000000000000000000000000000000000000000000000602082015250565b6000612e75602483612c88565b9150612e8082612e19565b604082019050919050565b60006020820190508181036000830152612ea481612e68565b9050919050565b600081905092915050565b50565b6000612ec6600083612eab565b9150612ed182612eb6565b600082019050919050565b6000612ee782612eb9565b9150819050919050565b6000819050919050565b6000612f16612f11612f0c84612736565b612ef1565b612736565b9050919050565b6000612f2882612efb565b9050919050565b6000612f3a82612f1d565b9050919050565b612f4a81612f2f565b82525050565b6000604082019050612f656000830185612f41565b612f72602083018461292f565b9392505050565b600081519050612f8881612a04565b92915050565b600060208284031215612fa457612fa361269a565b5b6000612fb284828501612f79565b91505092915050565b7f4f6e6c7920416c6963652063616e206765742074686520726566756e64000000600082015250565b6000612ff1601d83612c88565b9150612ffc82612fbb565b602082019050919050565b6000602082019050818103600083015261302081612fe4565b9050919050565b7f54686973206973206e6f7420612048544c43207472616e73616374696f6e206560008201527f6c696769626c6520666f7220726566756e640000000000000000000000000000602082015250565b6000613083603283612c88565b915061308e82613027565b604082019050919050565b600060208201905081810360008301526130b281613076565b9050919050565b7f46756e647320616c72656164792068617665206265656e20726566756e646564600082015250565b60006130ef602083612c88565b91506130fa826130b9565b602082019050919050565b6000602082019050818103600083015261311e816130e2565b9050919050565b7f4e487b7100000000000000000000000000000000000000000000000000000000600052601160045260246000fd5b600061315f82612702565b915061316a83612702565b925082820190508082111561318257613181613125565b5b92915050565b7f526566756e64206973206e6f742079657420617661696c61626c6520746f204160008201527f6c69636520626563617573652065787069726174696f6e20686173206e6f742060208201527f6265656e20616368696576656400000000000000000000000000000000000000604082015250565b600061320a604d83612c88565b915061321582613188565b606082019050919050565b60006020820190508181036000830152613239816131fd565b9050919050565b7f4e487b7100000000000000000000000000000000000000000000000000000000600052604160045260246000fd5b7f4e6f206461746120746f20637265617465204d65726b6c652074726565000000600082015250565b60006132a5601d83612c88565b91506132b08261326f565b602082019050919050565b600060208201905081810360008301526132d481613298565b9050919050565b7f4e487b7100000000000000000000000000000000000000000000000000000000600052601260045260246000fd5b600061331582612702565b915061332083612702565b9250826133305761332f6132db565b5b828206905092915050565b600061334682612702565b915061335183612702565b925082613361576133606132db565b5b828204905092915050565b600061337782612702565b91507fffffffffffffffffffffffffffffffffffffffffffffffffffffffffffffffff82036133a9576133a8613125565b5b600182019050919050565b7f4e487b7100000000000000000000000000000000000000000000000000000000600052603260045260246000fd5b60006133ee82612702565b91506133f983612702565b925082820390508181111561341157613410613125565b5b92915050565b60006134238285612de7565b6020820191506134338284612de7565b6020820191508190509392505050565b7f496e76616c69642045544820616d6f756e740000000000000000000000000000600082015250565b6000613479601283612c88565b915061348482613443565b602082019050919050565b600060208201905081810360008301526134a88161346c565b9050919050565b7f4e6f204d696b6520416464726573730000000000000000000000000000000000600082015250565b60006134e5600f83612c88565b91506134f0826134af565b602082019050919050565b60006020820190508181036000830152613514816134d8565b9050919050565b60008160601b9050919050565b60006135338261351b565b9050919050565b600061354582613528565b9050919050565b61355d61355882612756565b61353a565b82525050565b6000819050919050565b61357e61357982612702565b613563565b82525050565b60006135908288612de7565b6020820191506135a0828761354c565b6014820191506135b0828661354c565b6014820191506135c0828561354c565b6014820191506135d0828461356d565b6020820191508190509695505050505050565b60006135ef8286612de7565b6020820191506135ff8285612de7565b60208201915061360f828461356d565b602082019150819050949350505050565b7f4f6e6c7920416c6963652063616e2073656e642074686973205472616e73616360008201527f74696f6e00000000000000000000000000000000000000000000000000000000602082015250565b600061367c602483612c88565b915061368782613620565b604082019050919050565b600060208201905081810360008301526136ab8161366f565b9050919050565b7f447265782049642048617368206973206e6f7420657175616c20746f2074686560008201527f20696e707574656420706172616d657465727300000000000000000000000000602082015250565b600061370e603383612c88565b9150613719826136b2565b604082019050919050565b6000602082019050818103600083015261373d81613701565b9050919050565b7f54686973206973206e6f742074686520616c69656e20636f6e7472616374206660008201527f6f72207468697320746f6b656e00000000000000000000000000000000000000602082015250565b60006137a0602d83612c88565b91506137ab82613744565b604082019050919050565b600060208201905081810360008301526137cf81613793565b9050919050565b7f7472616e73616374696f6e20616c726561647920736574746c65640000000000600082015250565b600061380c601b83612c88565b9150613817826137d6565b602082019050919050565b6000602082019050818103600083015261383b816137ff565b9050919050565b7f416c69656e205472616e73616374696f6e206973206e6f206d6f72652076616c60008201527f696420746f20436f6e6669726d00000000000000000000000000000000000000602082015250565b600061389e602d83612c88565b91506138a982613842565b604082019050919050565b600060208201905081810360008301526138cd81613891565b9050919050565b7f496e636f727265637420416c69656e20616d6f756e742073656e740000000000600082015250565b600061390a601b83612c88565b9150613915826138d4565b602082019050919050565b60006020820190508181036000830152613939816138fd565b9050919050565b6000606082019050613955600083018661294d565b6139626020830185612f41565b61396f604083018461292f565b949350505050565b600060408201905061398c600083018561294d565b613999602083018461294d565b9392505050565b6000815190506139af81612899565b92915050565b6000602082840312156139cb576139ca61269a565b5b60006139d9848285016139a0565b91505092915050565b7f416c69656e204c6973747261636b20776173206e6f742070726576696f75736c60008201527f7920616c6c6f77656420746f207472616e7366657220746f6b656e7300000000602082015250565b6000613a3e603c83612c88565b9150613a49826139e2565b604082019050919050565b60006020820190508181036000830152613a6d81613a31565b9050919050565b600081519050919050565b60005b83811015613a9d578082015181840152602081019050613a82565b60008484015250505050565b6000601f19601f8301169050919050565b6000613ac582613a74565b613acf8185612c88565b9350613adf818560208601613a7f565b613ae881613aa9565b840191505092915050565b60006020820190508181036000830152613b0d8184613aba565b905092915050565b60006040820190508181036000830152613b2f8185613aba565b9050613b3e602083018461292f565b9392505050565b60006040820190508181036000830152613b5f8185613aba565b9050613b6e602083018461293e565b9392505050565b6000613b8082612702565b9150613b8b83612702565b9250828202613b9981612702565b91508282048414831517613bb057613baf613125565b5b5092915050565b7f4e487b7100000000000000000000000000000000000000000000000000000000600052605160045260246000fdfe4472657820496e646578206d75737420626520657175616c206f7220686967686572207468616e2044726578416c69656e20496e6465782028696e666f726d6564206279207573657229203a4472657820496e646578206d75737420626520657175616c206f7220686967686572207468616e2044726578436f6e6669726d6174696f6e20496e6465782028766f74656429203a3e3e204e657720536c6f7420616674657220456c6c61707365642054696d65205570646174653a20a2646970667358221220b6257143637bef0e4026b876d1948b2e85cbbb8da792c7c7bab2a4cb3926b9de64736f6c6343000818003340404020416c69656e204c6973747261636b204465706c6f79656420617420536c6f74203a20",
  "linkReferences": {},
  "deployedLinkReferences": {}
}