{
  "_format": "hh-sol-artifact-1",
  "contractName": "DrexListrack",
  "sourceName": "contracts/DrexListrack.sol",
  "abi": [
    {
      "inputs": [
        {
          "internalType": "uint256",
          "name": "_timeSlot",
          "type": "uint256"
        },
        {
          "internalType": "uint256",
          "name": "_drexLegExpiration",
          "type": "uint256"
        },
        {
          "internalType": "uint256",
          "name": "_alienConfirmation",
          "type": "uint256"
        },
        {
          "internalType": "uint256",
          "name": "_listrackExpiration",
          "type": "uint256"
        }
      ],
      "stateMutability": "payable",
      "type": "constructor"
    },
    {
      "inputs": [],
      "name": "ReentrancyGuardReentrantCall",
      "type": "error"
    },
    {
      "anonymous": false,
      "inputs": [
        {
          "indexed": true,
          "internalType": "bytes32",
          "name": "TxId",
          "type": "bytes32"
        }
      ],
      "name": "automaticTradeSettled",
      "type": "event"
    },
    {
      "anonymous": false,
      "inputs": [
        {
          "indexed": true,
          "internalType": "uint256",
          "name": "drexAlienIndexConfirmation",
          "type": "uint256"
        }
      ],
      "name": "drexIndexAlienConfirmation",
      "type": "event"
    },
    {
      "anonymous": false,
      "inputs": [
        {
          "indexed": true,
          "internalType": "bytes32",
          "name": "TxId",
          "type": "bytes32"
        }
      ],
      "name": "lockedTxId",
      "type": "event"
    },
    {
      "anonymous": false,
      "inputs": [
        {
          "indexed": true,
          "internalType": "bytes32",
          "name": "TxId",
          "type": "bytes32"
        },
        {
          "indexed": true,
          "internalType": "bytes32",
          "name": "SecretRevealed",
          "type": "bytes32"
        }
      ],
      "name": "manualSecretTradeSettled",
      "type": "event"
    },
    {
      "anonymous": false,
      "inputs": [
        {
          "indexed": true,
          "internalType": "bytes32",
          "name": "TxId",
          "type": "bytes32"
        }
      ],
      "name": "manualTradeSettled",
      "type": "event"
    },
    {
      "anonymous": false,
      "inputs": [
        {
          "indexed": true,
          "internalType": "bytes32",
          "name": "previousTxId",
          "type": "bytes32"
        },
        {
          "indexed": true,
          "internalType": "uint256",
          "name": "txIndexDrex",
          "type": "uint256"
        },
        {
          "indexed": true,
          "internalType": "bytes32",
          "name": "TxId",
          "type": "bytes32"
        }
      ],
      "name": "tradeInsertedTxId",
      "type": "event"
    },
    {
      "anonymous": false,
      "inputs": [
        {
          "indexed": true,
          "internalType": "address",
          "name": "aliceDrexAddress",
          "type": "address"
        },
        {
          "indexed": true,
          "internalType": "address",
          "name": "mikeDrexAddress",
          "type": "address"
        },
        {
          "indexed": true,
          "internalType": "bytes32",
          "name": "TxId",
          "type": "bytes32"
        }
      ],
      "name": "tradeInsertedUsersTxId",
      "type": "event"
    },
    {
      "anonymous": false,
      "inputs": [
        {
          "indexed": true,
          "internalType": "bytes32",
          "name": "TxId",
          "type": "bytes32"
        }
      ],
      "name": "tradeReverted",
      "type": "event"
    },
    {
      "inputs": [
        {
          "internalType": "bytes32",
          "name": "_txId",
          "type": "bytes32"
        },
        {
          "internalType": "uint256",
          "name": "_txIndex",
          "type": "uint256"
        },
        {
          "internalType": "bytes32[]",
          "name": "_merkleProof",
          "type": "bytes32[]"
        },
        {
          "internalType": "uint256",
          "name": "_blockNumber",
          "type": "uint256"
        },
        {
          "internalType": "bytes32",
          "name": "_secretRevealed",
          "type": "bytes32"
        }
      ],
      "name": "aliceSettleTrade",
      "outputs": [],
      "stateMutability": "payable",
      "type": "function"
    },
    {
      "inputs": [
        {
          "internalType": "uint256",
          "name": "",
          "type": "uint256"
        }
      ],
      "name": "chainDrexTx",
      "outputs": [
        {
          "internalType": "bytes32",
          "name": "",
          "type": "bytes32"
        }
      ],
      "stateMutability": "view",
      "type": "function"
    },
    {
      "inputs": [],
      "name": "drexLegExpiration",
      "outputs": [
        {
          "internalType": "uint256",
          "name": "",
          "type": "uint256"
        }
      ],
      "stateMutability": "view",
      "type": "function"
    },
    {
      "inputs": [
        {
          "internalType": "bytes32",
          "name": "_txId",
          "type": "bytes32"
        }
      ],
      "name": "getDrexAlienInputsbyId",
      "outputs": [
        {
          "components": [
            {
              "internalType": "address",
              "name": "aliceDrexAddress",
              "type": "address"
            },
            {
              "internalType": "address",
              "name": "mikeDrexAddress",
              "type": "address"
            },
            {
              "internalType": "address",
              "name": "drexTokenAddress",
              "type": "address"
            },
            {
              "internalType": "bytes32",
              "name": "drexHashFields",
              "type": "bytes32"
            },
            {
              "internalType": "address",
              "name": "aliceAlienAddress",
              "type": "address"
            },
            {
              "internalType": "address",
              "name": "mikeAlienAddress",
              "type": "address"
            },
            {
              "internalType": "address",
              "name": "alientokencontract",
              "type": "address"
            },
            {
              "internalType": "uint256",
              "name": "drexAmount",
              "type": "uint256"
            },
            {
              "internalType": "uint256",
              "name": "alienAmount",
              "type": "uint256"
            },
            {
              "internalType": "bytes32",
              "name": "hashedSecret",
              "type": "bytes32"
            },
            {
              "internalType": "address[]",
              "name": "drexMerkleContract",
              "type": "address[]"
            },
            {
              "components": [
                {
                  "internalType": "bool",
                  "name": "locked",
                  "type": "bool"
                },
                {
                  "internalType": "bool",
                  "name": "settled",
                  "type": "bool"
                },
                {
                  "internalType": "uint256",
                  "name": "slotNumber",
                  "type": "uint256"
                },
                {
                  "internalType": "uint256",
                  "name": "chainPosition",
                  "type": "uint256"
                },
                {
                  "internalType": "bytes32",
                  "name": "previousChainTxId",
                  "type": "bytes32"
                }
              ],
              "internalType": "struct DrexListrack.StatusChain",
              "name": "statusChain",
              "type": "tuple"
            }
          ],
          "internalType": "struct DrexListrack.Trade",
          "name": "",
          "type": "tuple"
        },
        {
          "internalType": "uint256",
          "name": "",
          "type": "uint256"
        }
      ],
      "stateMutability": "view",
      "type": "function"
    },
    {
      "inputs": [
        {
          "internalType": "address",
          "name": "_user",
          "type": "address"
        }
      ],
      "name": "getTxIdbyUser",
      "outputs": [
        {
          "internalType": "bytes32[]",
          "name": "",
          "type": "bytes32[]"
        }
      ],
      "stateMutability": "view",
      "type": "function"
    },
    {
      "inputs": [
        {
          "internalType": "bytes32",
          "name": "_txId",
          "type": "bytes32"
        }
      ],
      "name": "mikeAgreeTrade",
      "outputs": [],
      "stateMutability": "payable",
      "type": "function"
    },
    {
      "inputs": [
        {
          "internalType": "bytes32",
          "name": "_txId",
          "type": "bytes32"
        }
      ],
      "name": "mikeManualRevert",
      "outputs": [],
      "stateMutability": "payable",
      "type": "function"
    },
    {
      "inputs": [
        {
          "internalType": "bytes32",
          "name": "",
          "type": "bytes32"
        }
      ],
      "name": "pendingTransactions",
      "outputs": [
        {
          "internalType": "bytes32",
          "name": "",
          "type": "bytes32"
        }
      ],
      "stateMutability": "view",
      "type": "function"
    },
    {
      "inputs": [
        {
          "internalType": "address",
          "name": "_merkleContract",
          "type": "address"
        }
      ],
      "name": "revertTxsbyMerkleContract",
      "outputs": [],
      "stateMutability": "nonpayable",
      "type": "function"
    },
    {
      "inputs": [
        {
          "internalType": "bytes32[]",
          "name": "_transactions",
          "type": "bytes32[]"
        }
      ],
      "name": "sendTxForSettlement",
      "outputs": [],
      "stateMutability": "payable",
      "type": "function"
    },
    {
      "inputs": [
        {
          "internalType": "address[]",
          "name": "_drexAddresses",
          "type": "address[]"
        },
        {
          "internalType": "uint256",
          "name": "_drexAmount",
          "type": "uint256"
        },
        {
          "internalType": "address[]",
          "name": "_drexMerkleContract",
          "type": "address[]"
        },
        {
          "internalType": "address[]",
          "name": "_alienAddresses",
          "type": "address[]"
        },
        {
          "internalType": "uint256",
          "name": "_alienAmount",
          "type": "uint256"
        },
        {
          "internalType": "bytes32",
          "name": "_hashedSecret",
          "type": "bytes32"
        }
      ],
      "name": "setTrade",
      "outputs": [],
      "stateMutability": "payable",
      "type": "function"
    },
    {
      "inputs": [],
      "name": "slotProduction",
      "outputs": [
        {
          "internalType": "uint256",
          "name": "lowerLimitDrexIndexAlienConfirmation",
          "type": "uint256"
        },
        {
          "internalType": "uint256",
          "name": "currentSlot",
          "type": "uint256"
        },
        {
          "internalType": "uint256",
          "name": "genesisSlot",
          "type": "uint256"
        },
        {
          "internalType": "uint256",
          "name": "lastTimeStamp",
          "type": "uint256"
        }
      ],
      "stateMutability": "view",
      "type": "function"
    },
    {
      "inputs": [
        {
          "internalType": "bytes32",
          "name": "",
          "type": "bytes32"
        }
      ],
      "name": "trades",
      "outputs": [
        {
          "internalType": "address",
          "name": "aliceDrexAddress",
          "type": "address"
        },
        {
          "internalType": "address",
          "name": "mikeDrexAddress",
          "type": "address"
        },
        {
          "internalType": "address",
          "name": "drexTokenAddress",
          "type": "address"
        },
        {
          "internalType": "bytes32",
          "name": "drexHashFields",
          "type": "bytes32"
        },
        {
          "internalType": "address",
          "name": "aliceAlienAddress",
          "type": "address"
        },
        {
          "internalType": "address",
          "name": "mikeAlienAddress",
          "type": "address"
        },
        {
          "internalType": "address",
          "name": "alientokencontract",
          "type": "address"
        },
        {
          "internalType": "uint256",
          "name": "drexAmount",
          "type": "uint256"
        },
        {
          "internalType": "uint256",
          "name": "alienAmount",
          "type": "uint256"
        },
        {
          "internalType": "bytes32",
          "name": "hashedSecret",
          "type": "bytes32"
        },
        {
          "components": [
            {
              "internalType": "bool",
              "name": "locked",
              "type": "bool"
            },
            {
              "internalType": "bool",
              "name": "settled",
              "type": "bool"
            },
            {
              "internalType": "uint256",
              "name": "slotNumber",
              "type": "uint256"
            },
            {
              "internalType": "uint256",
              "name": "chainPosition",
              "type": "uint256"
            },
            {
              "internalType": "bytes32",
              "name": "previousChainTxId",
              "type": "bytes32"
            }
          ],
          "internalType": "struct DrexListrack.StatusChain",
          "name": "statusChain",
          "type": "tuple"
        }
      ],
      "stateMutability": "view",
      "type": "function"
    },
    {
      "inputs": [
        {
          "internalType": "address",
          "name": "",
          "type": "address"
        },
        {
          "internalType": "uint256",
          "name": "",
          "type": "uint256"
        }
      ],
      "name": "transactionsbyUser",
      "outputs": [
        {
          "internalType": "bytes32",
          "name": "",
          "type": "bytes32"
        }
      ],
      "stateMutability": "view",
      "type": "function"
    },
    {
      "inputs": [
        {
          "internalType": "bytes32",
          "name": "_txId",
          "type": "bytes32"
        },
        {
          "internalType": "uint256",
          "name": "_txIndex",
          "type": "uint256"
        },
        {
          "internalType": "bytes32[]",
          "name": "_merkleProof",
          "type": "bytes32[]"
        },
        {
          "internalType": "uint256",
          "name": "_blockNumber",
          "type": "uint256"
        }
      ],
      "name": "validateMerkleProof",
      "outputs": [
        {
          "internalType": "bool",
          "name": "",
          "type": "bool"
        }
      ],
      "stateMutability": "view",
      "type": "function"
    }
  ],
  "bytecode": "0x608060405260405162006178380380620061788339818101604052810190620000299190620002da565b60016000819055508260036200004091906200037b565b82101562000085576040517f08c379a00000000000000000000000000000000000000000000000000000000081526004016200007c906200044d565b60405180910390fd5b8160026200009491906200037b565b811015620000d9576040517f08c379a0000000000000000000000000000000000000000000000000000000008152600401620000d090620004e5565b60405180910390fd5b83600181905550826006819055508160078190555080600881905550600160085462000106919062000507565b60026001018190555060026001015460028001819055506000600260000181905550426002600301819055506000600d60006002600101548152602001908152602001600020819055506200018060405180606001604052806025815260200162006153602591396002600101546200018a60201b60201c565b505050506200063f565b6200022c8282604051602401620001a3929190620005dc565b6040516020818303038152906040527fb60e72cc000000000000000000000000000000000000000000000000000000007bffffffffffffffffffffffffffffffffffffffffffffffffffffffff19166020820180517bffffffffffffffffffffffffffffffffffffffffffffffffffffffff83818316178352505050506200023060201b60201c565b5050565b6200025681620002516200025960201b62003399176200027a60201b60201c565b60201c565b50565b60006a636f6e736f6c652e6c6f679050600080835160208501845afa505050565b6200028e60201b62003cf917819050919050565b6200029862000610565b565b600080fd5b6000819050919050565b620002b4816200029f565b8114620002c057600080fd5b50565b600081519050620002d481620002a9565b92915050565b60008060008060808587031215620002f757620002f66200029a565b5b60006200030787828801620002c3565b94505060206200031a87828801620002c3565b93505060406200032d87828801620002c3565b92505060606200034087828801620002c3565b91505092959194509250565b7f4e487b7100000000000000000000000000000000000000000000000000000000600052601160045260246000fd5b600062000388826200029f565b915062000395836200029f565b9250828202620003a5816200029f565b91508282048414831517620003bf57620003be6200034c565b5b5092915050565b600082825260208201905092915050565b7f416c69656e20436f6e6669726d6174696f6e206d757374206265206174206c6560008201527f61737420332074696d65732044726578204c6567000000000000000000000000602082015250565b600062000435603483620003c6565b91506200044282620003d7565b604082019050919050565b60006020820190508181036000830152620004688162000426565b9050919050565b7f416c69656e2045787069726174696f6e206d757374206265206174206c65617360008201527f7420362074696d65732044726578204c65670000000000000000000000000000602082015250565b6000620004cd603283620003c6565b9150620004da826200046f565b604082019050919050565b600060208201905081810360008301526200050081620004be565b9050919050565b600062000514826200029f565b915062000521836200029f565b92508282019050808211156200053c576200053b6200034c565b5b92915050565b600081519050919050565b60005b838110156200056d57808201518184015260208101905062000550565b60008484015250505050565b6000601f19601f8301169050919050565b6000620005978262000542565b620005a38185620003c6565b9350620005b58185602086016200054d565b620005c08162000579565b840191505092915050565b620005d6816200029f565b82525050565b60006040820190508181036000830152620005f881856200058a565b9050620006096020830184620005cb565b9392505050565b7f4e487b7100000000000000000000000000000000000000000000000000000000600052605160045260246000fd5b615b04806200064f6000396000f3fe6080604052600436106100e75760003560e01c8063792619901161008a578063c5bbe52d11610059578063c5bbe52d14610300578063cafe16a614610329578063f4fd8b1f14610366578063fb8db4b414610382576100e7565b8063792619901461022c5780637dca77a1146102485780638c12e70414610285578063982a0dc8146102c2576100e7565b806352a01324116100c657806352a013241461018c57806353032b51146101a857806354e60843146101e55780636d8e9f7a14610210576100e7565b8062162420146100ec57806326af1f441461013357806339e445f01461014f575b600080fd5b3480156100f857600080fd5b50610113600480360381019061010e9190613f1b565b6103b0565b60405161012a9b9a99989796959493929190614052565b60405180910390f35b61014d60048036038101906101489190614282565b610528565b005b34801561015b57600080fd5b5061017660048036038101906101719190614345565b610ce4565b6040516101839190614385565b60405180910390f35b6101a660048036038101906101a19190613f1b565b610d15565b005b3480156101b457600080fd5b506101cf60048036038101906101ca91906143a0565b6111cc565b6040516101dc919061447c565b60405180910390f35b3480156101f157600080fd5b506101fa611263565b604051610207919061449e565b60405180910390f35b61022a600480360381019061022591906144b9565b611269565b005b610246600480360381019061024191906145c5565b61191a565b005b34801561025457600080fd5b5061026f600480360381019061026a9190613f1b565b6124b3565b60405161027c9190614385565b60405180910390f35b34801561029157600080fd5b506102ac60048036038101906102a791906146a6565b6124cb565b6040516102b99190614738565b60405180910390f35b3480156102ce57600080fd5b506102e960048036038101906102e49190613f1b565b6127bc565b6040516102f792919061497d565b60405180910390f35b34801561030c57600080fd5b50610327600480360381019061032291906143a0565b612b19565b005b34801561033557600080fd5b50610350600480360381019061034b91906149ad565b612d6f565b60405161035d9190614385565b60405180910390f35b610380600480360381019061037b9190613f1b565b612d93565b005b34801561038e57600080fd5b5061039761337b565b6040516103a794939291906149da565b60405180910390f35b600a6020528060005260406000206000915090508060000160009054906101000a900473ffffffffffffffffffffffffffffffffffffffff16908060010160009054906101000a900473ffffffffffffffffffffffffffffffffffffffff16908060020160009054906101000a900473ffffffffffffffffffffffffffffffffffffffff16908060030154908060040160009054906101000a900473ffffffffffffffffffffffffffffffffffffffff16908060050160009054906101000a900473ffffffffffffffffffffffffffffffffffffffff16908060060160009054906101000a900473ffffffffffffffffffffffffffffffffffffffff169080600701549080600801549080600901549080600b016040518060a00160405290816000820160009054906101000a900460ff161515151581526020016000820160019054906101000a900460ff16151515158152602001600182015481526020016002820154815260200160038201548152505090508b565b6105306133ba565b600080600a6000888152602001908152602001600020604051806101800160405290816000820160009054906101000a900473ffffffffffffffffffffffffffffffffffffffff1673ffffffffffffffffffffffffffffffffffffffff1673ffffffffffffffffffffffffffffffffffffffff1681526020016001820160009054906101000a900473ffffffffffffffffffffffffffffffffffffffff1673ffffffffffffffffffffffffffffffffffffffff1673ffffffffffffffffffffffffffffffffffffffff1681526020016002820160009054906101000a900473ffffffffffffffffffffffffffffffffffffffff1673ffffffffffffffffffffffffffffffffffffffff1673ffffffffffffffffffffffffffffffffffffffff168152602001600382015481526020016004820160009054906101000a900473ffffffffffffffffffffffffffffffffffffffff1673ffffffffffffffffffffffffffffffffffffffff1673ffffffffffffffffffffffffffffffffffffffff1681526020016005820160009054906101000a900473ffffffffffffffffffffffffffffffffffffffff1673ffffffffffffffffffffffffffffffffffffffff1673ffffffffffffffffffffffffffffffffffffffff1681526020016006820160009054906101000a900473ffffffffffffffffffffffffffffffffffffffff1673ffffffffffffffffffffffffffffffffffffffff1673ffffffffffffffffffffffffffffffffffffffff168152602001600782015481526020016008820154815260200160098201548152602001600a820180548060200260200160405190810160405280929190818152602001828054801561080357602002820191906000526020600020905b8160009054906101000a900473ffffffffffffffffffffffffffffffffffffffff1673ffffffffffffffffffffffffffffffffffffffff16815260200190600101908083116107b9575b50505050508152602001600b82016040518060a00160405290816000820160009054906101000a900460ff161515151581526020016000820160019054906101000a900460ff161515151581526020016001820154815260200160028201548152602001600382015481525050815250509050600073ffffffffffffffffffffffffffffffffffffffff16816000015173ffffffffffffffffffffffffffffffffffffffff16036108e9576040517f08c379a00000000000000000000000000000000000000000000000000000000081526004016108e090614a7c565b60405180910390fd5b80610160015160000151610932576040517f08c379a000000000000000000000000000000000000000000000000000000000815260040161092990614ae8565b60405180910390fd5b806101600151602001511561097c576040517f08c379a000000000000000000000000000000000000000000000000000000000815260040161097390614b54565b60405180910390fd5b610988878787876124cb565b6109c7576040517f08c379a00000000000000000000000000000000000000000000000000000000081526004016109be90614be6565b60405180910390fd5b6000801b81610120015114610a4457806101200151836040516020016109ed9190614c27565b6040516020818303038152906040528051906020012014610a43576040517f08c379a0000000000000000000000000000000000000000000000000000000008152600401610a3a90614cb4565b60405180910390fd5b5b600073ffffffffffffffffffffffffffffffffffffffff16816040015173ffffffffffffffffffffffffffffffffffffffff1603610af557806000015173ffffffffffffffffffffffffffffffffffffffff168160e00151604051610aa890614d05565b60006040518083038185875af1925050503d8060008114610ae5576040519150601f19603f3d011682016040523d82523d6000602084013e610aea565b606091505b505080925050610b82565b806040015173ffffffffffffffffffffffffffffffffffffffff1663a9059cbb82600001518360e001516040518363ffffffff1660e01b8152600401610b3c929190614d79565b6020604051808303816000875af1158015610b5b573d6000803e3d6000fd5b505050506040513d601f19601f82011682018060405250810190610b7f9190614dce565b91505b8115610c5157600181610160015160200190151590811515815250506000801b81610120015114610be05782877f70a17320c56db2256f621dc02f589640a26d4b70f17e1569e33878738a1afe1360405160405180910390a3610c0e565b867f9c8b24255e064f022be47a9dd0dbb227b8e04edcdc0d76edd56d2e330fa12ab560405160405180910390a25b610c4c6040518060400160405280601681526020017f5472616e73616374696f6e205375636365737366756c00000000000000000000815250613400565b610cd3565b610c8f6040518060400160405280601d81526020017f5472616e73616374696f6e204661696c6564207c2049642062656c6f77000000815250613400565b610c9887613499565b6040517f08c379a0000000000000000000000000000000000000000000000000000000008152600401610cca90614e47565b60405180910390fd5b5050610cdd613532565b5050505050565b600e6020528160005260406000208181548110610d0057600080fd5b90600052602060002001600091509150505481565b610d1d6133ba565b60003373ffffffffffffffffffffffffffffffffffffffff16600a600084815260200190815260200160002060010160009054906101000a900473ffffffffffffffffffffffffffffffffffffffff1673ffffffffffffffffffffffffffffffffffffffff1614610dc3576040517f08c379a0000000000000000000000000000000000000000000000000000000008152600401610dba90614ed9565b60405180910390fd5b600a6000838152602001908152602001600020600b0160000160019054906101000a900460ff1615610e2a576040517f08c379a0000000000000000000000000000000000000000000000000000000008152600401610e2190614b54565b60405180910390fd5b600a6000838152602001908152602001600020600b0160000160009054906101000a900460ff16610e90576040517f08c379a0000000000000000000000000000000000000000000000000000000008152600401610e8790614f45565b60405180910390fd5b600854600a6000848152602001908152602001600020600b0160010154600260010154610ebd9190614f94565b1015610efe576040517f08c379a0000000000000000000000000000000000000000000000000000000008152600401610ef59061503a565b60405180910390fd5b600073ffffffffffffffffffffffffffffffffffffffff16600a600084815260200190815260200160002060020160009054906101000a900473ffffffffffffffffffffffffffffffffffffffff1673ffffffffffffffffffffffffffffffffffffffff160361102557600a600083815260200190815260200160002060010160009054906101000a900473ffffffffffffffffffffffffffffffffffffffff1673ffffffffffffffffffffffffffffffffffffffff16600a600084815260200190815260200160002060070154604051610fd890614d05565b60006040518083038185875af1925050503d8060008114611015576040519150601f19603f3d011682016040523d82523d6000602084013e61101a565b606091505b505080915050611128565b600a600083815260200190815260200160002060020160009054906101000a900473ffffffffffffffffffffffffffffffffffffffff1673ffffffffffffffffffffffffffffffffffffffff1663a9059cbb600a600085815260200190815260200160002060010160009054906101000a900473ffffffffffffffffffffffffffffffffffffffff16600a6000868152602001908152602001600020600701546040518363ffffffff1660e01b81526004016110e2929190614d79565b6020604051808303816000875af1158015611101573d6000803e3d6000fd5b505050506040513d601f19601f820116820180604052508101906111259190614dce565b90505b80156111c0576000600a6000848152602001908152602001600020600b0160000160006101000a81548160ff0219169083151502179055506000600a6000848152602001908152602001600020600b0160000160016101000a81548160ff021916908315150217905550817f0f4e777b943fdeab202abaf16024cec844fca12494c9f4246a4da7cb302403d860405160405180910390a25b506111c9613532565b50565b6060600e60008373ffffffffffffffffffffffffffffffffffffffff1673ffffffffffffffffffffffffffffffffffffffff16815260200190815260200160002080548060200260200160405190810160405280929190818152602001828054801561125757602002820191906000526020600020905b815481526020019060010190808311611243575b50505050509050919050565b60065481565b6112716133ba565b60005b815181101561190e5760006112a38383815181106112955761129461505a565b5b60200260200101513361353c565b156118ff576000600a60008585815181106112c1576112c061505a565b5b60200260200101518152602001908152602001600020604051806101800160405290816000820160009054906101000a900473ffffffffffffffffffffffffffffffffffffffff1673ffffffffffffffffffffffffffffffffffffffff1673ffffffffffffffffffffffffffffffffffffffff1681526020016001820160009054906101000a900473ffffffffffffffffffffffffffffffffffffffff1673ffffffffffffffffffffffffffffffffffffffff1673ffffffffffffffffffffffffffffffffffffffff1681526020016002820160009054906101000a900473ffffffffffffffffffffffffffffffffffffffff1673ffffffffffffffffffffffffffffffffffffffff1673ffffffffffffffffffffffffffffffffffffffff168152602001600382015481526020016004820160009054906101000a900473ffffffffffffffffffffffffffffffffffffffff1673ffffffffffffffffffffffffffffffffffffffff1673ffffffffffffffffffffffffffffffffffffffff1681526020016005820160009054906101000a900473ffffffffffffffffffffffffffffffffffffffff1673ffffffffffffffffffffffffffffffffffffffff1673ffffffffffffffffffffffffffffffffffffffff1681526020016006820160009054906101000a900473ffffffffffffffffffffffffffffffffffffffff1673ffffffffffffffffffffffffffffffffffffffff1673ffffffffffffffffffffffffffffffffffffffff168152602001600782015481526020016008820154815260200160098201548152602001600a820180548060200260200160405190810160405280929190818152602001828054801561159457602002820191906000526020600020905b8160009054906101000a900473ffffffffffffffffffffffffffffffffffffffff1673ffffffffffffffffffffffffffffffffffffffff168152602001906001019080831161154a575b50505050508152602001600b82016040518060a00160405290816000820160009054906101000a900460ff161515151581526020016000820160019054906101000a900460ff1615151515815260200160018201548152602001600282015481526020016003820154815250508152505090506000801b8161012001511461161d575050611901565b600073ffffffffffffffffffffffffffffffffffffffff16816000015173ffffffffffffffffffffffffffffffffffffffff160361165c575050611901565b80610160015160000151611671575050611901565b8061016001516020015115611687575050611901565b600073ffffffffffffffffffffffffffffffffffffffff16816040015173ffffffffffffffffffffffffffffffffffffffff160361173857806000015173ffffffffffffffffffffffffffffffffffffffff168160e001516040516116eb90614d05565b60006040518083038185875af1925050503d8060008114611728576040519150601f19603f3d011682016040523d82523d6000602084013e61172d565b606091505b5050809250506117c5565b806040015173ffffffffffffffffffffffffffffffffffffffff1663a9059cbb82600001518360e001516040518363ffffffff1660e01b815260040161177f929190614d79565b6020604051808303816000875af115801561179e573d6000803e3d6000fd5b505050506040513d601f19601f820116820180604052508101906117c29190614dce565b91505b81156118fd576001600a60008686815181106117e4576117e361505a565b5b60200260200101518152602001908152602001600020600b0160000160016101000a81548160ff02191690831515021790555083838151811061182a5761182961505a565b5b60200260200101517fa87c61423ae3687e4624213311fed770c28826ee599ac8b9bc377756f3faae3660405160405180910390a2601060003373ffffffffffffffffffffffffffffffffffffffff1673ffffffffffffffffffffffffffffffffffffffff168152602001908152602001600020548161016001516040015111156118fc5780610160015160400151601060003373ffffffffffffffffffffffffffffffffffffffff1673ffffffffffffffffffffffffffffffffffffffff168152602001908152602001600020819055505b5b505b505b8080600101915050611274565b50611917613532565b50565b6000851161195d576040517f08c379a0000000000000000000000000000000000000000000000000000000008152600401611954906150d5565b60405180910390fd5b600082116119a0576040517f08c379a000000000000000000000000000000000000000000000000000000000815260040161199790615141565b60405180910390fd5b60008060001b905060008551036119ec576040517f08c379a00000000000000000000000000000000000000000000000000000000081526004016119e3906151d3565b60405180910390fd5b60005b8551811015611a4a5781868281518110611a0c57611a0b61505a565b5b6020026020010151604051602001611a2592919061523b565b60405160208183030381529060405280519060200120915080806001019150506119ef565b5086600081518110611a5f57611a5e61505a565b5b602002602001015187600181518110611a7b57611a7a61505a565b5b602002602001015188600281518110611a9757611a9661505a565b5b60200260200101518884604051602001611ab5959493929190615288565b60405160208183030381529060405280519060200120905060008185600081518110611ae457611ae361505a565b5b602002602001015186600181518110611b0057611aff61505a565b5b602002602001015187600281518110611b1c57611b1b61505a565b5b602002602001015187604051602001611b399594939291906152e7565b60405160208183030381529060405280519060200120905060008184600b80549050604051602001611b6d93929190615346565b6040516020818303038152906040528051906020012090506000600b8054905003611b9e5780600c81905550611bd5565b600b6001600b80549050611bb29190614f94565b81548110611bc357611bc261505a565b5b9060005260206000200154600c819055505b6000600c5482604051602001611bec929190615383565b6040516020818303038152906040528051906020012090506000801b600960008581526020019081526020016000205403611c6757806009600085815260200190815260200160002081905550600b819080600181540180825580915050600190039060005260206000200160009091909190915055611da3565b600a600060096000868152602001908152602001600020548152602001908152602001600020600b0160000160009054906101000a900460ff1615611ce1576040517f08c379a0000000000000000000000000000000000000000000000000000000008152600401611cd8906153fb565b60405180910390fd5b600654600a600060096000878152602001908152602001600020548152602001908152602001600020600b0160010154600260010154611d219190614f94565b11611d61576040517f08c379a0000000000000000000000000000000000000000000000000000000008152600401611d589061548d565b60405180910390fd5b806009600085815260200190815260200160002081905550600b8190806001815401808255809150506001900390600052602060002001600090919091909150555b600e60008b600081518110611dbb57611dba61505a565b5b602002602001015173ffffffffffffffffffffffffffffffffffffffff1673ffffffffffffffffffffffffffffffffffffffff168152602001908152602001600020819080600181540180825580915050600190039060005260206000200160009091909190915055600e60008b600181518110611e3c57611e3b61505a565b5b602002602001015173ffffffffffffffffffffffffffffffffffffffff1673ffffffffffffffffffffffffffffffffffffffff1681526020019081526020016000208190806001815401808255809150506001900390600052602060002001600090919091909150556040518061018001604052808b600081518110611ec557611ec461505a565b5b602002602001015173ffffffffffffffffffffffffffffffffffffffff1681526020018b600181518110611efc57611efb61505a565b5b602002602001015173ffffffffffffffffffffffffffffffffffffffff1681526020018b600281518110611f3357611f3261505a565b5b602002602001015173ffffffffffffffffffffffffffffffffffffffff16815260200185815260200188600081518110611f7057611f6f61505a565b5b602002602001015173ffffffffffffffffffffffffffffffffffffffff16815260200188600181518110611fa757611fa661505a565b5b602002602001015173ffffffffffffffffffffffffffffffffffffffff16815260200188600281518110611fde57611fdd61505a565b5b602002602001015173ffffffffffffffffffffffffffffffffffffffff1681526020018a81526020018781526020018681526020018981526020016040518060a0016040528060001515815260200160001515815260200160026001015481526020016001600b805490506120539190614f94565b8152602001600c54815250815250600a600083815260200190815260200160002060008201518160000160006101000a81548173ffffffffffffffffffffffffffffffffffffffff021916908373ffffffffffffffffffffffffffffffffffffffff16021790555060208201518160010160006101000a81548173ffffffffffffffffffffffffffffffffffffffff021916908373ffffffffffffffffffffffffffffffffffffffff16021790555060408201518160020160006101000a81548173ffffffffffffffffffffffffffffffffffffffff021916908373ffffffffffffffffffffffffffffffffffffffff1602179055506060820151816003015560808201518160040160006101000a81548173ffffffffffffffffffffffffffffffffffffffff021916908373ffffffffffffffffffffffffffffffffffffffff16021790555060a08201518160050160006101000a81548173ffffffffffffffffffffffffffffffffffffffff021916908373ffffffffffffffffffffffffffffffffffffffff16021790555060c08201518160060160006101000a81548173ffffffffffffffffffffffffffffffffffffffff021916908373ffffffffffffffffffffffffffffffffffffffff16021790555060e082015181600701556101008201518160080155610120820151816009015561014082015181600a019080519060200190612265929190613d03565b5061016082015181600b0160008201518160000160006101000a81548160ff02191690831515021790555060208201518160000160016101000a81548160ff02191690831515021790555060408201518160010155606082015181600201556080820151816003015550509050506123116040518060400160405280601481526020017f232054726164652052656769737465726564203a000000000000000000000000815250613400565b61231a81613499565b8960018151811061232e5761232d61505a565b5b602002602001015173ffffffffffffffffffffffffffffffffffffffff163373ffffffffffffffffffffffffffffffffffffffff16036123765761237181612d93565b612391565b6123906001600b8054905061238b9190614f94565b61360d565b5b808a6001815181106123a6576123a561505a565b5b602002602001015173ffffffffffffffffffffffffffffffffffffffff168b6000815181106123d8576123d761505a565b5b602002602001015173ffffffffffffffffffffffffffffffffffffffff167f2757129344406c1327fc1e674d64d5c1dd9889c7b94b28bf274e9ce94312269b60405160405180910390a4806001600b805490506124359190614f94565b600c547ec0cd18b7319498c1d2b4c4079d14f2ac10a573edcad339b30f6ff039c38d1160405160405180910390a46124a76040518060400160405280601d81526020017f4472657820416c69656e20436f6e6669726d6174696f6e20496e646578000000815250600260000154613826565b50505050505050505050565b60096020528060005260406000206000915090505481565b6000808590506000808060e01b90506000631626ba7e60e01b9050600080600090505b88518110156125b757600060028b61250691906154dc565b03612555578589828151811061251f5761251e61505a565b5b6020026020010151604051602001612538929190615383565b60405160208183030381529060405280519060200120955061259b565b8881815181106125685761256761505a565b5b602002602001015186604051602001612582929190615383565b6040516020818303038152906040528051906020012095505b60028a6125a8919061550d565b995080806001019150506124ee565b5060005b600a60008c8152602001908152602001600020600a01805490508110801561262c5750827bffffffffffffffffffffffffffffffffffffffffffffffffffffffff1916847bffffffffffffffffffffffffffffffffffffffffffffffffffffffff191614801561262a57508582145b155b1561271757600a60008c8152602001908152602001600020600a0181815481106126595761265861505a565b5b9060005260206000200160009054906101000a900473ffffffffffffffffffffffffffffffffffffffff1673ffffffffffffffffffffffffffffffffffffffff1663759a62d5896040518263ffffffff1660e01b81526004016126bc919061449e565b6040805180830381865afa1580156126d8573d6000803e3d6000fd5b505050506040513d601f19601f820116820180604052508101906126fc91906155ab565b8093508195505050808061270f906155eb565b9150506125bb565b50817bffffffffffffffffffffffffffffffffffffffffffffffffffffffff1916837bffffffffffffffffffffffffffffffffffffffffffffffffffffffff191614801561276457508481145b156127ac57600193506127ab6040518060400160405280601181526020017f2a2a4d65726b6c652050726f6f66204f6b000000000000000000000000000000815250613400565b5b8395505050505050949350505050565b6127c4613d8d565b6000600a600084815260200190815260200160002060026000015481604051806101800160405290816000820160009054906101000a900473ffffffffffffffffffffffffffffffffffffffff1673ffffffffffffffffffffffffffffffffffffffff1673ffffffffffffffffffffffffffffffffffffffff1681526020016001820160009054906101000a900473ffffffffffffffffffffffffffffffffffffffff1673ffffffffffffffffffffffffffffffffffffffff1673ffffffffffffffffffffffffffffffffffffffff1681526020016002820160009054906101000a900473ffffffffffffffffffffffffffffffffffffffff1673ffffffffffffffffffffffffffffffffffffffff1673ffffffffffffffffffffffffffffffffffffffff168152602001600382015481526020016004820160009054906101000a900473ffffffffffffffffffffffffffffffffffffffff1673ffffffffffffffffffffffffffffffffffffffff1673ffffffffffffffffffffffffffffffffffffffff1681526020016005820160009054906101000a900473ffffffffffffffffffffffffffffffffffffffff1673ffffffffffffffffffffffffffffffffffffffff1673ffffffffffffffffffffffffffffffffffffffff1681526020016006820160009054906101000a900473ffffffffffffffffffffffffffffffffffffffff1673ffffffffffffffffffffffffffffffffffffffff1673ffffffffffffffffffffffffffffffffffffffff168152602001600782015481526020016008820154815260200160098201548152602001600a8201805480602002602001604051908101604052809291908181526020018280548015612a9d57602002820191906000526020600020905b8160009054906101000a900473ffffffffffffffffffffffffffffffffffffffff1673ffffffffffffffffffffffffffffffffffffffff1681526020019060010190808311612a53575b50505050508152602001600b82016040518060a00160405290816000820160009054906101000a900460ff161515151581526020016000820160019054906101000a900460ff16151515158152602001600182015481526020016002820154815260200160038201548152505081525050915091509150915091565b612b216133ba565b6000601060008373ffffffffffffffffffffffffffffffffffffffff1673ffffffffffffffffffffffffffffffffffffffff168152602001908152602001600020549050600080601160008573ffffffffffffffffffffffffffffffffffffffff1673ffffffffffffffffffffffffffffffffffffffff16815260200190815260200160002054831115612d615760006001601160008773ffffffffffffffffffffffffffffffffffffffff1673ffffffffffffffffffffffffffffffffffffffff16815260200190815260200160002054612bfd9190615633565b90505b838111612d1b5760005b600f60008773ffffffffffffffffffffffffffffffffffffffff1673ffffffffffffffffffffffffffffffffffffffff168152602001908152602001600020600083815260200190815260200160002080549050811015612d07576000612cdc600f60008973ffffffffffffffffffffffffffffffffffffffff1673ffffffffffffffffffffffffffffffffffffffff16815260200190815260200160002060008581526020019081526020016000208381548110612ccc57612ccb61505a565b5b90600052602060002001546138c2565b8095508192505050808015612cf057508484115b15612cf9578394505b508080600101915050612c0a565b508080612d13906155eb565b915050612c00565b5081601160008673ffffffffffffffffffffffffffffffffffffffff1673ffffffffffffffffffffffffffffffffffffffff168152602001908152602001600020819055505b505050612d6c613532565b50565b600b8181548110612d7f57600080fd5b906000526020600020016000915090505481565b60008073ffffffffffffffffffffffffffffffffffffffff16600a600084815260200190815260200160002060000160009054906101000a900473ffffffffffffffffffffffffffffffffffffffff1673ffffffffffffffffffffffffffffffffffffffff1603612e39576040517f08c379a0000000000000000000000000000000000000000000000000000000008152600401612e3090614a7c565b60405180910390fd5b3373ffffffffffffffffffffffffffffffffffffffff16600a600084815260200190815260200160002060010160009054906101000a900473ffffffffffffffffffffffffffffffffffffffff1673ffffffffffffffffffffffffffffffffffffffff1614612edd576040517f08c379a0000000000000000000000000000000000000000000000000000000008152600401612ed4906156b3565b60405180910390fd5b600a6000838152602001908152602001600020600b0160000160009054906101000a900460ff1615612f44576040517f08c379a0000000000000000000000000000000000000000000000000000000008152600401612f3b9061571f565b60405180910390fd5b600654600a6000848152602001908152602001600020600b0160010154600260010154612f719190614f94565b10612fb1576040517f08c379a0000000000000000000000000000000000000000000000000000000008152600401612fa89061578b565b60405180910390fd5b600073ffffffffffffffffffffffffffffffffffffffff16600a600084815260200190815260200160002060020160009054906101000a900473ffffffffffffffffffffffffffffffffffffffff1673ffffffffffffffffffffffffffffffffffffffff16036130e457600a6000838152602001908152602001600020600701543414613073576040517f08c379a000000000000000000000000000000000000000000000000000000000815260040161306a906157f7565b60405180910390fd5b3073ffffffffffffffffffffffffffffffffffffffff163460405161309790614d05565b60006040518083038185875af1925050503d80600081146130d4576040519150601f19603f3d011682016040523d82523d6000602084013e6130d9565b606091505b5050809150506132c5565b6000600a600084815260200190815260200160002060020160009054906101000a900473ffffffffffffffffffffffffffffffffffffffff1673ffffffffffffffffffffffffffffffffffffffff1663dd62ed3e33306040518363ffffffff1660e01b8152600401613157929190615817565b6020604051808303816000875af1158015613176573d6000803e3d6000fd5b505050506040513d601f19601f8201168201806040525081019061319a9190615855565b9050600a6000848152602001908152602001600020600701548110156131f5576040517f08c379a00000000000000000000000000000000000000000000000000000000081526004016131ec906158f4565b60405180910390fd5b600a600084815260200190815260200160002060020160009054906101000a900473ffffffffffffffffffffffffffffffffffffffff1673ffffffffffffffffffffffffffffffffffffffff166323b872dd3330600a6000888152602001908152602001600020600701546040518463ffffffff1660e01b815260040161327e93929190615914565b6020604051808303816000875af115801561329d573d6000803e3d6000fd5b505050506040513d601f19601f820116820180604052508101906132c19190614dce565b9150505b8015613377576001600a6000848152602001908152602001600020600b0160000160006101000a81548160ff0219169083151502179055506000801b600a600084815260200190815260200160002060090154036133275761332682613bb0565b5b817fb95f703ca71749c417243e8cda44f3986072280723f667e87bdca214bccf30da60405160405180910390a2613376600a6000848152602001908152602001600020600b016002015461360d565b5b5050565b60028060000154908060010154908060020154908060030154905084565b60006a636f6e736f6c652e6c6f679050600080835160208501845afa505050565b6002600054036133f6576040517f3ee5aeb500000000000000000000000000000000000000000000000000000000815260040160405180910390fd5b6002600081905550565b6134968160405160240161341491906159b9565b6040516020818303038152906040527f41304fac000000000000000000000000000000000000000000000000000000007bffffffffffffffffffffffffffffffffffffffffffffffffffffffff19166020820180517bffffffffffffffffffffffffffffffffffffffffffffffffffffffff8381831617835250505050613cd4565b50565b61352f816040516024016134ad9190614385565b6040516020818303038152906040527f27b7cf85000000000000000000000000000000000000000000000000000000007bffffffffffffffffffffffffffffffffffffffffffffffffffffffff19166020820180517bffffffffffffffffffffffffffffffffffffffffffffffffffffffff8381831617835250505050613cd4565b50565b6001600081905550565b6000806000905060005b600a6000868152602001908152602001600020600a0180549050811015613602578373ffffffffffffffffffffffffffffffffffffffff16600a6000878152602001908152602001600020600a0182815481106135a6576135a561505a565b5b9060005260206000200160009054906101000a900473ffffffffffffffffffffffffffffffffffffffff1673ffffffffffffffffffffffffffffffffffffffff16036135f55760019150613602565b8080600101915050613546565b508091505092915050565b6000600260030154426136209190614f94565b90506136616040518060400160405280601381526020017f3e3e3e20456c6c61707365642054696d653a200000000000000000000000000081525082613826565b6001548110613822576136a86040518060400160405280601a81526020017f3e3e3e204372656174696e67206e65772074696d6520736c6f74000000000000815250613400565b6136ec6040518060400160405280601281526020017f3e3e3e2043757272656e7420536c6f743a200000000000000000000000000000815250600260010154613826565b620f4240600154620f42408361370291906159db565b61370c919061550d565b613716919061550d565b6002600101600082825461372a9190615633565b92505081905550613758604051806060016040528060298152602001615aa660299139600260010154613826565b600060075460026001015461376d9190614f94565b905082600d600060026001015481526020019081526020016000208190555060028001548110613816575b6000600d600083815260200190815260200160002054036137c65780806137be90615a1d565b915050613798565b600d6000828152602001908152602001600020546002600001819055506002600001547f547e0708de0fbdb00f1e7c1b77e9585e673c85882e2cb95d0ee33af088f22e7960405160405180910390a25b42600260030181905550505b5050565b6138be828260405160240161383c929190615a46565b6040516020818303038152906040527fb60e72cc000000000000000000000000000000000000000000000000000000007bffffffffffffffffffffffffffffffffffffffffffffffffffffffff19166020820180517bffffffffffffffffffffffffffffffffffffffffffffffffffffffff8381831617835250505050613cd4565b5050565b600080600060011515600a6000868152602001908152602001600020600b0160000160009054906101000a900460ff16151503613b8b5760001515600a6000868152602001908152602001600020600b0160000160019054906101000a900460ff16151503613b8a57600073ffffffffffffffffffffffffffffffffffffffff16600a600086815260200190815260200160002060020160009054906101000a900473ffffffffffffffffffffffffffffffffffffffff1673ffffffffffffffffffffffffffffffffffffffff1603613a5257600a600085815260200190815260200160002060010160009054906101000a900473ffffffffffffffffffffffffffffffffffffffff1673ffffffffffffffffffffffffffffffffffffffff16600a600086815260200190815260200160002060070154604051613a0590614d05565b60006040518083038185875af1925050503d8060008114613a42576040519150601f19603f3d011682016040523d82523d6000602084013e613a47565b606091505b505080915050613b55565b600a600085815260200190815260200160002060020160009054906101000a900473ffffffffffffffffffffffffffffffffffffffff1673ffffffffffffffffffffffffffffffffffffffff1663a9059cbb600a600087815260200190815260200160002060010160009054906101000a900473ffffffffffffffffffffffffffffffffffffffff16600a6000888152602001908152602001600020600701546040518363ffffffff1660e01b8152600401613b0f929190614d79565b6020604051808303816000875af1158015613b2e573d6000803e3d6000fd5b505050506040513d601f19601f82011682018060405250810190613b529190614dce565b90505b8015613b8957837f0f4e777b943fdeab202abaf16024cec844fca12494c9f4246a4da7cb302403d860405160405180910390a25b5b5b80600a6000868152602001908152602001600020600b01600101549250925050915091565b60005b600a6000838152602001908152602001600020600a0180549050811015613cd057600f6000600a6000858152602001908152602001600020600a018381548110613c0057613bff61505a565b5b9060005260206000200160009054906101000a900473ffffffffffffffffffffffffffffffffffffffff1673ffffffffffffffffffffffffffffffffffffffff1673ffffffffffffffffffffffffffffffffffffffff1681526020019081526020016000206000600854600a6000868152602001908152602001600020600b0160010154613c8e9190615633565b81526020019081526020016000208290806001815401808255809150506001900390600052602060002001600090919091909150558080600101915050613bb3565b5050565b613ceb81613ce3613399613cee565b63ffffffff16565b50565b613cf9819050919050565b613d01615a76565b565b828054828255906000526020600020908101928215613d7c579160200282015b82811115613d7b5782518260006101000a81548173ffffffffffffffffffffffffffffffffffffffff021916908373ffffffffffffffffffffffffffffffffffffffff16021790555091602001919060010190613d23565b5b509050613d899190613e7e565b5090565b604051806101800160405280600073ffffffffffffffffffffffffffffffffffffffff168152602001600073ffffffffffffffffffffffffffffffffffffffff168152602001600073ffffffffffffffffffffffffffffffffffffffff16815260200160008019168152602001600073ffffffffffffffffffffffffffffffffffffffff168152602001600073ffffffffffffffffffffffffffffffffffffffff168152602001600073ffffffffffffffffffffffffffffffffffffffff16815260200160008152602001600081526020016000801916815260200160608152602001613e78613e9b565b81525090565b5b80821115613e97576000816000905550600101613e7f565b5090565b6040518060a001604052806000151581526020016000151581526020016000815260200160008152602001600080191681525090565b6000604051905090565b600080fd5b600080fd5b6000819050919050565b613ef881613ee5565b8114613f0357600080fd5b50565b600081359050613f1581613eef565b92915050565b600060208284031215613f3157613f30613edb565b5b6000613f3f84828501613f06565b91505092915050565b600073ffffffffffffffffffffffffffffffffffffffff82169050919050565b6000613f7382613f48565b9050919050565b613f8381613f68565b82525050565b613f9281613ee5565b82525050565b6000819050919050565b613fab81613f98565b82525050565b60008115159050919050565b613fc681613fb1565b82525050565b613fd581613f98565b82525050565b613fe481613ee5565b82525050565b60a0820160008201516140006000850182613fbd565b5060208201516140136020850182613fbd565b5060408201516140266040850182613fcc565b5060608201516140396060850182613fcc565b50608082015161404c6080850182613fdb565b50505050565b60006101e082019050614068600083018e613f7a565b614075602083018d613f7a565b614082604083018c613f7a565b61408f606083018b613f89565b61409c608083018a613f7a565b6140a960a0830189613f7a565b6140b660c0830188613f7a565b6140c360e0830187613fa2565b6140d1610100830186613fa2565b6140df610120830185613f89565b6140ed610140830184613fea565b9c9b505050505050505050505050565b61410681613f98565b811461411157600080fd5b50565b600081359050614123816140fd565b92915050565b600080fd5b6000601f19601f8301169050919050565b7f4e487b7100000000000000000000000000000000000000000000000000000000600052604160045260246000fd5b6141778261412e565b810181811067ffffffffffffffff821117156141965761419561413f565b5b80604052505050565b60006141a9613ed1565b90506141b5828261416e565b919050565b600067ffffffffffffffff8211156141d5576141d461413f565b5b602082029050602081019050919050565b600080fd5b60006141fe6141f9846141ba565b61419f565b90508083825260208201905060208402830185811115614221576142206141e6565b5b835b8181101561424a57806142368882613f06565b845260208401935050602081019050614223565b5050509392505050565b600082601f83011261426957614268614129565b5b81356142798482602086016141eb565b91505092915050565b600080600080600060a0868803121561429e5761429d613edb565b5b60006142ac88828901613f06565b95505060206142bd88828901614114565b945050604086013567ffffffffffffffff8111156142de576142dd613ee0565b5b6142ea88828901614254565b93505060606142fb88828901614114565b925050608061430c88828901613f06565b9150509295509295909350565b61432281613f68565b811461432d57600080fd5b50565b60008135905061433f81614319565b92915050565b6000806040838503121561435c5761435b613edb565b5b600061436a85828601614330565b925050602061437b85828601614114565b9150509250929050565b600060208201905061439a6000830184613f89565b92915050565b6000602082840312156143b6576143b5613edb565b5b60006143c484828501614330565b91505092915050565b600081519050919050565b600082825260208201905092915050565b6000819050602082019050919050565b60006144058383613fdb565b60208301905092915050565b6000602082019050919050565b6000614429826143cd565b61443381856143d8565b935061443e836143e9565b8060005b8381101561446f57815161445688826143f9565b975061446183614411565b925050600181019050614442565b5085935050505092915050565b60006020820190508181036000830152614496818461441e565b905092915050565b60006020820190506144b36000830184613fa2565b92915050565b6000602082840312156144cf576144ce613edb565b5b600082013567ffffffffffffffff8111156144ed576144ec613ee0565b5b6144f984828501614254565b91505092915050565b600067ffffffffffffffff82111561451d5761451c61413f565b5b602082029050602081019050919050565b600061454161453c84614502565b61419f565b90508083825260208201905060208402830185811115614564576145636141e6565b5b835b8181101561458d57806145798882614330565b845260208401935050602081019050614566565b5050509392505050565b600082601f8301126145ac576145ab614129565b5b81356145bc84826020860161452e565b91505092915050565b60008060008060008060c087890312156145e2576145e1613edb565b5b600087013567ffffffffffffffff811115614600576145ff613ee0565b5b61460c89828a01614597565b965050602061461d89828a01614114565b955050604087013567ffffffffffffffff81111561463e5761463d613ee0565b5b61464a89828a01614597565b945050606087013567ffffffffffffffff81111561466b5761466a613ee0565b5b61467789828a01614597565b935050608061468889828a01614114565b92505060a061469989828a01613f06565b9150509295509295509295565b600080600080608085870312156146c0576146bf613edb565b5b60006146ce87828801613f06565b94505060206146df87828801614114565b935050604085013567ffffffffffffffff811115614700576146ff613ee0565b5b61470c87828801614254565b925050606061471d87828801614114565b91505092959194509250565b61473281613fb1565b82525050565b600060208201905061474d6000830184614729565b92915050565b61475c81613f68565b82525050565b600081519050919050565b600082825260208201905092915050565b6000819050602082019050919050565b600061479a8383614753565b60208301905092915050565b6000602082019050919050565b60006147be82614762565b6147c8818561476d565b93506147d38361477e565b8060005b838110156148045781516147eb888261478e565b97506147f6836147a6565b9250506001810190506147d7565b5085935050505092915050565b60a0820160008201516148276000850182613fbd565b50602082015161483a6020850182613fbd565b50604082015161484d6040850182613fcc565b5060608201516148606060850182613fcc565b5060808201516148736080850182613fdb565b50505050565b6000610200830160008301516148926000860182614753565b5060208301516148a56020860182614753565b5060408301516148b86040860182614753565b5060608301516148cb6060860182613fdb565b5060808301516148de6080860182614753565b5060a08301516148f160a0860182614753565b5060c083015161490460c0860182614753565b5060e083015161491760e0860182613fcc565b5061010083015161492c610100860182613fcc565b50610120830151614941610120860182613fdb565b5061014083015184820361014086015261495b82826147b3565b915050610160830151614972610160860182614811565b508091505092915050565b600060408201905081810360008301526149978185614879565b90506149a66020830184613fa2565b9392505050565b6000602082840312156149c3576149c2613edb565b5b60006149d184828501614114565b91505092915050565b60006080820190506149ef6000830187613fa2565b6149fc6020830186613fa2565b614a096040830185613fa2565b614a166060830184613fa2565b95945050505050565b600082825260208201905092915050565b7f547261646520646f6573206e6f74206578697374000000000000000000000000600082015250565b6000614a66601483614a1f565b9150614a7182614a30565b602082019050919050565b60006020820190508181036000830152614a9581614a59565b9050919050565b7f5472616465206973206e6f74206c6f636b656400000000000000000000000000600082015250565b6000614ad2601383614a1f565b9150614add82614a9c565b602082019050919050565b60006020820190508181036000830152614b0181614ac5565b9050919050565b7f547261646520616c726561647920736574746c65640000000000000000000000600082015250565b6000614b3e601583614a1f565b9150614b4982614b08565b602082019050919050565b60006020820190508181036000830152614b6d81614b31565b9050919050565b7f5472616e73616374696f6e206e6f7420736574746c656420696e20416c69656e60008201527f20436861696e0000000000000000000000000000000000000000000000000000602082015250565b6000614bd0602683614a1f565b9150614bdb82614b74565b604082019050919050565b60006020820190508181036000830152614bff81614bc3565b9050919050565b6000819050919050565b614c21614c1c82613ee5565b614c06565b82525050565b6000614c338284614c10565b60208201915081905092915050565b7f53656372657420486173686564206973206e6f7420657175616c20746f20486160008201527f7368656420536563726574206f6620746865205472616e73616374696f6e0000602082015250565b6000614c9e603e83614a1f565b9150614ca982614c42565b604082019050919050565b60006020820190508181036000830152614ccd81614c91565b9050919050565b600081905092915050565b50565b6000614cef600083614cd4565b9150614cfa82614cdf565b600082019050919050565b6000614d1082614ce2565b9150819050919050565b6000819050919050565b6000614d3f614d3a614d3584613f48565b614d1a565b613f48565b9050919050565b6000614d5182614d24565b9050919050565b6000614d6382614d46565b9050919050565b614d7381614d58565b82525050565b6000604082019050614d8e6000830185614d6a565b614d9b6020830184613fa2565b9392505050565b614dab81613fb1565b8114614db657600080fd5b50565b600081519050614dc881614da2565b92915050565b600060208284031215614de457614de3613edb565b5b6000614df284828501614db9565b91505092915050565b7f5472616e73616374696f6e20736574746c656d656e74206661696c6564000000600082015250565b6000614e31601d83614a1f565b9150614e3c82614dfb565b602082019050919050565b60006020820190508181036000830152614e6081614e24565b9050919050565b7f556e617574686f72697a6564202d204f6e6c79204d696b652063616e2072657660008201527f6572740000000000000000000000000000000000000000000000000000000000602082015250565b6000614ec3602383614a1f565b9150614ece82614e67565b604082019050919050565b60006020820190508181036000830152614ef281614eb6565b9050919050565b7f5472616465206e6f74206c6f636b65642079657420746f207265766572740000600082015250565b6000614f2f601e83614a1f565b9150614f3a82614ef9565b602082019050919050565b60006020820190508181036000830152614f5e81614f22565b9050919050565b7f4e487b7100000000000000000000000000000000000000000000000000000000600052601160045260246000fd5b6000614f9f82613f98565b9150614faa83613f98565b9250828203905081811115614fc257614fc1614f65565b5b92915050565b7f4c6973747261636b207472616e73616374696f6e206e6f74206578706972656460008201527f2079657400000000000000000000000000000000000000000000000000000000602082015250565b6000615024602483614a1f565b915061502f82614fc8565b604082019050919050565b6000602082019050818103600083015261505381615017565b9050919050565b7f4e487b7100000000000000000000000000000000000000000000000000000000600052603260045260246000fd5b7f496e76616c6964204472657820616d6f756e7400000000000000000000000000600082015250565b60006150bf601383614a1f565b91506150ca82615089565b602082019050919050565b600060208201905081810360008301526150ee816150b2565b9050919050565b7f496e76616c696420416c69656e20616d6f756e74000000000000000000000000600082015250565b600061512b601483614a1f565b9150615136826150f5565b602082019050919050565b6000602082019050818103600083015261515a8161511e565b9050919050565b7f4174206c65617374204f6e65204d6173746572204d65726b6c6520436f6e747260008201527f6163742069732072657175697265640000000000000000000000000000000000602082015250565b60006151bd602f83614a1f565b91506151c882615161565b604082019050919050565b600060208201905081810360008301526151ec816151b0565b9050919050565b60008160601b9050919050565b600061520b826151f3565b9050919050565b600061521d82615200565b9050919050565b61523561523082613f68565b615212565b82525050565b60006152478285614c10565b6020820191506152578284615224565b6014820191508190509392505050565b6000819050919050565b61528261527d82613f98565b615267565b82525050565b60006152948288615224565b6014820191506152a48287615224565b6014820191506152b48286615224565b6014820191506152c48285615271565b6020820191506152d48284614c10565b6020820191508190509695505050505050565b60006152f38288614c10565b6020820191506153038287615224565b6014820191506153138286615224565b6014820191506153238285615224565b6014820191506153338284615271565b6020820191508190509695505050505050565b60006153528286614c10565b6020820191506153628285614c10565b6020820191506153728284615271565b602082019150819050949350505050565b600061538f8285614c10565b60208201915061539f8284614c10565b6020820191508190509392505050565b7f5472616e73616374696f6e20616c7265616479206c6f636b6564000000000000600082015250565b60006153e5601a83614a1f565b91506153f0826153af565b602082019050919050565b60006020820190508181036000830152615414816153d8565b9050919050565b7f5468652073616d65207472616e73616374696f6e2063616e6e6f74206265206960008201527f6e736572746564207768696c652077616974696e6720666f72206c6f636b0000602082015250565b6000615477603e83614a1f565b91506154828261541b565b604082019050919050565b600060208201905081810360008301526154a68161546a565b9050919050565b7f4e487b7100000000000000000000000000000000000000000000000000000000600052601260045260246000fd5b60006154e782613f98565b91506154f283613f98565b925082615502576155016154ad565b5b828206905092915050565b600061551882613f98565b915061552383613f98565b925082615533576155326154ad565b5b828204905092915050565b60007fffffffff0000000000000000000000000000000000000000000000000000000082169050919050565b6155738161553e565b811461557e57600080fd5b50565b6000815190506155908161556a565b92915050565b6000815190506155a581613eef565b92915050565b600080604083850312156155c2576155c1613edb565b5b60006155d085828601615581565b92505060206155e185828601615596565b9150509250929050565b60006155f682613f98565b91507fffffffffffffffffffffffffffffffffffffffffffffffffffffffffffffffff820361562857615627614f65565b5b600182019050919050565b600061563e82613f98565b915061564983613f98565b925082820190508082111561566157615660614f65565b5b92915050565b7f556e617574686f72697a656420746f206c6f636b2066756e6473000000000000600082015250565b600061569d601a83614a1f565b91506156a882615667565b602082019050919050565b600060208201905081810360008301526156cc81615690565b9050919050565b7f547261646520697320616c7265616479206c6f636b6564000000000000000000600082015250565b6000615709601783614a1f565b9150615714826156d3565b602082019050919050565b60006020820190508181036000830152615738816156fc565b9050919050565b7f44726578206c656720616c726561647920657870697265640000000000000000600082015250565b6000615775601883614a1f565b91506157808261573f565b602082019050919050565b600060208201905081810360008301526157a481615768565b9050919050565b7f496e636f7272656374204452455820616d6f756e742073656e74000000000000600082015250565b60006157e1601a83614a1f565b91506157ec826157ab565b602082019050919050565b60006020820190508181036000830152615810816157d4565b9050919050565b600060408201905061582c6000830185613f7a565b6158396020830184613f7a565b9392505050565b60008151905061584f816140fd565b92915050565b60006020828403121561586b5761586a613edb565b5b600061587984828501615840565b91505092915050565b7f44726578204c6973747261636b20776173206e6f742070726576696f75736c7960008201527f20616c6c6f77656420746f207472616e7366657220746f6b656e730000000000602082015250565b60006158de603b83614a1f565b91506158e982615882565b604082019050919050565b6000602082019050818103600083015261590d816158d1565b9050919050565b60006060820190506159296000830186613f7a565b6159366020830185614d6a565b6159436040830184613fa2565b949350505050565b600081519050919050565b60005b83811015615974578082015181840152602081019050615959565b60008484015250505050565b600061598b8261594b565b6159958185614a1f565b93506159a5818560208601615956565b6159ae8161412e565b840191505092915050565b600060208201905081810360008301526159d38184615980565b905092915050565b60006159e682613f98565b91506159f183613f98565b92508282026159ff81613f98565b91508282048414831517615a1657615a15614f65565b5b5092915050565b6000615a2882613f98565b915060008203615a3b57615a3a614f65565b5b600182039050919050565b60006040820190508181036000830152615a608185615980565b9050615a6f6020830184613fa2565b9392505050565b7f4e487b7100000000000000000000000000000000000000000000000000000000600052605160045260246000fdfe3e3e3e204e657720536c6f7420616674657220456c6c61707365642054696d65205570646174653a20a26469706673582212205246d4ccac039219df9215607aeb3fcd1e0a61c6d81ecb318a45c53b075655aa64736f6c634300081800334040402044726578204c6973747261636b206465706c6f79656420617420536c6f74203a20",
  "linkReferences": {},
  "deployedLinkReferences": {}
}