{
  "_format": "hh-sol-artifact-1",
  "contractName": "DrexListrack",
  "sourceName": "contracts/DrexListrack.sol",
  "abi": [
    {
      "inputs": [
        {
          "internalType": "uint256",
          "name": "_timeSlot",
          "type": "uint256"
        },
        {
          "internalType": "uint256",
          "name": "_drexLegExpiration",
          "type": "uint256"
        },
        {
          "internalType": "uint256",
          "name": "_alienConfirmation",
          "type": "uint256"
        },
        {
          "internalType": "uint256",
          "name": "_listrackExpiration",
          "type": "uint256"
        }
      ],
      "stateMutability": "payable",
      "type": "constructor"
    },
    {
      "inputs": [],
      "name": "ReentrancyGuardReentrantCall",
      "type": "error"
    },
    {
      "anonymous": false,
      "inputs": [
        {
          "indexed": true,
          "internalType": "bytes32",
          "name": "TxId",
          "type": "bytes32"
        }
      ],
      "name": "automaticTradeSettled",
      "type": "event"
    },
    {
      "anonymous": false,
      "inputs": [
        {
          "indexed": true,
          "internalType": "uint256",
          "name": "drexAlienIndexConfirmation",
          "type": "uint256"
        }
      ],
      "name": "drexIndexAlienConfirmation",
      "type": "event"
    },
    {
      "anonymous": false,
      "inputs": [
        {
          "indexed": true,
          "internalType": "bytes32",
          "name": "TxId",
          "type": "bytes32"
        }
      ],
      "name": "lockedTxId",
      "type": "event"
    },
    {
      "anonymous": false,
      "inputs": [
        {
          "indexed": true,
          "internalType": "bytes32",
          "name": "TxId",
          "type": "bytes32"
        },
        {
          "indexed": true,
          "internalType": "bytes32",
          "name": "SecretRevealed",
          "type": "bytes32"
        }
      ],
      "name": "manualSecretTradeSettled",
      "type": "event"
    },
    {
      "anonymous": false,
      "inputs": [
        {
          "indexed": true,
          "internalType": "bytes32",
          "name": "TxId",
          "type": "bytes32"
        }
      ],
      "name": "manualTradeSettled",
      "type": "event"
    },
    {
      "anonymous": false,
      "inputs": [
        {
          "indexed": true,
          "internalType": "bytes32",
          "name": "previousTxId",
          "type": "bytes32"
        },
        {
          "indexed": true,
          "internalType": "uint256",
          "name": "txIndexDrex",
          "type": "uint256"
        },
        {
          "indexed": true,
          "internalType": "bytes32",
          "name": "TxId",
          "type": "bytes32"
        }
      ],
      "name": "tradeInsertedTxId",
      "type": "event"
    },
    {
      "anonymous": false,
      "inputs": [
        {
          "indexed": true,
          "internalType": "address",
          "name": "aliceDrexAddress",
          "type": "address"
        },
        {
          "indexed": true,
          "internalType": "address",
          "name": "mikeDrexAddress",
          "type": "address"
        },
        {
          "indexed": true,
          "internalType": "bytes32",
          "name": "TxId",
          "type": "bytes32"
        }
      ],
      "name": "tradeInsertedUsersTxId",
      "type": "event"
    },
    {
      "anonymous": false,
      "inputs": [
        {
          "indexed": true,
          "internalType": "bytes32",
          "name": "TxId",
          "type": "bytes32"
        }
      ],
      "name": "tradeReverted",
      "type": "event"
    },
    {
      "inputs": [
        {
          "internalType": "bytes32",
          "name": "_txId",
          "type": "bytes32"
        },
        {
          "internalType": "uint256",
          "name": "_txIndex",
          "type": "uint256"
        },
        {
          "internalType": "bytes32[]",
          "name": "_merkleProof",
          "type": "bytes32[]"
        },
        {
          "internalType": "uint256",
          "name": "_blockNumber",
          "type": "uint256"
        },
        {
          "internalType": "bytes32",
          "name": "_secretRevealed",
          "type": "bytes32"
        }
      ],
      "name": "aliceSettleTrade",
      "outputs": [],
      "stateMutability": "payable",
      "type": "function"
    },
    {
      "inputs": [
        {
          "internalType": "uint256",
          "name": "",
          "type": "uint256"
        }
      ],
      "name": "chainDrexTx",
      "outputs": [
        {
          "internalType": "bytes32",
          "name": "",
          "type": "bytes32"
        }
      ],
      "stateMutability": "view",
      "type": "function"
    },
    {
      "inputs": [],
      "name": "drexLegExpiration",
      "outputs": [
        {
          "internalType": "uint256",
          "name": "",
          "type": "uint256"
        }
      ],
      "stateMutability": "view",
      "type": "function"
    },
    {
      "inputs": [
        {
          "internalType": "bytes32",
          "name": "_txId",
          "type": "bytes32"
        }
      ],
      "name": "getDrexAlienInputsbyId",
      "outputs": [
        {
          "components": [
            {
              "internalType": "address",
              "name": "aliceDrexAddress",
              "type": "address"
            },
            {
              "internalType": "address",
              "name": "mikeDrexAddress",
              "type": "address"
            },
            {
              "internalType": "address",
              "name": "drexTokenAddress",
              "type": "address"
            },
            {
              "internalType": "bytes32",
              "name": "drexHashFields",
              "type": "bytes32"
            },
            {
              "internalType": "address",
              "name": "aliceAlienAddress",
              "type": "address"
            },
            {
              "internalType": "address",
              "name": "mikeAlienAddress",
              "type": "address"
            },
            {
              "internalType": "address",
              "name": "alientokencontract",
              "type": "address"
            },
            {
              "internalType": "uint256",
              "name": "drexAmount",
              "type": "uint256"
            },
            {
              "internalType": "uint256",
              "name": "alienAmount",
              "type": "uint256"
            },
            {
              "internalType": "bytes32",
              "name": "hashedSecret",
              "type": "bytes32"
            },
            {
              "internalType": "address[]",
              "name": "drexMerkleContract",
              "type": "address[]"
            },
            {
              "components": [
                {
                  "internalType": "bool",
                  "name": "locked",
                  "type": "bool"
                },
                {
                  "internalType": "bool",
                  "name": "settled",
                  "type": "bool"
                },
                {
                  "internalType": "uint256",
                  "name": "slotNumber",
                  "type": "uint256"
                },
                {
                  "internalType": "uint256",
                  "name": "chainPosition",
                  "type": "uint256"
                },
                {
                  "internalType": "bytes32",
                  "name": "previousChainTxId",
                  "type": "bytes32"
                }
              ],
              "internalType": "struct DrexListrack.StatusChain",
              "name": "statusChain",
              "type": "tuple"
            }
          ],
          "internalType": "struct DrexListrack.Trade",
          "name": "",
          "type": "tuple"
        },
        {
          "internalType": "uint256",
          "name": "",
          "type": "uint256"
        }
      ],
      "stateMutability": "view",
      "type": "function"
    },
    {
      "inputs": [
        {
          "internalType": "address",
          "name": "_user",
          "type": "address"
        }
      ],
      "name": "getTxIdbyUser",
      "outputs": [
        {
          "internalType": "bytes32[]",
          "name": "",
          "type": "bytes32[]"
        }
      ],
      "stateMutability": "view",
      "type": "function"
    },
    {
      "inputs": [
        {
          "internalType": "bytes32",
          "name": "_txId",
          "type": "bytes32"
        }
      ],
      "name": "mikeAgreeTrade",
      "outputs": [],
      "stateMutability": "payable",
      "type": "function"
    },
    {
      "inputs": [
        {
          "internalType": "bytes32",
          "name": "_txId",
          "type": "bytes32"
        }
      ],
      "name": "mikeManualRevert",
      "outputs": [],
      "stateMutability": "payable",
      "type": "function"
    },
    {
      "inputs": [
        {
          "internalType": "bytes32",
          "name": "",
          "type": "bytes32"
        }
      ],
      "name": "pendingTransactions",
      "outputs": [
        {
          "internalType": "bytes32",
          "name": "",
          "type": "bytes32"
        }
      ],
      "stateMutability": "view",
      "type": "function"
    },
    {
      "inputs": [
        {
          "internalType": "address",
          "name": "_merkleContract",
          "type": "address"
        }
      ],
      "name": "revertTxsbyMerkleContract",
      "outputs": [],
      "stateMutability": "nonpayable",
      "type": "function"
    },
    {
      "inputs": [
        {
          "internalType": "bytes32[]",
          "name": "_transactions",
          "type": "bytes32[]"
        }
      ],
      "name": "sendTxForSettlement",
      "outputs": [],
      "stateMutability": "payable",
      "type": "function"
    },
    {
      "inputs": [
        {
          "internalType": "address[]",
          "name": "_drexAddresses",
          "type": "address[]"
        },
        {
          "internalType": "uint256",
          "name": "_drexAmount",
          "type": "uint256"
        },
        {
          "internalType": "address[]",
          "name": "_drexMerkleContract",
          "type": "address[]"
        },
        {
          "internalType": "address[]",
          "name": "_alienAddresses",
          "type": "address[]"
        },
        {
          "internalType": "uint256",
          "name": "_alienAmount",
          "type": "uint256"
        },
        {
          "internalType": "bytes32",
          "name": "_hashedSecret",
          "type": "bytes32"
        }
      ],
      "name": "setTrade",
      "outputs": [],
      "stateMutability": "payable",
      "type": "function"
    },
    {
      "inputs": [],
      "name": "slotProduction",
      "outputs": [
        {
          "internalType": "uint256",
          "name": "lowerLimitDrexIndexAlienConfirmation",
          "type": "uint256"
        },
        {
          "internalType": "uint256",
          "name": "currentSlot",
          "type": "uint256"
        },
        {
          "internalType": "uint256",
          "name": "genesisSlot",
          "type": "uint256"
        },
        {
          "internalType": "uint256",
          "name": "lastTimeStamp",
          "type": "uint256"
        }
      ],
      "stateMutability": "view",
      "type": "function"
    },
    {
      "inputs": [
        {
          "internalType": "bytes32",
          "name": "",
          "type": "bytes32"
        }
      ],
      "name": "trades",
      "outputs": [
        {
          "internalType": "address",
          "name": "aliceDrexAddress",
          "type": "address"
        },
        {
          "internalType": "address",
          "name": "mikeDrexAddress",
          "type": "address"
        },
        {
          "internalType": "address",
          "name": "drexTokenAddress",
          "type": "address"
        },
        {
          "internalType": "bytes32",
          "name": "drexHashFields",
          "type": "bytes32"
        },
        {
          "internalType": "address",
          "name": "aliceAlienAddress",
          "type": "address"
        },
        {
          "internalType": "address",
          "name": "mikeAlienAddress",
          "type": "address"
        },
        {
          "internalType": "address",
          "name": "alientokencontract",
          "type": "address"
        },
        {
          "internalType": "uint256",
          "name": "drexAmount",
          "type": "uint256"
        },
        {
          "internalType": "uint256",
          "name": "alienAmount",
          "type": "uint256"
        },
        {
          "internalType": "bytes32",
          "name": "hashedSecret",
          "type": "bytes32"
        },
        {
          "components": [
            {
              "internalType": "bool",
              "name": "locked",
              "type": "bool"
            },
            {
              "internalType": "bool",
              "name": "settled",
              "type": "bool"
            },
            {
              "internalType": "uint256",
              "name": "slotNumber",
              "type": "uint256"
            },
            {
              "internalType": "uint256",
              "name": "chainPosition",
              "type": "uint256"
            },
            {
              "internalType": "bytes32",
              "name": "previousChainTxId",
              "type": "bytes32"
            }
          ],
          "internalType": "struct DrexListrack.StatusChain",
          "name": "statusChain",
          "type": "tuple"
        }
      ],
      "stateMutability": "view",
      "type": "function"
    },
    {
      "inputs": [
        {
          "internalType": "address",
          "name": "",
          "type": "address"
        },
        {
          "internalType": "uint256",
          "name": "",
          "type": "uint256"
        }
      ],
      "name": "transactionsbyUser",
      "outputs": [
        {
          "internalType": "bytes32",
          "name": "",
          "type": "bytes32"
        }
      ],
      "stateMutability": "view",
      "type": "function"
    },
    {
      "inputs": [
        {
          "internalType": "bytes32",
          "name": "_txId",
          "type": "bytes32"
        },
        {
          "internalType": "uint256",
          "name": "_txIndex",
          "type": "uint256"
        },
        {
          "internalType": "bytes32[]",
          "name": "_merkleProof",
          "type": "bytes32[]"
        },
        {
          "internalType": "uint256",
          "name": "_blockNumber",
          "type": "uint256"
        }
      ],
      "name": "validateMerkleProof",
      "outputs": [
        {
          "internalType": "bool",
          "name": "",
          "type": "bool"
        }
      ],
      "stateMutability": "view",
      "type": "function"
    }
  ],
  "bytecode": "0x608060405260405162006142380380620061428339818101604052810190620000299190620002da565b60016000819055508260036200004091906200037b565b82101562000085576040517f08c379a00000000000000000000000000000000000000000000000000000000081526004016200007c906200044d565b60405180910390fd5b8160026200009491906200037b565b811015620000d9576040517f08c379a0000000000000000000000000000000000000000000000000000000008152600401620000d090620004e5565b60405180910390fd5b83600181905550826006819055508160078190555080600881905550600160085462000106919062000507565b60026001018190555060026001015460028001819055506000600260000181905550426002600301819055506000600d6000600260010154815260200190815260200160002081905550620001806040518060600160405280602581526020016200611d602591396002600101546200018a60201b60201c565b505050506200063f565b6200022c8282604051602401620001a3929190620005dc565b6040516020818303038152906040527fb60e72cc000000000000000000000000000000000000000000000000000000007bffffffffffffffffffffffffffffffffffffffffffffffffffffffff19166020820180517bffffffffffffffffffffffffffffffffffffffffffffffffffffffff83818316178352505050506200023060201b60201c565b5050565b6200025681620002516200025960201b62003363176200027a60201b60201c565b60201c565b50565b60006a636f6e736f6c652e6c6f679050600080835160208501845afa505050565b6200028e60201b62003cc317819050919050565b6200029862000610565b565b600080fd5b6000819050919050565b620002b4816200029f565b8114620002c057600080fd5b50565b600081519050620002d481620002a9565b92915050565b60008060008060808587031215620002f757620002f66200029a565b5b60006200030787828801620002c3565b94505060206200031a87828801620002c3565b93505060406200032d87828801620002c3565b92505060606200034087828801620002c3565b91505092959194509250565b7f4e487b7100000000000000000000000000000000000000000000000000000000600052601160045260246000fd5b600062000388826200029f565b915062000395836200029f565b9250828202620003a5816200029f565b91508282048414831517620003bf57620003be6200034c565b5b5092915050565b600082825260208201905092915050565b7f416c69656e20436f6e6669726d6174696f6e206d757374206265206174206c6560008201527f61737420332074696d65732044726578204c6567000000000000000000000000602082015250565b600062000435603483620003c6565b91506200044282620003d7565b604082019050919050565b60006020820190508181036000830152620004688162000426565b9050919050565b7f416c69656e2045787069726174696f6e206d757374206265206174206c65617360008201527f7420362074696d65732044726578204c65670000000000000000000000000000602082015250565b6000620004cd603283620003c6565b9150620004da826200046f565b604082019050919050565b600060208201905081810360008301526200050081620004be565b9050919050565b600062000514826200029f565b915062000521836200029f565b92508282019050808211156200053c576200053b6200034c565b5b92915050565b600081519050919050565b60005b838110156200056d57808201518184015260208101905062000550565b60008484015250505050565b6000601f19601f8301169050919050565b6000620005978262000542565b620005a38185620003c6565b9350620005b58185602086016200054d565b620005c08162000579565b840191505092915050565b620005d6816200029f565b82525050565b60006040820190508181036000830152620005f881856200058a565b9050620006096020830184620005cb565b9392505050565b7f4e487b7100000000000000000000000000000000000000000000000000000000600052605160045260246000fd5b615ace806200064f6000396000f3fe6080604052600436106100e75760003560e01c8063792619901161008a578063c5bbe52d11610059578063c5bbe52d14610300578063cafe16a614610329578063f4fd8b1f14610366578063fb8db4b414610382576100e7565b8063792619901461022c5780637dca77a1146102485780638c12e70414610285578063982a0dc8146102c2576100e7565b806352a01324116100c657806352a013241461018c57806353032b51146101a857806354e60843146101e55780636d8e9f7a14610210576100e7565b8062162420146100ec57806326af1f441461013357806339e445f01461014f575b600080fd5b3480156100f857600080fd5b50610113600480360381019061010e9190613ee5565b6103b0565b60405161012a9b9a9998979695949392919061401c565b60405180910390f35b61014d6004803603810190610148919061424c565b610528565b005b34801561015b57600080fd5b506101766004803603810190610171919061430f565b610ce4565b604051610183919061434f565b60405180910390f35b6101a660048036038101906101a19190613ee5565b610d15565b005b3480156101b457600080fd5b506101cf60048036038101906101ca919061436a565b6111cc565b6040516101dc9190614446565b60405180910390f35b3480156101f157600080fd5b506101fa611263565b6040516102079190614468565b60405180910390f35b61022a60048036038101906102259190614483565b611269565b005b6102466004803603810190610241919061458f565b6118e4565b005b34801561025457600080fd5b5061026f600480360381019061026a9190613ee5565b61247d565b60405161027c919061434f565b60405180910390f35b34801561029157600080fd5b506102ac60048036038101906102a79190614670565b612495565b6040516102b99190614702565b60405180910390f35b3480156102ce57600080fd5b506102e960048036038101906102e49190613ee5565b612786565b6040516102f7929190614947565b60405180910390f35b34801561030c57600080fd5b506103276004803603810190610322919061436a565b612ae3565b005b34801561033557600080fd5b50610350600480360381019061034b9190614977565b612d39565b60405161035d919061434f565b60405180910390f35b610380600480360381019061037b9190613ee5565b612d5d565b005b34801561038e57600080fd5b50610397613345565b6040516103a794939291906149a4565b60405180910390f35b600a6020528060005260406000206000915090508060000160009054906101000a900473ffffffffffffffffffffffffffffffffffffffff16908060010160009054906101000a900473ffffffffffffffffffffffffffffffffffffffff16908060020160009054906101000a900473ffffffffffffffffffffffffffffffffffffffff16908060030154908060040160009054906101000a900473ffffffffffffffffffffffffffffffffffffffff16908060050160009054906101000a900473ffffffffffffffffffffffffffffffffffffffff16908060060160009054906101000a900473ffffffffffffffffffffffffffffffffffffffff169080600701549080600801549080600901549080600b016040518060a00160405290816000820160009054906101000a900460ff161515151581526020016000820160019054906101000a900460ff16151515158152602001600182015481526020016002820154815260200160038201548152505090508b565b610530613384565b600080600a6000888152602001908152602001600020604051806101800160405290816000820160009054906101000a900473ffffffffffffffffffffffffffffffffffffffff1673ffffffffffffffffffffffffffffffffffffffff1673ffffffffffffffffffffffffffffffffffffffff1681526020016001820160009054906101000a900473ffffffffffffffffffffffffffffffffffffffff1673ffffffffffffffffffffffffffffffffffffffff1673ffffffffffffffffffffffffffffffffffffffff1681526020016002820160009054906101000a900473ffffffffffffffffffffffffffffffffffffffff1673ffffffffffffffffffffffffffffffffffffffff1673ffffffffffffffffffffffffffffffffffffffff168152602001600382015481526020016004820160009054906101000a900473ffffffffffffffffffffffffffffffffffffffff1673ffffffffffffffffffffffffffffffffffffffff1673ffffffffffffffffffffffffffffffffffffffff1681526020016005820160009054906101000a900473ffffffffffffffffffffffffffffffffffffffff1673ffffffffffffffffffffffffffffffffffffffff1673ffffffffffffffffffffffffffffffffffffffff1681526020016006820160009054906101000a900473ffffffffffffffffffffffffffffffffffffffff1673ffffffffffffffffffffffffffffffffffffffff1673ffffffffffffffffffffffffffffffffffffffff168152602001600782015481526020016008820154815260200160098201548152602001600a820180548060200260200160405190810160405280929190818152602001828054801561080357602002820191906000526020600020905b8160009054906101000a900473ffffffffffffffffffffffffffffffffffffffff1673ffffffffffffffffffffffffffffffffffffffff16815260200190600101908083116107b9575b50505050508152602001600b82016040518060a00160405290816000820160009054906101000a900460ff161515151581526020016000820160019054906101000a900460ff161515151581526020016001820154815260200160028201548152602001600382015481525050815250509050600073ffffffffffffffffffffffffffffffffffffffff16816000015173ffffffffffffffffffffffffffffffffffffffff16036108e9576040517f08c379a00000000000000000000000000000000000000000000000000000000081526004016108e090614a46565b60405180910390fd5b80610160015160000151610932576040517f08c379a000000000000000000000000000000000000000000000000000000000815260040161092990614ab2565b60405180910390fd5b806101600151602001511561097c576040517f08c379a000000000000000000000000000000000000000000000000000000000815260040161097390614b1e565b60405180910390fd5b61098887878787612495565b6109c7576040517f08c379a00000000000000000000000000000000000000000000000000000000081526004016109be90614bb0565b60405180910390fd5b6000801b81610120015114610a4457806101200151836040516020016109ed9190614bf1565b6040516020818303038152906040528051906020012014610a43576040517f08c379a0000000000000000000000000000000000000000000000000000000008152600401610a3a90614c7e565b60405180910390fd5b5b600073ffffffffffffffffffffffffffffffffffffffff16816040015173ffffffffffffffffffffffffffffffffffffffff1603610af557806000015173ffffffffffffffffffffffffffffffffffffffff168160e00151604051610aa890614ccf565b60006040518083038185875af1925050503d8060008114610ae5576040519150601f19603f3d011682016040523d82523d6000602084013e610aea565b606091505b505080925050610b82565b806040015173ffffffffffffffffffffffffffffffffffffffff1663a9059cbb82600001518360e001516040518363ffffffff1660e01b8152600401610b3c929190614d43565b6020604051808303816000875af1158015610b5b573d6000803e3d6000fd5b505050506040513d601f19601f82011682018060405250810190610b7f9190614d98565b91505b8115610c5157600181610160015160200190151590811515815250506000801b81610120015114610be05782877f70a17320c56db2256f621dc02f589640a26d4b70f17e1569e33878738a1afe1360405160405180910390a3610c0e565b867f9c8b24255e064f022be47a9dd0dbb227b8e04edcdc0d76edd56d2e330fa12ab560405160405180910390a25b610c4c6040518060400160405280601681526020017f5472616e73616374696f6e205375636365737366756c000000000000000000008152506133ca565b610cd3565b610c8f6040518060400160405280601d81526020017f5472616e73616374696f6e204661696c6564207c2049642062656c6f770000008152506133ca565b610c9887613463565b6040517f08c379a0000000000000000000000000000000000000000000000000000000008152600401610cca90614e11565b60405180910390fd5b5050610cdd6134fc565b5050505050565b600e6020528160005260406000208181548110610d0057600080fd5b90600052602060002001600091509150505481565b610d1d613384565b60003373ffffffffffffffffffffffffffffffffffffffff16600a600084815260200190815260200160002060010160009054906101000a900473ffffffffffffffffffffffffffffffffffffffff1673ffffffffffffffffffffffffffffffffffffffff1614610dc3576040517f08c379a0000000000000000000000000000000000000000000000000000000008152600401610dba90614ea3565b60405180910390fd5b600a6000838152602001908152602001600020600b0160000160019054906101000a900460ff1615610e2a576040517f08c379a0000000000000000000000000000000000000000000000000000000008152600401610e2190614b1e565b60405180910390fd5b600a6000838152602001908152602001600020600b0160000160009054906101000a900460ff16610e90576040517f08c379a0000000000000000000000000000000000000000000000000000000008152600401610e8790614f0f565b60405180910390fd5b600854600a6000848152602001908152602001600020600b0160010154600260010154610ebd9190614f5e565b1015610efe576040517f08c379a0000000000000000000000000000000000000000000000000000000008152600401610ef590615004565b60405180910390fd5b600073ffffffffffffffffffffffffffffffffffffffff16600a600084815260200190815260200160002060020160009054906101000a900473ffffffffffffffffffffffffffffffffffffffff1673ffffffffffffffffffffffffffffffffffffffff160361102557600a600083815260200190815260200160002060010160009054906101000a900473ffffffffffffffffffffffffffffffffffffffff1673ffffffffffffffffffffffffffffffffffffffff16600a600084815260200190815260200160002060070154604051610fd890614ccf565b60006040518083038185875af1925050503d8060008114611015576040519150601f19603f3d011682016040523d82523d6000602084013e61101a565b606091505b505080915050611128565b600a600083815260200190815260200160002060020160009054906101000a900473ffffffffffffffffffffffffffffffffffffffff1673ffffffffffffffffffffffffffffffffffffffff1663a9059cbb600a600085815260200190815260200160002060010160009054906101000a900473ffffffffffffffffffffffffffffffffffffffff16600a6000868152602001908152602001600020600701546040518363ffffffff1660e01b81526004016110e2929190614d43565b6020604051808303816000875af1158015611101573d6000803e3d6000fd5b505050506040513d601f19601f820116820180604052508101906111259190614d98565b90505b80156111c0576000600a6000848152602001908152602001600020600b0160000160006101000a81548160ff0219169083151502179055506000600a6000848152602001908152602001600020600b0160000160016101000a81548160ff021916908315150217905550817f0f4e777b943fdeab202abaf16024cec844fca12494c9f4246a4da7cb302403d860405160405180910390a25b506111c96134fc565b50565b6060600e60008373ffffffffffffffffffffffffffffffffffffffff1673ffffffffffffffffffffffffffffffffffffffff16815260200190815260200160002080548060200260200160405190810160405280929190818152602001828054801561125757602002820191906000526020600020905b815481526020019060010190808311611243575b50505050509050919050565b60065481565b611271613384565b60005b81518110156118d85760006112a383838151811061129557611294615024565b5b602002602001015133613506565b156118c9576000600a60008585815181106112c1576112c0615024565b5b60200260200101518152602001908152602001600020604051806101800160405290816000820160009054906101000a900473ffffffffffffffffffffffffffffffffffffffff1673ffffffffffffffffffffffffffffffffffffffff1673ffffffffffffffffffffffffffffffffffffffff1681526020016001820160009054906101000a900473ffffffffffffffffffffffffffffffffffffffff1673ffffffffffffffffffffffffffffffffffffffff1673ffffffffffffffffffffffffffffffffffffffff1681526020016002820160009054906101000a900473ffffffffffffffffffffffffffffffffffffffff1673ffffffffffffffffffffffffffffffffffffffff1673ffffffffffffffffffffffffffffffffffffffff168152602001600382015481526020016004820160009054906101000a900473ffffffffffffffffffffffffffffffffffffffff1673ffffffffffffffffffffffffffffffffffffffff1673ffffffffffffffffffffffffffffffffffffffff1681526020016005820160009054906101000a900473ffffffffffffffffffffffffffffffffffffffff1673ffffffffffffffffffffffffffffffffffffffff1673ffffffffffffffffffffffffffffffffffffffff1681526020016006820160009054906101000a900473ffffffffffffffffffffffffffffffffffffffff1673ffffffffffffffffffffffffffffffffffffffff1673ffffffffffffffffffffffffffffffffffffffff168152602001600782015481526020016008820154815260200160098201548152602001600a820180548060200260200160405190810160405280929190818152602001828054801561159457602002820191906000526020600020905b8160009054906101000a900473ffffffffffffffffffffffffffffffffffffffff1673ffffffffffffffffffffffffffffffffffffffff168152602001906001019080831161154a575b50505050508152602001600b82016040518060a00160405290816000820160009054906101000a900460ff161515151581526020016000820160019054906101000a900460ff1615151515815260200160018201548152602001600282015481526020016003820154815250508152505090506000801b8161012001511461161d5750506118cb565b600073ffffffffffffffffffffffffffffffffffffffff16816000015173ffffffffffffffffffffffffffffffffffffffff160361165c5750506118cb565b806101600151600001516116715750506118cb565b80610160015160200151156116875750506118cb565b600073ffffffffffffffffffffffffffffffffffffffff16816040015173ffffffffffffffffffffffffffffffffffffffff160361173857806000015173ffffffffffffffffffffffffffffffffffffffff168160e001516040516116eb90614ccf565b60006040518083038185875af1925050503d8060008114611728576040519150601f19603f3d011682016040523d82523d6000602084013e61172d565b606091505b5050809250506117c5565b806040015173ffffffffffffffffffffffffffffffffffffffff1663a9059cbb82600001518360e001516040518363ffffffff1660e01b815260040161177f929190614d43565b6020604051808303816000875af115801561179e573d6000803e3d6000fd5b505050506040513d601f19601f820116820180604052508101906117c29190614d98565b91505b81156118c757600181610160015160200190151590811515815250508383815181106117f4576117f3615024565b5b60200260200101517fa87c61423ae3687e4624213311fed770c28826ee599ac8b9bc377756f3faae3660405160405180910390a2601060003373ffffffffffffffffffffffffffffffffffffffff1673ffffffffffffffffffffffffffffffffffffffff168152602001908152602001600020548161016001516040015111156118c65780610160015160400151601060003373ffffffffffffffffffffffffffffffffffffffff1673ffffffffffffffffffffffffffffffffffffffff168152602001908152602001600020819055505b5b505b505b8080600101915050611274565b506118e16134fc565b50565b60008511611927576040517f08c379a000000000000000000000000000000000000000000000000000000000815260040161191e9061509f565b60405180910390fd5b6000821161196a576040517f08c379a00000000000000000000000000000000000000000000000000000000081526004016119619061510b565b60405180910390fd5b60008060001b905060008551036119b6576040517f08c379a00000000000000000000000000000000000000000000000000000000081526004016119ad9061519d565b60405180910390fd5b60005b8551811015611a1457818682815181106119d6576119d5615024565b5b60200260200101516040516020016119ef929190615205565b60405160208183030381529060405280519060200120915080806001019150506119b9565b5086600081518110611a2957611a28615024565b5b602002602001015187600181518110611a4557611a44615024565b5b602002602001015188600281518110611a6157611a60615024565b5b60200260200101518884604051602001611a7f959493929190615252565b60405160208183030381529060405280519060200120905060008185600081518110611aae57611aad615024565b5b602002602001015186600181518110611aca57611ac9615024565b5b602002602001015187600281518110611ae657611ae5615024565b5b602002602001015187604051602001611b039594939291906152b1565b60405160208183030381529060405280519060200120905060008184600b80549050604051602001611b3793929190615310565b6040516020818303038152906040528051906020012090506000600b8054905003611b685780600c81905550611b9f565b600b6001600b80549050611b7c9190614f5e565b81548110611b8d57611b8c615024565b5b9060005260206000200154600c819055505b6000600c5482604051602001611bb692919061534d565b6040516020818303038152906040528051906020012090506000801b600960008581526020019081526020016000205403611c3157806009600085815260200190815260200160002081905550600b819080600181540180825580915050600190039060005260206000200160009091909190915055611d6d565b600a600060096000868152602001908152602001600020548152602001908152602001600020600b0160000160009054906101000a900460ff1615611cab576040517f08c379a0000000000000000000000000000000000000000000000000000000008152600401611ca2906153c5565b60405180910390fd5b600654600a600060096000878152602001908152602001600020548152602001908152602001600020600b0160010154600260010154611ceb9190614f5e565b11611d2b576040517f08c379a0000000000000000000000000000000000000000000000000000000008152600401611d2290615457565b60405180910390fd5b806009600085815260200190815260200160002081905550600b8190806001815401808255809150506001900390600052602060002001600090919091909150555b600e60008b600081518110611d8557611d84615024565b5b602002602001015173ffffffffffffffffffffffffffffffffffffffff1673ffffffffffffffffffffffffffffffffffffffff168152602001908152602001600020819080600181540180825580915050600190039060005260206000200160009091909190915055600e60008b600181518110611e0657611e05615024565b5b602002602001015173ffffffffffffffffffffffffffffffffffffffff1673ffffffffffffffffffffffffffffffffffffffff1681526020019081526020016000208190806001815401808255809150506001900390600052602060002001600090919091909150556040518061018001604052808b600081518110611e8f57611e8e615024565b5b602002602001015173ffffffffffffffffffffffffffffffffffffffff1681526020018b600181518110611ec657611ec5615024565b5b602002602001015173ffffffffffffffffffffffffffffffffffffffff1681526020018b600281518110611efd57611efc615024565b5b602002602001015173ffffffffffffffffffffffffffffffffffffffff16815260200185815260200188600081518110611f3a57611f39615024565b5b602002602001015173ffffffffffffffffffffffffffffffffffffffff16815260200188600181518110611f7157611f70615024565b5b602002602001015173ffffffffffffffffffffffffffffffffffffffff16815260200188600281518110611fa857611fa7615024565b5b602002602001015173ffffffffffffffffffffffffffffffffffffffff1681526020018a81526020018781526020018681526020018981526020016040518060a0016040528060001515815260200160001515815260200160026001015481526020016001600b8054905061201d9190614f5e565b8152602001600c54815250815250600a600083815260200190815260200160002060008201518160000160006101000a81548173ffffffffffffffffffffffffffffffffffffffff021916908373ffffffffffffffffffffffffffffffffffffffff16021790555060208201518160010160006101000a81548173ffffffffffffffffffffffffffffffffffffffff021916908373ffffffffffffffffffffffffffffffffffffffff16021790555060408201518160020160006101000a81548173ffffffffffffffffffffffffffffffffffffffff021916908373ffffffffffffffffffffffffffffffffffffffff1602179055506060820151816003015560808201518160040160006101000a81548173ffffffffffffffffffffffffffffffffffffffff021916908373ffffffffffffffffffffffffffffffffffffffff16021790555060a08201518160050160006101000a81548173ffffffffffffffffffffffffffffffffffffffff021916908373ffffffffffffffffffffffffffffffffffffffff16021790555060c08201518160060160006101000a81548173ffffffffffffffffffffffffffffffffffffffff021916908373ffffffffffffffffffffffffffffffffffffffff16021790555060e082015181600701556101008201518160080155610120820151816009015561014082015181600a01908051906020019061222f929190613ccd565b5061016082015181600b0160008201518160000160006101000a81548160ff02191690831515021790555060208201518160000160016101000a81548160ff02191690831515021790555060408201518160010155606082015181600201556080820151816003015550509050506122db6040518060400160405280601481526020017f232054726164652052656769737465726564203a0000000000000000000000008152506133ca565b6122e481613463565b896001815181106122f8576122f7615024565b5b602002602001015173ffffffffffffffffffffffffffffffffffffffff163373ffffffffffffffffffffffffffffffffffffffff16036123405761233b81612d5d565b61235b565b61235a6001600b805490506123559190614f5e565b6135d7565b5b808a6001815181106123705761236f615024565b5b602002602001015173ffffffffffffffffffffffffffffffffffffffff168b6000815181106123a2576123a1615024565b5b602002602001015173ffffffffffffffffffffffffffffffffffffffff167f2757129344406c1327fc1e674d64d5c1dd9889c7b94b28bf274e9ce94312269b60405160405180910390a4806001600b805490506123ff9190614f5e565b600c547ec0cd18b7319498c1d2b4c4079d14f2ac10a573edcad339b30f6ff039c38d1160405160405180910390a46124716040518060400160405280601d81526020017f4472657820416c69656e20436f6e6669726d6174696f6e20496e6465780000008152506002600001546137f0565b50505050505050505050565b60096020528060005260406000206000915090505481565b6000808590506000808060e01b90506000631626ba7e60e01b9050600080600090505b885181101561258157600060028b6124d091906154a6565b0361251f57858982815181106124e9576124e8615024565b5b602002602001015160405160200161250292919061534d565b604051602081830303815290604052805190602001209550612565565b88818151811061253257612531615024565b5b60200260200101518660405160200161254c92919061534d565b6040516020818303038152906040528051906020012095505b60028a61257291906154d7565b995080806001019150506124b8565b5060005b600a60008c8152602001908152602001600020600a0180549050811080156125f65750827bffffffffffffffffffffffffffffffffffffffffffffffffffffffff1916847bffffffffffffffffffffffffffffffffffffffffffffffffffffffff19161480156125f457508582145b155b156126e157600a60008c8152602001908152602001600020600a01818154811061262357612622615024565b5b9060005260206000200160009054906101000a900473ffffffffffffffffffffffffffffffffffffffff1673ffffffffffffffffffffffffffffffffffffffff1663759a62d5896040518263ffffffff1660e01b81526004016126869190614468565b6040805180830381865afa1580156126a2573d6000803e3d6000fd5b505050506040513d601f19601f820116820180604052508101906126c69190615575565b809350819550505080806126d9906155b5565b915050612585565b50817bffffffffffffffffffffffffffffffffffffffffffffffffffffffff1916837bffffffffffffffffffffffffffffffffffffffffffffffffffffffff191614801561272e57508481145b1561277657600193506127756040518060400160405280601181526020017f2a2a4d65726b6c652050726f6f66204f6b0000000000000000000000000000008152506133ca565b5b8395505050505050949350505050565b61278e613d57565b6000600a600084815260200190815260200160002060026000015481604051806101800160405290816000820160009054906101000a900473ffffffffffffffffffffffffffffffffffffffff1673ffffffffffffffffffffffffffffffffffffffff1673ffffffffffffffffffffffffffffffffffffffff1681526020016001820160009054906101000a900473ffffffffffffffffffffffffffffffffffffffff1673ffffffffffffffffffffffffffffffffffffffff1673ffffffffffffffffffffffffffffffffffffffff1681526020016002820160009054906101000a900473ffffffffffffffffffffffffffffffffffffffff1673ffffffffffffffffffffffffffffffffffffffff1673ffffffffffffffffffffffffffffffffffffffff168152602001600382015481526020016004820160009054906101000a900473ffffffffffffffffffffffffffffffffffffffff1673ffffffffffffffffffffffffffffffffffffffff1673ffffffffffffffffffffffffffffffffffffffff1681526020016005820160009054906101000a900473ffffffffffffffffffffffffffffffffffffffff1673ffffffffffffffffffffffffffffffffffffffff1673ffffffffffffffffffffffffffffffffffffffff1681526020016006820160009054906101000a900473ffffffffffffffffffffffffffffffffffffffff1673ffffffffffffffffffffffffffffffffffffffff1673ffffffffffffffffffffffffffffffffffffffff168152602001600782015481526020016008820154815260200160098201548152602001600a8201805480602002602001604051908101604052809291908181526020018280548015612a6757602002820191906000526020600020905b8160009054906101000a900473ffffffffffffffffffffffffffffffffffffffff1673ffffffffffffffffffffffffffffffffffffffff1681526020019060010190808311612a1d575b50505050508152602001600b82016040518060a00160405290816000820160009054906101000a900460ff161515151581526020016000820160019054906101000a900460ff16151515158152602001600182015481526020016002820154815260200160038201548152505081525050915091509150915091565b612aeb613384565b6000601060008373ffffffffffffffffffffffffffffffffffffffff1673ffffffffffffffffffffffffffffffffffffffff168152602001908152602001600020549050600080601160008573ffffffffffffffffffffffffffffffffffffffff1673ffffffffffffffffffffffffffffffffffffffff16815260200190815260200160002054831115612d2b5760006001601160008773ffffffffffffffffffffffffffffffffffffffff1673ffffffffffffffffffffffffffffffffffffffff16815260200190815260200160002054612bc791906155fd565b90505b838111612ce55760005b600f60008773ffffffffffffffffffffffffffffffffffffffff1673ffffffffffffffffffffffffffffffffffffffff168152602001908152602001600020600083815260200190815260200160002080549050811015612cd1576000612ca6600f60008973ffffffffffffffffffffffffffffffffffffffff1673ffffffffffffffffffffffffffffffffffffffff16815260200190815260200160002060008581526020019081526020016000208381548110612c9657612c95615024565b5b906000526020600020015461388c565b8095508192505050808015612cba57508484115b15612cc3578394505b508080600101915050612bd4565b508080612cdd906155b5565b915050612bca565b5081601160008673ffffffffffffffffffffffffffffffffffffffff1673ffffffffffffffffffffffffffffffffffffffff168152602001908152602001600020819055505b505050612d366134fc565b50565b600b8181548110612d4957600080fd5b906000526020600020016000915090505481565b60008073ffffffffffffffffffffffffffffffffffffffff16600a600084815260200190815260200160002060000160009054906101000a900473ffffffffffffffffffffffffffffffffffffffff1673ffffffffffffffffffffffffffffffffffffffff1603612e03576040517f08c379a0000000000000000000000000000000000000000000000000000000008152600401612dfa90614a46565b60405180910390fd5b3373ffffffffffffffffffffffffffffffffffffffff16600a600084815260200190815260200160002060010160009054906101000a900473ffffffffffffffffffffffffffffffffffffffff1673ffffffffffffffffffffffffffffffffffffffff1614612ea7576040517f08c379a0000000000000000000000000000000000000000000000000000000008152600401612e9e9061567d565b60405180910390fd5b600a6000838152602001908152602001600020600b0160000160009054906101000a900460ff1615612f0e576040517f08c379a0000000000000000000000000000000000000000000000000000000008152600401612f05906156e9565b60405180910390fd5b600654600a6000848152602001908152602001600020600b0160010154600260010154612f3b9190614f5e565b10612f7b576040517f08c379a0000000000000000000000000000000000000000000000000000000008152600401612f7290615755565b60405180910390fd5b600073ffffffffffffffffffffffffffffffffffffffff16600a600084815260200190815260200160002060020160009054906101000a900473ffffffffffffffffffffffffffffffffffffffff1673ffffffffffffffffffffffffffffffffffffffff16036130ae57600a600083815260200190815260200160002060070154341461303d576040517f08c379a0000000000000000000000000000000000000000000000000000000008152600401613034906157c1565b60405180910390fd5b3073ffffffffffffffffffffffffffffffffffffffff163460405161306190614ccf565b60006040518083038185875af1925050503d806000811461309e576040519150601f19603f3d011682016040523d82523d6000602084013e6130a3565b606091505b50508091505061328f565b6000600a600084815260200190815260200160002060020160009054906101000a900473ffffffffffffffffffffffffffffffffffffffff1673ffffffffffffffffffffffffffffffffffffffff1663dd62ed3e33306040518363ffffffff1660e01b81526004016131219291906157e1565b6020604051808303816000875af1158015613140573d6000803e3d6000fd5b505050506040513d601f19601f82011682018060405250810190613164919061581f565b9050600a6000848152602001908152602001600020600701548110156131bf576040517f08c379a00000000000000000000000000000000000000000000000000000000081526004016131b6906158be565b60405180910390fd5b600a600084815260200190815260200160002060020160009054906101000a900473ffffffffffffffffffffffffffffffffffffffff1673ffffffffffffffffffffffffffffffffffffffff166323b872dd3330600a6000888152602001908152602001600020600701546040518463ffffffff1660e01b8152600401613248939291906158de565b6020604051808303816000875af1158015613267573d6000803e3d6000fd5b505050506040513d601f19601f8201168201806040525081019061328b9190614d98565b9150505b8015613341576001600a6000848152602001908152602001600020600b0160000160006101000a81548160ff0219169083151502179055506000801b600a600084815260200190815260200160002060090154036132f1576132f082613b7a565b5b817fb95f703ca71749c417243e8cda44f3986072280723f667e87bdca214bccf30da60405160405180910390a2613340600a6000848152602001908152602001600020600b01600201546135d7565b5b5050565b60028060000154908060010154908060020154908060030154905084565b60006a636f6e736f6c652e6c6f679050600080835160208501845afa505050565b6002600054036133c0576040517f3ee5aeb500000000000000000000000000000000000000000000000000000000815260040160405180910390fd5b6002600081905550565b613460816040516024016133de9190615983565b6040516020818303038152906040527f41304fac000000000000000000000000000000000000000000000000000000007bffffffffffffffffffffffffffffffffffffffffffffffffffffffff19166020820180517bffffffffffffffffffffffffffffffffffffffffffffffffffffffff8381831617835250505050613c9e565b50565b6134f981604051602401613477919061434f565b6040516020818303038152906040527f27b7cf85000000000000000000000000000000000000000000000000000000007bffffffffffffffffffffffffffffffffffffffffffffffffffffffff19166020820180517bffffffffffffffffffffffffffffffffffffffffffffffffffffffff8381831617835250505050613c9e565b50565b6001600081905550565b6000806000905060005b600a6000868152602001908152602001600020600a01805490508110156135cc578373ffffffffffffffffffffffffffffffffffffffff16600a6000878152602001908152602001600020600a0182815481106135705761356f615024565b5b9060005260206000200160009054906101000a900473ffffffffffffffffffffffffffffffffffffffff1673ffffffffffffffffffffffffffffffffffffffff16036135bf57600191506135cc565b8080600101915050613510565b508091505092915050565b6000600260030154426135ea9190614f5e565b905061362b6040518060400160405280601381526020017f3e3e3e20456c6c61707365642054696d653a2000000000000000000000000000815250826137f0565b60015481106137ec576136726040518060400160405280601a81526020017f3e3e3e204372656174696e67206e65772074696d6520736c6f740000000000008152506133ca565b6136b66040518060400160405280601281526020017f3e3e3e2043757272656e7420536c6f743a2000000000000000000000000000008152506002600101546137f0565b620f4240600154620f4240836136cc91906159a5565b6136d691906154d7565b6136e091906154d7565b600260010160008282546136f491906155fd565b92505081905550613722604051806060016040528060298152602001615a70602991396002600101546137f0565b60006007546002600101546137379190614f5e565b905082600d6000600260010154815260200190815260200160002081905550600280015481106137e0575b6000600d60008381526020019081526020016000205403613790578080613788906159e7565b915050613762565b600d6000828152602001908152602001600020546002600001819055506002600001547f547e0708de0fbdb00f1e7c1b77e9585e673c85882e2cb95d0ee33af088f22e7960405160405180910390a25b42600260030181905550505b5050565b6138888282604051602401613806929190615a10565b6040516020818303038152906040527fb60e72cc000000000000000000000000000000000000000000000000000000007bffffffffffffffffffffffffffffffffffffffffffffffffffffffff19166020820180517bffffffffffffffffffffffffffffffffffffffffffffffffffffffff8381831617835250505050613c9e565b5050565b600080600060011515600a6000868152602001908152602001600020600b0160000160009054906101000a900460ff16151503613b555760001515600a6000868152602001908152602001600020600b0160000160019054906101000a900460ff16151503613b5457600073ffffffffffffffffffffffffffffffffffffffff16600a600086815260200190815260200160002060020160009054906101000a900473ffffffffffffffffffffffffffffffffffffffff1673ffffffffffffffffffffffffffffffffffffffff1603613a1c57600a600085815260200190815260200160002060010160009054906101000a900473ffffffffffffffffffffffffffffffffffffffff1673ffffffffffffffffffffffffffffffffffffffff16600a6000868152602001908152602001600020600701546040516139cf90614ccf565b60006040518083038185875af1925050503d8060008114613a0c576040519150601f19603f3d011682016040523d82523d6000602084013e613a11565b606091505b505080915050613b1f565b600a600085815260200190815260200160002060020160009054906101000a900473ffffffffffffffffffffffffffffffffffffffff1673ffffffffffffffffffffffffffffffffffffffff1663a9059cbb600a600087815260200190815260200160002060010160009054906101000a900473ffffffffffffffffffffffffffffffffffffffff16600a6000888152602001908152602001600020600701546040518363ffffffff1660e01b8152600401613ad9929190614d43565b6020604051808303816000875af1158015613af8573d6000803e3d6000fd5b505050506040513d601f19601f82011682018060405250810190613b1c9190614d98565b90505b8015613b5357837f0f4e777b943fdeab202abaf16024cec844fca12494c9f4246a4da7cb302403d860405160405180910390a25b5b5b80600a6000868152602001908152602001600020600b01600101549250925050915091565b60005b600a6000838152602001908152602001600020600a0180549050811015613c9a57600f6000600a6000858152602001908152602001600020600a018381548110613bca57613bc9615024565b5b9060005260206000200160009054906101000a900473ffffffffffffffffffffffffffffffffffffffff1673ffffffffffffffffffffffffffffffffffffffff1673ffffffffffffffffffffffffffffffffffffffff1681526020019081526020016000206000600854600a6000868152602001908152602001600020600b0160010154613c5891906155fd565b81526020019081526020016000208290806001815401808255809150506001900390600052602060002001600090919091909150558080600101915050613b7d565b5050565b613cb581613cad613363613cb8565b63ffffffff16565b50565b613cc3819050919050565b613ccb615a40565b565b828054828255906000526020600020908101928215613d46579160200282015b82811115613d455782518260006101000a81548173ffffffffffffffffffffffffffffffffffffffff021916908373ffffffffffffffffffffffffffffffffffffffff16021790555091602001919060010190613ced565b5b509050613d539190613e48565b5090565b604051806101800160405280600073ffffffffffffffffffffffffffffffffffffffff168152602001600073ffffffffffffffffffffffffffffffffffffffff168152602001600073ffffffffffffffffffffffffffffffffffffffff16815260200160008019168152602001600073ffffffffffffffffffffffffffffffffffffffff168152602001600073ffffffffffffffffffffffffffffffffffffffff168152602001600073ffffffffffffffffffffffffffffffffffffffff16815260200160008152602001600081526020016000801916815260200160608152602001613e42613e65565b81525090565b5b80821115613e61576000816000905550600101613e49565b5090565b6040518060a001604052806000151581526020016000151581526020016000815260200160008152602001600080191681525090565b6000604051905090565b600080fd5b600080fd5b6000819050919050565b613ec281613eaf565b8114613ecd57600080fd5b50565b600081359050613edf81613eb9565b92915050565b600060208284031215613efb57613efa613ea5565b5b6000613f0984828501613ed0565b91505092915050565b600073ffffffffffffffffffffffffffffffffffffffff82169050919050565b6000613f3d82613f12565b9050919050565b613f4d81613f32565b82525050565b613f5c81613eaf565b82525050565b6000819050919050565b613f7581613f62565b82525050565b60008115159050919050565b613f9081613f7b565b82525050565b613f9f81613f62565b82525050565b613fae81613eaf565b82525050565b60a082016000820151613fca6000850182613f87565b506020820151613fdd6020850182613f87565b506040820151613ff06040850182613f96565b5060608201516140036060850182613f96565b5060808201516140166080850182613fa5565b50505050565b60006101e082019050614032600083018e613f44565b61403f602083018d613f44565b61404c604083018c613f44565b614059606083018b613f53565b614066608083018a613f44565b61407360a0830189613f44565b61408060c0830188613f44565b61408d60e0830187613f6c565b61409b610100830186613f6c565b6140a9610120830185613f53565b6140b7610140830184613fb4565b9c9b505050505050505050505050565b6140d081613f62565b81146140db57600080fd5b50565b6000813590506140ed816140c7565b92915050565b600080fd5b6000601f19601f8301169050919050565b7f4e487b7100000000000000000000000000000000000000000000000000000000600052604160045260246000fd5b614141826140f8565b810181811067ffffffffffffffff821117156141605761415f614109565b5b80604052505050565b6000614173613e9b565b905061417f8282614138565b919050565b600067ffffffffffffffff82111561419f5761419e614109565b5b602082029050602081019050919050565b600080fd5b60006141c86141c384614184565b614169565b905080838252602082019050602084028301858111156141eb576141ea6141b0565b5b835b8181101561421457806142008882613ed0565b8452602084019350506020810190506141ed565b5050509392505050565b600082601f830112614233576142326140f3565b5b81356142438482602086016141b5565b91505092915050565b600080600080600060a0868803121561426857614267613ea5565b5b600061427688828901613ed0565b9550506020614287888289016140de565b945050604086013567ffffffffffffffff8111156142a8576142a7613eaa565b5b6142b48882890161421e565b93505060606142c5888289016140de565b92505060806142d688828901613ed0565b9150509295509295909350565b6142ec81613f32565b81146142f757600080fd5b50565b600081359050614309816142e3565b92915050565b6000806040838503121561432657614325613ea5565b5b6000614334858286016142fa565b9250506020614345858286016140de565b9150509250929050565b60006020820190506143646000830184613f53565b92915050565b6000602082840312156143805761437f613ea5565b5b600061438e848285016142fa565b91505092915050565b600081519050919050565b600082825260208201905092915050565b6000819050602082019050919050565b60006143cf8383613fa5565b60208301905092915050565b6000602082019050919050565b60006143f382614397565b6143fd81856143a2565b9350614408836143b3565b8060005b8381101561443957815161442088826143c3565b975061442b836143db565b92505060018101905061440c565b5085935050505092915050565b6000602082019050818103600083015261446081846143e8565b905092915050565b600060208201905061447d6000830184613f6c565b92915050565b60006020828403121561449957614498613ea5565b5b600082013567ffffffffffffffff8111156144b7576144b6613eaa565b5b6144c38482850161421e565b91505092915050565b600067ffffffffffffffff8211156144e7576144e6614109565b5b602082029050602081019050919050565b600061450b614506846144cc565b614169565b9050808382526020820190506020840283018581111561452e5761452d6141b0565b5b835b81811015614557578061454388826142fa565b845260208401935050602081019050614530565b5050509392505050565b600082601f830112614576576145756140f3565b5b81356145868482602086016144f8565b91505092915050565b60008060008060008060c087890312156145ac576145ab613ea5565b5b600087013567ffffffffffffffff8111156145ca576145c9613eaa565b5b6145d689828a01614561565b96505060206145e789828a016140de565b955050604087013567ffffffffffffffff81111561460857614607613eaa565b5b61461489828a01614561565b945050606087013567ffffffffffffffff81111561463557614634613eaa565b5b61464189828a01614561565b935050608061465289828a016140de565b92505060a061466389828a01613ed0565b9150509295509295509295565b6000806000806080858703121561468a57614689613ea5565b5b600061469887828801613ed0565b94505060206146a9878288016140de565b935050604085013567ffffffffffffffff8111156146ca576146c9613eaa565b5b6146d68782880161421e565b92505060606146e7878288016140de565b91505092959194509250565b6146fc81613f7b565b82525050565b600060208201905061471760008301846146f3565b92915050565b61472681613f32565b82525050565b600081519050919050565b600082825260208201905092915050565b6000819050602082019050919050565b6000614764838361471d565b60208301905092915050565b6000602082019050919050565b60006147888261472c565b6147928185614737565b935061479d83614748565b8060005b838110156147ce5781516147b58882614758565b97506147c083614770565b9250506001810190506147a1565b5085935050505092915050565b60a0820160008201516147f16000850182613f87565b5060208201516148046020850182613f87565b5060408201516148176040850182613f96565b50606082015161482a6060850182613f96565b50608082015161483d6080850182613fa5565b50505050565b60006102008301600083015161485c600086018261471d565b50602083015161486f602086018261471d565b506040830151614882604086018261471d565b5060608301516148956060860182613fa5565b5060808301516148a8608086018261471d565b5060a08301516148bb60a086018261471d565b5060c08301516148ce60c086018261471d565b5060e08301516148e160e0860182613f96565b506101008301516148f6610100860182613f96565b5061012083015161490b610120860182613fa5565b50610140830151848203610140860152614925828261477d565b91505061016083015161493c6101608601826147db565b508091505092915050565b600060408201905081810360008301526149618185614843565b90506149706020830184613f6c565b9392505050565b60006020828403121561498d5761498c613ea5565b5b600061499b848285016140de565b91505092915050565b60006080820190506149b96000830187613f6c565b6149c66020830186613f6c565b6149d36040830185613f6c565b6149e06060830184613f6c565b95945050505050565b600082825260208201905092915050565b7f547261646520646f6573206e6f74206578697374000000000000000000000000600082015250565b6000614a306014836149e9565b9150614a3b826149fa565b602082019050919050565b60006020820190508181036000830152614a5f81614a23565b9050919050565b7f5472616465206973206e6f74206c6f636b656400000000000000000000000000600082015250565b6000614a9c6013836149e9565b9150614aa782614a66565b602082019050919050565b60006020820190508181036000830152614acb81614a8f565b9050919050565b7f547261646520616c726561647920736574746c65640000000000000000000000600082015250565b6000614b086015836149e9565b9150614b1382614ad2565b602082019050919050565b60006020820190508181036000830152614b3781614afb565b9050919050565b7f5472616e73616374696f6e206e6f7420736574746c656420696e20416c69656e60008201527f20436861696e0000000000000000000000000000000000000000000000000000602082015250565b6000614b9a6026836149e9565b9150614ba582614b3e565b604082019050919050565b60006020820190508181036000830152614bc981614b8d565b9050919050565b6000819050919050565b614beb614be682613eaf565b614bd0565b82525050565b6000614bfd8284614bda565b60208201915081905092915050565b7f53656372657420486173686564206973206e6f7420657175616c20746f20486160008201527f7368656420536563726574206f6620746865205472616e73616374696f6e0000602082015250565b6000614c68603e836149e9565b9150614c7382614c0c565b604082019050919050565b60006020820190508181036000830152614c9781614c5b565b9050919050565b600081905092915050565b50565b6000614cb9600083614c9e565b9150614cc482614ca9565b600082019050919050565b6000614cda82614cac565b9150819050919050565b6000819050919050565b6000614d09614d04614cff84613f12565b614ce4565b613f12565b9050919050565b6000614d1b82614cee565b9050919050565b6000614d2d82614d10565b9050919050565b614d3d81614d22565b82525050565b6000604082019050614d586000830185614d34565b614d656020830184613f6c565b9392505050565b614d7581613f7b565b8114614d8057600080fd5b50565b600081519050614d9281614d6c565b92915050565b600060208284031215614dae57614dad613ea5565b5b6000614dbc84828501614d83565b91505092915050565b7f5472616e73616374696f6e20736574746c656d656e74206661696c6564000000600082015250565b6000614dfb601d836149e9565b9150614e0682614dc5565b602082019050919050565b60006020820190508181036000830152614e2a81614dee565b9050919050565b7f556e617574686f72697a6564202d204f6e6c79204d696b652063616e2072657660008201527f6572740000000000000000000000000000000000000000000000000000000000602082015250565b6000614e8d6023836149e9565b9150614e9882614e31565b604082019050919050565b60006020820190508181036000830152614ebc81614e80565b9050919050565b7f5472616465206e6f74206c6f636b65642079657420746f207265766572740000600082015250565b6000614ef9601e836149e9565b9150614f0482614ec3565b602082019050919050565b60006020820190508181036000830152614f2881614eec565b9050919050565b7f4e487b7100000000000000000000000000000000000000000000000000000000600052601160045260246000fd5b6000614f6982613f62565b9150614f7483613f62565b9250828203905081811115614f8c57614f8b614f2f565b5b92915050565b7f4c6973747261636b207472616e73616374696f6e206e6f74206578706972656460008201527f2079657400000000000000000000000000000000000000000000000000000000602082015250565b6000614fee6024836149e9565b9150614ff982614f92565b604082019050919050565b6000602082019050818103600083015261501d81614fe1565b9050919050565b7f4e487b7100000000000000000000000000000000000000000000000000000000600052603260045260246000fd5b7f496e76616c6964204472657820616d6f756e7400000000000000000000000000600082015250565b60006150896013836149e9565b915061509482615053565b602082019050919050565b600060208201905081810360008301526150b88161507c565b9050919050565b7f496e76616c696420416c69656e20616d6f756e74000000000000000000000000600082015250565b60006150f56014836149e9565b9150615100826150bf565b602082019050919050565b60006020820190508181036000830152615124816150e8565b9050919050565b7f4174206c65617374204f6e65204d6173746572204d65726b6c6520436f6e747260008201527f6163742069732072657175697265640000000000000000000000000000000000602082015250565b6000615187602f836149e9565b91506151928261512b565b604082019050919050565b600060208201905081810360008301526151b68161517a565b9050919050565b60008160601b9050919050565b60006151d5826151bd565b9050919050565b60006151e7826151ca565b9050919050565b6151ff6151fa82613f32565b6151dc565b82525050565b60006152118285614bda565b60208201915061522182846151ee565b6014820191508190509392505050565b6000819050919050565b61524c61524782613f62565b615231565b82525050565b600061525e82886151ee565b60148201915061526e82876151ee565b60148201915061527e82866151ee565b60148201915061528e828561523b565b60208201915061529e8284614bda565b6020820191508190509695505050505050565b60006152bd8288614bda565b6020820191506152cd82876151ee565b6014820191506152dd82866151ee565b6014820191506152ed82856151ee565b6014820191506152fd828461523b565b6020820191508190509695505050505050565b600061531c8286614bda565b60208201915061532c8285614bda565b60208201915061533c828461523b565b602082019150819050949350505050565b60006153598285614bda565b6020820191506153698284614bda565b6020820191508190509392505050565b7f5472616e73616374696f6e20616c7265616479206c6f636b6564000000000000600082015250565b60006153af601a836149e9565b91506153ba82615379565b602082019050919050565b600060208201905081810360008301526153de816153a2565b9050919050565b7f5468652073616d65207472616e73616374696f6e2063616e6e6f74206265206960008201527f6e736572746564207768696c652077616974696e6720666f72206c6f636b0000602082015250565b6000615441603e836149e9565b915061544c826153e5565b604082019050919050565b6000602082019050818103600083015261547081615434565b9050919050565b7f4e487b7100000000000000000000000000000000000000000000000000000000600052601260045260246000fd5b60006154b182613f62565b91506154bc83613f62565b9250826154cc576154cb615477565b5b828206905092915050565b60006154e282613f62565b91506154ed83613f62565b9250826154fd576154fc615477565b5b828204905092915050565b60007fffffffff0000000000000000000000000000000000000000000000000000000082169050919050565b61553d81615508565b811461554857600080fd5b50565b60008151905061555a81615534565b92915050565b60008151905061556f81613eb9565b92915050565b6000806040838503121561558c5761558b613ea5565b5b600061559a8582860161554b565b92505060206155ab85828601615560565b9150509250929050565b60006155c082613f62565b91507fffffffffffffffffffffffffffffffffffffffffffffffffffffffffffffffff82036155f2576155f1614f2f565b5b600182019050919050565b600061560882613f62565b915061561383613f62565b925082820190508082111561562b5761562a614f2f565b5b92915050565b7f556e617574686f72697a656420746f206c6f636b2066756e6473000000000000600082015250565b6000615667601a836149e9565b915061567282615631565b602082019050919050565b600060208201905081810360008301526156968161565a565b9050919050565b7f547261646520697320616c7265616479206c6f636b6564000000000000000000600082015250565b60006156d36017836149e9565b91506156de8261569d565b602082019050919050565b60006020820190508181036000830152615702816156c6565b9050919050565b7f44726578206c656720616c726561647920657870697265640000000000000000600082015250565b600061573f6018836149e9565b915061574a82615709565b602082019050919050565b6000602082019050818103600083015261576e81615732565b9050919050565b7f496e636f7272656374204452455820616d6f756e742073656e74000000000000600082015250565b60006157ab601a836149e9565b91506157b682615775565b602082019050919050565b600060208201905081810360008301526157da8161579e565b9050919050565b60006040820190506157f66000830185613f44565b6158036020830184613f44565b9392505050565b600081519050615819816140c7565b92915050565b60006020828403121561583557615834613ea5565b5b60006158438482850161580a565b91505092915050565b7f44726578204c6973747261636b20776173206e6f742070726576696f75736c7960008201527f20616c6c6f77656420746f207472616e7366657220746f6b656e730000000000602082015250565b60006158a8603b836149e9565b91506158b38261584c565b604082019050919050565b600060208201905081810360008301526158d78161589b565b9050919050565b60006060820190506158f36000830186613f44565b6159006020830185614d34565b61590d6040830184613f6c565b949350505050565b600081519050919050565b60005b8381101561593e578082015181840152602081019050615923565b60008484015250505050565b600061595582615915565b61595f81856149e9565b935061596f818560208601615920565b615978816140f8565b840191505092915050565b6000602082019050818103600083015261599d818461594a565b905092915050565b60006159b082613f62565b91506159bb83613f62565b92508282026159c981613f62565b915082820484148315176159e0576159df614f2f565b5b5092915050565b60006159f282613f62565b915060008203615a0557615a04614f2f565b5b600182039050919050565b60006040820190508181036000830152615a2a818561594a565b9050615a396020830184613f6c565b9392505050565b7f4e487b7100000000000000000000000000000000000000000000000000000000600052605160045260246000fdfe3e3e3e204e657720536c6f7420616674657220456c6c61707365642054696d65205570646174653a20a2646970667358221220eff5573671c757e591e922b32d3323b43dcd82cb9908f6e1bbac9a25c9420f2d64736f6c634300081800334040402044726578204c6973747261636b206465706c6f79656420617420536c6f74203a20",
  "linkReferences": {},
  "deployedLinkReferences": {}
}