{
  "_format": "hh-sol-artifact-1",
  "contractName": "MerkleContract",
  "sourceName": "contracts/DrexMerkle.sol",
  "abi": [
    {
      "inputs": [
        {
          "internalType": "address[]",
          "name": "_approvers",
          "type": "address[]"
        },
        {
          "internalType": "uint256[]",
          "name": "_weights",
          "type": "uint256[]"
        },
        {
          "internalType": "uint256",
          "name": "_valueServiceProvided",
          "type": "uint256"
        }
      ],
      "stateMutability": "nonpayable",
      "type": "constructor"
    },
    {
      "inputs": [],
      "name": "ReentrancyGuardReentrantCall",
      "type": "error"
    },
    {
      "anonymous": false,
      "inputs": [
        {
          "indexed": true,
          "internalType": "uint256",
          "name": "blockNumber",
          "type": "uint256"
        },
        {
          "indexed": true,
          "internalType": "bytes32",
          "name": "alienRootHash",
          "type": "bytes32"
        }
      ],
      "name": "AlienMerkleConsensus",
      "type": "event"
    },
    {
      "anonymous": false,
      "inputs": [
        {
          "indexed": true,
          "internalType": "bytes32",
          "name": "hash",
          "type": "bytes32"
        }
      ],
      "name": "NewApprovers",
      "type": "event"
    },
    {
      "anonymous": false,
      "inputs": [
        {
          "indexed": true,
          "internalType": "address[]",
          "name": "approvers",
          "type": "address[]"
        },
        {
          "indexed": true,
          "internalType": "uint256[]",
          "name": "weights",
          "type": "uint256[]"
        },
        {
          "indexed": true,
          "internalType": "bytes32",
          "name": "hash",
          "type": "bytes32"
        }
      ],
      "name": "PendingNewApprovers",
      "type": "event"
    },
    {
      "inputs": [
        {
          "internalType": "bytes32",
          "name": "_hash",
          "type": "bytes32"
        }
      ],
      "name": "agreeNewApprovers",
      "outputs": [],
      "stateMutability": "nonpayable",
      "type": "function"
    },
    {
      "inputs": [
        {
          "internalType": "address",
          "name": "",
          "type": "address"
        }
      ],
      "name": "approversWeightMap",
      "outputs": [
        {
          "internalType": "uint256",
          "name": "",
          "type": "uint256"
        }
      ],
      "stateMutability": "view",
      "type": "function"
    },
    {
      "inputs": [
        {
          "internalType": "uint256",
          "name": "",
          "type": "uint256"
        }
      ],
      "name": "currentApprovers",
      "outputs": [
        {
          "internalType": "address",
          "name": "pKey",
          "type": "address"
        },
        {
          "internalType": "uint256",
          "name": "weight",
          "type": "uint256"
        }
      ],
      "stateMutability": "view",
      "type": "function"
    },
    {
      "inputs": [
        {
          "internalType": "bytes32[]",
          "name": "_transactions",
          "type": "bytes32[]"
        }
      ],
      "name": "genMerkleTree",
      "outputs": [
        {
          "internalType": "bytes32",
          "name": "",
          "type": "bytes32"
        }
      ],
      "stateMutability": "pure",
      "type": "function"
    },
    {
      "inputs": [
        {
          "internalType": "uint256",
          "name": "_blockNumber",
          "type": "uint256"
        }
      ],
      "name": "getRootByBlock",
      "outputs": [
        {
          "internalType": "bytes4",
          "name": "",
          "type": "bytes4"
        },
        {
          "internalType": "bytes32",
          "name": "",
          "type": "bytes32"
        }
      ],
      "stateMutability": "view",
      "type": "function"
    },
    {
      "inputs": [
        {
          "internalType": "uint256",
          "name": "_alienBlock",
          "type": "uint256"
        }
      ],
      "name": "getVerifiedTxbyBlock",
      "outputs": [
        {
          "internalType": "bool",
          "name": "",
          "type": "bool"
        },
        {
          "internalType": "bytes32[]",
          "name": "",
          "type": "bytes32[]"
        }
      ],
      "stateMutability": "view",
      "type": "function"
    },
    {
      "inputs": [
        {
          "internalType": "bytes32",
          "name": "_pendingMerkle",
          "type": "bytes32"
        },
        {
          "internalType": "uint256",
          "name": "_alienBlock",
          "type": "uint256"
        }
      ],
      "name": "insertMerkleForApproval",
      "outputs": [],
      "stateMutability": "nonpayable",
      "type": "function"
    },
    {
      "inputs": [
        {
          "internalType": "bytes32",
          "name": "_TxId",
          "type": "bytes32"
        }
      ],
      "name": "payTxToMerkleContract",
      "outputs": [
        {
          "internalType": "bool",
          "name": "",
          "type": "bool"
        }
      ],
      "stateMutability": "payable",
      "type": "function"
    },
    {
      "inputs": [
        {
          "internalType": "bytes32",
          "name": "",
          "type": "bytes32"
        },
        {
          "internalType": "uint256",
          "name": "",
          "type": "uint256"
        }
      ],
      "name": "pendingApprovers",
      "outputs": [
        {
          "internalType": "address",
          "name": "pKey",
          "type": "address"
        },
        {
          "internalType": "uint256",
          "name": "weight",
          "type": "uint256"
        }
      ],
      "stateMutability": "view",
      "type": "function"
    },
    {
      "inputs": [],
      "name": "pendingApproversHash",
      "outputs": [
        {
          "internalType": "bytes32",
          "name": "",
          "type": "bytes32"
        }
      ],
      "stateMutability": "view",
      "type": "function"
    },
    {
      "inputs": [
        {
          "internalType": "address[]",
          "name": "_approvers",
          "type": "address[]"
        },
        {
          "internalType": "uint256[]",
          "name": "_weights",
          "type": "uint256[]"
        }
      ],
      "name": "requireNewApprovers",
      "outputs": [],
      "stateMutability": "nonpayable",
      "type": "function"
    },
    {
      "inputs": [],
      "name": "splitMerkleValueService",
      "outputs": [],
      "stateMutability": "payable",
      "type": "function"
    },
    {
      "inputs": [
        {
          "internalType": "uint256",
          "name": "_alienBlock",
          "type": "uint256"
        },
        {
          "internalType": "bytes32[]",
          "name": "_transactions",
          "type": "bytes32[]"
        },
        {
          "internalType": "address",
          "name": "_drexListrack",
          "type": "address"
        }
      ],
      "name": "validateAllTxForSettlementForOneAlienBlock",
      "outputs": [],
      "stateMutability": "nonpayable",
      "type": "function"
    },
    {
      "inputs": [
        {
          "internalType": "bytes32[]",
          "name": "_txId",
          "type": "bytes32[]"
        },
        {
          "internalType": "uint256[]",
          "name": "_txIndex",
          "type": "uint256[]"
        },
        {
          "internalType": "bytes32[][]",
          "name": "_merkleProof",
          "type": "bytes32[][]"
        },
        {
          "internalType": "uint256[]",
          "name": "_alienBlock",
          "type": "uint256[]"
        },
        {
          "internalType": "address",
          "name": "_drexListrack",
          "type": "address"
        }
      ],
      "name": "validateSomeTxForSettlement",
      "outputs": [],
      "stateMutability": "nonpayable",
      "type": "function"
    }
  ],
  "bytecode": "0x60806040523480156200001157600080fd5b5060405162003e8338038062003e838339818101604052810190620000379190620006eb565b6001600081905550815183511462000086576040517f08c379a00000000000000000000000000000000000000000000000000000000081526004016200007d906200080c565b60405180910390fd5b80600e8190555060006005819055506200009f620003b0565b60005b84518110156200026b57848181518110620000c257620000c16200082e565b5b6020026020010151826000019073ffffffffffffffffffffffffffffffffffffffff16908173ffffffffffffffffffffffffffffffffffffffff16815250508381815181106200011757620001166200082e565b5b6020026020010151826020018181525050600382908060018154018082558091505060019003906000526020600020906002020160009091909190915060008201518160000160006101000a81548173ffffffffffffffffffffffffffffffffffffffff021916908373ffffffffffffffffffffffffffffffffffffffff160217905550602082015181600101555050838181518110620001bd57620001bc6200082e565b5b602002602001015160076000878481518110620001df57620001de6200082e565b5b602002602001015173ffffffffffffffffffffffffffffffffffffffff1673ffffffffffffffffffffffffffffffffffffffff168152602001908152602001600020819055508381815181106200023b576200023a6200082e565b5b6020026020010151600560008282546200025691906200088c565b925050819055508080600101915050620000a2565b50611b58600d81905550620002a26040518060600160405280602e815260200162003e55602e9139600554620002ac60201b60201c565b50505050620009b3565b6200034e8282604051602401620002c592919062000950565b6040516020818303038152906040527fb60e72cc000000000000000000000000000000000000000000000000000000007bffffffffffffffffffffffffffffffffffffffffffffffffffffffff19166020820180517bffffffffffffffffffffffffffffffffffffffffffffffffffffffff83818316178352505050506200035260201b60201c565b5050565b6200037881620003736200037b60201b62001cd8176200039c60201b60201c565b60201c565b50565b60006a636f6e736f6c652e6c6f679050600080835160208501845afa505050565b620003e060201b62001fa517819050919050565b6040518060400160405280600073ffffffffffffffffffffffffffffffffffffffff168152602001600081525090565b620003ea62000984565b565b6000604051905090565b600080fd5b600080fd5b600080fd5b6000601f19601f8301169050919050565b7f4e487b7100000000000000000000000000000000000000000000000000000000600052604160045260246000fd5b620004508262000405565b810181811067ffffffffffffffff8211171562000472576200047162000416565b5b80604052505050565b600062000487620003ec565b905062000495828262000445565b919050565b600067ffffffffffffffff821115620004b857620004b762000416565b5b602082029050602081019050919050565b600080fd5b600073ffffffffffffffffffffffffffffffffffffffff82169050919050565b6000620004fb82620004ce565b9050919050565b6200050d81620004ee565b81146200051957600080fd5b50565b6000815190506200052d8162000502565b92915050565b60006200054a62000544846200049a565b6200047b565b9050808382526020820190506020840283018581111562000570576200056f620004c9565b5b835b818110156200059d57806200058888826200051c565b84526020840193505060208101905062000572565b5050509392505050565b600082601f830112620005bf57620005be62000400565b5b8151620005d184826020860162000533565b91505092915050565b600067ffffffffffffffff821115620005f857620005f762000416565b5b602082029050602081019050919050565b6000819050919050565b6200061e8162000609565b81146200062a57600080fd5b50565b6000815190506200063e8162000613565b92915050565b60006200065b6200065584620005da565b6200047b565b90508083825260208201905060208402830185811115620006815762000680620004c9565b5b835b81811015620006ae57806200069988826200062d565b84526020840193505060208101905062000683565b5050509392505050565b600082601f830112620006d057620006cf62000400565b5b8151620006e284826020860162000644565b91505092915050565b600080600060608486031215620007075762000706620003f6565b5b600084015167ffffffffffffffff811115620007285762000727620003fb565b5b6200073686828701620005a7565b935050602084015167ffffffffffffffff8111156200075a5762000759620003fb565b5b6200076886828701620006b8565b92505060406200077b868287016200062d565b9150509250925092565b600082825260208201905092915050565b7f4172726179206f6620617070726f76657273206973206e6f2f7420657175616c60008201527f20746f2077656967687473000000000000000000000000000000000000000000602082015250565b6000620007f4602b8362000785565b9150620008018262000796565b604082019050919050565b600060208201905081810360008301526200082781620007e5565b9050919050565b7f4e487b7100000000000000000000000000000000000000000000000000000000600052603260045260246000fd5b7f4e487b7100000000000000000000000000000000000000000000000000000000600052601160045260246000fd5b6000620008998262000609565b9150620008a68362000609565b9250828201905080821115620008c157620008c06200085d565b5b92915050565b600081519050919050565b60005b83811015620008f2578082015181840152602081019050620008d5565b60008484015250505050565b60006200090b82620008c7565b62000917818562000785565b935062000929818560208601620008d2565b620009348162000405565b840191505092915050565b6200094a8162000609565b82525050565b600060408201905081810360008301526200096c8185620008fe565b90506200097d60208301846200093f565b9392505050565b7f4e487b7100000000000000000000000000000000000000000000000000000000600052605160045260246000fd5b61349280620009c36000396000f3fe6080604052600436106100dd5760003560e01c806369c07e491161007f578063759a62d511610059578063759a62d5146102905780639effc43e146102ce578063b54549941461030b578063c462c7c214610349576100dd565b806369c07e4914610234578063700e938c1461023e57806370a934f214610267576100dd565b80633d3b5326116100bb5780633d3b53261461018e5780633e7fd1be146101b75780634b767cc6146101e05780635024011c1461020b576100dd565b806321937a5b146100e257806327040565146101125780632f73c95214610150575b600080fd5b6100fc60048036038101906100f791906121a2565b610386565b60405161010991906121ea565b60405180910390f35b34801561011e57600080fd5b506101396004803603810190610134919061223b565b6104d4565b604051610147929190612326565b60405180910390f35b34801561015c57600080fd5b506101776004803603810190610172919061223b565b61055a565b6040516101859291906123a6565b60405180910390f35b34801561019a57600080fd5b506101b560048036038101906101b091906123cf565b6105ae565b005b3480156101c357600080fd5b506101de60048036038101906101d99190612657565b610982565b005b3480156101ec57600080fd5b506101f5610d89565b60405161020291906126de565b60405180910390f35b34801561021757600080fd5b50610232600480360381019061022d91906127bc565b610d8f565b005b61023c610fc9565b005b34801561024a57600080fd5b506102656004803603810190610260919061290c565b6111fc565b005b34801561027357600080fd5b5061028e600480360381019061028991906121a2565b6114e5565b005b34801561029c57600080fd5b506102b760048036038101906102b2919061223b565b61190e565b6040516102c5929190612a32565b60405180910390f35b3480156102da57600080fd5b506102f560048036038101906102f09190612a5b565b61195f565b6040516103029190612a88565b60405180910390f35b34801561031757600080fd5b50610332600480360381019061032d91906123cf565b611977565b6040516103409291906123a6565b60405180910390f35b34801561035557600080fd5b50610370600480360381019061036b9190612aa3565b6119d8565b60405161037d91906126de565b60405180910390f35b60008060009050600e5434146103d1576040517f08c379a00000000000000000000000000000000000000000000000000000000081526004016103c890612b95565b60405180910390fd5b3073ffffffffffffffffffffffffffffffffffffffff16346040516103f590612be6565b60006040518083038185875af1925050503d8060008114610432576040519150601f19603f3d011682016040523d82523d6000602084013e610437565b606091505b50508091505080156104cb57600f83908060018154018082558091505060019003906000526020600020016000909190919091505560016010600085815260200190815260200160002060000160006101000a81548160ff02191690831515021790555060006010600085815260200190815260200160002060000160016101000a81548160ff0219169083151502179055505b80915050919050565b600060606000806002600086815260200190815260200160002080548060200260200160405190810160405280929190818152602001828054801561053857602002820191906000526020600020905b815481526020019060010190808311610524575b50505050509050600081511461054d57600191505b8181935093505050915091565b6003818154811061056a57600080fd5b90600052602060002090600202016000915090508060000160009054906101000a900473ffffffffffffffffffffffffffffffffffffffff16908060010154905082565b6000805b60038054905081101561067c573373ffffffffffffffffffffffffffffffffffffffff16600382815481106105ea576105e9612bfb565b5b906000526020600020906002020160000160009054906101000a900473ffffffffffffffffffffffffffffffffffffffff1673ffffffffffffffffffffffffffffffffffffffff1614801561066557506000600382815481106106505761064f612bfb565b5b90600052602060002090600202016001015414155b1561066f57600191505b80806001019150506105b2565b50806106bd576040517f08c379a00000000000000000000000000000000000000000000000000000000081526004016106b490612c9c565b60405180910390fd5b6106c5611cf9565b600b6000838152602001908152602001600020600084815260200190815260200160002060003373ffffffffffffffffffffffffffffffffffffffff1673ffffffffffffffffffffffffffffffffffffffff16815260200190815260200160002060009054906101000a900460ff1615610774576040517f08c379a000000000000000000000000000000000000000000000000000000000815260040161076b90612d08565b60405180910390fd5b6000801b6001600084815260200190815260200160002054146107cc576040517f08c379a00000000000000000000000000000000000000000000000000000000081526004016107c390612d9a565b60405180910390fd5b6001600b6000848152602001908152602001600020600085815260200190815260200160002060003373ffffffffffffffffffffffffffffffffffffffff1673ffffffffffffffffffffffffffffffffffffffff16815260200190815260200160002060006101000a81548160ff021916908315150217905550600760003373ffffffffffffffffffffffffffffffffffffffff1673ffffffffffffffffffffffffffffffffffffffff1681526020019081526020016000205460096000848152602001908152602001600020600085815260200190815260200160002060008282546108b99190612de9565b9250508190555060006005546127106108d29190612e4c565b9050600d5481600960008681526020019081526020016000206000878152602001908152602001600020546109079190612e7d565b106109745783600160008581526020019081526020016000208190555061094560405180606001604052806022815260200161343b60229139611d3f565b83837f9e2d7ebd70e3de58cfdd0e4c192ffa0c4822eea2fd8f38a94b54999b895c23bb60405160405180910390a35b5061097d611dd8565b505050565b6000805b600380549050811015610a50573373ffffffffffffffffffffffffffffffffffffffff16600382815481106109be576109bd612bfb565b5b906000526020600020906002020160000160009054906101000a900473ffffffffffffffffffffffffffffffffffffffff1673ffffffffffffffffffffffffffffffffffffffff16148015610a395750600060038281548110610a2457610a23612bfb565b5b90600052602060002090600202016001015414155b15610a4357600191505b8080600101915050610986565b5080610a91576040517f08c379a0000000000000000000000000000000000000000000000000000000008152600401610a8890612c9c565b60405180910390fd5b60008351905082518114610ada576040517f08c379a0000000000000000000000000000000000000000000000000000000008152600401610ad190612f31565b60405180910390fd5b60008167ffffffffffffffff811115610af657610af5612425565b5b604051908082528060200260200182016040528015610b2f57816020015b610b1c611faf565b815260200190600190039081610b145790505b50905060008060001b905060005b8651811015610c5e57868181518110610b5957610b58612bfb565b5b6020026020010151838281518110610b7457610b73612bfb565b5b60200260200101516000019073ffffffffffffffffffffffffffffffffffffffff16908173ffffffffffffffffffffffffffffffffffffffff1681525050858181518110610bc557610bc4612bfb565b5b6020026020010151838281518110610be057610bdf612bfb565b5b6020026020010151602001818152505081878281518110610c0457610c03612bfb565b5b6020026020010151878381518110610c1f57610c1e612bfb565b5b6020026020010151604051602001610c3993929190612fdb565b6040516020818303038152906040528051906020012091508080600101915050610b3d565b508085604051610c6e91906130d0565b604051809103902087604051610c84919061319f565b60405180910390207f87f9ce82e3a1f360fa4a4b56f2ae41b1ce453c6ddd65064c60e12f0b61b2aacf60405160405180910390a460005b83811015610d80576000838281518110610cd857610cd7612bfb565b5b602002602001015190506004600084815260200190815260200160002081908060018154018082558091505060019003906000526020600020906002020160009091909190915060008201518160000160006101000a81548173ffffffffffffffffffffffffffffffffffffffff021916908373ffffffffffffffffffffffffffffffffffffffff160217905550602082015181600101555050508080600101915050610cbb565b50505050505050565b60085481565b6000805b600380549050811015610e5d573373ffffffffffffffffffffffffffffffffffffffff1660038281548110610dcb57610dca612bfb565b5b906000526020600020906002020160000160009054906101000a900473ffffffffffffffffffffffffffffffffffffffff1673ffffffffffffffffffffffffffffffffffffffff16148015610e465750600060038281548110610e3157610e30612bfb565b5b90600052602060002090600202016001015414155b15610e5057600191505b8080600101915050610d93565b5080610e9e576040517f08c379a0000000000000000000000000000000000000000000000000000000008152600401610e9590612c9c565b60405180910390fd5b610ea6611cf9565b6000600260008681526020019081526020016000208054905014610eff576040517f08c379a0000000000000000000000000000000000000000000000000000000008152600401610ef690613228565b60405180910390fd5b6000610f0a846119d8565b905060016000868152602001908152602001600020548103610fba5783600260008781526020019081526020016000209080519060200190610f4d929190611fdf565b508273ffffffffffffffffffffffffffffffffffffffff16636d8e9f7a856040518263ffffffff1660e01b8152600401610f879190613248565b600060405180830381600087803b158015610fa157600080fd5b505af1158015610fb5573d6000803e3d6000fd5b505050505b50610fc3611dd8565b50505050565b6000805b600380549050811015611097573373ffffffffffffffffffffffffffffffffffffffff166003828154811061100557611004612bfb565b5b906000526020600020906002020160000160009054906101000a900473ffffffffffffffffffffffffffffffffffffffff1673ffffffffffffffffffffffffffffffffffffffff16148015611080575060006003828154811061106b5761106a612bfb565b5b90600052602060002090600202016001015414155b1561108a57600191505b8080600101915050610fcd565b50806110d8576040517f08c379a00000000000000000000000000000000000000000000000000000000081526004016110cf90612c9c565b60405180910390fd5b6000600554476110e89190612e4c565b905060008080600090505b6003805490508110156111f5576003818154811061111457611113612bfb565b5b906000526020600020906002020160010154846111319190612e7d565b92506003818154811061114757611146612bfb565b5b906000526020600020906002020160000160009054906101000a900473ffffffffffffffffffffffffffffffffffffffff1673ffffffffffffffffffffffffffffffffffffffff168360405161119c90612be6565b60006040518083038185875af1925050503d80600081146111d9576040519150601f19603f3d011682016040523d82523d6000602084013e6111de565b606091505b5050809250506000925080806001019150506110f3565b5050505050565b6000805b6003805490508110156112ca573373ffffffffffffffffffffffffffffffffffffffff166003828154811061123857611237612bfb565b5b906000526020600020906002020160000160009054906101000a900473ffffffffffffffffffffffffffffffffffffffff1673ffffffffffffffffffffffffffffffffffffffff161480156112b3575060006003828154811061129e5761129d612bfb565b5b90600052602060002090600202016001015414155b156112bd57600191505b8080600101915050611200565b508061130b576040517f08c379a000000000000000000000000000000000000000000000000000000000815260040161130290612c9c565b60405180910390fd5b611313611cf9565b60008080600090505b885181101561145e5760009150601060008a83815181106113405761133f612bfb565b5b6020026020010151815260200190815260200160002060000160019054906101000a900460ff1615611375576001915061143c565b6113e989828151811061138b5761138a612bfb565b5b60200260200101518983815181106113a6576113a5612bfb565b5b60200260200101518984815181106113c1576113c0612bfb565b5b60200260200101518985815181106113dc576113db612bfb565b5b6020026020010151611de2565b9150811561143b576001601060008b848151811061140a57611409612bfb565b5b6020026020010151815260200190815260200160002060000160016101000a81548160ff0219169083151502179055505b5b811561145157828061144d9061326a565b9350505b808060010191505061131c565b50875182036114d3578373ffffffffffffffffffffffffffffffffffffffff16636d8e9f7a896040518263ffffffff1660e01b81526004016114a09190613248565b600060405180830381600087803b1580156114ba57600080fd5b505af11580156114ce573d6000803e3d6000fd5b505050505b50506114dd611dd8565b505050505050565b6000805b6003805490508110156115b3573373ffffffffffffffffffffffffffffffffffffffff166003828154811061152157611520612bfb565b5b906000526020600020906002020160000160009054906101000a900473ffffffffffffffffffffffffffffffffffffffff1673ffffffffffffffffffffffffffffffffffffffff1614801561159c575060006003828154811061158757611586612bfb565b5b90600052602060002090600202016001015414155b156115a657600191505b80806001019150506114e9565b50806115f4576040517f08c379a00000000000000000000000000000000000000000000000000000000081526004016115eb90612c9c565b60405180910390fd5b6115fc611cf9565b600c600083815260200190815260200160002060003373ffffffffffffffffffffffffffffffffffffffff1673ffffffffffffffffffffffffffffffffffffffff16815260200190815260200160002060009054906101000a900460ff161561169a576040517f08c379a000000000000000000000000000000000000000000000000000000000815260040161169190612d08565b60405180910390fd5b6001600c600084815260200190815260200160002060003373ffffffffffffffffffffffffffffffffffffffff1673ffffffffffffffffffffffffffffffffffffffff16815260200190815260200160002060006101000a81548160ff021916908315150217905550600760003373ffffffffffffffffffffffffffffffffffffffff1673ffffffffffffffffffffffffffffffffffffffff16815260200190815260200160002054600a600084815260200190815260200160002060008282546117659190612de9565b92505081905550600060055461271061177e9190612e4c565b9050600d5481600a6000868152602001908152602001600020546117a29190612e7d565b10611901576004600084815260200190815260200160002060039080546117ca92919061202c565b506000805b6003805490508110156118ca57600381815481106117f0576117ef612bfb565b5b906000526020600020906002020160010154600760006003848154811061181a57611819612bfb565b5b906000526020600020906002020160000160009054906101000a900473ffffffffffffffffffffffffffffffffffffffff1673ffffffffffffffffffffffffffffffffffffffff1673ffffffffffffffffffffffffffffffffffffffff168152602001908152602001600020819055506003818154811061189e5761189d612bfb565b5b906000526020600020906002020160010154826118bb9190612de9565b915080806001019150506117cf565b5080600581905550837fb6a5501d7808a7482fe3eb47da960be4323b04246b7f5045e66b02df40ddd6a060405160405180910390a2505b5061190a611dd8565b5050565b60008060008060e01b90506000631626ba7e60e01b905060008060001b9050600160008781526020019081526020016000205490506000801b8114611951578192505b828194509450505050915091565b60076020528060005260406000206000915090505481565b6004602052816000526040600020818154811061199357600080fd5b9060005260206000209060020201600091509150508060000160009054906101000a900473ffffffffffffffffffffffffffffffffffffffff16908060010154905082565b6000808251905060008167ffffffffffffffff8111156119fb576119fa612425565b5b604051908082528060200260200182016040528015611a295781602001602082028036833780820191505090505b5090508390506000815111611a73576040517f08c379a0000000000000000000000000000000000000000000000000000000008152600401611a6a906132fe565b60405180910390fd5b5b600181511115611c5157600060028251611a8e919061331e565b60028351611a9c9190612e4c565b611aa69190612de9565b67ffffffffffffffff811115611abf57611abe612425565b5b604051908082528060200260200182016040528015611aed5781602001602082028036833780820191505090505b50905060005b8251811015611c47578251600182611b0b9190612de9565b1015611baa57828181518110611b2457611b23612bfb565b5b602002602001015183600183611b3a9190612de9565b81518110611b4b57611b4a612bfb565b5b6020026020010151604051602001611b6492919061334f565b6040516020818303038152906040528051906020012082600283611b889190612e4c565b81518110611b9957611b98612bfb565b5b602002602001018181525050611c33565b828181518110611bbd57611bbc612bfb565b5b6020026020010151838281518110611bd857611bd7612bfb565b5b6020026020010151604051602001611bf192919061334f565b6040516020818303038152906040528051906020012082600283611c159190612e4c565b81518110611c2657611c25612bfb565b5b6020026020010181815250505b600281611c409190612de9565b9050611af3565b5080915050611a74565b611c8f6040518060400160405280600b81526020017f4d65726b6c6520526f6f74000000000000000000000000000000000000000000815250611d3f565b611cb381600081518110611ca657611ca5612bfb565b5b6020026020010151611ee7565b80600081518110611cc757611cc6612bfb565b5b602002602001015192505050919050565b60006a636f6e736f6c652e6c6f679050600080835160208501845afa505050565b600260005403611d35576040517f3ee5aeb500000000000000000000000000000000000000000000000000000000815260040160405180910390fd5b6002600081905550565b611dd581604051602401611d5391906133e9565b6040516020818303038152906040527f41304fac000000000000000000000000000000000000000000000000000000007bffffffffffffffffffffffffffffffffffffffffffffffffffffffff19166020820180517bffffffffffffffffffffffffffffffffffffffffffffffffffffffff8381831617835250505050611f80565b50565b6001600081905550565b60008060009050600086905060005b8551811015611eba576000600288611e09919061331e565b03611e585781868281518110611e2257611e21612bfb565b5b6020026020010151604051602001611e3b92919061334f565b604051602081830303815290604052805190602001209150611e9e565b858181518110611e6b57611e6a612bfb565b5b602002602001015182604051602001611e8592919061334f565b6040516020818303038152906040528051906020012091505b600287611eab9190612e4c565b96508080600101915050611df1565b5080600160008681526020019081526020016000205403611eda57600191505b8192505050949350505050565b611f7d81604051602401611efb91906126de565b6040516020818303038152906040527f27b7cf85000000000000000000000000000000000000000000000000000000007bffffffffffffffffffffffffffffffffffffffffffffffffffffffff19166020820180517bffffffffffffffffffffffffffffffffffffffffffffffffffffffff8381831617835250505050611f80565b50565b611f9781611f8f611cd8611f9a565b63ffffffff16565b50565b611fa5819050919050565b611fad61340b565b565b6040518060400160405280600073ffffffffffffffffffffffffffffffffffffffff168152602001600081525090565b82805482825590600052602060002090810192821561201b579160200282015b8281111561201a578251825591602001919060010190611fff565b5b50905061202891906120f5565b5090565b8280548282559060005260206000209060020281019282156120e45760005260206000209160020282015b828111156120e35782826000820160009054906101000a900473ffffffffffffffffffffffffffffffffffffffff168160000160006101000a81548173ffffffffffffffffffffffffffffffffffffffff021916908373ffffffffffffffffffffffffffffffffffffffff16021790555060018201548160010155505091600201919060020190612057565b5b5090506120f19190612112565b5090565b5b8082111561210e5760008160009055506001016120f6565b5090565b5b8082111561215457600080820160006101000a81549073ffffffffffffffffffffffffffffffffffffffff0219169055600182016000905550600201612113565b5090565b6000604051905090565b600080fd5b600080fd5b6000819050919050565b61217f8161216c565b811461218a57600080fd5b50565b60008135905061219c81612176565b92915050565b6000602082840312156121b8576121b7612162565b5b60006121c68482850161218d565b91505092915050565b60008115159050919050565b6121e4816121cf565b82525050565b60006020820190506121ff60008301846121db565b92915050565b6000819050919050565b61221881612205565b811461222357600080fd5b50565b6000813590506122358161220f565b92915050565b60006020828403121561225157612250612162565b5b600061225f84828501612226565b91505092915050565b600081519050919050565b600082825260208201905092915050565b6000819050602082019050919050565b61229d8161216c565b82525050565b60006122af8383612294565b60208301905092915050565b6000602082019050919050565b60006122d382612268565b6122dd8185612273565b93506122e883612284565b8060005b8381101561231957815161230088826122a3565b975061230b836122bb565b9250506001810190506122ec565b5085935050505092915050565b600060408201905061233b60008301856121db565b818103602083015261234d81846122c8565b90509392505050565b600073ffffffffffffffffffffffffffffffffffffffff82169050919050565b600061238182612356565b9050919050565b61239181612376565b82525050565b6123a081612205565b82525050565b60006040820190506123bb6000830185612388565b6123c86020830184612397565b9392505050565b600080604083850312156123e6576123e5612162565b5b60006123f48582860161218d565b925050602061240585828601612226565b9150509250929050565b600080fd5b6000601f19601f8301169050919050565b7f4e487b7100000000000000000000000000000000000000000000000000000000600052604160045260246000fd5b61245d82612414565b810181811067ffffffffffffffff8211171561247c5761247b612425565b5b80604052505050565b600061248f612158565b905061249b8282612454565b919050565b600067ffffffffffffffff8211156124bb576124ba612425565b5b602082029050602081019050919050565b600080fd5b6124da81612376565b81146124e557600080fd5b50565b6000813590506124f7816124d1565b92915050565b600061251061250b846124a0565b612485565b90508083825260208201905060208402830185811115612533576125326124cc565b5b835b8181101561255c578061254888826124e8565b845260208401935050602081019050612535565b5050509392505050565b600082601f83011261257b5761257a61240f565b5b813561258b8482602086016124fd565b91505092915050565b600067ffffffffffffffff8211156125af576125ae612425565b5b602082029050602081019050919050565b60006125d36125ce84612594565b612485565b905080838252602082019050602084028301858111156125f6576125f56124cc565b5b835b8181101561261f578061260b8882612226565b8452602084019350506020810190506125f8565b5050509392505050565b600082601f83011261263e5761263d61240f565b5b813561264e8482602086016125c0565b91505092915050565b6000806040838503121561266e5761266d612162565b5b600083013567ffffffffffffffff81111561268c5761268b612167565b5b61269885828601612566565b925050602083013567ffffffffffffffff8111156126b9576126b8612167565b5b6126c585828601612629565b9150509250929050565b6126d88161216c565b82525050565b60006020820190506126f360008301846126cf565b92915050565b600067ffffffffffffffff82111561271457612713612425565b5b602082029050602081019050919050565b6000612738612733846126f9565b612485565b9050808382526020820190506020840283018581111561275b5761275a6124cc565b5b835b818110156127845780612770888261218d565b84526020840193505060208101905061275d565b5050509392505050565b600082601f8301126127a3576127a261240f565b5b81356127b3848260208601612725565b91505092915050565b6000806000606084860312156127d5576127d4612162565b5b60006127e386828701612226565b935050602084013567ffffffffffffffff81111561280457612803612167565b5b6128108682870161278e565b9250506040612821868287016124e8565b9150509250925092565b600067ffffffffffffffff82111561284657612845612425565b5b602082029050602081019050919050565b600061286a6128658461282b565b612485565b9050808382526020820190506020840283018581111561288d5761288c6124cc565b5b835b818110156128d457803567ffffffffffffffff8111156128b2576128b161240f565b5b8086016128bf898261278e565b8552602085019450505060208101905061288f565b5050509392505050565b600082601f8301126128f3576128f261240f565b5b8135612903848260208601612857565b91505092915050565b600080600080600060a0868803121561292857612927612162565b5b600086013567ffffffffffffffff81111561294657612945612167565b5b6129528882890161278e565b955050602086013567ffffffffffffffff81111561297357612972612167565b5b61297f88828901612629565b945050604086013567ffffffffffffffff8111156129a05761299f612167565b5b6129ac888289016128de565b935050606086013567ffffffffffffffff8111156129cd576129cc612167565b5b6129d988828901612629565b92505060806129ea888289016124e8565b9150509295509295909350565b60007fffffffff0000000000000000000000000000000000000000000000000000000082169050919050565b612a2c816129f7565b82525050565b6000604082019050612a476000830185612a23565b612a5460208301846126cf565b9392505050565b600060208284031215612a7157612a70612162565b5b6000612a7f848285016124e8565b91505092915050565b6000602082019050612a9d6000830184612397565b92915050565b600060208284031215612ab957612ab8612162565b5b600082013567ffffffffffffffff811115612ad757612ad6612167565b5b612ae38482850161278e565b91505092915050565b600082825260208201905092915050565b7f56616c7565206973206e6f74207468652065786163742076616c756520666f7260008201527f20746865205365727669636520746f20636f6e6669726d205478206279204d6560208201527f726b6c6520436f6e747261637400000000000000000000000000000000000000604082015250565b6000612b7f604d83612aec565b9150612b8a82612afd565b606082019050919050565b60006020820190508181036000830152612bae81612b72565b9050919050565b600081905092915050565b50565b6000612bd0600083612bb5565b9150612bdb82612bc0565b600082019050919050565b6000612bf182612bc3565b9150819050919050565b7f4e487b7100000000000000000000000000000000000000000000000000000000600052603260045260246000fd5b7f556e617574686f72697a65643a204f6e6c79206f776e65722063616e2070657260008201527f666f726d207468697320616374696f6e00000000000000000000000000000000602082015250565b6000612c86603083612aec565b9150612c9182612c2a565b604082019050919050565b60006020820190508181036000830152612cb581612c79565b9050919050565b7f417070726f76657220616c726561647920766f74656400000000000000000000600082015250565b6000612cf2601683612aec565b9150612cfd82612cbc565b602082019050919050565b60006020820190508181036000830152612d2181612ce5565b9050919050565b7f4d65726b6c65204861736820666f72207468697320626c6f636b20697320616c60008201527f7265616479207772697474656e00000000000000000000000000000000000000602082015250565b6000612d84602d83612aec565b9150612d8f82612d28565b604082019050919050565b60006020820190508181036000830152612db381612d77565b9050919050565b7f4e487b7100000000000000000000000000000000000000000000000000000000600052601160045260246000fd5b6000612df482612205565b9150612dff83612205565b9250828201905080821115612e1757612e16612dba565b5b92915050565b7f4e487b7100000000000000000000000000000000000000000000000000000000600052601260045260246000fd5b6000612e5782612205565b9150612e6283612205565b925082612e7257612e71612e1d565b5b828204905092915050565b6000612e8882612205565b9150612e9383612205565b9250828202612ea181612205565b91508282048414831517612eb857612eb7612dba565b5b5092915050565b7f4164647265737320616e642057656967687420617265206e6f7420746865207360008201527f616d652073697a65000000000000000000000000000000000000000000000000602082015250565b6000612f1b602883612aec565b9150612f2682612ebf565b604082019050919050565b60006020820190508181036000830152612f4a81612f0e565b9050919050565b6000819050919050565b612f6c612f678261216c565b612f51565b82525050565b60008160601b9050919050565b6000612f8a82612f72565b9050919050565b6000612f9c82612f7f565b9050919050565b612fb4612faf82612376565b612f91565b82525050565b6000819050919050565b612fd5612fd082612205565b612fba565b82525050565b6000612fe78286612f5b565b602082019150612ff78285612fa3565b6014820191506130078284612fc4565b602082019150819050949350505050565b600081519050919050565b600081905092915050565b6000819050602082019050919050565b61304781612205565b82525050565b6000613059838361303e565b60208301905092915050565b6000602082019050919050565b600061307d82613018565b6130878185613023565b93506130928361302e565b8060005b838110156130c35781516130aa888261304d565b97506130b583613065565b925050600181019050613096565b5085935050505092915050565b60006130dc8284613072565b915081905092915050565b600081519050919050565b600081905092915050565b6000819050602082019050919050565b61311681612376565b82525050565b6000613128838361310d565b60208301905092915050565b6000602082019050919050565b600061314c826130e7565b61315681856130f2565b9350613161836130fd565b8060005b83811015613192578151613179888261311c565b975061318483613134565b925050600181019050613165565b5085935050505092915050565b60006131ab8284613141565b915081905092915050565b7f5472616e73616374696f6e7320616c72656164792076616c696461746564206660008201527f6f72207468697320616c69656e20626c6f636b00000000000000000000000000602082015250565b6000613212603383612aec565b915061321d826131b6565b604082019050919050565b6000602082019050818103600083015261324181613205565b9050919050565b6000602082019050818103600083015261326281846122c8565b905092915050565b600061327582612205565b91507fffffffffffffffffffffffffffffffffffffffffffffffffffffffffffffffff82036132a7576132a6612dba565b5b600182019050919050565b7f4e6f206461746120746f20637265617465204d65726b6c652074726565000000600082015250565b60006132e8601d83612aec565b91506132f3826132b2565b602082019050919050565b60006020820190508181036000830152613317816132db565b9050919050565b600061332982612205565b915061333483612205565b92508261334457613343612e1d565b5b828206905092915050565b600061335b8285612f5b565b60208201915061336b8284612f5b565b6020820191508190509392505050565b600081519050919050565b60005b838110156133a4578082015181840152602081019050613389565b60008484015250505050565b60006133bb8261337b565b6133c58185612aec565b93506133d5818560208601613386565b6133de81612414565b840191505092915050565b6000602082019050818103600083015261340381846133b0565b905092915050565b7f4e487b7100000000000000000000000000000000000000000000000000000000600052605160045260246000fdfe436f6e73656e73757320616368696576656420666f72204d65726b6c6520526f6f74a264697066735822122081ed050a539cdb0273a61596b1932565ab70afa844355f256325cb428ebd700264736f6c63430008180033404040204d65726b6c6520436f6e7472616374204465706c6f796564202d2043757272656e742057656967687420",
  "linkReferences": {},
  "deployedLinkReferences": {}
}