{
  "_format": "hh-sol-artifact-1",
  "contractName": "MerkleContract",
  "sourceName": "contracts/DrexMerkle.sol",
  "abi": [
    {
      "inputs": [
        {
          "internalType": "address[]",
          "name": "_approvers",
          "type": "address[]"
        },
        {
          "internalType": "uint256[]",
          "name": "_weights",
          "type": "uint256[]"
        },
        {
          "internalType": "uint256",
          "name": "_valueServiceProvided",
          "type": "uint256"
        }
      ],
      "stateMutability": "nonpayable",
      "type": "constructor"
    },
    {
      "inputs": [],
      "name": "ReentrancyGuardReentrantCall",
      "type": "error"
    },
    {
      "anonymous": false,
      "inputs": [
        {
          "indexed": true,
          "internalType": "uint256",
          "name": "blockNumber",
          "type": "uint256"
        },
        {
          "indexed": true,
          "internalType": "bytes32",
          "name": "alienRootHash",
          "type": "bytes32"
        }
      ],
      "name": "AlienMerkleConsensus",
      "type": "event"
    },
    {
      "anonymous": false,
      "inputs": [
        {
          "indexed": true,
          "internalType": "bytes32",
          "name": "hash",
          "type": "bytes32"
        }
      ],
      "name": "NewApprovers",
      "type": "event"
    },
    {
      "anonymous": false,
      "inputs": [
        {
          "indexed": true,
          "internalType": "address[]",
          "name": "approvers",
          "type": "address[]"
        },
        {
          "indexed": true,
          "internalType": "uint256[]",
          "name": "weights",
          "type": "uint256[]"
        },
        {
          "indexed": true,
          "internalType": "bytes32",
          "name": "hash",
          "type": "bytes32"
        }
      ],
      "name": "PendingNewApprovers",
      "type": "event"
    },
    {
      "inputs": [
        {
          "internalType": "bytes32",
          "name": "_hash",
          "type": "bytes32"
        }
      ],
      "name": "agreeNewApprovers",
      "outputs": [],
      "stateMutability": "nonpayable",
      "type": "function"
    },
    {
      "inputs": [
        {
          "internalType": "address",
          "name": "",
          "type": "address"
        }
      ],
      "name": "approversWeightMap",
      "outputs": [
        {
          "internalType": "uint256",
          "name": "",
          "type": "uint256"
        }
      ],
      "stateMutability": "view",
      "type": "function"
    },
    {
      "inputs": [
        {
          "internalType": "uint256",
          "name": "",
          "type": "uint256"
        }
      ],
      "name": "currentApprovers",
      "outputs": [
        {
          "internalType": "address",
          "name": "pKey",
          "type": "address"
        },
        {
          "internalType": "uint256",
          "name": "weight",
          "type": "uint256"
        }
      ],
      "stateMutability": "view",
      "type": "function"
    },
    {
      "inputs": [
        {
          "internalType": "bytes32[]",
          "name": "_transactions",
          "type": "bytes32[]"
        }
      ],
      "name": "genMerkleTree",
      "outputs": [
        {
          "internalType": "bytes32",
          "name": "",
          "type": "bytes32"
        }
      ],
      "stateMutability": "pure",
      "type": "function"
    },
    {
      "inputs": [
        {
          "internalType": "uint256",
          "name": "_blockNumber",
          "type": "uint256"
        }
      ],
      "name": "getRootByBlock",
      "outputs": [
        {
          "internalType": "bytes4",
          "name": "",
          "type": "bytes4"
        },
        {
          "internalType": "bytes32",
          "name": "",
          "type": "bytes32"
        }
      ],
      "stateMutability": "view",
      "type": "function"
    },
    {
      "inputs": [
        {
          "internalType": "uint256",
          "name": "_alienBlock",
          "type": "uint256"
        }
      ],
      "name": "getVerifiedTxbyBlock",
      "outputs": [
        {
          "internalType": "bool",
          "name": "",
          "type": "bool"
        },
        {
          "internalType": "bytes32[]",
          "name": "",
          "type": "bytes32[]"
        }
      ],
      "stateMutability": "view",
      "type": "function"
    },
    {
      "inputs": [
        {
          "internalType": "bytes32",
          "name": "_pendingMerkle",
          "type": "bytes32"
        },
        {
          "internalType": "uint256",
          "name": "_alienBlock",
          "type": "uint256"
        }
      ],
      "name": "insertMerkleForApproval",
      "outputs": [],
      "stateMutability": "nonpayable",
      "type": "function"
    },
    {
      "inputs": [
        {
          "internalType": "bytes32",
          "name": "_TxId",
          "type": "bytes32"
        }
      ],
      "name": "payTxToMerkleContract",
      "outputs": [
        {
          "internalType": "bool",
          "name": "",
          "type": "bool"
        }
      ],
      "stateMutability": "payable",
      "type": "function"
    },
    {
      "inputs": [
        {
          "internalType": "bytes32",
          "name": "",
          "type": "bytes32"
        },
        {
          "internalType": "uint256",
          "name": "",
          "type": "uint256"
        }
      ],
      "name": "pendingApprovers",
      "outputs": [
        {
          "internalType": "address",
          "name": "pKey",
          "type": "address"
        },
        {
          "internalType": "uint256",
          "name": "weight",
          "type": "uint256"
        }
      ],
      "stateMutability": "view",
      "type": "function"
    },
    {
      "inputs": [],
      "name": "pendingApproversHash",
      "outputs": [
        {
          "internalType": "bytes32",
          "name": "",
          "type": "bytes32"
        }
      ],
      "stateMutability": "view",
      "type": "function"
    },
    {
      "inputs": [
        {
          "internalType": "address[]",
          "name": "_approvers",
          "type": "address[]"
        },
        {
          "internalType": "uint256[]",
          "name": "_weights",
          "type": "uint256[]"
        }
      ],
      "name": "requireNewApprovers",
      "outputs": [],
      "stateMutability": "nonpayable",
      "type": "function"
    },
    {
      "inputs": [],
      "name": "splitMerkleValueService",
      "outputs": [],
      "stateMutability": "payable",
      "type": "function"
    },
    {
      "inputs": [
        {
          "internalType": "uint256",
          "name": "_alienBlock",
          "type": "uint256"
        },
        {
          "internalType": "bytes32[]",
          "name": "_transactions",
          "type": "bytes32[]"
        },
        {
          "internalType": "address",
          "name": "_drexListrack",
          "type": "address"
        }
      ],
      "name": "validateAllTxForSettlementForOneAlienBlock",
      "outputs": [],
      "stateMutability": "nonpayable",
      "type": "function"
    },
    {
      "inputs": [
        {
          "internalType": "bytes32[]",
          "name": "_txId",
          "type": "bytes32[]"
        },
        {
          "internalType": "uint256[]",
          "name": "_txIndex",
          "type": "uint256[]"
        },
        {
          "internalType": "bytes32[][]",
          "name": "_merkleProof",
          "type": "bytes32[][]"
        },
        {
          "internalType": "uint256[]",
          "name": "_alienBlock",
          "type": "uint256[]"
        },
        {
          "internalType": "address",
          "name": "_drexListrack",
          "type": "address"
        }
      ],
      "name": "validateSomeTxForSettlement",
      "outputs": [],
      "stateMutability": "nonpayable",
      "type": "function"
    }
  ],
  "bytecode": "0x60806040523480156200001157600080fd5b5060405162003e6338038062003e638339818101604052810190620000379190620006eb565b6001600081905550815183511462000086576040517f08c379a00000000000000000000000000000000000000000000000000000000081526004016200007d906200080c565b60405180910390fd5b80600e8190555060006005819055506200009f620003b0565b60005b84518110156200026b57848181518110620000c257620000c16200082e565b5b6020026020010151826000019073ffffffffffffffffffffffffffffffffffffffff16908173ffffffffffffffffffffffffffffffffffffffff16815250508381815181106200011757620001166200082e565b5b6020026020010151826020018181525050600382908060018154018082558091505060019003906000526020600020906002020160009091909190915060008201518160000160006101000a81548173ffffffffffffffffffffffffffffffffffffffff021916908373ffffffffffffffffffffffffffffffffffffffff160217905550602082015181600101555050838181518110620001bd57620001bc6200082e565b5b602002602001015160076000878481518110620001df57620001de6200082e565b5b602002602001015173ffffffffffffffffffffffffffffffffffffffff1673ffffffffffffffffffffffffffffffffffffffff168152602001908152602001600020819055508381815181106200023b576200023a6200082e565b5b6020026020010151600560008282546200025691906200088c565b925050819055508080600101915050620000a2565b50611b58600d81905550620002a26040518060600160405280602e815260200162003e35602e9139600554620002ac60201b60201c565b50505050620009b3565b6200034e8282604051602401620002c592919062000950565b6040516020818303038152906040527fb60e72cc000000000000000000000000000000000000000000000000000000007bffffffffffffffffffffffffffffffffffffffffffffffffffffffff19166020820180517bffffffffffffffffffffffffffffffffffffffffffffffffffffffff83818316178352505050506200035260201b60201c565b5050565b6200037881620003736200037b60201b62001cb8176200039c60201b60201c565b60201c565b50565b60006a636f6e736f6c652e6c6f679050600080835160208501845afa505050565b620003e060201b62001f8517819050919050565b6040518060400160405280600073ffffffffffffffffffffffffffffffffffffffff168152602001600081525090565b620003ea62000984565b565b6000604051905090565b600080fd5b600080fd5b600080fd5b6000601f19601f8301169050919050565b7f4e487b7100000000000000000000000000000000000000000000000000000000600052604160045260246000fd5b620004508262000405565b810181811067ffffffffffffffff8211171562000472576200047162000416565b5b80604052505050565b600062000487620003ec565b905062000495828262000445565b919050565b600067ffffffffffffffff821115620004b857620004b762000416565b5b602082029050602081019050919050565b600080fd5b600073ffffffffffffffffffffffffffffffffffffffff82169050919050565b6000620004fb82620004ce565b9050919050565b6200050d81620004ee565b81146200051957600080fd5b50565b6000815190506200052d8162000502565b92915050565b60006200054a62000544846200049a565b6200047b565b9050808382526020820190506020840283018581111562000570576200056f620004c9565b5b835b818110156200059d57806200058888826200051c565b84526020840193505060208101905062000572565b5050509392505050565b600082601f830112620005bf57620005be62000400565b5b8151620005d184826020860162000533565b91505092915050565b600067ffffffffffffffff821115620005f857620005f762000416565b5b602082029050602081019050919050565b6000819050919050565b6200061e8162000609565b81146200062a57600080fd5b50565b6000815190506200063e8162000613565b92915050565b60006200065b6200065584620005da565b6200047b565b90508083825260208201905060208402830185811115620006815762000680620004c9565b5b835b81811015620006ae57806200069988826200062d565b84526020840193505060208101905062000683565b5050509392505050565b600082601f830112620006d057620006cf62000400565b5b8151620006e284826020860162000644565b91505092915050565b600080600060608486031215620007075762000706620003f6565b5b600084015167ffffffffffffffff811115620007285762000727620003fb565b5b6200073686828701620005a7565b935050602084015167ffffffffffffffff8111156200075a5762000759620003fb565b5b6200076886828701620006b8565b92505060406200077b868287016200062d565b9150509250925092565b600082825260208201905092915050565b7f4172726179206f6620617070726f76657273206973206e6f2f7420657175616c60008201527f20746f2077656967687473000000000000000000000000000000000000000000602082015250565b6000620007f4602b8362000785565b9150620008018262000796565b604082019050919050565b600060208201905081810360008301526200082781620007e5565b9050919050565b7f4e487b7100000000000000000000000000000000000000000000000000000000600052603260045260246000fd5b7f4e487b7100000000000000000000000000000000000000000000000000000000600052601160045260246000fd5b6000620008998262000609565b9150620008a68362000609565b9250828201905080821115620008c157620008c06200085d565b5b92915050565b600081519050919050565b60005b83811015620008f2578082015181840152602081019050620008d5565b60008484015250505050565b60006200090b82620008c7565b62000917818562000785565b935062000929818560208601620008d2565b620009348162000405565b840191505092915050565b6200094a8162000609565b82525050565b600060408201905081810360008301526200096c8185620008fe565b90506200097d60208301846200093f565b9392505050565b7f4e487b7100000000000000000000000000000000000000000000000000000000600052605160045260246000fd5b61347280620009c36000396000f3fe6080604052600436106100dd5760003560e01c806369c07e491161007f578063759a62d511610059578063759a62d5146102905780639effc43e146102ce578063b54549941461030b578063c462c7c214610349576100dd565b806369c07e4914610234578063700e938c1461023e57806370a934f214610267576100dd565b80633d3b5326116100bb5780633d3b53261461018e5780633e7fd1be146101b75780634b767cc6146101e05780635024011c1461020b576100dd565b806321937a5b146100e257806327040565146101125780632f73c95214610150575b600080fd5b6100fc60048036038101906100f79190612182565b610386565b60405161010991906121ca565b60405180910390f35b34801561011e57600080fd5b506101396004803603810190610134919061221b565b6104d4565b604051610147929190612306565b60405180910390f35b34801561015c57600080fd5b506101776004803603810190610172919061221b565b61055a565b604051610185929190612386565b60405180910390f35b34801561019a57600080fd5b506101b560048036038101906101b091906123af565b6105ae565b005b3480156101c357600080fd5b506101de60048036038101906101d99190612637565b610982565b005b3480156101ec57600080fd5b506101f5610d89565b60405161020291906126be565b60405180910390f35b34801561021757600080fd5b50610232600480360381019061022d919061279c565b610d8f565b005b61023c610fb9565b005b34801561024a57600080fd5b50610265600480360381019061026091906128ec565b6111ec565b005b34801561027357600080fd5b5061028e60048036038101906102899190612182565b6114c5565b005b34801561029c57600080fd5b506102b760048036038101906102b2919061221b565b6118ee565b6040516102c5929190612a12565b60405180910390f35b3480156102da57600080fd5b506102f560048036038101906102f09190612a3b565b61193f565b6040516103029190612a68565b60405180910390f35b34801561031757600080fd5b50610332600480360381019061032d91906123af565b611957565b604051610340929190612386565b60405180910390f35b34801561035557600080fd5b50610370600480360381019061036b9190612a83565b6119b8565b60405161037d91906126be565b60405180910390f35b60008060009050600e5434146103d1576040517f08c379a00000000000000000000000000000000000000000000000000000000081526004016103c890612b75565b60405180910390fd5b3073ffffffffffffffffffffffffffffffffffffffff16346040516103f590612bc6565b60006040518083038185875af1925050503d8060008114610432576040519150601f19603f3d011682016040523d82523d6000602084013e610437565b606091505b50508091505080156104cb57600f83908060018154018082558091505060019003906000526020600020016000909190919091505560016010600085815260200190815260200160002060000160006101000a81548160ff02191690831515021790555060006010600085815260200190815260200160002060000160016101000a81548160ff0219169083151502179055505b80915050919050565b600060606000806002600086815260200190815260200160002080548060200260200160405190810160405280929190818152602001828054801561053857602002820191906000526020600020905b815481526020019060010190808311610524575b50505050509050600081511461054d57600191505b8181935093505050915091565b6003818154811061056a57600080fd5b90600052602060002090600202016000915090508060000160009054906101000a900473ffffffffffffffffffffffffffffffffffffffff16908060010154905082565b6000805b60038054905081101561067c573373ffffffffffffffffffffffffffffffffffffffff16600382815481106105ea576105e9612bdb565b5b906000526020600020906002020160000160009054906101000a900473ffffffffffffffffffffffffffffffffffffffff1673ffffffffffffffffffffffffffffffffffffffff1614801561066557506000600382815481106106505761064f612bdb565b5b90600052602060002090600202016001015414155b1561066f57600191505b80806001019150506105b2565b50806106bd576040517f08c379a00000000000000000000000000000000000000000000000000000000081526004016106b490612c7c565b60405180910390fd5b6106c5611cd9565b600b6000838152602001908152602001600020600084815260200190815260200160002060003373ffffffffffffffffffffffffffffffffffffffff1673ffffffffffffffffffffffffffffffffffffffff16815260200190815260200160002060009054906101000a900460ff1615610774576040517f08c379a000000000000000000000000000000000000000000000000000000000815260040161076b90612ce8565b60405180910390fd5b6000801b6001600084815260200190815260200160002054146107cc576040517f08c379a00000000000000000000000000000000000000000000000000000000081526004016107c390612d7a565b60405180910390fd5b6001600b6000848152602001908152602001600020600085815260200190815260200160002060003373ffffffffffffffffffffffffffffffffffffffff1673ffffffffffffffffffffffffffffffffffffffff16815260200190815260200160002060006101000a81548160ff021916908315150217905550600760003373ffffffffffffffffffffffffffffffffffffffff1673ffffffffffffffffffffffffffffffffffffffff1681526020019081526020016000205460096000848152602001908152602001600020600085815260200190815260200160002060008282546108b99190612dc9565b9250508190555060006005546127106108d29190612e2c565b9050600d5481600960008681526020019081526020016000206000878152602001908152602001600020546109079190612e5d565b106109745783600160008581526020019081526020016000208190555061094560405180606001604052806022815260200161341b60229139611d1f565b83837f9e2d7ebd70e3de58cfdd0e4c192ffa0c4822eea2fd8f38a94b54999b895c23bb60405160405180910390a35b5061097d611db8565b505050565b6000805b600380549050811015610a50573373ffffffffffffffffffffffffffffffffffffffff16600382815481106109be576109bd612bdb565b5b906000526020600020906002020160000160009054906101000a900473ffffffffffffffffffffffffffffffffffffffff1673ffffffffffffffffffffffffffffffffffffffff16148015610a395750600060038281548110610a2457610a23612bdb565b5b90600052602060002090600202016001015414155b15610a4357600191505b8080600101915050610986565b5080610a91576040517f08c379a0000000000000000000000000000000000000000000000000000000008152600401610a8890612c7c565b60405180910390fd5b60008351905082518114610ada576040517f08c379a0000000000000000000000000000000000000000000000000000000008152600401610ad190612f11565b60405180910390fd5b60008167ffffffffffffffff811115610af657610af5612405565b5b604051908082528060200260200182016040528015610b2f57816020015b610b1c611f8f565b815260200190600190039081610b145790505b50905060008060001b905060005b8651811015610c5e57868181518110610b5957610b58612bdb565b5b6020026020010151838281518110610b7457610b73612bdb565b5b60200260200101516000019073ffffffffffffffffffffffffffffffffffffffff16908173ffffffffffffffffffffffffffffffffffffffff1681525050858181518110610bc557610bc4612bdb565b5b6020026020010151838281518110610be057610bdf612bdb565b5b6020026020010151602001818152505081878281518110610c0457610c03612bdb565b5b6020026020010151878381518110610c1f57610c1e612bdb565b5b6020026020010151604051602001610c3993929190612fbb565b6040516020818303038152906040528051906020012091508080600101915050610b3d565b508085604051610c6e91906130b0565b604051809103902087604051610c84919061317f565b60405180910390207f87f9ce82e3a1f360fa4a4b56f2ae41b1ce453c6ddd65064c60e12f0b61b2aacf60405160405180910390a460005b83811015610d80576000838281518110610cd857610cd7612bdb565b5b602002602001015190506004600084815260200190815260200160002081908060018154018082558091505060019003906000526020600020906002020160009091909190915060008201518160000160006101000a81548173ffffffffffffffffffffffffffffffffffffffff021916908373ffffffffffffffffffffffffffffffffffffffff160217905550602082015181600101555050508080600101915050610cbb565b50505050505050565b60085481565b6000805b600380549050811015610e5d573373ffffffffffffffffffffffffffffffffffffffff1660038281548110610dcb57610dca612bdb565b5b906000526020600020906002020160000160009054906101000a900473ffffffffffffffffffffffffffffffffffffffff1673ffffffffffffffffffffffffffffffffffffffff16148015610e465750600060038281548110610e3157610e30612bdb565b5b90600052602060002090600202016001015414155b15610e5057600191505b8080600101915050610d93565b5080610e9e576040517f08c379a0000000000000000000000000000000000000000000000000000000008152600401610e9590612c7c565b60405180910390fd5b6000600260008681526020019081526020016000208054905014610ef7576040517f08c379a0000000000000000000000000000000000000000000000000000000008152600401610eee90613208565b60405180910390fd5b6000610f02846119b8565b905060016000868152602001908152602001600020548103610fb25783600260008781526020019081526020016000209080519060200190610f45929190611fbf565b508273ffffffffffffffffffffffffffffffffffffffff16636d8e9f7a856040518263ffffffff1660e01b8152600401610f7f9190613228565b600060405180830381600087803b158015610f9957600080fd5b505af1158015610fad573d6000803e3d6000fd5b505050505b5050505050565b6000805b600380549050811015611087573373ffffffffffffffffffffffffffffffffffffffff1660038281548110610ff557610ff4612bdb565b5b906000526020600020906002020160000160009054906101000a900473ffffffffffffffffffffffffffffffffffffffff1673ffffffffffffffffffffffffffffffffffffffff16148015611070575060006003828154811061105b5761105a612bdb565b5b90600052602060002090600202016001015414155b1561107a57600191505b8080600101915050610fbd565b50806110c8576040517f08c379a00000000000000000000000000000000000000000000000000000000081526004016110bf90612c7c565b60405180910390fd5b6000600554476110d89190612e2c565b905060008080600090505b6003805490508110156111e5576003818154811061110457611103612bdb565b5b906000526020600020906002020160010154846111219190612e5d565b92506003818154811061113757611136612bdb565b5b906000526020600020906002020160000160009054906101000a900473ffffffffffffffffffffffffffffffffffffffff1673ffffffffffffffffffffffffffffffffffffffff168360405161118c90612bc6565b60006040518083038185875af1925050503d80600081146111c9576040519150601f19603f3d011682016040523d82523d6000602084013e6111ce565b606091505b5050809250506000925080806001019150506110e3565b5050505050565b6000805b6003805490508110156112ba573373ffffffffffffffffffffffffffffffffffffffff166003828154811061122857611227612bdb565b5b906000526020600020906002020160000160009054906101000a900473ffffffffffffffffffffffffffffffffffffffff1673ffffffffffffffffffffffffffffffffffffffff161480156112a3575060006003828154811061128e5761128d612bdb565b5b90600052602060002090600202016001015414155b156112ad57600191505b80806001019150506111f0565b50806112fb576040517f08c379a00000000000000000000000000000000000000000000000000000000081526004016112f290612c7c565b60405180910390fd5b60008080600090505b88518110156114465760009150601060008a838151811061132857611327612bdb565b5b6020026020010151815260200190815260200160002060000160019054906101000a900460ff161561135d5760019150611424565b6113d189828151811061137357611372612bdb565b5b602002602001015189838151811061138e5761138d612bdb565b5b60200260200101518984815181106113a9576113a8612bdb565b5b60200260200101518985815181106113c4576113c3612bdb565b5b6020026020010151611dc2565b91508115611423576001601060008b84815181106113f2576113f1612bdb565b5b6020026020010151815260200190815260200160002060000160016101000a81548160ff0219169083151502179055505b5b81156114395782806114359061324a565b9350505b8080600101915050611304565b50875182036114bb578373ffffffffffffffffffffffffffffffffffffffff16636d8e9f7a896040518263ffffffff1660e01b81526004016114889190613228565b600060405180830381600087803b1580156114a257600080fd5b505af11580156114b6573d6000803e3d6000fd5b505050505b5050505050505050565b6000805b600380549050811015611593573373ffffffffffffffffffffffffffffffffffffffff166003828154811061150157611500612bdb565b5b906000526020600020906002020160000160009054906101000a900473ffffffffffffffffffffffffffffffffffffffff1673ffffffffffffffffffffffffffffffffffffffff1614801561157c575060006003828154811061156757611566612bdb565b5b90600052602060002090600202016001015414155b1561158657600191505b80806001019150506114c9565b50806115d4576040517f08c379a00000000000000000000000000000000000000000000000000000000081526004016115cb90612c7c565b60405180910390fd5b6115dc611cd9565b600c600083815260200190815260200160002060003373ffffffffffffffffffffffffffffffffffffffff1673ffffffffffffffffffffffffffffffffffffffff16815260200190815260200160002060009054906101000a900460ff161561167a576040517f08c379a000000000000000000000000000000000000000000000000000000000815260040161167190612ce8565b60405180910390fd5b6001600c600084815260200190815260200160002060003373ffffffffffffffffffffffffffffffffffffffff1673ffffffffffffffffffffffffffffffffffffffff16815260200190815260200160002060006101000a81548160ff021916908315150217905550600760003373ffffffffffffffffffffffffffffffffffffffff1673ffffffffffffffffffffffffffffffffffffffff16815260200190815260200160002054600a600084815260200190815260200160002060008282546117459190612dc9565b92505081905550600060055461271061175e9190612e2c565b9050600d5481600a6000868152602001908152602001600020546117829190612e5d565b106118e1576004600084815260200190815260200160002060039080546117aa92919061200c565b506000805b6003805490508110156118aa57600381815481106117d0576117cf612bdb565b5b90600052602060002090600202016001015460076000600384815481106117fa576117f9612bdb565b5b906000526020600020906002020160000160009054906101000a900473ffffffffffffffffffffffffffffffffffffffff1673ffffffffffffffffffffffffffffffffffffffff1673ffffffffffffffffffffffffffffffffffffffff168152602001908152602001600020819055506003818154811061187e5761187d612bdb565b5b9060005260206000209060020201600101548261189b9190612dc9565b915080806001019150506117af565b5080600581905550837fb6a5501d7808a7482fe3eb47da960be4323b04246b7f5045e66b02df40ddd6a060405160405180910390a2505b506118ea611db8565b5050565b60008060008060e01b90506000631626ba7e60e01b905060008060001b9050600160008781526020019081526020016000205490506000801b8114611931578192505b828194509450505050915091565b60076020528060005260406000206000915090505481565b6004602052816000526040600020818154811061197357600080fd5b9060005260206000209060020201600091509150508060000160009054906101000a900473ffffffffffffffffffffffffffffffffffffffff16908060010154905082565b6000808251905060008167ffffffffffffffff8111156119db576119da612405565b5b604051908082528060200260200182016040528015611a095781602001602082028036833780820191505090505b5090508390506000815111611a53576040517f08c379a0000000000000000000000000000000000000000000000000000000008152600401611a4a906132de565b60405180910390fd5b5b600181511115611c3157600060028251611a6e91906132fe565b60028351611a7c9190612e2c565b611a869190612dc9565b67ffffffffffffffff811115611a9f57611a9e612405565b5b604051908082528060200260200182016040528015611acd5781602001602082028036833780820191505090505b50905060005b8251811015611c27578251600182611aeb9190612dc9565b1015611b8a57828181518110611b0457611b03612bdb565b5b602002602001015183600183611b1a9190612dc9565b81518110611b2b57611b2a612bdb565b5b6020026020010151604051602001611b4492919061332f565b6040516020818303038152906040528051906020012082600283611b689190612e2c565b81518110611b7957611b78612bdb565b5b602002602001018181525050611c13565b828181518110611b9d57611b9c612bdb565b5b6020026020010151838281518110611bb857611bb7612bdb565b5b6020026020010151604051602001611bd192919061332f565b6040516020818303038152906040528051906020012082600283611bf59190612e2c565b81518110611c0657611c05612bdb565b5b6020026020010181815250505b600281611c209190612dc9565b9050611ad3565b5080915050611a54565b611c6f6040518060400160405280600b81526020017f4d65726b6c6520526f6f74000000000000000000000000000000000000000000815250611d1f565b611c9381600081518110611c8657611c85612bdb565b5b6020026020010151611ec7565b80600081518110611ca757611ca6612bdb565b5b602002602001015192505050919050565b60006a636f6e736f6c652e6c6f679050600080835160208501845afa505050565b600260005403611d15576040517f3ee5aeb500000000000000000000000000000000000000000000000000000000815260040160405180910390fd5b6002600081905550565b611db581604051602401611d3391906133c9565b6040516020818303038152906040527f41304fac000000000000000000000000000000000000000000000000000000007bffffffffffffffffffffffffffffffffffffffffffffffffffffffff19166020820180517bffffffffffffffffffffffffffffffffffffffffffffffffffffffff8381831617835250505050611f60565b50565b6001600081905550565b60008060009050600086905060005b8551811015611e9a576000600288611de991906132fe565b03611e385781868281518110611e0257611e01612bdb565b5b6020026020010151604051602001611e1b92919061332f565b604051602081830303815290604052805190602001209150611e7e565b858181518110611e4b57611e4a612bdb565b5b602002602001015182604051602001611e6592919061332f565b6040516020818303038152906040528051906020012091505b600287611e8b9190612e2c565b96508080600101915050611dd1565b5080600160008681526020019081526020016000205403611eba57600191505b8192505050949350505050565b611f5d81604051602401611edb91906126be565b6040516020818303038152906040527f27b7cf85000000000000000000000000000000000000000000000000000000007bffffffffffffffffffffffffffffffffffffffffffffffffffffffff19166020820180517bffffffffffffffffffffffffffffffffffffffffffffffffffffffff8381831617835250505050611f60565b50565b611f7781611f6f611cb8611f7a565b63ffffffff16565b50565b611f85819050919050565b611f8d6133eb565b565b6040518060400160405280600073ffffffffffffffffffffffffffffffffffffffff168152602001600081525090565b828054828255906000526020600020908101928215611ffb579160200282015b82811115611ffa578251825591602001919060010190611fdf565b5b50905061200891906120d5565b5090565b8280548282559060005260206000209060020281019282156120c45760005260206000209160020282015b828111156120c35782826000820160009054906101000a900473ffffffffffffffffffffffffffffffffffffffff168160000160006101000a81548173ffffffffffffffffffffffffffffffffffffffff021916908373ffffffffffffffffffffffffffffffffffffffff16021790555060018201548160010155505091600201919060020190612037565b5b5090506120d191906120f2565b5090565b5b808211156120ee5760008160009055506001016120d6565b5090565b5b8082111561213457600080820160006101000a81549073ffffffffffffffffffffffffffffffffffffffff02191690556001820160009055506002016120f3565b5090565b6000604051905090565b600080fd5b600080fd5b6000819050919050565b61215f8161214c565b811461216a57600080fd5b50565b60008135905061217c81612156565b92915050565b60006020828403121561219857612197612142565b5b60006121a68482850161216d565b91505092915050565b60008115159050919050565b6121c4816121af565b82525050565b60006020820190506121df60008301846121bb565b92915050565b6000819050919050565b6121f8816121e5565b811461220357600080fd5b50565b600081359050612215816121ef565b92915050565b60006020828403121561223157612230612142565b5b600061223f84828501612206565b91505092915050565b600081519050919050565b600082825260208201905092915050565b6000819050602082019050919050565b61227d8161214c565b82525050565b600061228f8383612274565b60208301905092915050565b6000602082019050919050565b60006122b382612248565b6122bd8185612253565b93506122c883612264565b8060005b838110156122f95781516122e08882612283565b97506122eb8361229b565b9250506001810190506122cc565b5085935050505092915050565b600060408201905061231b60008301856121bb565b818103602083015261232d81846122a8565b90509392505050565b600073ffffffffffffffffffffffffffffffffffffffff82169050919050565b600061236182612336565b9050919050565b61237181612356565b82525050565b612380816121e5565b82525050565b600060408201905061239b6000830185612368565b6123a86020830184612377565b9392505050565b600080604083850312156123c6576123c5612142565b5b60006123d48582860161216d565b92505060206123e585828601612206565b9150509250929050565b600080fd5b6000601f19601f8301169050919050565b7f4e487b7100000000000000000000000000000000000000000000000000000000600052604160045260246000fd5b61243d826123f4565b810181811067ffffffffffffffff8211171561245c5761245b612405565b5b80604052505050565b600061246f612138565b905061247b8282612434565b919050565b600067ffffffffffffffff82111561249b5761249a612405565b5b602082029050602081019050919050565b600080fd5b6124ba81612356565b81146124c557600080fd5b50565b6000813590506124d7816124b1565b92915050565b60006124f06124eb84612480565b612465565b90508083825260208201905060208402830185811115612513576125126124ac565b5b835b8181101561253c578061252888826124c8565b845260208401935050602081019050612515565b5050509392505050565b600082601f83011261255b5761255a6123ef565b5b813561256b8482602086016124dd565b91505092915050565b600067ffffffffffffffff82111561258f5761258e612405565b5b602082029050602081019050919050565b60006125b36125ae84612574565b612465565b905080838252602082019050602084028301858111156125d6576125d56124ac565b5b835b818110156125ff57806125eb8882612206565b8452602084019350506020810190506125d8565b5050509392505050565b600082601f83011261261e5761261d6123ef565b5b813561262e8482602086016125a0565b91505092915050565b6000806040838503121561264e5761264d612142565b5b600083013567ffffffffffffffff81111561266c5761266b612147565b5b61267885828601612546565b925050602083013567ffffffffffffffff81111561269957612698612147565b5b6126a585828601612609565b9150509250929050565b6126b88161214c565b82525050565b60006020820190506126d360008301846126af565b92915050565b600067ffffffffffffffff8211156126f4576126f3612405565b5b602082029050602081019050919050565b6000612718612713846126d9565b612465565b9050808382526020820190506020840283018581111561273b5761273a6124ac565b5b835b818110156127645780612750888261216d565b84526020840193505060208101905061273d565b5050509392505050565b600082601f830112612783576127826123ef565b5b8135612793848260208601612705565b91505092915050565b6000806000606084860312156127b5576127b4612142565b5b60006127c386828701612206565b935050602084013567ffffffffffffffff8111156127e4576127e3612147565b5b6127f08682870161276e565b9250506040612801868287016124c8565b9150509250925092565b600067ffffffffffffffff82111561282657612825612405565b5b602082029050602081019050919050565b600061284a6128458461280b565b612465565b9050808382526020820190506020840283018581111561286d5761286c6124ac565b5b835b818110156128b457803567ffffffffffffffff811115612892576128916123ef565b5b80860161289f898261276e565b8552602085019450505060208101905061286f565b5050509392505050565b600082601f8301126128d3576128d26123ef565b5b81356128e3848260208601612837565b91505092915050565b600080600080600060a0868803121561290857612907612142565b5b600086013567ffffffffffffffff81111561292657612925612147565b5b6129328882890161276e565b955050602086013567ffffffffffffffff81111561295357612952612147565b5b61295f88828901612609565b945050604086013567ffffffffffffffff8111156129805761297f612147565b5b61298c888289016128be565b935050606086013567ffffffffffffffff8111156129ad576129ac612147565b5b6129b988828901612609565b92505060806129ca888289016124c8565b9150509295509295909350565b60007fffffffff0000000000000000000000000000000000000000000000000000000082169050919050565b612a0c816129d7565b82525050565b6000604082019050612a276000830185612a03565b612a3460208301846126af565b9392505050565b600060208284031215612a5157612a50612142565b5b6000612a5f848285016124c8565b91505092915050565b6000602082019050612a7d6000830184612377565b92915050565b600060208284031215612a9957612a98612142565b5b600082013567ffffffffffffffff811115612ab757612ab6612147565b5b612ac38482850161276e565b91505092915050565b600082825260208201905092915050565b7f56616c7565206973206e6f74207468652065786163742076616c756520666f7260008201527f20746865205365727669636520746f20636f6e6669726d205478206279204d6560208201527f726b6c6520436f6e747261637400000000000000000000000000000000000000604082015250565b6000612b5f604d83612acc565b9150612b6a82612add565b606082019050919050565b60006020820190508181036000830152612b8e81612b52565b9050919050565b600081905092915050565b50565b6000612bb0600083612b95565b9150612bbb82612ba0565b600082019050919050565b6000612bd182612ba3565b9150819050919050565b7f4e487b7100000000000000000000000000000000000000000000000000000000600052603260045260246000fd5b7f556e617574686f72697a65643a204f6e6c79206f776e65722063616e2070657260008201527f666f726d207468697320616374696f6e00000000000000000000000000000000602082015250565b6000612c66603083612acc565b9150612c7182612c0a565b604082019050919050565b60006020820190508181036000830152612c9581612c59565b9050919050565b7f417070726f76657220616c726561647920766f74656400000000000000000000600082015250565b6000612cd2601683612acc565b9150612cdd82612c9c565b602082019050919050565b60006020820190508181036000830152612d0181612cc5565b9050919050565b7f4d65726b6c65204861736820666f72207468697320626c6f636b20697320616c60008201527f7265616479207772697474656e00000000000000000000000000000000000000602082015250565b6000612d64602d83612acc565b9150612d6f82612d08565b604082019050919050565b60006020820190508181036000830152612d9381612d57565b9050919050565b7f4e487b7100000000000000000000000000000000000000000000000000000000600052601160045260246000fd5b6000612dd4826121e5565b9150612ddf836121e5565b9250828201905080821115612df757612df6612d9a565b5b92915050565b7f4e487b7100000000000000000000000000000000000000000000000000000000600052601260045260246000fd5b6000612e37826121e5565b9150612e42836121e5565b925082612e5257612e51612dfd565b5b828204905092915050565b6000612e68826121e5565b9150612e73836121e5565b9250828202612e81816121e5565b91508282048414831517612e9857612e97612d9a565b5b5092915050565b7f4164647265737320616e642057656967687420617265206e6f7420746865207360008201527f616d652073697a65000000000000000000000000000000000000000000000000602082015250565b6000612efb602883612acc565b9150612f0682612e9f565b604082019050919050565b60006020820190508181036000830152612f2a81612eee565b9050919050565b6000819050919050565b612f4c612f478261214c565b612f31565b82525050565b60008160601b9050919050565b6000612f6a82612f52565b9050919050565b6000612f7c82612f5f565b9050919050565b612f94612f8f82612356565b612f71565b82525050565b6000819050919050565b612fb5612fb0826121e5565b612f9a565b82525050565b6000612fc78286612f3b565b602082019150612fd78285612f83565b601482019150612fe78284612fa4565b602082019150819050949350505050565b600081519050919050565b600081905092915050565b6000819050602082019050919050565b613027816121e5565b82525050565b6000613039838361301e565b60208301905092915050565b6000602082019050919050565b600061305d82612ff8565b6130678185613003565b93506130728361300e565b8060005b838110156130a357815161308a888261302d565b975061309583613045565b925050600181019050613076565b5085935050505092915050565b60006130bc8284613052565b915081905092915050565b600081519050919050565b600081905092915050565b6000819050602082019050919050565b6130f681612356565b82525050565b600061310883836130ed565b60208301905092915050565b6000602082019050919050565b600061312c826130c7565b61313681856130d2565b9350613141836130dd565b8060005b8381101561317257815161315988826130fc565b975061316483613114565b925050600181019050613145565b5085935050505092915050565b600061318b8284613121565b915081905092915050565b7f5472616e73616374696f6e7320616c72656164792076616c696461746564206660008201527f6f72207468697320616c69656e20626c6f636b00000000000000000000000000602082015250565b60006131f2603383612acc565b91506131fd82613196565b604082019050919050565b60006020820190508181036000830152613221816131e5565b9050919050565b6000602082019050818103600083015261324281846122a8565b905092915050565b6000613255826121e5565b91507fffffffffffffffffffffffffffffffffffffffffffffffffffffffffffffffff820361328757613286612d9a565b5b600182019050919050565b7f4e6f206461746120746f20637265617465204d65726b6c652074726565000000600082015250565b60006132c8601d83612acc565b91506132d382613292565b602082019050919050565b600060208201905081810360008301526132f7816132bb565b9050919050565b6000613309826121e5565b9150613314836121e5565b92508261332457613323612dfd565b5b828206905092915050565b600061333b8285612f3b565b60208201915061334b8284612f3b565b6020820191508190509392505050565b600081519050919050565b60005b83811015613384578082015181840152602081019050613369565b60008484015250505050565b600061339b8261335b565b6133a58185612acc565b93506133b5818560208601613366565b6133be816123f4565b840191505092915050565b600060208201905081810360008301526133e38184613390565b905092915050565b7f4e487b7100000000000000000000000000000000000000000000000000000000600052605160045260246000fdfe436f6e73656e73757320616368696576656420666f72204d65726b6c6520526f6f74a2646970667358221220696a2a32ed402cd4893491e9af7ec948afe09984966051c7c0aec12799ef4b6364736f6c63430008180033404040204d65726b6c6520436f6e7472616374204465706c6f796564202d2043757272656e742057656967687420",
  "linkReferences": {},
  "deployedLinkReferences": {}
}