{
  "_format": "hh-sol-artifact-1",
  "contractName": "MerkleContract",
  "sourceName": "contracts/DrexMerkle.sol",
  "abi": [
    {
      "inputs": [
        {
          "internalType": "address[]",
          "name": "_approvers",
          "type": "address[]"
        },
        {
          "internalType": "uint256[]",
          "name": "_weights",
          "type": "uint256[]"
        },
        {
          "internalType": "uint256",
          "name": "_valueServiceProvided",
          "type": "uint256"
        }
      ],
      "stateMutability": "nonpayable",
      "type": "constructor"
    },
    {
      "inputs": [],
      "name": "ReentrancyGuardReentrantCall",
      "type": "error"
    },
    {
      "anonymous": false,
      "inputs": [
        {
          "indexed": true,
          "internalType": "uint256",
          "name": "blockNumber",
          "type": "uint256"
        },
        {
          "indexed": true,
          "internalType": "bytes32",
          "name": "alienRootHash",
          "type": "bytes32"
        }
      ],
      "name": "AlienMerkleConsensus",
      "type": "event"
    },
    {
      "anonymous": false,
      "inputs": [
        {
          "indexed": true,
          "internalType": "bytes32",
          "name": "hash",
          "type": "bytes32"
        }
      ],
      "name": "NewApprovers",
      "type": "event"
    },
    {
      "anonymous": false,
      "inputs": [
        {
          "indexed": true,
          "internalType": "address[]",
          "name": "approvers",
          "type": "address[]"
        },
        {
          "indexed": true,
          "internalType": "uint256[]",
          "name": "weights",
          "type": "uint256[]"
        },
        {
          "indexed": true,
          "internalType": "bytes32",
          "name": "hash",
          "type": "bytes32"
        }
      ],
      "name": "PendingNewApprovers",
      "type": "event"
    },
    {
      "inputs": [
        {
          "internalType": "bytes32",
          "name": "_hash",
          "type": "bytes32"
        }
      ],
      "name": "agreeNewApprovers",
      "outputs": [],
      "stateMutability": "nonpayable",
      "type": "function"
    },
    {
      "inputs": [
        {
          "internalType": "address",
          "name": "",
          "type": "address"
        }
      ],
      "name": "approversWeightMap",
      "outputs": [
        {
          "internalType": "uint256",
          "name": "",
          "type": "uint256"
        }
      ],
      "stateMutability": "view",
      "type": "function"
    },
    {
      "inputs": [
        {
          "internalType": "uint256",
          "name": "",
          "type": "uint256"
        }
      ],
      "name": "currentApprovers",
      "outputs": [
        {
          "internalType": "address",
          "name": "pKey",
          "type": "address"
        },
        {
          "internalType": "uint256",
          "name": "weight",
          "type": "uint256"
        }
      ],
      "stateMutability": "view",
      "type": "function"
    },
    {
      "inputs": [
        {
          "internalType": "bytes32[]",
          "name": "_transactions",
          "type": "bytes32[]"
        }
      ],
      "name": "genMerkleTree",
      "outputs": [
        {
          "internalType": "bytes32",
          "name": "",
          "type": "bytes32"
        }
      ],
      "stateMutability": "pure",
      "type": "function"
    },
    {
      "inputs": [
        {
          "internalType": "uint256",
          "name": "_blockNumber",
          "type": "uint256"
        }
      ],
      "name": "getRootByBlock",
      "outputs": [
        {
          "internalType": "bytes4",
          "name": "",
          "type": "bytes4"
        },
        {
          "internalType": "bytes32",
          "name": "",
          "type": "bytes32"
        }
      ],
      "stateMutability": "view",
      "type": "function"
    },
    {
      "inputs": [
        {
          "internalType": "uint256",
          "name": "_alienBlock",
          "type": "uint256"
        }
      ],
      "name": "getVerifiedTxbyBlock",
      "outputs": [
        {
          "internalType": "bool",
          "name": "",
          "type": "bool"
        },
        {
          "internalType": "bytes32[]",
          "name": "",
          "type": "bytes32[]"
        }
      ],
      "stateMutability": "view",
      "type": "function"
    },
    {
      "inputs": [
        {
          "internalType": "bytes32",
          "name": "_pendingMerkle",
          "type": "bytes32"
        },
        {
          "internalType": "uint256",
          "name": "_alienBlock",
          "type": "uint256"
        }
      ],
      "name": "insertMerkleForApproval",
      "outputs": [],
      "stateMutability": "nonpayable",
      "type": "function"
    },
    {
      "inputs": [
        {
          "internalType": "bytes32",
          "name": "_TxId",
          "type": "bytes32"
        }
      ],
      "name": "payTxToMerkleContract",
      "outputs": [
        {
          "internalType": "bool",
          "name": "",
          "type": "bool"
        }
      ],
      "stateMutability": "payable",
      "type": "function"
    },
    {
      "inputs": [
        {
          "internalType": "bytes32",
          "name": "",
          "type": "bytes32"
        },
        {
          "internalType": "uint256",
          "name": "",
          "type": "uint256"
        }
      ],
      "name": "pendingApprovers",
      "outputs": [
        {
          "internalType": "address",
          "name": "pKey",
          "type": "address"
        },
        {
          "internalType": "uint256",
          "name": "weight",
          "type": "uint256"
        }
      ],
      "stateMutability": "view",
      "type": "function"
    },
    {
      "inputs": [],
      "name": "pendingApproversHash",
      "outputs": [
        {
          "internalType": "bytes32",
          "name": "",
          "type": "bytes32"
        }
      ],
      "stateMutability": "view",
      "type": "function"
    },
    {
      "inputs": [
        {
          "internalType": "address[]",
          "name": "_approvers",
          "type": "address[]"
        },
        {
          "internalType": "uint256[]",
          "name": "_weights",
          "type": "uint256[]"
        }
      ],
      "name": "requireNewApprovers",
      "outputs": [],
      "stateMutability": "nonpayable",
      "type": "function"
    },
    {
      "inputs": [
        {
          "internalType": "address",
          "name": "_drexListrack",
          "type": "address"
        }
      ],
      "name": "revertTxs",
      "outputs": [],
      "stateMutability": "nonpayable",
      "type": "function"
    },
    {
      "inputs": [],
      "name": "splitMerkleValueService",
      "outputs": [],
      "stateMutability": "payable",
      "type": "function"
    },
    {
      "inputs": [
        {
          "internalType": "uint256",
          "name": "_alienBlock",
          "type": "uint256"
        },
        {
          "internalType": "bytes32[]",
          "name": "_transactions",
          "type": "bytes32[]"
        },
        {
          "internalType": "address",
          "name": "_drexListrack",
          "type": "address"
        }
      ],
      "name": "validateAllTxForSettlementForOneAlienBlock",
      "outputs": [],
      "stateMutability": "nonpayable",
      "type": "function"
    },
    {
      "inputs": [
        {
          "internalType": "bytes32[]",
          "name": "_txId",
          "type": "bytes32[]"
        },
        {
          "internalType": "uint256[]",
          "name": "_txIndex",
          "type": "uint256[]"
        },
        {
          "internalType": "bytes32[][]",
          "name": "_merkleProof",
          "type": "bytes32[][]"
        },
        {
          "internalType": "uint256[]",
          "name": "_alienBlock",
          "type": "uint256[]"
        },
        {
          "internalType": "address",
          "name": "_drexListrack",
          "type": "address"
        }
      ],
      "name": "validateSomeTxForSettlement",
      "outputs": [],
      "stateMutability": "nonpayable",
      "type": "function"
    }
  ],
  "bytecode": "0x60806040523480156200001157600080fd5b5060405162003f5038038062003f508339818101604052810190620000379190620006eb565b6001600081905550815183511462000086576040517f08c379a00000000000000000000000000000000000000000000000000000000081526004016200007d906200080c565b60405180910390fd5b80600e8190555060006005819055506200009f620003b0565b60005b84518110156200026b57848181518110620000c257620000c16200082e565b5b6020026020010151826000019073ffffffffffffffffffffffffffffffffffffffff16908173ffffffffffffffffffffffffffffffffffffffff16815250508381815181106200011757620001166200082e565b5b6020026020010151826020018181525050600382908060018154018082558091505060019003906000526020600020906002020160009091909190915060008201518160000160006101000a81548173ffffffffffffffffffffffffffffffffffffffff021916908373ffffffffffffffffffffffffffffffffffffffff160217905550602082015181600101555050838181518110620001bd57620001bc6200082e565b5b602002602001015160076000878481518110620001df57620001de6200082e565b5b602002602001015173ffffffffffffffffffffffffffffffffffffffff1673ffffffffffffffffffffffffffffffffffffffff168152602001908152602001600020819055508381815181106200023b576200023a6200082e565b5b6020026020010151600560008282546200025691906200088c565b925050819055508080600101915050620000a2565b50611b58600d81905550620002a26040518060600160405280602e815260200162003f22602e9139600554620002ac60201b60201c565b50505050620009b3565b6200034e8282604051602401620002c592919062000950565b6040516020818303038152906040527fb60e72cc000000000000000000000000000000000000000000000000000000007bffffffffffffffffffffffffffffffffffffffffffffffffffffffff19166020820180517bffffffffffffffffffffffffffffffffffffffffffffffffffffffff83818316178352505050506200035260201b60201c565b5050565b6200037881620003736200037b60201b62001d8a176200039c60201b60201c565b60201c565b50565b60006a636f6e736f6c652e6c6f679050600080835160208501845afa505050565b620003e060201b6200205717819050919050565b6040518060400160405280600073ffffffffffffffffffffffffffffffffffffffff168152602001600081525090565b620003ea62000984565b565b6000604051905090565b600080fd5b600080fd5b600080fd5b6000601f19601f8301169050919050565b7f4e487b7100000000000000000000000000000000000000000000000000000000600052604160045260246000fd5b620004508262000405565b810181811067ffffffffffffffff8211171562000472576200047162000416565b5b80604052505050565b600062000487620003ec565b905062000495828262000445565b919050565b600067ffffffffffffffff821115620004b857620004b762000416565b5b602082029050602081019050919050565b600080fd5b600073ffffffffffffffffffffffffffffffffffffffff82169050919050565b6000620004fb82620004ce565b9050919050565b6200050d81620004ee565b81146200051957600080fd5b50565b6000815190506200052d8162000502565b92915050565b60006200054a62000544846200049a565b6200047b565b9050808382526020820190506020840283018581111562000570576200056f620004c9565b5b835b818110156200059d57806200058888826200051c565b84526020840193505060208101905062000572565b5050509392505050565b600082601f830112620005bf57620005be62000400565b5b8151620005d184826020860162000533565b91505092915050565b600067ffffffffffffffff821115620005f857620005f762000416565b5b602082029050602081019050919050565b6000819050919050565b6200061e8162000609565b81146200062a57600080fd5b50565b6000815190506200063e8162000613565b92915050565b60006200065b6200065584620005da565b6200047b565b90508083825260208201905060208402830185811115620006815762000680620004c9565b5b835b81811015620006ae57806200069988826200062d565b84526020840193505060208101905062000683565b5050509392505050565b600082601f830112620006d057620006cf62000400565b5b8151620006e284826020860162000644565b91505092915050565b600080600060608486031215620007075762000706620003f6565b5b600084015167ffffffffffffffff811115620007285762000727620003fb565b5b6200073686828701620005a7565b935050602084015167ffffffffffffffff8111156200075a5762000759620003fb565b5b6200076886828701620006b8565b92505060406200077b868287016200062d565b9150509250925092565b600082825260208201905092915050565b7f4172726179206f6620617070726f76657273206973206e6f2f7420657175616c60008201527f20746f2077656967687473000000000000000000000000000000000000000000602082015250565b6000620007f4602b8362000785565b9150620008018262000796565b604082019050919050565b600060208201905081810360008301526200082781620007e5565b9050919050565b7f4e487b7100000000000000000000000000000000000000000000000000000000600052603260045260246000fd5b7f4e487b7100000000000000000000000000000000000000000000000000000000600052601160045260246000fd5b6000620008998262000609565b9150620008a68362000609565b9250828201905080821115620008c157620008c06200085d565b5b92915050565b600081519050919050565b60005b83811015620008f2578082015181840152602081019050620008d5565b60008484015250505050565b60006200090b82620008c7565b62000917818562000785565b935062000929818560208601620008d2565b620009348162000405565b840191505092915050565b6200094a8162000609565b82525050565b600060408201905081810360008301526200096c8185620008fe565b90506200097d60208301846200093f565b9392505050565b7f4e487b7100000000000000000000000000000000000000000000000000000000600052605160045260246000fd5b61355f80620009c36000396000f3fe6080604052600436106100e85760003560e01c80635024011c1161008a578063759a62d511610059578063759a62d5146102c45780639effc43e14610302578063b54549941461033f578063c462c7c21461037d576100e8565b80635024011c1461023f57806369c07e4914610268578063700e938c1461027257806370a934f21461029b576100e8565b806339af437f116100c657806339af437f146101995780633d3b5326146101c25780633e7fd1be146101eb5780634b767cc614610214576100e8565b806321937a5b146100ed578063270405651461011d5780632f73c9521461015b575b600080fd5b61010760048036038101906101029190612254565b6103ba565b604051610114919061229c565b60405180910390f35b34801561012957600080fd5b50610144600480360381019061013f91906122ed565b610508565b6040516101529291906123d8565b60405180910390f35b34801561016757600080fd5b50610182600480360381019061017d91906122ed565b61058e565b604051610190929190612458565b60405180910390f35b3480156101a557600080fd5b506101c060048036038101906101bb91906124ad565b6105e2565b005b3480156101ce57600080fd5b506101e960048036038101906101e491906124da565b610660565b005b3480156101f757600080fd5b50610212600480360381019061020d9190612736565b610a34565b005b34801561022057600080fd5b50610229610e3b565b60405161023691906127bd565b60405180910390f35b34801561024b57600080fd5b506102666004803603810190610261919061289b565b610e41565b005b61027061107b565b005b34801561027e57600080fd5b50610299600480360381019061029491906129eb565b6112ae565b005b3480156102a757600080fd5b506102c260048036038101906102bd9190612254565b611597565b005b3480156102d057600080fd5b506102eb60048036038101906102e691906122ed565b6119c0565b6040516102f9929190612b11565b60405180910390f35b34801561030e57600080fd5b50610329600480360381019061032491906124ad565b611a11565b6040516103369190612b3a565b60405180910390f35b34801561034b57600080fd5b50610366600480360381019061036191906124da565b611a29565b604051610374929190612458565b60405180910390f35b34801561038957600080fd5b506103a4600480360381019061039f9190612b55565b611a8a565b6040516103b191906127bd565b60405180910390f35b60008060009050600e543414610405576040517f08c379a00000000000000000000000000000000000000000000000000000000081526004016103fc90612c47565b60405180910390fd5b3073ffffffffffffffffffffffffffffffffffffffff163460405161042990612c98565b60006040518083038185875af1925050503d8060008114610466576040519150601f19603f3d011682016040523d82523d6000602084013e61046b565b606091505b50508091505080156104ff57600f83908060018154018082558091505060019003906000526020600020016000909190919091505560016010600085815260200190815260200160002060000160006101000a81548160ff02191690831515021790555060006010600085815260200190815260200160002060000160016101000a81548160ff0219169083151502179055505b80915050919050565b600060606000806002600086815260200190815260200160002080548060200260200160405190810160405280929190818152602001828054801561056c57602002820191906000526020600020905b815481526020019060010190808311610558575b50505050509050600081511461058157600191505b8181935093505050915091565b6003818154811061059e57600080fd5b90600052602060002090600202016000915090508060000160009054906101000a900473ffffffffffffffffffffffffffffffffffffffff16908060010154905082565b6105ea611dab565b8073ffffffffffffffffffffffffffffffffffffffff1663c5bbe52d306040518263ffffffff1660e01b81526004016106239190612cad565b600060405180830381600087803b15801561063d57600080fd5b505af1158015610651573d6000803e3d6000fd5b5050505061065d611df1565b50565b6000805b60038054905081101561072e573373ffffffffffffffffffffffffffffffffffffffff166003828154811061069c5761069b612cc8565b5b906000526020600020906002020160000160009054906101000a900473ffffffffffffffffffffffffffffffffffffffff1673ffffffffffffffffffffffffffffffffffffffff16148015610717575060006003828154811061070257610701612cc8565b5b90600052602060002090600202016001015414155b1561072157600191505b8080600101915050610664565b508061076f576040517f08c379a000000000000000000000000000000000000000000000000000000000815260040161076690612d69565b60405180910390fd5b610777611dab565b600b6000838152602001908152602001600020600084815260200190815260200160002060003373ffffffffffffffffffffffffffffffffffffffff1673ffffffffffffffffffffffffffffffffffffffff16815260200190815260200160002060009054906101000a900460ff1615610826576040517f08c379a000000000000000000000000000000000000000000000000000000000815260040161081d90612dd5565b60405180910390fd5b6000801b60016000848152602001908152602001600020541461087e576040517f08c379a000000000000000000000000000000000000000000000000000000000815260040161087590612e67565b60405180910390fd5b6001600b6000848152602001908152602001600020600085815260200190815260200160002060003373ffffffffffffffffffffffffffffffffffffffff1673ffffffffffffffffffffffffffffffffffffffff16815260200190815260200160002060006101000a81548160ff021916908315150217905550600760003373ffffffffffffffffffffffffffffffffffffffff1673ffffffffffffffffffffffffffffffffffffffff16815260200190815260200160002054600960008481526020019081526020016000206000858152602001908152602001600020600082825461096b9190612eb6565b9250508190555060006005546127106109849190612f19565b9050600d5481600960008681526020019081526020016000206000878152602001908152602001600020546109b99190612f4a565b10610a26578360016000858152602001908152602001600020819055506109f760405180606001604052806022815260200161350860229139611dfb565b83837f9e2d7ebd70e3de58cfdd0e4c192ffa0c4822eea2fd8f38a94b54999b895c23bb60405160405180910390a35b50610a2f611df1565b505050565b6000805b600380549050811015610b02573373ffffffffffffffffffffffffffffffffffffffff1660038281548110610a7057610a6f612cc8565b5b906000526020600020906002020160000160009054906101000a900473ffffffffffffffffffffffffffffffffffffffff1673ffffffffffffffffffffffffffffffffffffffff16148015610aeb5750600060038281548110610ad657610ad5612cc8565b5b90600052602060002090600202016001015414155b15610af557600191505b8080600101915050610a38565b5080610b43576040517f08c379a0000000000000000000000000000000000000000000000000000000008152600401610b3a90612d69565b60405180910390fd5b60008351905082518114610b8c576040517f08c379a0000000000000000000000000000000000000000000000000000000008152600401610b8390612ffe565b60405180910390fd5b60008167ffffffffffffffff811115610ba857610ba7612530565b5b604051908082528060200260200182016040528015610be157816020015b610bce612061565b815260200190600190039081610bc65790505b50905060008060001b905060005b8651811015610d1057868181518110610c0b57610c0a612cc8565b5b6020026020010151838281518110610c2657610c25612cc8565b5b60200260200101516000019073ffffffffffffffffffffffffffffffffffffffff16908173ffffffffffffffffffffffffffffffffffffffff1681525050858181518110610c7757610c76612cc8565b5b6020026020010151838281518110610c9257610c91612cc8565b5b6020026020010151602001818152505081878281518110610cb657610cb5612cc8565b5b6020026020010151878381518110610cd157610cd0612cc8565b5b6020026020010151604051602001610ceb939291906130a8565b6040516020818303038152906040528051906020012091508080600101915050610bef565b508085604051610d20919061319d565b604051809103902087604051610d36919061326c565b60405180910390207f87f9ce82e3a1f360fa4a4b56f2ae41b1ce453c6ddd65064c60e12f0b61b2aacf60405160405180910390a460005b83811015610e32576000838281518110610d8a57610d89612cc8565b5b602002602001015190506004600084815260200190815260200160002081908060018154018082558091505060019003906000526020600020906002020160009091909190915060008201518160000160006101000a81548173ffffffffffffffffffffffffffffffffffffffff021916908373ffffffffffffffffffffffffffffffffffffffff160217905550602082015181600101555050508080600101915050610d6d565b50505050505050565b60085481565b6000805b600380549050811015610f0f573373ffffffffffffffffffffffffffffffffffffffff1660038281548110610e7d57610e7c612cc8565b5b906000526020600020906002020160000160009054906101000a900473ffffffffffffffffffffffffffffffffffffffff1673ffffffffffffffffffffffffffffffffffffffff16148015610ef85750600060038281548110610ee357610ee2612cc8565b5b90600052602060002090600202016001015414155b15610f0257600191505b8080600101915050610e45565b5080610f50576040517f08c379a0000000000000000000000000000000000000000000000000000000008152600401610f4790612d69565b60405180910390fd5b610f58611dab565b6000600260008681526020019081526020016000208054905014610fb1576040517f08c379a0000000000000000000000000000000000000000000000000000000008152600401610fa8906132f5565b60405180910390fd5b6000610fbc84611a8a565b90506001600086815260200190815260200160002054810361106c5783600260008781526020019081526020016000209080519060200190610fff929190612091565b508273ffffffffffffffffffffffffffffffffffffffff16636d8e9f7a856040518263ffffffff1660e01b81526004016110399190613315565b600060405180830381600087803b15801561105357600080fd5b505af1158015611067573d6000803e3d6000fd5b505050505b50611075611df1565b50505050565b6000805b600380549050811015611149573373ffffffffffffffffffffffffffffffffffffffff16600382815481106110b7576110b6612cc8565b5b906000526020600020906002020160000160009054906101000a900473ffffffffffffffffffffffffffffffffffffffff1673ffffffffffffffffffffffffffffffffffffffff16148015611132575060006003828154811061111d5761111c612cc8565b5b90600052602060002090600202016001015414155b1561113c57600191505b808060010191505061107f565b508061118a576040517f08c379a000000000000000000000000000000000000000000000000000000000815260040161118190612d69565b60405180910390fd5b60006005544761119a9190612f19565b905060008080600090505b6003805490508110156112a757600381815481106111c6576111c5612cc8565b5b906000526020600020906002020160010154846111e39190612f4a565b9250600381815481106111f9576111f8612cc8565b5b906000526020600020906002020160000160009054906101000a900473ffffffffffffffffffffffffffffffffffffffff1673ffffffffffffffffffffffffffffffffffffffff168360405161124e90612c98565b60006040518083038185875af1925050503d806000811461128b576040519150601f19603f3d011682016040523d82523d6000602084013e611290565b606091505b5050809250506000925080806001019150506111a5565b5050505050565b6000805b60038054905081101561137c573373ffffffffffffffffffffffffffffffffffffffff16600382815481106112ea576112e9612cc8565b5b906000526020600020906002020160000160009054906101000a900473ffffffffffffffffffffffffffffffffffffffff1673ffffffffffffffffffffffffffffffffffffffff1614801561136557506000600382815481106113505761134f612cc8565b5b90600052602060002090600202016001015414155b1561136f57600191505b80806001019150506112b2565b50806113bd576040517f08c379a00000000000000000000000000000000000000000000000000000000081526004016113b490612d69565b60405180910390fd5b6113c5611dab565b60008080600090505b88518110156115105760009150601060008a83815181106113f2576113f1612cc8565b5b6020026020010151815260200190815260200160002060000160019054906101000a900460ff161561142757600191506114ee565b61149b89828151811061143d5761143c612cc8565b5b602002602001015189838151811061145857611457612cc8565b5b602002602001015189848151811061147357611472612cc8565b5b602002602001015189858151811061148e5761148d612cc8565b5b6020026020010151611e94565b915081156114ed576001601060008b84815181106114bc576114bb612cc8565b5b6020026020010151815260200190815260200160002060000160016101000a81548160ff0219169083151502179055505b5b81156115035782806114ff90613337565b9350505b80806001019150506113ce565b5087518203611585578373ffffffffffffffffffffffffffffffffffffffff16636d8e9f7a896040518263ffffffff1660e01b81526004016115529190613315565b600060405180830381600087803b15801561156c57600080fd5b505af1158015611580573d6000803e3d6000fd5b505050505b505061158f611df1565b505050505050565b6000805b600380549050811015611665573373ffffffffffffffffffffffffffffffffffffffff16600382815481106115d3576115d2612cc8565b5b906000526020600020906002020160000160009054906101000a900473ffffffffffffffffffffffffffffffffffffffff1673ffffffffffffffffffffffffffffffffffffffff1614801561164e575060006003828154811061163957611638612cc8565b5b90600052602060002090600202016001015414155b1561165857600191505b808060010191505061159b565b50806116a6576040517f08c379a000000000000000000000000000000000000000000000000000000000815260040161169d90612d69565b60405180910390fd5b6116ae611dab565b600c600083815260200190815260200160002060003373ffffffffffffffffffffffffffffffffffffffff1673ffffffffffffffffffffffffffffffffffffffff16815260200190815260200160002060009054906101000a900460ff161561174c576040517f08c379a000000000000000000000000000000000000000000000000000000000815260040161174390612dd5565b60405180910390fd5b6001600c600084815260200190815260200160002060003373ffffffffffffffffffffffffffffffffffffffff1673ffffffffffffffffffffffffffffffffffffffff16815260200190815260200160002060006101000a81548160ff021916908315150217905550600760003373ffffffffffffffffffffffffffffffffffffffff1673ffffffffffffffffffffffffffffffffffffffff16815260200190815260200160002054600a600084815260200190815260200160002060008282546118179190612eb6565b9250508190555060006005546127106118309190612f19565b9050600d5481600a6000868152602001908152602001600020546118549190612f4a565b106119b35760046000848152602001908152602001600020600390805461187c9291906120de565b506000805b60038054905081101561197c57600381815481106118a2576118a1612cc8565b5b90600052602060002090600202016001015460076000600384815481106118cc576118cb612cc8565b5b906000526020600020906002020160000160009054906101000a900473ffffffffffffffffffffffffffffffffffffffff1673ffffffffffffffffffffffffffffffffffffffff1673ffffffffffffffffffffffffffffffffffffffff16815260200190815260200160002081905550600381815481106119505761194f612cc8565b5b9060005260206000209060020201600101548261196d9190612eb6565b91508080600101915050611881565b5080600581905550837fb6a5501d7808a7482fe3eb47da960be4323b04246b7f5045e66b02df40ddd6a060405160405180910390a2505b506119bc611df1565b5050565b60008060008060e01b90506000631626ba7e60e01b905060008060001b9050600160008781526020019081526020016000205490506000801b8114611a03578192505b828194509450505050915091565b60076020528060005260406000206000915090505481565b60046020528160005260406000208181548110611a4557600080fd5b9060005260206000209060020201600091509150508060000160009054906101000a900473ffffffffffffffffffffffffffffffffffffffff16908060010154905082565b6000808251905060008167ffffffffffffffff811115611aad57611aac612530565b5b604051908082528060200260200182016040528015611adb5781602001602082028036833780820191505090505b5090508390506000815111611b25576040517f08c379a0000000000000000000000000000000000000000000000000000000008152600401611b1c906133cb565b60405180910390fd5b5b600181511115611d0357600060028251611b4091906133eb565b60028351611b4e9190612f19565b611b589190612eb6565b67ffffffffffffffff811115611b7157611b70612530565b5b604051908082528060200260200182016040528015611b9f5781602001602082028036833780820191505090505b50905060005b8251811015611cf9578251600182611bbd9190612eb6565b1015611c5c57828181518110611bd657611bd5612cc8565b5b602002602001015183600183611bec9190612eb6565b81518110611bfd57611bfc612cc8565b5b6020026020010151604051602001611c1692919061341c565b6040516020818303038152906040528051906020012082600283611c3a9190612f19565b81518110611c4b57611c4a612cc8565b5b602002602001018181525050611ce5565b828181518110611c6f57611c6e612cc8565b5b6020026020010151838281518110611c8a57611c89612cc8565b5b6020026020010151604051602001611ca392919061341c565b6040516020818303038152906040528051906020012082600283611cc79190612f19565b81518110611cd857611cd7612cc8565b5b6020026020010181815250505b600281611cf29190612eb6565b9050611ba5565b5080915050611b26565b611d416040518060400160405280600b81526020017f4d65726b6c6520526f6f74000000000000000000000000000000000000000000815250611dfb565b611d6581600081518110611d5857611d57612cc8565b5b6020026020010151611f99565b80600081518110611d7957611d78612cc8565b5b602002602001015192505050919050565b60006a636f6e736f6c652e6c6f679050600080835160208501845afa505050565b600260005403611de7576040517f3ee5aeb500000000000000000000000000000000000000000000000000000000815260040160405180910390fd5b6002600081905550565b6001600081905550565b611e9181604051602401611e0f91906134b6565b6040516020818303038152906040527f41304fac000000000000000000000000000000000000000000000000000000007bffffffffffffffffffffffffffffffffffffffffffffffffffffffff19166020820180517bffffffffffffffffffffffffffffffffffffffffffffffffffffffff8381831617835250505050612032565b50565b60008060009050600086905060005b8551811015611f6c576000600288611ebb91906133eb565b03611f0a5781868281518110611ed457611ed3612cc8565b5b6020026020010151604051602001611eed92919061341c565b604051602081830303815290604052805190602001209150611f50565b858181518110611f1d57611f1c612cc8565b5b602002602001015182604051602001611f3792919061341c565b6040516020818303038152906040528051906020012091505b600287611f5d9190612f19565b96508080600101915050611ea3565b5080600160008681526020019081526020016000205403611f8c57600191505b8192505050949350505050565b61202f81604051602401611fad91906127bd565b6040516020818303038152906040527f27b7cf85000000000000000000000000000000000000000000000000000000007bffffffffffffffffffffffffffffffffffffffffffffffffffffffff19166020820180517bffffffffffffffffffffffffffffffffffffffffffffffffffffffff8381831617835250505050612032565b50565b61204981612041611d8a61204c565b63ffffffff16565b50565b612057819050919050565b61205f6134d8565b565b6040518060400160405280600073ffffffffffffffffffffffffffffffffffffffff168152602001600081525090565b8280548282559060005260206000209081019282156120cd579160200282015b828111156120cc5782518255916020019190600101906120b1565b5b5090506120da91906121a7565b5090565b8280548282559060005260206000209060020281019282156121965760005260206000209160020282015b828111156121955782826000820160009054906101000a900473ffffffffffffffffffffffffffffffffffffffff168160000160006101000a81548173ffffffffffffffffffffffffffffffffffffffff021916908373ffffffffffffffffffffffffffffffffffffffff16021790555060018201548160010155505091600201919060020190612109565b5b5090506121a391906121c4565b5090565b5b808211156121c05760008160009055506001016121a8565b5090565b5b8082111561220657600080820160006101000a81549073ffffffffffffffffffffffffffffffffffffffff02191690556001820160009055506002016121c5565b5090565b6000604051905090565b600080fd5b600080fd5b6000819050919050565b6122318161221e565b811461223c57600080fd5b50565b60008135905061224e81612228565b92915050565b60006020828403121561226a57612269612214565b5b60006122788482850161223f565b91505092915050565b60008115159050919050565b61229681612281565b82525050565b60006020820190506122b1600083018461228d565b92915050565b6000819050919050565b6122ca816122b7565b81146122d557600080fd5b50565b6000813590506122e7816122c1565b92915050565b60006020828403121561230357612302612214565b5b6000612311848285016122d8565b91505092915050565b600081519050919050565b600082825260208201905092915050565b6000819050602082019050919050565b61234f8161221e565b82525050565b60006123618383612346565b60208301905092915050565b6000602082019050919050565b60006123858261231a565b61238f8185612325565b935061239a83612336565b8060005b838110156123cb5781516123b28882612355565b97506123bd8361236d565b92505060018101905061239e565b5085935050505092915050565b60006040820190506123ed600083018561228d565b81810360208301526123ff818461237a565b90509392505050565b600073ffffffffffffffffffffffffffffffffffffffff82169050919050565b600061243382612408565b9050919050565b61244381612428565b82525050565b612452816122b7565b82525050565b600060408201905061246d600083018561243a565b61247a6020830184612449565b9392505050565b61248a81612428565b811461249557600080fd5b50565b6000813590506124a781612481565b92915050565b6000602082840312156124c3576124c2612214565b5b60006124d184828501612498565b91505092915050565b600080604083850312156124f1576124f0612214565b5b60006124ff8582860161223f565b9250506020612510858286016122d8565b9150509250929050565b600080fd5b6000601f19601f8301169050919050565b7f4e487b7100000000000000000000000000000000000000000000000000000000600052604160045260246000fd5b6125688261251f565b810181811067ffffffffffffffff8211171561258757612586612530565b5b80604052505050565b600061259a61220a565b90506125a6828261255f565b919050565b600067ffffffffffffffff8211156125c6576125c5612530565b5b602082029050602081019050919050565b600080fd5b60006125ef6125ea846125ab565b612590565b90508083825260208201905060208402830185811115612612576126116125d7565b5b835b8181101561263b57806126278882612498565b845260208401935050602081019050612614565b5050509392505050565b600082601f83011261265a5761265961251a565b5b813561266a8482602086016125dc565b91505092915050565b600067ffffffffffffffff82111561268e5761268d612530565b5b602082029050602081019050919050565b60006126b26126ad84612673565b612590565b905080838252602082019050602084028301858111156126d5576126d46125d7565b5b835b818110156126fe57806126ea88826122d8565b8452602084019350506020810190506126d7565b5050509392505050565b600082601f83011261271d5761271c61251a565b5b813561272d84826020860161269f565b91505092915050565b6000806040838503121561274d5761274c612214565b5b600083013567ffffffffffffffff81111561276b5761276a612219565b5b61277785828601612645565b925050602083013567ffffffffffffffff81111561279857612797612219565b5b6127a485828601612708565b9150509250929050565b6127b78161221e565b82525050565b60006020820190506127d260008301846127ae565b92915050565b600067ffffffffffffffff8211156127f3576127f2612530565b5b602082029050602081019050919050565b6000612817612812846127d8565b612590565b9050808382526020820190506020840283018581111561283a576128396125d7565b5b835b81811015612863578061284f888261223f565b84526020840193505060208101905061283c565b5050509392505050565b600082601f8301126128825761288161251a565b5b8135612892848260208601612804565b91505092915050565b6000806000606084860312156128b4576128b3612214565b5b60006128c2868287016122d8565b935050602084013567ffffffffffffffff8111156128e3576128e2612219565b5b6128ef8682870161286d565b925050604061290086828701612498565b9150509250925092565b600067ffffffffffffffff82111561292557612924612530565b5b602082029050602081019050919050565b60006129496129448461290a565b612590565b9050808382526020820190506020840283018581111561296c5761296b6125d7565b5b835b818110156129b357803567ffffffffffffffff8111156129915761299061251a565b5b80860161299e898261286d565b8552602085019450505060208101905061296e565b5050509392505050565b600082601f8301126129d2576129d161251a565b5b81356129e2848260208601612936565b91505092915050565b600080600080600060a08688031215612a0757612a06612214565b5b600086013567ffffffffffffffff811115612a2557612a24612219565b5b612a318882890161286d565b955050602086013567ffffffffffffffff811115612a5257612a51612219565b5b612a5e88828901612708565b945050604086013567ffffffffffffffff811115612a7f57612a7e612219565b5b612a8b888289016129bd565b935050606086013567ffffffffffffffff811115612aac57612aab612219565b5b612ab888828901612708565b9250506080612ac988828901612498565b9150509295509295909350565b60007fffffffff0000000000000000000000000000000000000000000000000000000082169050919050565b612b0b81612ad6565b82525050565b6000604082019050612b266000830185612b02565b612b3360208301846127ae565b9392505050565b6000602082019050612b4f6000830184612449565b92915050565b600060208284031215612b6b57612b6a612214565b5b600082013567ffffffffffffffff811115612b8957612b88612219565b5b612b958482850161286d565b91505092915050565b600082825260208201905092915050565b7f56616c7565206973206e6f74207468652065786163742076616c756520666f7260008201527f20746865205365727669636520746f20636f6e6669726d205478206279204d6560208201527f726b6c6520436f6e747261637400000000000000000000000000000000000000604082015250565b6000612c31604d83612b9e565b9150612c3c82612baf565b606082019050919050565b60006020820190508181036000830152612c6081612c24565b9050919050565b600081905092915050565b50565b6000612c82600083612c67565b9150612c8d82612c72565b600082019050919050565b6000612ca382612c75565b9150819050919050565b6000602082019050612cc2600083018461243a565b92915050565b7f4e487b7100000000000000000000000000000000000000000000000000000000600052603260045260246000fd5b7f556e617574686f72697a65643a204f6e6c79206f776e65722063616e2070657260008201527f666f726d207468697320616374696f6e00000000000000000000000000000000602082015250565b6000612d53603083612b9e565b9150612d5e82612cf7565b604082019050919050565b60006020820190508181036000830152612d8281612d46565b9050919050565b7f417070726f76657220616c726561647920766f74656400000000000000000000600082015250565b6000612dbf601683612b9e565b9150612dca82612d89565b602082019050919050565b60006020820190508181036000830152612dee81612db2565b9050919050565b7f4d65726b6c65204861736820666f72207468697320626c6f636b20697320616c60008201527f7265616479207772697474656e00000000000000000000000000000000000000602082015250565b6000612e51602d83612b9e565b9150612e5c82612df5565b604082019050919050565b60006020820190508181036000830152612e8081612e44565b9050919050565b7f4e487b7100000000000000000000000000000000000000000000000000000000600052601160045260246000fd5b6000612ec1826122b7565b9150612ecc836122b7565b9250828201905080821115612ee457612ee3612e87565b5b92915050565b7f4e487b7100000000000000000000000000000000000000000000000000000000600052601260045260246000fd5b6000612f24826122b7565b9150612f2f836122b7565b925082612f3f57612f3e612eea565b5b828204905092915050565b6000612f55826122b7565b9150612f60836122b7565b9250828202612f6e816122b7565b91508282048414831517612f8557612f84612e87565b5b5092915050565b7f4164647265737320616e642057656967687420617265206e6f7420746865207360008201527f616d652073697a65000000000000000000000000000000000000000000000000602082015250565b6000612fe8602883612b9e565b9150612ff382612f8c565b604082019050919050565b6000602082019050818103600083015261301781612fdb565b9050919050565b6000819050919050565b6130396130348261221e565b61301e565b82525050565b60008160601b9050919050565b60006130578261303f565b9050919050565b60006130698261304c565b9050919050565b61308161307c82612428565b61305e565b82525050565b6000819050919050565b6130a261309d826122b7565b613087565b82525050565b60006130b48286613028565b6020820191506130c48285613070565b6014820191506130d48284613091565b602082019150819050949350505050565b600081519050919050565b600081905092915050565b6000819050602082019050919050565b613114816122b7565b82525050565b6000613126838361310b565b60208301905092915050565b6000602082019050919050565b600061314a826130e5565b61315481856130f0565b935061315f836130fb565b8060005b83811015613190578151613177888261311a565b975061318283613132565b925050600181019050613163565b5085935050505092915050565b60006131a9828461313f565b915081905092915050565b600081519050919050565b600081905092915050565b6000819050602082019050919050565b6131e381612428565b82525050565b60006131f583836131da565b60208301905092915050565b6000602082019050919050565b6000613219826131b4565b61322381856131bf565b935061322e836131ca565b8060005b8381101561325f57815161324688826131e9565b975061325183613201565b925050600181019050613232565b5085935050505092915050565b6000613278828461320e565b915081905092915050565b7f5472616e73616374696f6e7320616c72656164792076616c696461746564206660008201527f6f72207468697320616c69656e20626c6f636b00000000000000000000000000602082015250565b60006132df603383612b9e565b91506132ea82613283565b604082019050919050565b6000602082019050818103600083015261330e816132d2565b9050919050565b6000602082019050818103600083015261332f818461237a565b905092915050565b6000613342826122b7565b91507fffffffffffffffffffffffffffffffffffffffffffffffffffffffffffffffff820361337457613373612e87565b5b600182019050919050565b7f4e6f206461746120746f20637265617465204d65726b6c652074726565000000600082015250565b60006133b5601d83612b9e565b91506133c08261337f565b602082019050919050565b600060208201905081810360008301526133e4816133a8565b9050919050565b60006133f6826122b7565b9150613401836122b7565b92508261341157613410612eea565b5b828206905092915050565b60006134288285613028565b6020820191506134388284613028565b6020820191508190509392505050565b600081519050919050565b60005b83811015613471578082015181840152602081019050613456565b60008484015250505050565b600061348882613448565b6134928185612b9e565b93506134a2818560208601613453565b6134ab8161251f565b840191505092915050565b600060208201905081810360008301526134d0818461347d565b905092915050565b7f4e487b7100000000000000000000000000000000000000000000000000000000600052605160045260246000fdfe436f6e73656e73757320616368696576656420666f72204d65726b6c6520526f6f74a264697066735822122016c37e22fcc19218d82a6ed8d6b3f60f6b09c588b14a93264735fdde4e41f40264736f6c63430008180033404040204d65726b6c6520436f6e7472616374204465706c6f796564202d2043757272656e742057656967687420",
  "linkReferences": {},
  "deployedLinkReferences": {}
}